{
	"contracts/tokenia.sol": {
		"DataTokenization": {
			"abi": [
				{
					"anonymous": false,
					"inputs": [
						{
							"indexed": true,
							"internalType": "uint256",
							"name": "datasetId",
							"type": "uint256"
						},
						{
							"indexed": true,
							"internalType": "address",
							"name": "buyer",
							"type": "address"
						},
						{
							"indexed": false,
							"internalType": "uint256",
							"name": "timestamp",
							"type": "uint256"
						}
					],
					"name": "TokenPurchase",
					"type": "event"
				},
				{
					"anonymous": false,
					"inputs": [
						{
							"indexed": true,
							"internalType": "uint256",
							"name": "datasetId",
							"type": "uint256"
						},
						{
							"indexed": true,
							"internalType": "address",
							"name": "from",
							"type": "address"
						},
						{
							"indexed": true,
							"internalType": "address",
							"name": "to",
							"type": "address"
						},
						{
							"indexed": false,
							"internalType": "uint256",
							"name": "timestamp",
							"type": "uint256"
						}
					],
					"name": "TokenTransfer",
					"type": "event"
				},
				{
					"inputs": [
						{
							"internalType": "address",
							"name": "",
							"type": "address"
						},
						{
							"internalType": "uint256",
							"name": "",
							"type": "uint256"
						}
					],
					"name": "access",
					"outputs": [
						{
							"internalType": "bool",
							"name": "",
							"type": "bool"
						}
					],
					"stateMutability": "view",
					"type": "function"
				},
				{
					"inputs": [
						{
							"internalType": "uint256",
							"name": "",
							"type": "uint256"
						},
						{
							"internalType": "uint256",
							"name": "",
							"type": "uint256"
						}
					],
					"name": "accessHistory",
					"outputs": [
						{
							"internalType": "address",
							"name": "",
							"type": "address"
						}
					],
					"stateMutability": "view",
					"type": "function"
				},
				{
					"inputs": [
						{
							"internalType": "uint256",
							"name": "_datasetId",
							"type": "uint256"
						}
					],
					"name": "buyAccess",
					"outputs": [],
					"stateMutability": "payable",
					"type": "function"
				},
				{
					"inputs": [],
					"name": "datasetCount",
					"outputs": [
						{
							"internalType": "uint256",
							"name": "",
							"type": "uint256"
						}
					],
					"stateMutability": "view",
					"type": "function"
				},
				{
					"inputs": [
						{
							"internalType": "uint256",
							"name": "",
							"type": "uint256"
						}
					],
					"name": "datasets",
					"outputs": [
						{
							"internalType": "string",
							"name": "name",
							"type": "string"
						},
						{
							"internalType": "string",
							"name": "description",
							"type": "string"
						},
						{
							"internalType": "uint256",
							"name": "price",
							"type": "uint256"
						},
						{
							"internalType": "address",
							"name": "owner",
							"type": "address"
						},
						{
							"internalType": "bytes32",
							"name": "encryptedHash",
							"type": "bytes32"
						},
						{
							"internalType": "uint256",
							"name": "expiryTime",
							"type": "uint256"
						}
					],
					"stateMutability": "view",
					"type": "function"
				},
				{
					"inputs": [
						{
							"internalType": "uint256",
							"name": "_datasetId",
							"type": "uint256"
						}
					],
					"name": "getAccessHistory",
					"outputs": [
						{
							"internalType": "address[]",
							"name": "",
							"type": "address[]"
						}
					],
					"stateMutability": "view",
					"type": "function"
				},
				{
					"inputs": [
						{
							"internalType": "uint256",
							"name": "_datasetId",
							"type": "uint256"
						}
					],
					"name": "getEncryptedHash",
					"outputs": [
						{
							"internalType": "bytes32",
							"name": "",
							"type": "bytes32"
						}
					],
					"stateMutability": "view",
					"type": "function"
				},
				{
					"inputs": [
						{
							"internalType": "uint256",
							"name": "_datasetId",
							"type": "uint256"
						}
					],
					"name": "hasAccess",
					"outputs": [
						{
							"internalType": "bool",
							"name": "",
							"type": "bool"
						}
					],
					"stateMutability": "view",
					"type": "function"
				},
				{
					"inputs": [
						{
							"internalType": "string",
							"name": "_name",
							"type": "string"
						},
						{
							"internalType": "string",
							"name": "_description",
							"type": "string"
						},
						{
							"internalType": "uint256",
							"name": "_price",
							"type": "uint256"
						},
						{
							"internalType": "bytes32",
							"name": "_encryptedHash",
							"type": "bytes32"
						},
						{
							"internalType": "uint256",
							"name": "_expiryTime",
							"type": "uint256"
						}
					],
					"name": "registerDataset",
					"outputs": [],
					"stateMutability": "nonpayable",
					"type": "function"
				},
				{
					"inputs": [
						{
							"internalType": "uint256",
							"name": "_datasetId",
							"type": "uint256"
						},
						{
							"internalType": "address",
							"name": "_newOwner",
							"type": "address"
						}
					],
					"name": "transferAccess",
					"outputs": [],
					"stateMutability": "payable",
					"type": "function"
				}
			],
			"devdoc": {
				"kind": "dev",
				"methods": {},
				"version": 1
			},
			"evm": {
				"assembly": "    /* \"contracts/tokenia.sol\":60:3877  contract DataTokenization {... */\n  mstore(0x40, 0x80)\n  callvalue\n  dup1\n  iszero\n  tag_1\n  jumpi\n  0x00\n  dup1\n  revert\ntag_1:\n  pop\n  dataSize(sub_0)\n  dup1\n  dataOffset(sub_0)\n  0x00\n  codecopy\n  0x00\n  return\nstop\n\nsub_0: assembly {\n        /* \"contracts/tokenia.sol\":60:3877  contract DataTokenization {... */\n      mstore(0x40, 0x80)\n      jumpi(tag_1, lt(calldatasize, 0x04))\n      shr(0xe0, calldataload(0x00))\n      dup1\n      0x7449be0d\n      gt\n      tag_12\n      jumpi\n      dup1\n      0x7449be0d\n      eq\n      tag_7\n      jumpi\n      dup1\n      0xc013f8c7\n      eq\n      tag_8\n      jumpi\n      dup1\n      0xe3c40e1a\n      eq\n      tag_9\n      jumpi\n      dup1\n      0xf2cec6ee\n      eq\n      tag_10\n      jumpi\n      dup1\n      0xf581fb68\n      eq\n      tag_11\n      jumpi\n      jump(tag_1)\n    tag_12:\n      dup1\n      0x1cff85e1\n      eq\n      tag_2\n      jumpi\n      dup1\n      0x3132ddfe\n      eq\n      tag_3\n      jumpi\n      dup1\n      0x38d7e815\n      eq\n      tag_4\n      jumpi\n      dup1\n      0x3c8935b9\n      eq\n      tag_5\n      jumpi\n      dup1\n      0x50a1a264\n      eq\n      tag_6\n      jumpi\n    tag_1:\n      0x00\n      dup1\n      revert\n        /* \"contracts/tokenia.sol\":365:408  mapping(uint256 => Dataset) public datasets */\n    tag_2:\n      callvalue\n      dup1\n      iszero\n      tag_13\n      jumpi\n      0x00\n      dup1\n      revert\n    tag_13:\n      pop\n      tag_14\n      0x04\n      dup1\n      calldatasize\n      sub\n      dup2\n      add\n      swap1\n      tag_15\n      swap2\n      swap1\n      tag_16\n      jump\t// in\n    tag_15:\n      tag_17\n      jump\t// in\n    tag_14:\n      mload(0x40)\n      tag_18\n      swap7\n      swap6\n      swap5\n      swap4\n      swap3\n      swap2\n      swap1\n      tag_19\n      jump\t// in\n    tag_18:\n      mload(0x40)\n      dup1\n      swap2\n      sub\n      swap1\n      return\n        /* \"contracts/tokenia.sol\":2155:2390  function hasAccess(uint256 _datasetId) public view returns (bool) {... */\n    tag_3:\n      callvalue\n      dup1\n      iszero\n      tag_20\n      jumpi\n      0x00\n      dup1\n      revert\n    tag_20:\n      pop\n      tag_21\n      0x04\n      dup1\n      calldatasize\n      sub\n      dup2\n      add\n      swap1\n      tag_22\n      swap2\n      swap1\n      tag_16\n      jump\t// in\n    tag_22:\n      tag_23\n      jump\t// in\n    tag_21:\n      mload(0x40)\n      tag_24\n      swap2\n      swap1\n      tag_25\n      jump\t// in\n    tag_24:\n      mload(0x40)\n      dup1\n      swap2\n      sub\n      swap1\n      return\n        /* \"contracts/tokenia.sol\":3631:3874  function getEncryptedHash(uint256 _datasetId) public view returns (bytes32) {... */\n    tag_4:\n      callvalue\n      dup1\n      iszero\n      tag_26\n      jumpi\n      0x00\n      dup1\n      revert\n    tag_26:\n      pop\n      tag_27\n      0x04\n      dup1\n      calldatasize\n      sub\n      dup2\n      add\n      swap1\n      tag_28\n      swap2\n      swap1\n      tag_16\n      jump\t// in\n    tag_28:\n      tag_29\n      jump\t// in\n    tag_27:\n      mload(0x40)\n      tag_30\n      swap2\n      swap1\n      tag_31\n      jump\t// in\n    tag_30:\n      mload(0x40)\n      dup1\n      swap2\n      sub\n      swap1\n      return\n        /* \"contracts/tokenia.sol\":594:621  uint256 public datasetCount */\n    tag_5:\n      callvalue\n      dup1\n      iszero\n      tag_32\n      jumpi\n      0x00\n      dup1\n      revert\n    tag_32:\n      pop\n      tag_33\n      tag_34\n      jump\t// in\n    tag_33:\n      mload(0x40)\n      tag_35\n      swap2\n      swap1\n      tag_36\n      jump\t// in\n    tag_35:\n      mload(0x40)\n      dup1\n      swap2\n      sub\n      swap1\n      return\n        /* \"contracts/tokenia.sol\":1344:2053  function buyAccess(uint256 _datasetId) public payable {... */\n    tag_6:\n      tag_37\n      0x04\n      dup1\n      calldatasize\n      sub\n      dup2\n      add\n      swap1\n      tag_38\n      swap2\n      swap1\n      tag_16\n      jump\t// in\n    tag_38:\n      tag_39\n      jump\t// in\n    tag_37:\n      stop\n        /* \"contracts/tokenia.sol\":2459:3335  function transferAccess(uint256 _datasetId, address _newOwner) public payable {... */\n    tag_7:\n      tag_40\n      0x04\n      dup1\n      calldatasize\n      sub\n      dup2\n      add\n      swap1\n      tag_41\n      swap2\n      swap1\n      tag_42\n      jump\t// in\n    tag_41:\n      tag_43\n      jump\t// in\n    tag_40:\n      stop\n        /* \"contracts/tokenia.sol\":895:1291  function registerDataset(... */\n    tag_8:\n      callvalue\n      dup1\n      iszero\n      tag_44\n      jumpi\n      0x00\n      dup1\n      revert\n    tag_44:\n      pop\n      tag_45\n      0x04\n      dup1\n      calldatasize\n      sub\n      dup2\n      add\n      swap1\n      tag_46\n      swap2\n      swap1\n      tag_47\n      jump\t// in\n    tag_46:\n      tag_48\n      jump\t// in\n    tag_45:\n      stop\n        /* \"contracts/tokenia.sol\":480:530  mapping(uint256 => address[]) public accessHistory */\n    tag_9:\n      callvalue\n      dup1\n      iszero\n      tag_49\n      jumpi\n      0x00\n      dup1\n      revert\n    tag_49:\n      pop\n      tag_50\n      0x04\n      dup1\n      calldatasize\n      sub\n      dup2\n      add\n      swap1\n      tag_51\n      swap2\n      swap1\n      tag_52\n      jump\t// in\n    tag_51:\n      tag_53\n      jump\t// in\n    tag_50:\n      mload(0x40)\n      tag_54\n      swap2\n      swap1\n      tag_55\n      jump\t// in\n    tag_54:\n      mload(0x40)\n      dup1\n      swap2\n      sub\n      swap1\n      return\n        /* \"contracts/tokenia.sol\":3405:3541  function getAccessHistory(uint256 _datasetId) public view returns (address[] memory) {... */\n    tag_10:\n      callvalue\n      dup1\n      iszero\n      tag_56\n      jumpi\n      0x00\n      dup1\n      revert\n    tag_56:\n      pop\n      tag_57\n      0x04\n      dup1\n      calldatasize\n      sub\n      dup2\n      add\n      swap1\n      tag_58\n      swap2\n      swap1\n      tag_16\n      jump\t// in\n    tag_58:\n      tag_59\n      jump\t// in\n    tag_57:\n      mload(0x40)\n      tag_60\n      swap2\n      swap1\n      tag_61\n      jump\t// in\n    tag_60:\n      mload(0x40)\n      dup1\n      swap2\n      sub\n      swap1\n      return\n        /* \"contracts/tokenia.sol\":415:473  mapping(address => mapping(uint256 => bool)) public access */\n    tag_11:\n      callvalue\n      dup1\n      iszero\n      tag_62\n      jumpi\n      0x00\n      dup1\n      revert\n    tag_62:\n      pop\n      tag_63\n      0x04\n      dup1\n      calldatasize\n      sub\n      dup2\n      add\n      swap1\n      tag_64\n      swap2\n      swap1\n      tag_65\n      jump\t// in\n    tag_64:\n      tag_66\n      jump\t// in\n    tag_63:\n      mload(0x40)\n      tag_67\n      swap2\n      swap1\n      tag_25\n      jump\t// in\n    tag_67:\n      mload(0x40)\n      dup1\n      swap2\n      sub\n      swap1\n      return\n        /* \"contracts/tokenia.sol\":365:408  mapping(uint256 => Dataset) public datasets */\n    tag_17:\n      mstore(0x20, 0x00)\n      dup1\n      0x00\n      mstore\n      keccak256(0x00, 0x40)\n      0x00\n      swap2\n      pop\n      swap1\n      pop\n      dup1\n      0x00\n      add\n      dup1\n      sload\n      tag_68\n      swap1\n      tag_69\n      jump\t// in\n    tag_68:\n      dup1\n      0x1f\n      add\n      0x20\n      dup1\n      swap2\n      div\n      mul\n      0x20\n      add\n      mload(0x40)\n      swap1\n      dup2\n      add\n      0x40\n      mstore\n      dup1\n      swap3\n      swap2\n      swap1\n      dup2\n      dup2\n      mstore\n      0x20\n      add\n      dup3\n      dup1\n      sload\n      tag_70\n      swap1\n      tag_69\n      jump\t// in\n    tag_70:\n      dup1\n      iszero\n      tag_71\n      jumpi\n      dup1\n      0x1f\n      lt\n      tag_72\n      jumpi\n      0x0100\n      dup1\n      dup4\n      sload\n      div\n      mul\n      dup4\n      mstore\n      swap2\n      0x20\n      add\n      swap2\n      jump(tag_71)\n    tag_72:\n      dup3\n      add\n      swap2\n      swap1\n      0x00\n      mstore\n      keccak256(0x00, 0x20)\n      swap1\n    tag_73:\n      dup2\n      sload\n      dup2\n      mstore\n      swap1\n      0x01\n      add\n      swap1\n      0x20\n      add\n      dup1\n      dup4\n      gt\n      tag_73\n      jumpi\n      dup3\n      swap1\n      sub\n      0x1f\n      and\n      dup3\n      add\n      swap2\n    tag_71:\n      pop\n      pop\n      pop\n      pop\n      pop\n      swap1\n      dup1\n      0x01\n      add\n      dup1\n      sload\n      tag_74\n      swap1\n      tag_69\n      jump\t// in\n    tag_74:\n      dup1\n      0x1f\n      add\n      0x20\n      dup1\n      swap2\n      div\n      mul\n      0x20\n      add\n      mload(0x40)\n      swap1\n      dup2\n      add\n      0x40\n      mstore\n      dup1\n      swap3\n      swap2\n      swap1\n      dup2\n      dup2\n      mstore\n      0x20\n      add\n      dup3\n      dup1\n      sload\n      tag_75\n      swap1\n      tag_69\n      jump\t// in\n    tag_75:\n      dup1\n      iszero\n      tag_76\n      jumpi\n      dup1\n      0x1f\n      lt\n      tag_77\n      jumpi\n      0x0100\n      dup1\n      dup4\n      sload\n      div\n      mul\n      dup4\n      mstore\n      swap2\n      0x20\n      add\n      swap2\n      jump(tag_76)\n    tag_77:\n      dup3\n      add\n      swap2\n      swap1\n      0x00\n      mstore\n      keccak256(0x00, 0x20)\n      swap1\n    tag_78:\n      dup2\n      sload\n      dup2\n      mstore\n      swap1\n      0x01\n      add\n      swap1\n      0x20\n      add\n      dup1\n      dup4\n      gt\n      tag_78\n      jumpi\n      dup3\n      swap1\n      sub\n      0x1f\n      and\n      dup3\n      add\n      swap2\n    tag_76:\n      pop\n      pop\n      pop\n      pop\n      pop\n      swap1\n      dup1\n      0x02\n      add\n      sload\n      swap1\n      dup1\n      0x03\n      add\n      0x00\n      swap1\n      sload\n      swap1\n      0x0100\n      exp\n      swap1\n      div\n      0xffffffffffffffffffffffffffffffffffffffff\n      and\n      swap1\n      dup1\n      0x04\n      add\n      sload\n      swap1\n      dup1\n      0x05\n      add\n      sload\n      swap1\n      pop\n      dup7\n      jump\t// out\n        /* \"contracts/tokenia.sol\":2155:2390  function hasAccess(uint256 _datasetId) public view returns (bool) {... */\n    tag_23:\n        /* \"contracts/tokenia.sol\":2215:2219  bool */\n      0x00\n        /* \"contracts/tokenia.sol\":2236:2242  access */\n      0x01\n        /* \"contracts/tokenia.sol\":2236:2254  access[msg.sender] */\n      0x00\n        /* \"contracts/tokenia.sol\":2243:2253  msg.sender */\n      caller\n        /* \"contracts/tokenia.sol\":2236:2254  access[msg.sender] */\n      0xffffffffffffffffffffffffffffffffffffffff\n      and\n      0xffffffffffffffffffffffffffffffffffffffff\n      and\n      dup2\n      mstore\n      0x20\n      add\n      swap1\n      dup2\n      mstore\n      0x20\n      add\n      0x00\n      keccak256\n        /* \"contracts/tokenia.sol\":2236:2266  access[msg.sender][_datasetId] */\n      0x00\n        /* \"contracts/tokenia.sol\":2255:2265  _datasetId */\n      dup4\n        /* \"contracts/tokenia.sol\":2236:2266  access[msg.sender][_datasetId] */\n      dup2\n      mstore\n      0x20\n      add\n      swap1\n      dup2\n      mstore\n      0x20\n      add\n      0x00\n      keccak256\n      0x00\n      swap1\n      sload\n      swap1\n      0x0100\n      exp\n      swap1\n      div\n      0xff\n      and\n        /* \"contracts/tokenia.sol\":2236:2320  access[msg.sender][_datasetId] && block.timestamp <= datasets[_datasetId].expiryTime */\n      dup1\n      iszero\n      tag_80\n      jumpi\n      pop\n        /* \"contracts/tokenia.sol\":2289:2297  datasets */\n      0x00\n        /* \"contracts/tokenia.sol\":2289:2309  datasets[_datasetId] */\n      dup1\n        /* \"contracts/tokenia.sol\":2298:2308  _datasetId */\n      dup4\n        /* \"contracts/tokenia.sol\":2289:2309  datasets[_datasetId] */\n      dup2\n      mstore\n      0x20\n      add\n      swap1\n      dup2\n      mstore\n      0x20\n      add\n      0x00\n      keccak256\n        /* \"contracts/tokenia.sol\":2289:2320  datasets[_datasetId].expiryTime */\n      0x05\n      add\n      sload\n        /* \"contracts/tokenia.sol\":2270:2285  block.timestamp */\n      timestamp\n        /* \"contracts/tokenia.sol\":2270:2320  block.timestamp <= datasets[_datasetId].expiryTime */\n      gt\n      iszero\n        /* \"contracts/tokenia.sol\":2236:2320  access[msg.sender][_datasetId] && block.timestamp <= datasets[_datasetId].expiryTime */\n    tag_80:\n        /* \"contracts/tokenia.sol\":2232:2360  if (access[msg.sender][_datasetId] && block.timestamp <= datasets[_datasetId].expiryTime) {... */\n      iszero\n      tag_81\n      jumpi\n        /* \"contracts/tokenia.sol\":2344:2348  true */\n      0x01\n        /* \"contracts/tokenia.sol\":2337:2348  return true */\n      swap1\n      pop\n      jump(tag_79)\n        /* \"contracts/tokenia.sol\":2232:2360  if (access[msg.sender][_datasetId] && block.timestamp <= datasets[_datasetId].expiryTime) {... */\n    tag_81:\n        /* \"contracts/tokenia.sol\":2377:2382  false */\n      0x00\n        /* \"contracts/tokenia.sol\":2370:2382  return false */\n      swap1\n      pop\n        /* \"contracts/tokenia.sol\":2155:2390  function hasAccess(uint256 _datasetId) public view returns (bool) {... */\n    tag_79:\n      swap2\n      swap1\n      pop\n      jump\t// out\n        /* \"contracts/tokenia.sol\":3631:3874  function getEncryptedHash(uint256 _datasetId) public view returns (bytes32) {... */\n    tag_29:\n        /* \"contracts/tokenia.sol\":3698:3705  bytes32 */\n      0x00\n        /* \"contracts/tokenia.sol\":3726:3747  hasAccess(_datasetId) */\n      tag_83\n        /* \"contracts/tokenia.sol\":3736:3746  _datasetId */\n      dup3\n        /* \"contracts/tokenia.sol\":3726:3735  hasAccess */\n      tag_23\n        /* \"contracts/tokenia.sol\":3726:3747  hasAccess(_datasetId) */\n      jump\t// in\n    tag_83:\n        /* \"contracts/tokenia.sol\":3718:3814  require(hasAccess(_datasetId), \"Acesso negado. Voce nao possui permissao para ver esses dados.\") */\n      tag_84\n      jumpi\n      mload(0x40)\n      0x08c379a000000000000000000000000000000000000000000000000000000000\n      dup2\n      mstore\n      0x04\n      add\n      tag_85\n      swap1\n      tag_86\n      jump\t// in\n    tag_85:\n      mload(0x40)\n      dup1\n      swap2\n      sub\n      swap1\n      revert\n    tag_84:\n        /* \"contracts/tokenia.sol\":3832:3840  datasets */\n      0x00\n        /* \"contracts/tokenia.sol\":3832:3852  datasets[_datasetId] */\n      dup1\n        /* \"contracts/tokenia.sol\":3841:3851  _datasetId */\n      dup4\n        /* \"contracts/tokenia.sol\":3832:3852  datasets[_datasetId] */\n      dup2\n      mstore\n      0x20\n      add\n      swap1\n      dup2\n      mstore\n      0x20\n      add\n      0x00\n      keccak256\n        /* \"contracts/tokenia.sol\":3832:3866  datasets[_datasetId].encryptedHash */\n      0x04\n      add\n      sload\n        /* \"contracts/tokenia.sol\":3825:3866  return datasets[_datasetId].encryptedHash */\n      swap1\n      pop\n        /* \"contracts/tokenia.sol\":3631:3874  function getEncryptedHash(uint256 _datasetId) public view returns (bytes32) {... */\n      swap2\n      swap1\n      pop\n      jump\t// out\n        /* \"contracts/tokenia.sol\":594:621  uint256 public datasetCount */\n    tag_34:\n      sload(0x03)\n      dup2\n      jump\t// out\n        /* \"contracts/tokenia.sol\":1344:2053  function buyAccess(uint256 _datasetId) public payable {... */\n    tag_39:\n        /* \"contracts/tokenia.sol\":1471:1472  0 */\n      0x00\n        /* \"contracts/tokenia.sol\":1458:1468  _datasetId */\n      dup2\n        /* \"contracts/tokenia.sol\":1458:1472  _datasetId > 0 */\n      gt\n        /* \"contracts/tokenia.sol\":1458:1502  _datasetId > 0 && _datasetId <= datasetCount */\n      dup1\n      iszero\n      tag_88\n      jumpi\n      pop\n        /* \"contracts/tokenia.sol\":1490:1502  datasetCount */\n      sload(0x03)\n        /* \"contracts/tokenia.sol\":1476:1486  _datasetId */\n      dup2\n        /* \"contracts/tokenia.sol\":1476:1502  _datasetId <= datasetCount */\n      gt\n      iszero\n        /* \"contracts/tokenia.sol\":1458:1502  _datasetId > 0 && _datasetId <= datasetCount */\n    tag_88:\n        /* \"contracts/tokenia.sol\":1450:1538  require(_datasetId > 0 && _datasetId <= datasetCount, \"Dataset especificado nao existe\") */\n      tag_89\n      jumpi\n      mload(0x40)\n      0x08c379a000000000000000000000000000000000000000000000000000000000\n      dup2\n      mstore\n      0x04\n      add\n      tag_90\n      swap1\n      tag_91\n      jump\t// in\n    tag_90:\n      mload(0x40)\n      dup1\n      swap2\n      sub\n      swap1\n      revert\n    tag_89:\n        /* \"contracts/tokenia.sol\":1551:1574  Dataset storage dataset */\n      0x00\n        /* \"contracts/tokenia.sol\":1577:1585  datasets */\n      dup1\n        /* \"contracts/tokenia.sol\":1577:1597  datasets[_datasetId] */\n      0x00\n        /* \"contracts/tokenia.sol\":1586:1596  _datasetId */\n      dup4\n        /* \"contracts/tokenia.sol\":1577:1597  datasets[_datasetId] */\n      dup2\n      mstore\n      0x20\n      add\n      swap1\n      dup2\n      mstore\n      0x20\n      add\n      0x00\n      keccak256\n        /* \"contracts/tokenia.sol\":1551:1597  Dataset storage dataset = datasets[_datasetId] */\n      swap1\n      pop\n        /* \"contracts/tokenia.sol\":1629:1636  dataset */\n      dup1\n        /* \"contracts/tokenia.sol\":1629:1642  dataset.price */\n      0x02\n      add\n      sload\n        /* \"contracts/tokenia.sol\":1616:1625  msg.value */\n      callvalue\n        /* \"contracts/tokenia.sol\":1616:1642  msg.value == dataset.price */\n      eq\n        /* \"contracts/tokenia.sol\":1608:1674  require(msg.value == dataset.price, \"Valor incorreto para compra\") */\n      tag_92\n      jumpi\n      mload(0x40)\n      0x08c379a000000000000000000000000000000000000000000000000000000000\n      dup2\n      mstore\n      0x04\n      add\n      tag_93\n      swap1\n      tag_94\n      jump\t// in\n    tag_93:\n      mload(0x40)\n      dup1\n      swap2\n      sub\n      swap1\n      revert\n    tag_92:\n        /* \"contracts/tokenia.sol\":1784:1788  true */\n      0x01\n        /* \"contracts/tokenia.sol\":1751:1757  access */\n      dup1\n        /* \"contracts/tokenia.sol\":1751:1769  access[msg.sender] */\n      0x00\n        /* \"contracts/tokenia.sol\":1758:1768  msg.sender */\n      caller\n        /* \"contracts/tokenia.sol\":1751:1769  access[msg.sender] */\n      0xffffffffffffffffffffffffffffffffffffffff\n      and\n      0xffffffffffffffffffffffffffffffffffffffff\n      and\n      dup2\n      mstore\n      0x20\n      add\n      swap1\n      dup2\n      mstore\n      0x20\n      add\n      0x00\n      keccak256\n        /* \"contracts/tokenia.sol\":1751:1781  access[msg.sender][_datasetId] */\n      0x00\n        /* \"contracts/tokenia.sol\":1770:1780  _datasetId */\n      dup5\n        /* \"contracts/tokenia.sol\":1751:1781  access[msg.sender][_datasetId] */\n      dup2\n      mstore\n      0x20\n      add\n      swap1\n      dup2\n      mstore\n      0x20\n      add\n      0x00\n      keccak256\n      0x00\n        /* \"contracts/tokenia.sol\":1751:1788  access[msg.sender][_datasetId] = true */\n      0x0100\n      exp\n      dup2\n      sload\n      dup2\n      0xff\n      mul\n      not\n      and\n      swap1\n      dup4\n      iszero\n      iszero\n      mul\n      or\n      swap1\n      sstore\n      pop\n        /* \"contracts/tokenia.sol\":1799:1812  accessHistory */\n      0x02\n        /* \"contracts/tokenia.sol\":1799:1824  accessHistory[_datasetId] */\n      0x00\n        /* \"contracts/tokenia.sol\":1813:1823  _datasetId */\n      dup4\n        /* \"contracts/tokenia.sol\":1799:1824  accessHistory[_datasetId] */\n      dup2\n      mstore\n      0x20\n      add\n      swap1\n      dup2\n      mstore\n      0x20\n      add\n      0x00\n      keccak256\n        /* \"contracts/tokenia.sol\":1830:1840  msg.sender */\n      caller\n        /* \"contracts/tokenia.sol\":1799:1841  accessHistory[_datasetId].push(msg.sender) */\n      swap1\n      dup1\n      0x01\n      dup2\n      sload\n      add\n      dup1\n      dup3\n      sstore\n      dup1\n      swap2\n      pop\n      pop\n      0x01\n      swap1\n      sub\n      swap1\n      0x00\n      mstore\n      keccak256(0x00, 0x20)\n      add\n      0x00\n      swap1\n      swap2\n      swap1\n      swap2\n      swap1\n      swap2\n      0x0100\n      exp\n      dup2\n      sload\n      dup2\n      0xffffffffffffffffffffffffffffffffffffffff\n      mul\n      not\n      and\n      swap1\n      dup4\n      0xffffffffffffffffffffffffffffffffffffffff\n      and\n      mul\n      or\n      swap1\n      sstore\n      pop\n        /* \"contracts/tokenia.sol\":1941:1948  dataset */\n      dup1\n        /* \"contracts/tokenia.sol\":1941:1954  dataset.owner */\n      0x03\n      add\n      0x00\n      swap1\n      sload\n      swap1\n      0x0100\n      exp\n      swap1\n      div\n      0xffffffffffffffffffffffffffffffffffffffff\n      and\n        /* \"contracts/tokenia.sol\":1933:1964  payable(dataset.owner).transfer */\n      0xffffffffffffffffffffffffffffffffffffffff\n      and\n        /* \"contracts/tokenia.sol\":1933:1975  payable(dataset.owner).transfer(msg.value) */\n      0x08fc\n        /* \"contracts/tokenia.sol\":1965:1974  msg.value */\n      callvalue\n        /* \"contracts/tokenia.sol\":1933:1975  payable(dataset.owner).transfer(msg.value) */\n      swap1\n      dup2\n      iszero\n      mul\n      swap1\n      mload(0x40)\n      0x00\n      mload(0x40)\n      dup1\n      dup4\n      sub\n      dup2\n      dup6\n      dup9\n      dup9\n      call\n      swap4\n      pop\n      pop\n      pop\n      pop\n      iszero\n      dup1\n      iszero\n      tag_97\n      jumpi\n      returndatasize\n      0x00\n      dup1\n      returndatacopy\n      revert(0x00, returndatasize)\n    tag_97:\n      pop\n        /* \"contracts/tokenia.sol\":2017:2027  msg.sender */\n      caller\n        /* \"contracts/tokenia.sol\":1991:2045  TokenPurchase(_datasetId, msg.sender, block.timestamp) */\n      0xffffffffffffffffffffffffffffffffffffffff\n      and\n        /* \"contracts/tokenia.sol\":2005:2015  _datasetId */\n      dup3\n        /* \"contracts/tokenia.sol\":1991:2045  TokenPurchase(_datasetId, msg.sender, block.timestamp) */\n      0x709b48219c4b1cf38d85d4e8cf9befdeb3e2dc3f108255265283d92ca06001ed\n        /* \"contracts/tokenia.sol\":2029:2044  block.timestamp */\n      timestamp\n        /* \"contracts/tokenia.sol\":1991:2045  TokenPurchase(_datasetId, msg.sender, block.timestamp) */\n      mload(0x40)\n      tag_98\n      swap2\n      swap1\n      tag_36\n      jump\t// in\n    tag_98:\n      mload(0x40)\n      dup1\n      swap2\n      sub\n      swap1\n      log3\n        /* \"contracts/tokenia.sol\":1398:2053  {... */\n      pop\n        /* \"contracts/tokenia.sol\":1344:2053  function buyAccess(uint256 _datasetId) public payable {... */\n      pop\n      jump\t// out\n        /* \"contracts/tokenia.sol\":2459:3335  function transferAccess(uint256 _datasetId, address _newOwner) public payable {... */\n    tag_43:\n        /* \"contracts/tokenia.sol\":2556:2562  access */\n      0x01\n        /* \"contracts/tokenia.sol\":2556:2574  access[msg.sender] */\n      0x00\n        /* \"contracts/tokenia.sol\":2563:2573  msg.sender */\n      caller\n        /* \"contracts/tokenia.sol\":2556:2574  access[msg.sender] */\n      0xffffffffffffffffffffffffffffffffffffffff\n      and\n      0xffffffffffffffffffffffffffffffffffffffff\n      and\n      dup2\n      mstore\n      0x20\n      add\n      swap1\n      dup2\n      mstore\n      0x20\n      add\n      0x00\n      keccak256\n        /* \"contracts/tokenia.sol\":2556:2586  access[msg.sender][_datasetId] */\n      0x00\n        /* \"contracts/tokenia.sol\":2575:2585  _datasetId */\n      dup4\n        /* \"contracts/tokenia.sol\":2556:2586  access[msg.sender][_datasetId] */\n      dup2\n      mstore\n      0x20\n      add\n      swap1\n      dup2\n      mstore\n      0x20\n      add\n      0x00\n      keccak256\n      0x00\n      swap1\n      sload\n      swap1\n      0x0100\n      exp\n      swap1\n      div\n      0xff\n      and\n        /* \"contracts/tokenia.sol\":2548:2628  require(access[msg.sender][_datasetId], \"Voce nao possui acesso a este dataset\") */\n      tag_100\n      jumpi\n      mload(0x40)\n      0x08c379a000000000000000000000000000000000000000000000000000000000\n      dup2\n      mstore\n      0x04\n      add\n      tag_101\n      swap1\n      tag_102\n      jump\t// in\n    tag_101:\n      mload(0x40)\n      dup1\n      swap2\n      sub\n      swap1\n      revert\n    tag_100:\n        /* \"contracts/tokenia.sol\":2659:2660  0 */\n      0x00\n        /* \"contracts/tokenia.sol\":2647:2656  msg.value */\n      callvalue\n        /* \"contracts/tokenia.sol\":2647:2660  msg.value > 0 */\n      gt\n        /* \"contracts/tokenia.sol\":2639:2707  require(msg.value > 0, \"Valor para transferencia deve ser positivo\") */\n      tag_103\n      jumpi\n      mload(0x40)\n      0x08c379a000000000000000000000000000000000000000000000000000000000\n      dup2\n      mstore\n      0x04\n      add\n      tag_104\n      swap1\n      tag_105\n      jump\t// in\n    tag_104:\n      mload(0x40)\n      dup1\n      swap2\n      sub\n      swap1\n      revert\n    tag_103:\n        /* \"contracts/tokenia.sol\":2803:2818  uint256 royalty */\n      0x00\n        /* \"contracts/tokenia.sol\":2840:2843  100 */\n      0x64\n        /* \"contracts/tokenia.sol\":2834:2836  10 */\n      0x0a\n        /* \"contracts/tokenia.sol\":2822:2831  msg.value */\n      callvalue\n        /* \"contracts/tokenia.sol\":2822:2836  msg.value * 10 */\n      tag_106\n      swap2\n      swap1\n      tag_107\n      jump\t// in\n    tag_106:\n        /* \"contracts/tokenia.sol\":2821:2843  (msg.value * 10) / 100 */\n      tag_108\n      swap2\n      swap1\n      tag_109\n      jump\t// in\n    tag_108:\n        /* \"contracts/tokenia.sol\":2803:2843  uint256 royalty = (msg.value * 10) / 100 */\n      swap1\n      pop\n        /* \"contracts/tokenia.sol\":2862:2870  datasets */\n      0x00\n        /* \"contracts/tokenia.sol\":2862:2882  datasets[_datasetId] */\n      dup1\n        /* \"contracts/tokenia.sol\":2871:2881  _datasetId */\n      dup5\n        /* \"contracts/tokenia.sol\":2862:2882  datasets[_datasetId] */\n      dup2\n      mstore\n      0x20\n      add\n      swap1\n      dup2\n      mstore\n      0x20\n      add\n      0x00\n      keccak256\n        /* \"contracts/tokenia.sol\":2862:2888  datasets[_datasetId].owner */\n      0x03\n      add\n      0x00\n      swap1\n      sload\n      swap1\n      0x0100\n      exp\n      swap1\n      div\n      0xffffffffffffffffffffffffffffffffffffffff\n      and\n        /* \"contracts/tokenia.sol\":2854:2898  payable(datasets[_datasetId].owner).transfer */\n      0xffffffffffffffffffffffffffffffffffffffff\n      and\n        /* \"contracts/tokenia.sol\":2854:2907  payable(datasets[_datasetId].owner).transfer(royalty) */\n      0x08fc\n        /* \"contracts/tokenia.sol\":2899:2906  royalty */\n      dup3\n        /* \"contracts/tokenia.sol\":2854:2907  payable(datasets[_datasetId].owner).transfer(royalty) */\n      swap1\n      dup2\n      iszero\n      mul\n      swap1\n      mload(0x40)\n      0x00\n      mload(0x40)\n      dup1\n      dup4\n      sub\n      dup2\n      dup6\n      dup9\n      dup9\n      call\n      swap4\n      pop\n      pop\n      pop\n      pop\n      iszero\n      dup1\n      iszero\n      tag_111\n      jumpi\n      returndatasize\n      0x00\n      dup1\n      returndatacopy\n      revert(0x00, returndatasize)\n    tag_111:\n      pop\n        /* \"contracts/tokenia.sol\":2983:2993  msg.sender */\n      caller\n        /* \"contracts/tokenia.sol\":2975:3003  payable(msg.sender).transfer */\n      0xffffffffffffffffffffffffffffffffffffffff\n      and\n        /* \"contracts/tokenia.sol\":2975:3024  payable(msg.sender).transfer(msg.value - royalty) */\n      0x08fc\n        /* \"contracts/tokenia.sol\":3016:3023  royalty */\n      dup3\n        /* \"contracts/tokenia.sol\":3004:3013  msg.value */\n      callvalue\n        /* \"contracts/tokenia.sol\":3004:3023  msg.value - royalty */\n      tag_112\n      swap2\n      swap1\n      tag_113\n      jump\t// in\n    tag_112:\n        /* \"contracts/tokenia.sol\":2975:3024  payable(msg.sender).transfer(msg.value - royalty) */\n      swap1\n      dup2\n      iszero\n      mul\n      swap1\n      mload(0x40)\n      0x00\n      mload(0x40)\n      dup1\n      dup4\n      sub\n      dup2\n      dup6\n      dup9\n      dup9\n      call\n      swap4\n      pop\n      pop\n      pop\n      pop\n      iszero\n      dup1\n      iszero\n      tag_115\n      jumpi\n      returndatasize\n      0x00\n      dup1\n      returndatacopy\n      revert(0x00, returndatasize)\n    tag_115:\n      pop\n        /* \"contracts/tokenia.sol\":3140:3145  false */\n      0x00\n        /* \"contracts/tokenia.sol\":3107:3113  access */\n      0x01\n        /* \"contracts/tokenia.sol\":3107:3125  access[msg.sender] */\n      0x00\n        /* \"contracts/tokenia.sol\":3114:3124  msg.sender */\n      caller\n        /* \"contracts/tokenia.sol\":3107:3125  access[msg.sender] */\n      0xffffffffffffffffffffffffffffffffffffffff\n      and\n      0xffffffffffffffffffffffffffffffffffffffff\n      and\n      dup2\n      mstore\n      0x20\n      add\n      swap1\n      dup2\n      mstore\n      0x20\n      add\n      0x00\n      keccak256\n        /* \"contracts/tokenia.sol\":3107:3137  access[msg.sender][_datasetId] */\n      0x00\n        /* \"contracts/tokenia.sol\":3126:3136  _datasetId */\n      dup6\n        /* \"contracts/tokenia.sol\":3107:3137  access[msg.sender][_datasetId] */\n      dup2\n      mstore\n      0x20\n      add\n      swap1\n      dup2\n      mstore\n      0x20\n      add\n      0x00\n      keccak256\n      0x00\n        /* \"contracts/tokenia.sol\":3107:3145  access[msg.sender][_datasetId] = false */\n      0x0100\n      exp\n      dup2\n      sload\n      dup2\n      0xff\n      mul\n      not\n      and\n      swap1\n      dup4\n      iszero\n      iszero\n      mul\n      or\n      swap1\n      sstore\n      pop\n        /* \"contracts/tokenia.sol\":3188:3192  true */\n      0x01\n        /* \"contracts/tokenia.sol\":3156:3162  access */\n      dup1\n        /* \"contracts/tokenia.sol\":3156:3173  access[_newOwner] */\n      0x00\n        /* \"contracts/tokenia.sol\":3163:3172  _newOwner */\n      dup5\n        /* \"contracts/tokenia.sol\":3156:3173  access[_newOwner] */\n      0xffffffffffffffffffffffffffffffffffffffff\n      and\n      0xffffffffffffffffffffffffffffffffffffffff\n      and\n      dup2\n      mstore\n      0x20\n      add\n      swap1\n      dup2\n      mstore\n      0x20\n      add\n      0x00\n      keccak256\n        /* \"contracts/tokenia.sol\":3156:3185  access[_newOwner][_datasetId] */\n      0x00\n        /* \"contracts/tokenia.sol\":3174:3184  _datasetId */\n      dup6\n        /* \"contracts/tokenia.sol\":3156:3185  access[_newOwner][_datasetId] */\n      dup2\n      mstore\n      0x20\n      add\n      swap1\n      dup2\n      mstore\n      0x20\n      add\n      0x00\n      keccak256\n      0x00\n        /* \"contracts/tokenia.sol\":3156:3192  access[_newOwner][_datasetId] = true */\n      0x0100\n      exp\n      dup2\n      sload\n      dup2\n      0xff\n      mul\n      not\n      and\n      swap1\n      dup4\n      iszero\n      iszero\n      mul\n      or\n      swap1\n      sstore\n      pop\n        /* \"contracts/tokenia.sol\":3203:3216  accessHistory */\n      0x02\n        /* \"contracts/tokenia.sol\":3203:3228  accessHistory[_datasetId] */\n      0x00\n        /* \"contracts/tokenia.sol\":3217:3227  _datasetId */\n      dup5\n        /* \"contracts/tokenia.sol\":3203:3228  accessHistory[_datasetId] */\n      dup2\n      mstore\n      0x20\n      add\n      swap1\n      dup2\n      mstore\n      0x20\n      add\n      0x00\n      keccak256\n        /* \"contracts/tokenia.sol\":3234:3243  _newOwner */\n      dup3\n        /* \"contracts/tokenia.sol\":3203:3244  accessHistory[_datasetId].push(_newOwner) */\n      swap1\n      dup1\n      0x01\n      dup2\n      sload\n      add\n      dup1\n      dup3\n      sstore\n      dup1\n      swap2\n      pop\n      pop\n      0x01\n      swap1\n      sub\n      swap1\n      0x00\n      mstore\n      keccak256(0x00, 0x20)\n      add\n      0x00\n      swap1\n      swap2\n      swap1\n      swap2\n      swap1\n      swap2\n      0x0100\n      exp\n      dup2\n      sload\n      dup2\n      0xffffffffffffffffffffffffffffffffffffffff\n      mul\n      not\n      and\n      swap1\n      dup4\n      0xffffffffffffffffffffffffffffffffffffffff\n      and\n      mul\n      or\n      swap1\n      sstore\n      pop\n        /* \"contracts/tokenia.sol\":3300:3309  _newOwner */\n      dup2\n        /* \"contracts/tokenia.sol\":3262:3327  TokenTransfer(_datasetId, msg.sender, _newOwner, block.timestamp) */\n      0xffffffffffffffffffffffffffffffffffffffff\n      and\n        /* \"contracts/tokenia.sol\":3288:3298  msg.sender */\n      caller\n        /* \"contracts/tokenia.sol\":3262:3327  TokenTransfer(_datasetId, msg.sender, _newOwner, block.timestamp) */\n      0xffffffffffffffffffffffffffffffffffffffff\n      and\n        /* \"contracts/tokenia.sol\":3276:3286  _datasetId */\n      dup5\n        /* \"contracts/tokenia.sol\":3262:3327  TokenTransfer(_datasetId, msg.sender, _newOwner, block.timestamp) */\n      0xe8f5c36eb366edf2f2f54b79965ebe7409d803e703c3f5dd5760368ef85d3059\n        /* \"contracts/tokenia.sol\":3311:3326  block.timestamp */\n      timestamp\n        /* \"contracts/tokenia.sol\":3262:3327  TokenTransfer(_datasetId, msg.sender, _newOwner, block.timestamp) */\n      mload(0x40)\n      tag_117\n      swap2\n      swap1\n      tag_36\n      jump\t// in\n    tag_117:\n      mload(0x40)\n      dup1\n      swap2\n      sub\n      swap1\n      log4\n        /* \"contracts/tokenia.sol\":2537:3335  {... */\n      pop\n        /* \"contracts/tokenia.sol\":2459:3335  function transferAccess(uint256 _datasetId, address _newOwner) public payable {... */\n      pop\n      pop\n      jump\t// out\n        /* \"contracts/tokenia.sol\":895:1291  function registerDataset(... */\n    tag_48:\n        /* \"contracts/tokenia.sol\":1138:1150  datasetCount */\n      0x03\n      0x00\n        /* \"contracts/tokenia.sol\":1138:1152  datasetCount++ */\n      dup2\n      sload\n      dup1\n      swap3\n      swap2\n      swap1\n      tag_119\n      swap1\n      tag_120\n      jump\t// in\n    tag_119:\n      swap2\n      swap1\n      pop\n      sstore\n      pop\n        /* \"contracts/tokenia.sol\":1188:1283  Dataset(_name, _description, _price, msg.sender, _encryptedHash, block.timestamp + _expiryTime) */\n      mload(0x40)\n      dup1\n      0xc0\n      add\n      0x40\n      mstore\n      dup1\n        /* \"contracts/tokenia.sol\":1196:1201  _name */\n      dup7\n        /* \"contracts/tokenia.sol\":1188:1283  Dataset(_name, _description, _price, msg.sender, _encryptedHash, block.timestamp + _expiryTime) */\n      dup2\n      mstore\n      0x20\n      add\n        /* \"contracts/tokenia.sol\":1203:1215  _description */\n      dup6\n        /* \"contracts/tokenia.sol\":1188:1283  Dataset(_name, _description, _price, msg.sender, _encryptedHash, block.timestamp + _expiryTime) */\n      dup2\n      mstore\n      0x20\n      add\n        /* \"contracts/tokenia.sol\":1217:1223  _price */\n      dup5\n        /* \"contracts/tokenia.sol\":1188:1283  Dataset(_name, _description, _price, msg.sender, _encryptedHash, block.timestamp + _expiryTime) */\n      dup2\n      mstore\n      0x20\n      add\n        /* \"contracts/tokenia.sol\":1225:1235  msg.sender */\n      caller\n        /* \"contracts/tokenia.sol\":1188:1283  Dataset(_name, _description, _price, msg.sender, _encryptedHash, block.timestamp + _expiryTime) */\n      0xffffffffffffffffffffffffffffffffffffffff\n      and\n      dup2\n      mstore\n      0x20\n      add\n        /* \"contracts/tokenia.sol\":1237:1251  _encryptedHash */\n      dup4\n        /* \"contracts/tokenia.sol\":1188:1283  Dataset(_name, _description, _price, msg.sender, _encryptedHash, block.timestamp + _expiryTime) */\n      dup2\n      mstore\n      0x20\n      add\n        /* \"contracts/tokenia.sol\":1271:1282  _expiryTime */\n      dup3\n        /* \"contracts/tokenia.sol\":1253:1268  block.timestamp */\n      timestamp\n        /* \"contracts/tokenia.sol\":1253:1282  block.timestamp + _expiryTime */\n      tag_121\n      swap2\n      swap1\n      tag_122\n      jump\t// in\n    tag_121:\n        /* \"contracts/tokenia.sol\":1188:1283  Dataset(_name, _description, _price, msg.sender, _encryptedHash, block.timestamp + _expiryTime) */\n      dup2\n      mstore\n      pop\n        /* \"contracts/tokenia.sol\":1163:1171  datasets */\n      0x00\n        /* \"contracts/tokenia.sol\":1163:1185  datasets[datasetCount] */\n      dup1\n        /* \"contracts/tokenia.sol\":1172:1184  datasetCount */\n      sload(0x03)\n        /* \"contracts/tokenia.sol\":1163:1185  datasets[datasetCount] */\n      dup2\n      mstore\n      0x20\n      add\n      swap1\n      dup2\n      mstore\n      0x20\n      add\n      0x00\n      keccak256\n        /* \"contracts/tokenia.sol\":1163:1283  datasets[datasetCount] = Dataset(_name, _description, _price, msg.sender, _encryptedHash, block.timestamp + _expiryTime) */\n      0x00\n      dup3\n      add\n      mload\n      dup2\n      0x00\n      add\n      swap1\n      dup2\n      tag_123\n      swap2\n      swap1\n      tag_124\n      jump\t// in\n    tag_123:\n      pop\n      0x20\n      dup3\n      add\n      mload\n      dup2\n      0x01\n      add\n      swap1\n      dup2\n      tag_125\n      swap2\n      swap1\n      tag_124\n      jump\t// in\n    tag_125:\n      pop\n      0x40\n      dup3\n      add\n      mload\n      dup2\n      0x02\n      add\n      sstore\n      0x60\n      dup3\n      add\n      mload\n      dup2\n      0x03\n      add\n      exp(0x0100, 0x00)\n      dup2\n      sload\n      dup2\n      0xffffffffffffffffffffffffffffffffffffffff\n      mul\n      not\n      and\n      swap1\n      dup4\n      0xffffffffffffffffffffffffffffffffffffffff\n      and\n      mul\n      or\n      swap1\n      sstore\n      pop\n      0x80\n      dup3\n      add\n      mload\n      dup2\n      0x04\n      add\n      sstore\n      0xa0\n      dup3\n      add\n      mload\n      dup2\n      0x05\n      add\n      sstore\n      swap1\n      pop\n      pop\n        /* \"contracts/tokenia.sol\":895:1291  function registerDataset(... */\n      pop\n      pop\n      pop\n      pop\n      pop\n      jump\t// out\n        /* \"contracts/tokenia.sol\":480:530  mapping(uint256 => address[]) public accessHistory */\n    tag_53:\n      mstore(0x20, 0x02)\n      dup2\n      0x00\n      mstore\n      keccak256(0x00, 0x40)\n      dup2\n      dup2\n      sload\n      dup2\n      lt\n      tag_126\n      jumpi\n      0x00\n      dup1\n      revert\n    tag_126:\n      swap1\n      0x00\n      mstore\n      keccak256(0x00, 0x20)\n      add\n      0x00\n      swap2\n      pop\n      swap2\n      pop\n      swap1\n      sload\n      swap1\n      0x0100\n      exp\n      swap1\n      div\n      0xffffffffffffffffffffffffffffffffffffffff\n      and\n      dup2\n      jump\t// out\n        /* \"contracts/tokenia.sol\":3405:3541  function getAccessHistory(uint256 _datasetId) public view returns (address[] memory) {... */\n    tag_59:\n        /* \"contracts/tokenia.sol\":3472:3488  address[] memory */\n      0x60\n        /* \"contracts/tokenia.sol\":3508:3521  accessHistory */\n      0x02\n        /* \"contracts/tokenia.sol\":3508:3533  accessHistory[_datasetId] */\n      0x00\n        /* \"contracts/tokenia.sol\":3522:3532  _datasetId */\n      dup4\n        /* \"contracts/tokenia.sol\":3508:3533  accessHistory[_datasetId] */\n      dup2\n      mstore\n      0x20\n      add\n      swap1\n      dup2\n      mstore\n      0x20\n      add\n      0x00\n      keccak256\n        /* \"contracts/tokenia.sol\":3501:3533  return accessHistory[_datasetId] */\n      dup1\n      sload\n      dup1\n      0x20\n      mul\n      0x20\n      add\n      mload(0x40)\n      swap1\n      dup2\n      add\n      0x40\n      mstore\n      dup1\n      swap3\n      swap2\n      swap1\n      dup2\n      dup2\n      mstore\n      0x20\n      add\n      dup3\n      dup1\n      sload\n      dup1\n      iszero\n      tag_129\n      jumpi\n      0x20\n      mul\n      dup3\n      add\n      swap2\n      swap1\n      0x00\n      mstore\n      keccak256(0x00, 0x20)\n      swap1\n    tag_130:\n      dup2\n      0x00\n      swap1\n      sload\n      swap1\n      0x0100\n      exp\n      swap1\n      div\n      0xffffffffffffffffffffffffffffffffffffffff\n      and\n      0xffffffffffffffffffffffffffffffffffffffff\n      and\n      dup2\n      mstore\n      0x20\n      add\n      swap1\n      0x01\n      add\n      swap1\n      dup1\n      dup4\n      gt\n      tag_130\n      jumpi\n    tag_129:\n      pop\n      pop\n      pop\n      pop\n      pop\n      swap1\n      pop\n        /* \"contracts/tokenia.sol\":3405:3541  function getAccessHistory(uint256 _datasetId) public view returns (address[] memory) {... */\n      swap2\n      swap1\n      pop\n      jump\t// out\n        /* \"contracts/tokenia.sol\":415:473  mapping(address => mapping(uint256 => bool)) public access */\n    tag_66:\n      mstore(0x20, 0x01)\n      dup2\n      0x00\n      mstore\n      mstore(0x20, keccak256(0x00, 0x40))\n      dup1\n      0x00\n      mstore\n      keccak256(0x00, 0x40)\n      0x00\n      swap2\n      pop\n      swap2\n      pop\n      swap1\n      sload\n      swap1\n      0x0100\n      exp\n      swap1\n      div\n      0xff\n      and\n      dup2\n      jump\t// out\n        /* \"#utility.yul\":7:82   */\n    tag_131:\n        /* \"#utility.yul\":40:46   */\n      0x00\n        /* \"#utility.yul\":73:75   */\n      0x40\n        /* \"#utility.yul\":67:76   */\n      mload\n        /* \"#utility.yul\":57:76   */\n      swap1\n      pop\n        /* \"#utility.yul\":7:82   */\n      swap1\n      jump\t// out\n        /* \"#utility.yul\":88:205   */\n    tag_132:\n        /* \"#utility.yul\":197:198   */\n      0x00\n        /* \"#utility.yul\":194:195   */\n      dup1\n        /* \"#utility.yul\":187:199   */\n      revert\n        /* \"#utility.yul\":211:328   */\n    tag_133:\n        /* \"#utility.yul\":320:321   */\n      0x00\n        /* \"#utility.yul\":317:318   */\n      dup1\n        /* \"#utility.yul\":310:322   */\n      revert\n        /* \"#utility.yul\":334:411   */\n    tag_134:\n        /* \"#utility.yul\":371:378   */\n      0x00\n        /* \"#utility.yul\":400:405   */\n      dup2\n        /* \"#utility.yul\":389:405   */\n      swap1\n      pop\n        /* \"#utility.yul\":334:411   */\n      swap2\n      swap1\n      pop\n      jump\t// out\n        /* \"#utility.yul\":417:539   */\n    tag_135:\n        /* \"#utility.yul\":490:514   */\n      tag_204\n        /* \"#utility.yul\":508:513   */\n      dup2\n        /* \"#utility.yul\":490:514   */\n      tag_134\n      jump\t// in\n    tag_204:\n        /* \"#utility.yul\":483:488   */\n      dup2\n        /* \"#utility.yul\":480:515   */\n      eq\n        /* \"#utility.yul\":470:533   */\n      tag_205\n      jumpi\n        /* \"#utility.yul\":529:530   */\n      0x00\n        /* \"#utility.yul\":526:527   */\n      dup1\n        /* \"#utility.yul\":519:531   */\n      revert\n        /* \"#utility.yul\":470:533   */\n    tag_205:\n        /* \"#utility.yul\":417:539   */\n      pop\n      jump\t// out\n        /* \"#utility.yul\":545:684   */\n    tag_136:\n        /* \"#utility.yul\":591:596   */\n      0x00\n        /* \"#utility.yul\":629:635   */\n      dup2\n        /* \"#utility.yul\":616:636   */\n      calldataload\n        /* \"#utility.yul\":607:636   */\n      swap1\n      pop\n        /* \"#utility.yul\":645:678   */\n      tag_207\n        /* \"#utility.yul\":672:677   */\n      dup2\n        /* \"#utility.yul\":645:678   */\n      tag_135\n      jump\t// in\n    tag_207:\n        /* \"#utility.yul\":545:684   */\n      swap3\n      swap2\n      pop\n      pop\n      jump\t// out\n        /* \"#utility.yul\":690:1019   */\n    tag_16:\n        /* \"#utility.yul\":749:755   */\n      0x00\n        /* \"#utility.yul\":798:800   */\n      0x20\n        /* \"#utility.yul\":786:795   */\n      dup3\n        /* \"#utility.yul\":777:784   */\n      dup5\n        /* \"#utility.yul\":773:796   */\n      sub\n        /* \"#utility.yul\":769:801   */\n      slt\n        /* \"#utility.yul\":766:885   */\n      iszero\n      tag_209\n      jumpi\n        /* \"#utility.yul\":804:883   */\n      tag_210\n      tag_132\n      jump\t// in\n    tag_210:\n        /* \"#utility.yul\":766:885   */\n    tag_209:\n        /* \"#utility.yul\":924:925   */\n      0x00\n        /* \"#utility.yul\":949:1002   */\n      tag_211\n        /* \"#utility.yul\":994:1001   */\n      dup5\n        /* \"#utility.yul\":985:991   */\n      dup3\n        /* \"#utility.yul\":974:983   */\n      dup6\n        /* \"#utility.yul\":970:992   */\n      add\n        /* \"#utility.yul\":949:1002   */\n      tag_136\n      jump\t// in\n    tag_211:\n        /* \"#utility.yul\":939:1002   */\n      swap2\n      pop\n        /* \"#utility.yul\":895:1012   */\n      pop\n        /* \"#utility.yul\":690:1019   */\n      swap3\n      swap2\n      pop\n      pop\n      jump\t// out\n        /* \"#utility.yul\":1025:1124   */\n    tag_137:\n        /* \"#utility.yul\":1077:1083   */\n      0x00\n        /* \"#utility.yul\":1111:1116   */\n      dup2\n        /* \"#utility.yul\":1105:1117   */\n      mload\n        /* \"#utility.yul\":1095:1117   */\n      swap1\n      pop\n        /* \"#utility.yul\":1025:1124   */\n      swap2\n      swap1\n      pop\n      jump\t// out\n        /* \"#utility.yul\":1130:1299   */\n    tag_138:\n        /* \"#utility.yul\":1214:1225   */\n      0x00\n        /* \"#utility.yul\":1248:1254   */\n      dup3\n        /* \"#utility.yul\":1243:1246   */\n      dup3\n        /* \"#utility.yul\":1236:1255   */\n      mstore\n        /* \"#utility.yul\":1288:1292   */\n      0x20\n        /* \"#utility.yul\":1283:1286   */\n      dup3\n        /* \"#utility.yul\":1279:1293   */\n      add\n        /* \"#utility.yul\":1264:1293   */\n      swap1\n      pop\n        /* \"#utility.yul\":1130:1299   */\n      swap3\n      swap2\n      pop\n      pop\n      jump\t// out\n        /* \"#utility.yul\":1305:1444   */\n    tag_139:\n        /* \"#utility.yul\":1394:1400   */\n      dup3\n        /* \"#utility.yul\":1389:1392   */\n      dup2\n        /* \"#utility.yul\":1384:1387   */\n      dup4\n        /* \"#utility.yul\":1378:1401   */\n      mcopy\n        /* \"#utility.yul\":1435:1436   */\n      0x00\n        /* \"#utility.yul\":1426:1432   */\n      dup4\n        /* \"#utility.yul\":1421:1424   */\n      dup4\n        /* \"#utility.yul\":1417:1433   */\n      add\n        /* \"#utility.yul\":1410:1437   */\n      mstore\n        /* \"#utility.yul\":1305:1444   */\n      pop\n      pop\n      pop\n      jump\t// out\n        /* \"#utility.yul\":1450:1552   */\n    tag_140:\n        /* \"#utility.yul\":1491:1497   */\n      0x00\n        /* \"#utility.yul\":1542:1544   */\n      0x1f\n        /* \"#utility.yul\":1538:1545   */\n      not\n        /* \"#utility.yul\":1533:1535   */\n      0x1f\n        /* \"#utility.yul\":1526:1531   */\n      dup4\n        /* \"#utility.yul\":1522:1536   */\n      add\n        /* \"#utility.yul\":1518:1546   */\n      and\n        /* \"#utility.yul\":1508:1546   */\n      swap1\n      pop\n        /* \"#utility.yul\":1450:1552   */\n      swap2\n      swap1\n      pop\n      jump\t// out\n        /* \"#utility.yul\":1558:1935   */\n    tag_141:\n        /* \"#utility.yul\":1646:1649   */\n      0x00\n        /* \"#utility.yul\":1674:1713   */\n      tag_217\n        /* \"#utility.yul\":1707:1712   */\n      dup3\n        /* \"#utility.yul\":1674:1713   */\n      tag_137\n      jump\t// in\n    tag_217:\n        /* \"#utility.yul\":1729:1800   */\n      tag_218\n        /* \"#utility.yul\":1793:1799   */\n      dup2\n        /* \"#utility.yul\":1788:1791   */\n      dup6\n        /* \"#utility.yul\":1729:1800   */\n      tag_138\n      jump\t// in\n    tag_218:\n        /* \"#utility.yul\":1722:1800   */\n      swap4\n      pop\n        /* \"#utility.yul\":1809:1874   */\n      tag_219\n        /* \"#utility.yul\":1867:1873   */\n      dup2\n        /* \"#utility.yul\":1862:1865   */\n      dup6\n        /* \"#utility.yul\":1855:1859   */\n      0x20\n        /* \"#utility.yul\":1848:1853   */\n      dup7\n        /* \"#utility.yul\":1844:1860   */\n      add\n        /* \"#utility.yul\":1809:1874   */\n      tag_139\n      jump\t// in\n    tag_219:\n        /* \"#utility.yul\":1899:1928   */\n      tag_220\n        /* \"#utility.yul\":1921:1927   */\n      dup2\n        /* \"#utility.yul\":1899:1928   */\n      tag_140\n      jump\t// in\n    tag_220:\n        /* \"#utility.yul\":1894:1897   */\n      dup5\n        /* \"#utility.yul\":1890:1929   */\n      add\n        /* \"#utility.yul\":1883:1929   */\n      swap2\n      pop\n        /* \"#utility.yul\":1650:1935   */\n      pop\n        /* \"#utility.yul\":1558:1935   */\n      swap3\n      swap2\n      pop\n      pop\n      jump\t// out\n        /* \"#utility.yul\":1941:2059   */\n    tag_142:\n        /* \"#utility.yul\":2028:2052   */\n      tag_222\n        /* \"#utility.yul\":2046:2051   */\n      dup2\n        /* \"#utility.yul\":2028:2052   */\n      tag_134\n      jump\t// in\n    tag_222:\n        /* \"#utility.yul\":2023:2026   */\n      dup3\n        /* \"#utility.yul\":2016:2053   */\n      mstore\n        /* \"#utility.yul\":1941:2059   */\n      pop\n      pop\n      jump\t// out\n        /* \"#utility.yul\":2065:2191   */\n    tag_143:\n        /* \"#utility.yul\":2102:2109   */\n      0x00\n        /* \"#utility.yul\":2142:2184   */\n      0xffffffffffffffffffffffffffffffffffffffff\n        /* \"#utility.yul\":2135:2140   */\n      dup3\n        /* \"#utility.yul\":2131:2185   */\n      and\n        /* \"#utility.yul\":2120:2185   */\n      swap1\n      pop\n        /* \"#utility.yul\":2065:2191   */\n      swap2\n      swap1\n      pop\n      jump\t// out\n        /* \"#utility.yul\":2197:2293   */\n    tag_144:\n        /* \"#utility.yul\":2234:2241   */\n      0x00\n        /* \"#utility.yul\":2263:2287   */\n      tag_225\n        /* \"#utility.yul\":2281:2286   */\n      dup3\n        /* \"#utility.yul\":2263:2287   */\n      tag_143\n      jump\t// in\n    tag_225:\n        /* \"#utility.yul\":2252:2287   */\n      swap1\n      pop\n        /* \"#utility.yul\":2197:2293   */\n      swap2\n      swap1\n      pop\n      jump\t// out\n        /* \"#utility.yul\":2299:2417   */\n    tag_145:\n        /* \"#utility.yul\":2386:2410   */\n      tag_227\n        /* \"#utility.yul\":2404:2409   */\n      dup2\n        /* \"#utility.yul\":2386:2410   */\n      tag_144\n      jump\t// in\n    tag_227:\n        /* \"#utility.yul\":2381:2384   */\n      dup3\n        /* \"#utility.yul\":2374:2411   */\n      mstore\n        /* \"#utility.yul\":2299:2417   */\n      pop\n      pop\n      jump\t// out\n        /* \"#utility.yul\":2423:2500   */\n    tag_146:\n        /* \"#utility.yul\":2460:2467   */\n      0x00\n        /* \"#utility.yul\":2489:2494   */\n      dup2\n        /* \"#utility.yul\":2478:2494   */\n      swap1\n      pop\n        /* \"#utility.yul\":2423:2500   */\n      swap2\n      swap1\n      pop\n      jump\t// out\n        /* \"#utility.yul\":2506:2624   */\n    tag_147:\n        /* \"#utility.yul\":2593:2617   */\n      tag_230\n        /* \"#utility.yul\":2611:2616   */\n      dup2\n        /* \"#utility.yul\":2593:2617   */\n      tag_146\n      jump\t// in\n    tag_230:\n        /* \"#utility.yul\":2588:2591   */\n      dup3\n        /* \"#utility.yul\":2581:2618   */\n      mstore\n        /* \"#utility.yul\":2506:2624   */\n      pop\n      pop\n      jump\t// out\n        /* \"#utility.yul\":2630:3587   */\n    tag_19:\n        /* \"#utility.yul\":2903:2907   */\n      0x00\n        /* \"#utility.yul\":2941:2944   */\n      0xc0\n        /* \"#utility.yul\":2930:2939   */\n      dup3\n        /* \"#utility.yul\":2926:2945   */\n      add\n        /* \"#utility.yul\":2918:2945   */\n      swap1\n      pop\n        /* \"#utility.yul\":2991:3000   */\n      dup2\n        /* \"#utility.yul\":2985:2989   */\n      dup2\n        /* \"#utility.yul\":2981:3001   */\n      sub\n        /* \"#utility.yul\":2977:2978   */\n      0x00\n        /* \"#utility.yul\":2966:2975   */\n      dup4\n        /* \"#utility.yul\":2962:2979   */\n      add\n        /* \"#utility.yul\":2955:3002   */\n      mstore\n        /* \"#utility.yul\":3019:3097   */\n      tag_232\n        /* \"#utility.yul\":3092:3096   */\n      dup2\n        /* \"#utility.yul\":3083:3089   */\n      dup10\n        /* \"#utility.yul\":3019:3097   */\n      tag_141\n      jump\t// in\n    tag_232:\n        /* \"#utility.yul\":3011:3097   */\n      swap1\n      pop\n        /* \"#utility.yul\":3144:3153   */\n      dup2\n        /* \"#utility.yul\":3138:3142   */\n      dup2\n        /* \"#utility.yul\":3134:3154   */\n      sub\n        /* \"#utility.yul\":3129:3131   */\n      0x20\n        /* \"#utility.yul\":3118:3127   */\n      dup4\n        /* \"#utility.yul\":3114:3132   */\n      add\n        /* \"#utility.yul\":3107:3155   */\n      mstore\n        /* \"#utility.yul\":3172:3250   */\n      tag_233\n        /* \"#utility.yul\":3245:3249   */\n      dup2\n        /* \"#utility.yul\":3236:3242   */\n      dup9\n        /* \"#utility.yul\":3172:3250   */\n      tag_141\n      jump\t// in\n    tag_233:\n        /* \"#utility.yul\":3164:3250   */\n      swap1\n      pop\n        /* \"#utility.yul\":3260:3332   */\n      tag_234\n        /* \"#utility.yul\":3328:3330   */\n      0x40\n        /* \"#utility.yul\":3317:3326   */\n      dup4\n        /* \"#utility.yul\":3313:3331   */\n      add\n        /* \"#utility.yul\":3304:3310   */\n      dup8\n        /* \"#utility.yul\":3260:3332   */\n      tag_142\n      jump\t// in\n    tag_234:\n        /* \"#utility.yul\":3342:3414   */\n      tag_235\n        /* \"#utility.yul\":3410:3412   */\n      0x60\n        /* \"#utility.yul\":3399:3408   */\n      dup4\n        /* \"#utility.yul\":3395:3413   */\n      add\n        /* \"#utility.yul\":3386:3392   */\n      dup7\n        /* \"#utility.yul\":3342:3414   */\n      tag_145\n      jump\t// in\n    tag_235:\n        /* \"#utility.yul\":3424:3497   */\n      tag_236\n        /* \"#utility.yul\":3492:3495   */\n      0x80\n        /* \"#utility.yul\":3481:3490   */\n      dup4\n        /* \"#utility.yul\":3477:3496   */\n      add\n        /* \"#utility.yul\":3468:3474   */\n      dup6\n        /* \"#utility.yul\":3424:3497   */\n      tag_147\n      jump\t// in\n    tag_236:\n        /* \"#utility.yul\":3507:3580   */\n      tag_237\n        /* \"#utility.yul\":3575:3578   */\n      0xa0\n        /* \"#utility.yul\":3564:3573   */\n      dup4\n        /* \"#utility.yul\":3560:3579   */\n      add\n        /* \"#utility.yul\":3551:3557   */\n      dup5\n        /* \"#utility.yul\":3507:3580   */\n      tag_142\n      jump\t// in\n    tag_237:\n        /* \"#utility.yul\":2630:3587   */\n      swap8\n      swap7\n      pop\n      pop\n      pop\n      pop\n      pop\n      pop\n      pop\n      jump\t// out\n        /* \"#utility.yul\":3593:3683   */\n    tag_148:\n        /* \"#utility.yul\":3627:3634   */\n      0x00\n        /* \"#utility.yul\":3670:3675   */\n      dup2\n        /* \"#utility.yul\":3663:3676   */\n      iszero\n        /* \"#utility.yul\":3656:3677   */\n      iszero\n        /* \"#utility.yul\":3645:3677   */\n      swap1\n      pop\n        /* \"#utility.yul\":3593:3683   */\n      swap2\n      swap1\n      pop\n      jump\t// out\n        /* \"#utility.yul\":3689:3798   */\n    tag_149:\n        /* \"#utility.yul\":3770:3791   */\n      tag_240\n        /* \"#utility.yul\":3785:3790   */\n      dup2\n        /* \"#utility.yul\":3770:3791   */\n      tag_148\n      jump\t// in\n    tag_240:\n        /* \"#utility.yul\":3765:3768   */\n      dup3\n        /* \"#utility.yul\":3758:3792   */\n      mstore\n        /* \"#utility.yul\":3689:3798   */\n      pop\n      pop\n      jump\t// out\n        /* \"#utility.yul\":3804:4014   */\n    tag_25:\n        /* \"#utility.yul\":3891:3895   */\n      0x00\n        /* \"#utility.yul\":3929:3931   */\n      0x20\n        /* \"#utility.yul\":3918:3927   */\n      dup3\n        /* \"#utility.yul\":3914:3932   */\n      add\n        /* \"#utility.yul\":3906:3932   */\n      swap1\n      pop\n        /* \"#utility.yul\":3942:4007   */\n      tag_242\n        /* \"#utility.yul\":4004:4005   */\n      0x00\n        /* \"#utility.yul\":3993:4002   */\n      dup4\n        /* \"#utility.yul\":3989:4006   */\n      add\n        /* \"#utility.yul\":3980:3986   */\n      dup5\n        /* \"#utility.yul\":3942:4007   */\n      tag_149\n      jump\t// in\n    tag_242:\n        /* \"#utility.yul\":3804:4014   */\n      swap3\n      swap2\n      pop\n      pop\n      jump\t// out\n        /* \"#utility.yul\":4020:4242   */\n    tag_31:\n        /* \"#utility.yul\":4113:4117   */\n      0x00\n        /* \"#utility.yul\":4151:4153   */\n      0x20\n        /* \"#utility.yul\":4140:4149   */\n      dup3\n        /* \"#utility.yul\":4136:4154   */\n      add\n        /* \"#utility.yul\":4128:4154   */\n      swap1\n      pop\n        /* \"#utility.yul\":4164:4235   */\n      tag_244\n        /* \"#utility.yul\":4232:4233   */\n      0x00\n        /* \"#utility.yul\":4221:4230   */\n      dup4\n        /* \"#utility.yul\":4217:4234   */\n      add\n        /* \"#utility.yul\":4208:4214   */\n      dup5\n        /* \"#utility.yul\":4164:4235   */\n      tag_147\n      jump\t// in\n    tag_244:\n        /* \"#utility.yul\":4020:4242   */\n      swap3\n      swap2\n      pop\n      pop\n      jump\t// out\n        /* \"#utility.yul\":4248:4470   */\n    tag_36:\n        /* \"#utility.yul\":4341:4345   */\n      0x00\n        /* \"#utility.yul\":4379:4381   */\n      0x20\n        /* \"#utility.yul\":4368:4377   */\n      dup3\n        /* \"#utility.yul\":4364:4382   */\n      add\n        /* \"#utility.yul\":4356:4382   */\n      swap1\n      pop\n        /* \"#utility.yul\":4392:4463   */\n      tag_246\n        /* \"#utility.yul\":4460:4461   */\n      0x00\n        /* \"#utility.yul\":4449:4458   */\n      dup4\n        /* \"#utility.yul\":4445:4462   */\n      add\n        /* \"#utility.yul\":4436:4442   */\n      dup5\n        /* \"#utility.yul\":4392:4463   */\n      tag_142\n      jump\t// in\n    tag_246:\n        /* \"#utility.yul\":4248:4470   */\n      swap3\n      swap2\n      pop\n      pop\n      jump\t// out\n        /* \"#utility.yul\":4476:4598   */\n    tag_150:\n        /* \"#utility.yul\":4549:4573   */\n      tag_248\n        /* \"#utility.yul\":4567:4572   */\n      dup2\n        /* \"#utility.yul\":4549:4573   */\n      tag_144\n      jump\t// in\n    tag_248:\n        /* \"#utility.yul\":4542:4547   */\n      dup2\n        /* \"#utility.yul\":4539:4574   */\n      eq\n        /* \"#utility.yul\":4529:4592   */\n      tag_249\n      jumpi\n        /* \"#utility.yul\":4588:4589   */\n      0x00\n        /* \"#utility.yul\":4585:4586   */\n      dup1\n        /* \"#utility.yul\":4578:4590   */\n      revert\n        /* \"#utility.yul\":4529:4592   */\n    tag_249:\n        /* \"#utility.yul\":4476:4598   */\n      pop\n      jump\t// out\n        /* \"#utility.yul\":4604:4743   */\n    tag_151:\n        /* \"#utility.yul\":4650:4655   */\n      0x00\n        /* \"#utility.yul\":4688:4694   */\n      dup2\n        /* \"#utility.yul\":4675:4695   */\n      calldataload\n        /* \"#utility.yul\":4666:4695   */\n      swap1\n      pop\n        /* \"#utility.yul\":4704:4737   */\n      tag_251\n        /* \"#utility.yul\":4731:4736   */\n      dup2\n        /* \"#utility.yul\":4704:4737   */\n      tag_150\n      jump\t// in\n    tag_251:\n        /* \"#utility.yul\":4604:4743   */\n      swap3\n      swap2\n      pop\n      pop\n      jump\t// out\n        /* \"#utility.yul\":4749:5223   */\n    tag_42:\n        /* \"#utility.yul\":4817:4823   */\n      0x00\n        /* \"#utility.yul\":4825:4831   */\n      dup1\n        /* \"#utility.yul\":4874:4876   */\n      0x40\n        /* \"#utility.yul\":4862:4871   */\n      dup4\n        /* \"#utility.yul\":4853:4860   */\n      dup6\n        /* \"#utility.yul\":4849:4872   */\n      sub\n        /* \"#utility.yul\":4845:4877   */\n      slt\n        /* \"#utility.yul\":4842:4961   */\n      iszero\n      tag_253\n      jumpi\n        /* \"#utility.yul\":4880:4959   */\n      tag_254\n      tag_132\n      jump\t// in\n    tag_254:\n        /* \"#utility.yul\":4842:4961   */\n    tag_253:\n        /* \"#utility.yul\":5000:5001   */\n      0x00\n        /* \"#utility.yul\":5025:5078   */\n      tag_255\n        /* \"#utility.yul\":5070:5077   */\n      dup6\n        /* \"#utility.yul\":5061:5067   */\n      dup3\n        /* \"#utility.yul\":5050:5059   */\n      dup7\n        /* \"#utility.yul\":5046:5068   */\n      add\n        /* \"#utility.yul\":5025:5078   */\n      tag_136\n      jump\t// in\n    tag_255:\n        /* \"#utility.yul\":5015:5078   */\n      swap3\n      pop\n        /* \"#utility.yul\":4971:5088   */\n      pop\n        /* \"#utility.yul\":5127:5129   */\n      0x20\n        /* \"#utility.yul\":5153:5206   */\n      tag_256\n        /* \"#utility.yul\":5198:5205   */\n      dup6\n        /* \"#utility.yul\":5189:5195   */\n      dup3\n        /* \"#utility.yul\":5178:5187   */\n      dup7\n        /* \"#utility.yul\":5174:5196   */\n      add\n        /* \"#utility.yul\":5153:5206   */\n      tag_151\n      jump\t// in\n    tag_256:\n        /* \"#utility.yul\":5143:5206   */\n      swap2\n      pop\n        /* \"#utility.yul\":5098:5216   */\n      pop\n        /* \"#utility.yul\":4749:5223   */\n      swap3\n      pop\n      swap3\n      swap1\n      pop\n      jump\t// out\n        /* \"#utility.yul\":5229:5346   */\n    tag_152:\n        /* \"#utility.yul\":5338:5339   */\n      0x00\n        /* \"#utility.yul\":5335:5336   */\n      dup1\n        /* \"#utility.yul\":5328:5340   */\n      revert\n        /* \"#utility.yul\":5352:5469   */\n    tag_153:\n        /* \"#utility.yul\":5461:5462   */\n      0x00\n        /* \"#utility.yul\":5458:5459   */\n      dup1\n        /* \"#utility.yul\":5451:5463   */\n      revert\n        /* \"#utility.yul\":5475:5655   */\n    tag_154:\n        /* \"#utility.yul\":5523:5600   */\n      0x4e487b7100000000000000000000000000000000000000000000000000000000\n        /* \"#utility.yul\":5520:5521   */\n      0x00\n        /* \"#utility.yul\":5513:5601   */\n      mstore\n        /* \"#utility.yul\":5620:5624   */\n      0x41\n        /* \"#utility.yul\":5617:5618   */\n      0x04\n        /* \"#utility.yul\":5610:5625   */\n      mstore\n        /* \"#utility.yul\":5644:5648   */\n      0x24\n        /* \"#utility.yul\":5641:5642   */\n      0x00\n        /* \"#utility.yul\":5634:5649   */\n      revert\n        /* \"#utility.yul\":5661:5942   */\n    tag_155:\n        /* \"#utility.yul\":5744:5771   */\n      tag_261\n        /* \"#utility.yul\":5766:5770   */\n      dup3\n        /* \"#utility.yul\":5744:5771   */\n      tag_140\n      jump\t// in\n    tag_261:\n        /* \"#utility.yul\":5736:5742   */\n      dup2\n        /* \"#utility.yul\":5732:5772   */\n      add\n        /* \"#utility.yul\":5874:5880   */\n      dup2\n        /* \"#utility.yul\":5862:5872   */\n      dup2\n        /* \"#utility.yul\":5859:5881   */\n      lt\n        /* \"#utility.yul\":5838:5856   */\n      0xffffffffffffffff\n        /* \"#utility.yul\":5826:5836   */\n      dup3\n        /* \"#utility.yul\":5823:5857   */\n      gt\n        /* \"#utility.yul\":5820:5882   */\n      or\n        /* \"#utility.yul\":5817:5905   */\n      iszero\n      tag_262\n      jumpi\n        /* \"#utility.yul\":5885:5903   */\n      tag_263\n      tag_154\n      jump\t// in\n    tag_263:\n        /* \"#utility.yul\":5817:5905   */\n    tag_262:\n        /* \"#utility.yul\":5925:5935   */\n      dup1\n        /* \"#utility.yul\":5921:5923   */\n      0x40\n        /* \"#utility.yul\":5914:5936   */\n      mstore\n        /* \"#utility.yul\":5704:5942   */\n      pop\n        /* \"#utility.yul\":5661:5942   */\n      pop\n      pop\n      jump\t// out\n        /* \"#utility.yul\":5948:6077   */\n    tag_156:\n        /* \"#utility.yul\":5982:5988   */\n      0x00\n        /* \"#utility.yul\":6009:6029   */\n      tag_265\n      tag_131\n      jump\t// in\n    tag_265:\n        /* \"#utility.yul\":5999:6029   */\n      swap1\n      pop\n        /* \"#utility.yul\":6038:6071   */\n      tag_266\n        /* \"#utility.yul\":6066:6070   */\n      dup3\n        /* \"#utility.yul\":6058:6064   */\n      dup3\n        /* \"#utility.yul\":6038:6071   */\n      tag_155\n      jump\t// in\n    tag_266:\n        /* \"#utility.yul\":5948:6077   */\n      swap2\n      swap1\n      pop\n      jump\t// out\n        /* \"#utility.yul\":6083:6391   */\n    tag_157:\n        /* \"#utility.yul\":6145:6149   */\n      0x00\n        /* \"#utility.yul\":6235:6253   */\n      0xffffffffffffffff\n        /* \"#utility.yul\":6227:6233   */\n      dup3\n        /* \"#utility.yul\":6224:6254   */\n      gt\n        /* \"#utility.yul\":6221:6277   */\n      iszero\n      tag_268\n      jumpi\n        /* \"#utility.yul\":6257:6275   */\n      tag_269\n      tag_154\n      jump\t// in\n    tag_269:\n        /* \"#utility.yul\":6221:6277   */\n    tag_268:\n        /* \"#utility.yul\":6295:6324   */\n      tag_270\n        /* \"#utility.yul\":6317:6323   */\n      dup3\n        /* \"#utility.yul\":6295:6324   */\n      tag_140\n      jump\t// in\n    tag_270:\n        /* \"#utility.yul\":6287:6324   */\n      swap1\n      pop\n        /* \"#utility.yul\":6379:6383   */\n      0x20\n        /* \"#utility.yul\":6373:6377   */\n      dup2\n        /* \"#utility.yul\":6369:6384   */\n      add\n        /* \"#utility.yul\":6361:6384   */\n      swap1\n      pop\n        /* \"#utility.yul\":6083:6391   */\n      swap2\n      swap1\n      pop\n      jump\t// out\n        /* \"#utility.yul\":6397:6545   */\n    tag_158:\n        /* \"#utility.yul\":6495:6501   */\n      dup3\n        /* \"#utility.yul\":6490:6493   */\n      dup2\n        /* \"#utility.yul\":6485:6488   */\n      dup4\n        /* \"#utility.yul\":6472:6502   */\n      calldatacopy\n        /* \"#utility.yul\":6536:6537   */\n      0x00\n        /* \"#utility.yul\":6527:6533   */\n      dup4\n        /* \"#utility.yul\":6522:6525   */\n      dup4\n        /* \"#utility.yul\":6518:6534   */\n      add\n        /* \"#utility.yul\":6511:6538   */\n      mstore\n        /* \"#utility.yul\":6397:6545   */\n      pop\n      pop\n      pop\n      jump\t// out\n        /* \"#utility.yul\":6551:6976   */\n    tag_159:\n        /* \"#utility.yul\":6629:6634   */\n      0x00\n        /* \"#utility.yul\":6654:6720   */\n      tag_273\n        /* \"#utility.yul\":6670:6719   */\n      tag_274\n        /* \"#utility.yul\":6712:6718   */\n      dup5\n        /* \"#utility.yul\":6670:6719   */\n      tag_157\n      jump\t// in\n    tag_274:\n        /* \"#utility.yul\":6654:6720   */\n      tag_156\n      jump\t// in\n    tag_273:\n        /* \"#utility.yul\":6645:6720   */\n      swap1\n      pop\n        /* \"#utility.yul\":6743:6749   */\n      dup3\n        /* \"#utility.yul\":6736:6741   */\n      dup2\n        /* \"#utility.yul\":6729:6750   */\n      mstore\n        /* \"#utility.yul\":6781:6785   */\n      0x20\n        /* \"#utility.yul\":6774:6779   */\n      dup2\n        /* \"#utility.yul\":6770:6786   */\n      add\n        /* \"#utility.yul\":6819:6822   */\n      dup5\n        /* \"#utility.yul\":6810:6816   */\n      dup5\n        /* \"#utility.yul\":6805:6808   */\n      dup5\n        /* \"#utility.yul\":6801:6817   */\n      add\n        /* \"#utility.yul\":6798:6823   */\n      gt\n        /* \"#utility.yul\":6795:6907   */\n      iszero\n      tag_275\n      jumpi\n        /* \"#utility.yul\":6826:6905   */\n      tag_276\n      tag_153\n      jump\t// in\n    tag_276:\n        /* \"#utility.yul\":6795:6907   */\n    tag_275:\n        /* \"#utility.yul\":6916:6970   */\n      tag_277\n        /* \"#utility.yul\":6963:6969   */\n      dup5\n        /* \"#utility.yul\":6958:6961   */\n      dup3\n        /* \"#utility.yul\":6953:6956   */\n      dup6\n        /* \"#utility.yul\":6916:6970   */\n      tag_158\n      jump\t// in\n    tag_277:\n        /* \"#utility.yul\":6635:6976   */\n      pop\n        /* \"#utility.yul\":6551:6976   */\n      swap4\n      swap3\n      pop\n      pop\n      pop\n      jump\t// out\n        /* \"#utility.yul\":6996:7336   */\n    tag_160:\n        /* \"#utility.yul\":7052:7057   */\n      0x00\n        /* \"#utility.yul\":7101:7104   */\n      dup3\n        /* \"#utility.yul\":7094:7098   */\n      0x1f\n        /* \"#utility.yul\":7086:7092   */\n      dup4\n        /* \"#utility.yul\":7082:7099   */\n      add\n        /* \"#utility.yul\":7078:7105   */\n      slt\n        /* \"#utility.yul\":7068:7190   */\n      tag_279\n      jumpi\n        /* \"#utility.yul\":7109:7188   */\n      tag_280\n      tag_152\n      jump\t// in\n    tag_280:\n        /* \"#utility.yul\":7068:7190   */\n    tag_279:\n        /* \"#utility.yul\":7226:7232   */\n      dup2\n        /* \"#utility.yul\":7213:7233   */\n      calldataload\n        /* \"#utility.yul\":7251:7330   */\n      tag_281\n        /* \"#utility.yul\":7326:7329   */\n      dup5\n        /* \"#utility.yul\":7318:7324   */\n      dup3\n        /* \"#utility.yul\":7311:7315   */\n      0x20\n        /* \"#utility.yul\":7303:7309   */\n      dup7\n        /* \"#utility.yul\":7299:7316   */\n      add\n        /* \"#utility.yul\":7251:7330   */\n      tag_159\n      jump\t// in\n    tag_281:\n        /* \"#utility.yul\":7242:7330   */\n      swap2\n      pop\n        /* \"#utility.yul\":7058:7336   */\n      pop\n        /* \"#utility.yul\":6996:7336   */\n      swap3\n      swap2\n      pop\n      pop\n      jump\t// out\n        /* \"#utility.yul\":7342:7464   */\n    tag_161:\n        /* \"#utility.yul\":7415:7439   */\n      tag_283\n        /* \"#utility.yul\":7433:7438   */\n      dup2\n        /* \"#utility.yul\":7415:7439   */\n      tag_146\n      jump\t// in\n    tag_283:\n        /* \"#utility.yul\":7408:7413   */\n      dup2\n        /* \"#utility.yul\":7405:7440   */\n      eq\n        /* \"#utility.yul\":7395:7458   */\n      tag_284\n      jumpi\n        /* \"#utility.yul\":7454:7455   */\n      0x00\n        /* \"#utility.yul\":7451:7452   */\n      dup1\n        /* \"#utility.yul\":7444:7456   */\n      revert\n        /* \"#utility.yul\":7395:7458   */\n    tag_284:\n        /* \"#utility.yul\":7342:7464   */\n      pop\n      jump\t// out\n        /* \"#utility.yul\":7470:7609   */\n    tag_162:\n        /* \"#utility.yul\":7516:7521   */\n      0x00\n        /* \"#utility.yul\":7554:7560   */\n      dup2\n        /* \"#utility.yul\":7541:7561   */\n      calldataload\n        /* \"#utility.yul\":7532:7561   */\n      swap1\n      pop\n        /* \"#utility.yul\":7570:7603   */\n      tag_286\n        /* \"#utility.yul\":7597:7602   */\n      dup2\n        /* \"#utility.yul\":7570:7603   */\n      tag_161\n      jump\t// in\n    tag_286:\n        /* \"#utility.yul\":7470:7609   */\n      swap3\n      swap2\n      pop\n      pop\n      jump\t// out\n        /* \"#utility.yul\":7615:8886   */\n    tag_47:\n        /* \"#utility.yul\":7730:7736   */\n      0x00\n        /* \"#utility.yul\":7738:7744   */\n      dup1\n        /* \"#utility.yul\":7746:7752   */\n      0x00\n        /* \"#utility.yul\":7754:7760   */\n      dup1\n        /* \"#utility.yul\":7762:7768   */\n      0x00\n        /* \"#utility.yul\":7811:7814   */\n      0xa0\n        /* \"#utility.yul\":7799:7808   */\n      dup7\n        /* \"#utility.yul\":7790:7797   */\n      dup9\n        /* \"#utility.yul\":7786:7809   */\n      sub\n        /* \"#utility.yul\":7782:7815   */\n      slt\n        /* \"#utility.yul\":7779:7899   */\n      iszero\n      tag_288\n      jumpi\n        /* \"#utility.yul\":7818:7897   */\n      tag_289\n      tag_132\n      jump\t// in\n    tag_289:\n        /* \"#utility.yul\":7779:7899   */\n    tag_288:\n        /* \"#utility.yul\":7966:7967   */\n      0x00\n        /* \"#utility.yul\":7955:7964   */\n      dup7\n        /* \"#utility.yul\":7951:7968   */\n      add\n        /* \"#utility.yul\":7938:7969   */\n      calldataload\n        /* \"#utility.yul\":7996:8014   */\n      0xffffffffffffffff\n        /* \"#utility.yul\":7988:7994   */\n      dup2\n        /* \"#utility.yul\":7985:8015   */\n      gt\n        /* \"#utility.yul\":7982:8099   */\n      iszero\n      tag_290\n      jumpi\n        /* \"#utility.yul\":8018:8097   */\n      tag_291\n      tag_133\n      jump\t// in\n    tag_291:\n        /* \"#utility.yul\":7982:8099   */\n    tag_290:\n        /* \"#utility.yul\":8123:8186   */\n      tag_292\n        /* \"#utility.yul\":8178:8185   */\n      dup9\n        /* \"#utility.yul\":8169:8175   */\n      dup3\n        /* \"#utility.yul\":8158:8167   */\n      dup10\n        /* \"#utility.yul\":8154:8176   */\n      add\n        /* \"#utility.yul\":8123:8186   */\n      tag_160\n      jump\t// in\n    tag_292:\n        /* \"#utility.yul\":8113:8186   */\n      swap6\n      pop\n        /* \"#utility.yul\":7909:8196   */\n      pop\n        /* \"#utility.yul\":8263:8265   */\n      0x20\n        /* \"#utility.yul\":8252:8261   */\n      dup7\n        /* \"#utility.yul\":8248:8266   */\n      add\n        /* \"#utility.yul\":8235:8267   */\n      calldataload\n        /* \"#utility.yul\":8294:8312   */\n      0xffffffffffffffff\n        /* \"#utility.yul\":8286:8292   */\n      dup2\n        /* \"#utility.yul\":8283:8313   */\n      gt\n        /* \"#utility.yul\":8280:8397   */\n      iszero\n      tag_293\n      jumpi\n        /* \"#utility.yul\":8316:8395   */\n      tag_294\n      tag_133\n      jump\t// in\n    tag_294:\n        /* \"#utility.yul\":8280:8397   */\n    tag_293:\n        /* \"#utility.yul\":8421:8484   */\n      tag_295\n        /* \"#utility.yul\":8476:8483   */\n      dup9\n        /* \"#utility.yul\":8467:8473   */\n      dup3\n        /* \"#utility.yul\":8456:8465   */\n      dup10\n        /* \"#utility.yul\":8452:8474   */\n      add\n        /* \"#utility.yul\":8421:8484   */\n      tag_160\n      jump\t// in\n    tag_295:\n        /* \"#utility.yul\":8411:8484   */\n      swap5\n      pop\n        /* \"#utility.yul\":8206:8494   */\n      pop\n        /* \"#utility.yul\":8533:8535   */\n      0x40\n        /* \"#utility.yul\":8559:8612   */\n      tag_296\n        /* \"#utility.yul\":8604:8611   */\n      dup9\n        /* \"#utility.yul\":8595:8601   */\n      dup3\n        /* \"#utility.yul\":8584:8593   */\n      dup10\n        /* \"#utility.yul\":8580:8602   */\n      add\n        /* \"#utility.yul\":8559:8612   */\n      tag_136\n      jump\t// in\n    tag_296:\n        /* \"#utility.yul\":8549:8612   */\n      swap4\n      pop\n        /* \"#utility.yul\":8504:8622   */\n      pop\n        /* \"#utility.yul\":8661:8663   */\n      0x60\n        /* \"#utility.yul\":8687:8740   */\n      tag_297\n        /* \"#utility.yul\":8732:8739   */\n      dup9\n        /* \"#utility.yul\":8723:8729   */\n      dup3\n        /* \"#utility.yul\":8712:8721   */\n      dup10\n        /* \"#utility.yul\":8708:8730   */\n      add\n        /* \"#utility.yul\":8687:8740   */\n      tag_162\n      jump\t// in\n    tag_297:\n        /* \"#utility.yul\":8677:8740   */\n      swap3\n      pop\n        /* \"#utility.yul\":8632:8750   */\n      pop\n        /* \"#utility.yul\":8789:8792   */\n      0x80\n        /* \"#utility.yul\":8816:8869   */\n      tag_298\n        /* \"#utility.yul\":8861:8868   */\n      dup9\n        /* \"#utility.yul\":8852:8858   */\n      dup3\n        /* \"#utility.yul\":8841:8850   */\n      dup10\n        /* \"#utility.yul\":8837:8859   */\n      add\n        /* \"#utility.yul\":8816:8869   */\n      tag_136\n      jump\t// in\n    tag_298:\n        /* \"#utility.yul\":8806:8869   */\n      swap2\n      pop\n        /* \"#utility.yul\":8760:8879   */\n      pop\n        /* \"#utility.yul\":7615:8886   */\n      swap3\n      swap6\n      pop\n      swap3\n      swap6\n      swap1\n      swap4\n      pop\n      jump\t// out\n        /* \"#utility.yul\":8892:9366   */\n    tag_52:\n        /* \"#utility.yul\":8960:8966   */\n      0x00\n        /* \"#utility.yul\":8968:8974   */\n      dup1\n        /* \"#utility.yul\":9017:9019   */\n      0x40\n        /* \"#utility.yul\":9005:9014   */\n      dup4\n        /* \"#utility.yul\":8996:9003   */\n      dup6\n        /* \"#utility.yul\":8992:9015   */\n      sub\n        /* \"#utility.yul\":8988:9020   */\n      slt\n        /* \"#utility.yul\":8985:9104   */\n      iszero\n      tag_300\n      jumpi\n        /* \"#utility.yul\":9023:9102   */\n      tag_301\n      tag_132\n      jump\t// in\n    tag_301:\n        /* \"#utility.yul\":8985:9104   */\n    tag_300:\n        /* \"#utility.yul\":9143:9144   */\n      0x00\n        /* \"#utility.yul\":9168:9221   */\n      tag_302\n        /* \"#utility.yul\":9213:9220   */\n      dup6\n        /* \"#utility.yul\":9204:9210   */\n      dup3\n        /* \"#utility.yul\":9193:9202   */\n      dup7\n        /* \"#utility.yul\":9189:9211   */\n      add\n        /* \"#utility.yul\":9168:9221   */\n      tag_136\n      jump\t// in\n    tag_302:\n        /* \"#utility.yul\":9158:9221   */\n      swap3\n      pop\n        /* \"#utility.yul\":9114:9231   */\n      pop\n        /* \"#utility.yul\":9270:9272   */\n      0x20\n        /* \"#utility.yul\":9296:9349   */\n      tag_303\n        /* \"#utility.yul\":9341:9348   */\n      dup6\n        /* \"#utility.yul\":9332:9338   */\n      dup3\n        /* \"#utility.yul\":9321:9330   */\n      dup7\n        /* \"#utility.yul\":9317:9339   */\n      add\n        /* \"#utility.yul\":9296:9349   */\n      tag_136\n      jump\t// in\n    tag_303:\n        /* \"#utility.yul\":9286:9349   */\n      swap2\n      pop\n        /* \"#utility.yul\":9241:9359   */\n      pop\n        /* \"#utility.yul\":8892:9366   */\n      swap3\n      pop\n      swap3\n      swap1\n      pop\n      jump\t// out\n        /* \"#utility.yul\":9372:9594   */\n    tag_55:\n        /* \"#utility.yul\":9465:9469   */\n      0x00\n        /* \"#utility.yul\":9503:9505   */\n      0x20\n        /* \"#utility.yul\":9492:9501   */\n      dup3\n        /* \"#utility.yul\":9488:9506   */\n      add\n        /* \"#utility.yul\":9480:9506   */\n      swap1\n      pop\n        /* \"#utility.yul\":9516:9587   */\n      tag_305\n        /* \"#utility.yul\":9584:9585   */\n      0x00\n        /* \"#utility.yul\":9573:9582   */\n      dup4\n        /* \"#utility.yul\":9569:9586   */\n      add\n        /* \"#utility.yul\":9560:9566   */\n      dup5\n        /* \"#utility.yul\":9516:9587   */\n      tag_145\n      jump\t// in\n    tag_305:\n        /* \"#utility.yul\":9372:9594   */\n      swap3\n      swap2\n      pop\n      pop\n      jump\t// out\n        /* \"#utility.yul\":9600:9714   */\n    tag_163:\n        /* \"#utility.yul\":9667:9673   */\n      0x00\n        /* \"#utility.yul\":9701:9706   */\n      dup2\n        /* \"#utility.yul\":9695:9707   */\n      mload\n        /* \"#utility.yul\":9685:9707   */\n      swap1\n      pop\n        /* \"#utility.yul\":9600:9714   */\n      swap2\n      swap1\n      pop\n      jump\t// out\n        /* \"#utility.yul\":9720:9904   */\n    tag_164:\n        /* \"#utility.yul\":9819:9830   */\n      0x00\n        /* \"#utility.yul\":9853:9859   */\n      dup3\n        /* \"#utility.yul\":9848:9851   */\n      dup3\n        /* \"#utility.yul\":9841:9860   */\n      mstore\n        /* \"#utility.yul\":9893:9897   */\n      0x20\n        /* \"#utility.yul\":9888:9891   */\n      dup3\n        /* \"#utility.yul\":9884:9898   */\n      add\n        /* \"#utility.yul\":9869:9898   */\n      swap1\n      pop\n        /* \"#utility.yul\":9720:9904   */\n      swap3\n      swap2\n      pop\n      pop\n      jump\t// out\n        /* \"#utility.yul\":9910:10042   */\n    tag_165:\n        /* \"#utility.yul\":9977:9981   */\n      0x00\n        /* \"#utility.yul\":10000:10003   */\n      dup2\n        /* \"#utility.yul\":9992:10003   */\n      swap1\n      pop\n        /* \"#utility.yul\":10030:10034   */\n      0x20\n        /* \"#utility.yul\":10025:10028   */\n      dup3\n        /* \"#utility.yul\":10021:10035   */\n      add\n        /* \"#utility.yul\":10013:10035   */\n      swap1\n      pop\n        /* \"#utility.yul\":9910:10042   */\n      swap2\n      swap1\n      pop\n      jump\t// out\n        /* \"#utility.yul\":10048:10156   */\n    tag_166:\n        /* \"#utility.yul\":10125:10149   */\n      tag_310\n        /* \"#utility.yul\":10143:10148   */\n      dup2\n        /* \"#utility.yul\":10125:10149   */\n      tag_144\n      jump\t// in\n    tag_310:\n        /* \"#utility.yul\":10120:10123   */\n      dup3\n        /* \"#utility.yul\":10113:10150   */\n      mstore\n        /* \"#utility.yul\":10048:10156   */\n      pop\n      pop\n      jump\t// out\n        /* \"#utility.yul\":10162:10341   */\n    tag_167:\n        /* \"#utility.yul\":10231:10241   */\n      0x00\n        /* \"#utility.yul\":10252:10298   */\n      tag_312\n        /* \"#utility.yul\":10294:10297   */\n      dup4\n        /* \"#utility.yul\":10286:10292   */\n      dup4\n        /* \"#utility.yul\":10252:10298   */\n      tag_166\n      jump\t// in\n    tag_312:\n        /* \"#utility.yul\":10330:10334   */\n      0x20\n        /* \"#utility.yul\":10325:10328   */\n      dup4\n        /* \"#utility.yul\":10321:10335   */\n      add\n        /* \"#utility.yul\":10307:10335   */\n      swap1\n      pop\n        /* \"#utility.yul\":10162:10341   */\n      swap3\n      swap2\n      pop\n      pop\n      jump\t// out\n        /* \"#utility.yul\":10347:10460   */\n    tag_168:\n        /* \"#utility.yul\":10417:10421   */\n      0x00\n        /* \"#utility.yul\":10449:10453   */\n      0x20\n        /* \"#utility.yul\":10444:10447   */\n      dup3\n        /* \"#utility.yul\":10440:10454   */\n      add\n        /* \"#utility.yul\":10432:10454   */\n      swap1\n      pop\n        /* \"#utility.yul\":10347:10460   */\n      swap2\n      swap1\n      pop\n      jump\t// out\n        /* \"#utility.yul\":10496:11228   */\n    tag_169:\n        /* \"#utility.yul\":10615:10618   */\n      0x00\n        /* \"#utility.yul\":10644:10698   */\n      tag_315\n        /* \"#utility.yul\":10692:10697   */\n      dup3\n        /* \"#utility.yul\":10644:10698   */\n      tag_163\n      jump\t// in\n    tag_315:\n        /* \"#utility.yul\":10714:10800   */\n      tag_316\n        /* \"#utility.yul\":10793:10799   */\n      dup2\n        /* \"#utility.yul\":10788:10791   */\n      dup6\n        /* \"#utility.yul\":10714:10800   */\n      tag_164\n      jump\t// in\n    tag_316:\n        /* \"#utility.yul\":10707:10800   */\n      swap4\n      pop\n        /* \"#utility.yul\":10824:10880   */\n      tag_317\n        /* \"#utility.yul\":10874:10879   */\n      dup4\n        /* \"#utility.yul\":10824:10880   */\n      tag_165\n      jump\t// in\n    tag_317:\n        /* \"#utility.yul\":10903:10910   */\n      dup1\n        /* \"#utility.yul\":10934:10935   */\n      0x00\n        /* \"#utility.yul\":10919:11203   */\n    tag_318:\n        /* \"#utility.yul\":10944:10950   */\n      dup4\n        /* \"#utility.yul\":10941:10942   */\n      dup2\n        /* \"#utility.yul\":10938:10951   */\n      lt\n        /* \"#utility.yul\":10919:11203   */\n      iszero\n      tag_320\n      jumpi\n        /* \"#utility.yul\":11020:11026   */\n      dup2\n        /* \"#utility.yul\":11014:11027   */\n      mload\n        /* \"#utility.yul\":11047:11110   */\n      tag_321\n        /* \"#utility.yul\":11106:11109   */\n      dup9\n        /* \"#utility.yul\":11091:11104   */\n      dup3\n        /* \"#utility.yul\":11047:11110   */\n      tag_167\n      jump\t// in\n    tag_321:\n        /* \"#utility.yul\":11040:11110   */\n      swap8\n      pop\n        /* \"#utility.yul\":11133:11193   */\n      tag_322\n        /* \"#utility.yul\":11186:11192   */\n      dup4\n        /* \"#utility.yul\":11133:11193   */\n      tag_168\n      jump\t// in\n    tag_322:\n        /* \"#utility.yul\":11123:11193   */\n      swap3\n      pop\n        /* \"#utility.yul\":10979:11203   */\n      pop\n        /* \"#utility.yul\":10966:10967   */\n      0x01\n        /* \"#utility.yul\":10963:10964   */\n      dup2\n        /* \"#utility.yul\":10959:10968   */\n      add\n        /* \"#utility.yul\":10954:10968   */\n      swap1\n      pop\n        /* \"#utility.yul\":10919:11203   */\n      jump(tag_318)\n    tag_320:\n        /* \"#utility.yul\":10923:10937   */\n      pop\n        /* \"#utility.yul\":11219:11222   */\n      dup6\n        /* \"#utility.yul\":11212:11222   */\n      swap4\n      pop\n        /* \"#utility.yul\":10620:11228   */\n      pop\n      pop\n      pop\n        /* \"#utility.yul\":10496:11228   */\n      swap3\n      swap2\n      pop\n      pop\n      jump\t// out\n        /* \"#utility.yul\":11234:11607   */\n    tag_61:\n        /* \"#utility.yul\":11377:11381   */\n      0x00\n        /* \"#utility.yul\":11415:11417   */\n      0x20\n        /* \"#utility.yul\":11404:11413   */\n      dup3\n        /* \"#utility.yul\":11400:11418   */\n      add\n        /* \"#utility.yul\":11392:11418   */\n      swap1\n      pop\n        /* \"#utility.yul\":11464:11473   */\n      dup2\n        /* \"#utility.yul\":11458:11462   */\n      dup2\n        /* \"#utility.yul\":11454:11474   */\n      sub\n        /* \"#utility.yul\":11450:11451   */\n      0x00\n        /* \"#utility.yul\":11439:11448   */\n      dup4\n        /* \"#utility.yul\":11435:11452   */\n      add\n        /* \"#utility.yul\":11428:11475   */\n      mstore\n        /* \"#utility.yul\":11492:11600   */\n      tag_324\n        /* \"#utility.yul\":11595:11599   */\n      dup2\n        /* \"#utility.yul\":11586:11592   */\n      dup5\n        /* \"#utility.yul\":11492:11600   */\n      tag_169\n      jump\t// in\n    tag_324:\n        /* \"#utility.yul\":11484:11600   */\n      swap1\n      pop\n        /* \"#utility.yul\":11234:11607   */\n      swap3\n      swap2\n      pop\n      pop\n      jump\t// out\n        /* \"#utility.yul\":11613:12087   */\n    tag_65:\n        /* \"#utility.yul\":11681:11687   */\n      0x00\n        /* \"#utility.yul\":11689:11695   */\n      dup1\n        /* \"#utility.yul\":11738:11740   */\n      0x40\n        /* \"#utility.yul\":11726:11735   */\n      dup4\n        /* \"#utility.yul\":11717:11724   */\n      dup6\n        /* \"#utility.yul\":11713:11736   */\n      sub\n        /* \"#utility.yul\":11709:11741   */\n      slt\n        /* \"#utility.yul\":11706:11825   */\n      iszero\n      tag_326\n      jumpi\n        /* \"#utility.yul\":11744:11823   */\n      tag_327\n      tag_132\n      jump\t// in\n    tag_327:\n        /* \"#utility.yul\":11706:11825   */\n    tag_326:\n        /* \"#utility.yul\":11864:11865   */\n      0x00\n        /* \"#utility.yul\":11889:11942   */\n      tag_328\n        /* \"#utility.yul\":11934:11941   */\n      dup6\n        /* \"#utility.yul\":11925:11931   */\n      dup3\n        /* \"#utility.yul\":11914:11923   */\n      dup7\n        /* \"#utility.yul\":11910:11932   */\n      add\n        /* \"#utility.yul\":11889:11942   */\n      tag_151\n      jump\t// in\n    tag_328:\n        /* \"#utility.yul\":11879:11942   */\n      swap3\n      pop\n        /* \"#utility.yul\":11835:11952   */\n      pop\n        /* \"#utility.yul\":11991:11993   */\n      0x20\n        /* \"#utility.yul\":12017:12070   */\n      tag_329\n        /* \"#utility.yul\":12062:12069   */\n      dup6\n        /* \"#utility.yul\":12053:12059   */\n      dup3\n        /* \"#utility.yul\":12042:12051   */\n      dup7\n        /* \"#utility.yul\":12038:12060   */\n      add\n        /* \"#utility.yul\":12017:12070   */\n      tag_136\n      jump\t// in\n    tag_329:\n        /* \"#utility.yul\":12007:12070   */\n      swap2\n      pop\n        /* \"#utility.yul\":11962:12080   */\n      pop\n        /* \"#utility.yul\":11613:12087   */\n      swap3\n      pop\n      swap3\n      swap1\n      pop\n      jump\t// out\n        /* \"#utility.yul\":12093:12273   */\n    tag_170:\n        /* \"#utility.yul\":12141:12218   */\n      0x4e487b7100000000000000000000000000000000000000000000000000000000\n        /* \"#utility.yul\":12138:12139   */\n      0x00\n        /* \"#utility.yul\":12131:12219   */\n      mstore\n        /* \"#utility.yul\":12238:12242   */\n      0x22\n        /* \"#utility.yul\":12235:12236   */\n      0x04\n        /* \"#utility.yul\":12228:12243   */\n      mstore\n        /* \"#utility.yul\":12262:12266   */\n      0x24\n        /* \"#utility.yul\":12259:12260   */\n      0x00\n        /* \"#utility.yul\":12252:12267   */\n      revert\n        /* \"#utility.yul\":12279:12599   */\n    tag_69:\n        /* \"#utility.yul\":12323:12329   */\n      0x00\n        /* \"#utility.yul\":12360:12361   */\n      0x02\n        /* \"#utility.yul\":12354:12358   */\n      dup3\n        /* \"#utility.yul\":12350:12362   */\n      div\n        /* \"#utility.yul\":12340:12362   */\n      swap1\n      pop\n        /* \"#utility.yul\":12407:12408   */\n      0x01\n        /* \"#utility.yul\":12401:12405   */\n      dup3\n        /* \"#utility.yul\":12397:12409   */\n      and\n        /* \"#utility.yul\":12428:12446   */\n      dup1\n        /* \"#utility.yul\":12418:12499   */\n      tag_332\n      jumpi\n        /* \"#utility.yul\":12484:12488   */\n      0x7f\n        /* \"#utility.yul\":12476:12482   */\n      dup3\n        /* \"#utility.yul\":12472:12489   */\n      and\n        /* \"#utility.yul\":12462:12489   */\n      swap2\n      pop\n        /* \"#utility.yul\":12418:12499   */\n    tag_332:\n        /* \"#utility.yul\":12546:12548   */\n      0x20\n        /* \"#utility.yul\":12538:12544   */\n      dup3\n        /* \"#utility.yul\":12535:12549   */\n      lt\n        /* \"#utility.yul\":12515:12533   */\n      dup2\n        /* \"#utility.yul\":12512:12550   */\n      sub\n        /* \"#utility.yul\":12509:12593   */\n      tag_333\n      jumpi\n        /* \"#utility.yul\":12565:12583   */\n      tag_334\n      tag_170\n      jump\t// in\n    tag_334:\n        /* \"#utility.yul\":12509:12593   */\n    tag_333:\n        /* \"#utility.yul\":12330:12599   */\n      pop\n        /* \"#utility.yul\":12279:12599   */\n      swap2\n      swap1\n      pop\n      jump\t// out\n        /* \"#utility.yul\":12605:12854   */\n    tag_171:\n        /* \"#utility.yul\":12745:12779   */\n      0x41636573736f206e656761646f2e20566f6365206e616f20706f737375692070\n        /* \"#utility.yul\":12741:12742   */\n      0x00\n        /* \"#utility.yul\":12733:12739   */\n      dup3\n        /* \"#utility.yul\":12729:12743   */\n      add\n        /* \"#utility.yul\":12722:12780   */\n      mstore\n        /* \"#utility.yul\":12814:12846   */\n      0x65726d697373616f207061726120766572206573736573206461646f732e0000\n        /* \"#utility.yul\":12809:12811   */\n      0x20\n        /* \"#utility.yul\":12801:12807   */\n      dup3\n        /* \"#utility.yul\":12797:12812   */\n      add\n        /* \"#utility.yul\":12790:12847   */\n      mstore\n        /* \"#utility.yul\":12605:12854   */\n      pop\n      jump\t// out\n        /* \"#utility.yul\":12860:13226   */\n    tag_172:\n        /* \"#utility.yul\":13002:13005   */\n      0x00\n        /* \"#utility.yul\":13023:13090   */\n      tag_337\n        /* \"#utility.yul\":13087:13089   */\n      0x3e\n        /* \"#utility.yul\":13082:13085   */\n      dup4\n        /* \"#utility.yul\":13023:13090   */\n      tag_138\n      jump\t// in\n    tag_337:\n        /* \"#utility.yul\":13016:13090   */\n      swap2\n      pop\n        /* \"#utility.yul\":13099:13192   */\n      tag_338\n        /* \"#utility.yul\":13188:13191   */\n      dup3\n        /* \"#utility.yul\":13099:13192   */\n      tag_171\n      jump\t// in\n    tag_338:\n        /* \"#utility.yul\":13217:13219   */\n      0x40\n        /* \"#utility.yul\":13212:13215   */\n      dup3\n        /* \"#utility.yul\":13208:13220   */\n      add\n        /* \"#utility.yul\":13201:13220   */\n      swap1\n      pop\n        /* \"#utility.yul\":12860:13226   */\n      swap2\n      swap1\n      pop\n      jump\t// out\n        /* \"#utility.yul\":13232:13651   */\n    tag_86:\n        /* \"#utility.yul\":13398:13402   */\n      0x00\n        /* \"#utility.yul\":13436:13438   */\n      0x20\n        /* \"#utility.yul\":13425:13434   */\n      dup3\n        /* \"#utility.yul\":13421:13439   */\n      add\n        /* \"#utility.yul\":13413:13439   */\n      swap1\n      pop\n        /* \"#utility.yul\":13485:13494   */\n      dup2\n        /* \"#utility.yul\":13479:13483   */\n      dup2\n        /* \"#utility.yul\":13475:13495   */\n      sub\n        /* \"#utility.yul\":13471:13472   */\n      0x00\n        /* \"#utility.yul\":13460:13469   */\n      dup4\n        /* \"#utility.yul\":13456:13473   */\n      add\n        /* \"#utility.yul\":13449:13496   */\n      mstore\n        /* \"#utility.yul\":13513:13644   */\n      tag_340\n        /* \"#utility.yul\":13639:13643   */\n      dup2\n        /* \"#utility.yul\":13513:13644   */\n      tag_172\n      jump\t// in\n    tag_340:\n        /* \"#utility.yul\":13505:13644   */\n      swap1\n      pop\n        /* \"#utility.yul\":13232:13651   */\n      swap2\n      swap1\n      pop\n      jump\t// out\n        /* \"#utility.yul\":13657:13838   */\n    tag_173:\n        /* \"#utility.yul\":13797:13830   */\n      0x446174617365742065737065636966696361646f206e616f2065786973746500\n        /* \"#utility.yul\":13793:13794   */\n      0x00\n        /* \"#utility.yul\":13785:13791   */\n      dup3\n        /* \"#utility.yul\":13781:13795   */\n      add\n        /* \"#utility.yul\":13774:13831   */\n      mstore\n        /* \"#utility.yul\":13657:13838   */\n      pop\n      jump\t// out\n        /* \"#utility.yul\":13844:14210   */\n    tag_174:\n        /* \"#utility.yul\":13986:13989   */\n      0x00\n        /* \"#utility.yul\":14007:14074   */\n      tag_343\n        /* \"#utility.yul\":14071:14073   */\n      0x1f\n        /* \"#utility.yul\":14066:14069   */\n      dup4\n        /* \"#utility.yul\":14007:14074   */\n      tag_138\n      jump\t// in\n    tag_343:\n        /* \"#utility.yul\":14000:14074   */\n      swap2\n      pop\n        /* \"#utility.yul\":14083:14176   */\n      tag_344\n        /* \"#utility.yul\":14172:14175   */\n      dup3\n        /* \"#utility.yul\":14083:14176   */\n      tag_173\n      jump\t// in\n    tag_344:\n        /* \"#utility.yul\":14201:14203   */\n      0x20\n        /* \"#utility.yul\":14196:14199   */\n      dup3\n        /* \"#utility.yul\":14192:14204   */\n      add\n        /* \"#utility.yul\":14185:14204   */\n      swap1\n      pop\n        /* \"#utility.yul\":13844:14210   */\n      swap2\n      swap1\n      pop\n      jump\t// out\n        /* \"#utility.yul\":14216:14635   */\n    tag_91:\n        /* \"#utility.yul\":14382:14386   */\n      0x00\n        /* \"#utility.yul\":14420:14422   */\n      0x20\n        /* \"#utility.yul\":14409:14418   */\n      dup3\n        /* \"#utility.yul\":14405:14423   */\n      add\n        /* \"#utility.yul\":14397:14423   */\n      swap1\n      pop\n        /* \"#utility.yul\":14469:14478   */\n      dup2\n        /* \"#utility.yul\":14463:14467   */\n      dup2\n        /* \"#utility.yul\":14459:14479   */\n      sub\n        /* \"#utility.yul\":14455:14456   */\n      0x00\n        /* \"#utility.yul\":14444:14453   */\n      dup4\n        /* \"#utility.yul\":14440:14457   */\n      add\n        /* \"#utility.yul\":14433:14480   */\n      mstore\n        /* \"#utility.yul\":14497:14628   */\n      tag_346\n        /* \"#utility.yul\":14623:14627   */\n      dup2\n        /* \"#utility.yul\":14497:14628   */\n      tag_174\n      jump\t// in\n    tag_346:\n        /* \"#utility.yul\":14489:14628   */\n      swap1\n      pop\n        /* \"#utility.yul\":14216:14635   */\n      swap2\n      swap1\n      pop\n      jump\t// out\n        /* \"#utility.yul\":14641:14818   */\n    tag_175:\n        /* \"#utility.yul\":14781:14810   */\n      0x56616c6f7220696e636f727265746f207061726120636f6d7072610000000000\n        /* \"#utility.yul\":14777:14778   */\n      0x00\n        /* \"#utility.yul\":14769:14775   */\n      dup3\n        /* \"#utility.yul\":14765:14779   */\n      add\n        /* \"#utility.yul\":14758:14811   */\n      mstore\n        /* \"#utility.yul\":14641:14818   */\n      pop\n      jump\t// out\n        /* \"#utility.yul\":14824:15190   */\n    tag_176:\n        /* \"#utility.yul\":14966:14969   */\n      0x00\n        /* \"#utility.yul\":14987:15054   */\n      tag_349\n        /* \"#utility.yul\":15051:15053   */\n      0x1b\n        /* \"#utility.yul\":15046:15049   */\n      dup4\n        /* \"#utility.yul\":14987:15054   */\n      tag_138\n      jump\t// in\n    tag_349:\n        /* \"#utility.yul\":14980:15054   */\n      swap2\n      pop\n        /* \"#utility.yul\":15063:15156   */\n      tag_350\n        /* \"#utility.yul\":15152:15155   */\n      dup3\n        /* \"#utility.yul\":15063:15156   */\n      tag_175\n      jump\t// in\n    tag_350:\n        /* \"#utility.yul\":15181:15183   */\n      0x20\n        /* \"#utility.yul\":15176:15179   */\n      dup3\n        /* \"#utility.yul\":15172:15184   */\n      add\n        /* \"#utility.yul\":15165:15184   */\n      swap1\n      pop\n        /* \"#utility.yul\":14824:15190   */\n      swap2\n      swap1\n      pop\n      jump\t// out\n        /* \"#utility.yul\":15196:15615   */\n    tag_94:\n        /* \"#utility.yul\":15362:15366   */\n      0x00\n        /* \"#utility.yul\":15400:15402   */\n      0x20\n        /* \"#utility.yul\":15389:15398   */\n      dup3\n        /* \"#utility.yul\":15385:15403   */\n      add\n        /* \"#utility.yul\":15377:15403   */\n      swap1\n      pop\n        /* \"#utility.yul\":15449:15458   */\n      dup2\n        /* \"#utility.yul\":15443:15447   */\n      dup2\n        /* \"#utility.yul\":15439:15459   */\n      sub\n        /* \"#utility.yul\":15435:15436   */\n      0x00\n        /* \"#utility.yul\":15424:15433   */\n      dup4\n        /* \"#utility.yul\":15420:15437   */\n      add\n        /* \"#utility.yul\":15413:15460   */\n      mstore\n        /* \"#utility.yul\":15477:15608   */\n      tag_352\n        /* \"#utility.yul\":15603:15607   */\n      dup2\n        /* \"#utility.yul\":15477:15608   */\n      tag_176\n      jump\t// in\n    tag_352:\n        /* \"#utility.yul\":15469:15608   */\n      swap1\n      pop\n        /* \"#utility.yul\":15196:15615   */\n      swap2\n      swap1\n      pop\n      jump\t// out\n        /* \"#utility.yul\":15621:15845   */\n    tag_177:\n        /* \"#utility.yul\":15761:15795   */\n      0x566f6365206e616f20706f737375692061636573736f20612065737465206461\n        /* \"#utility.yul\":15757:15758   */\n      0x00\n        /* \"#utility.yul\":15749:15755   */\n      dup3\n        /* \"#utility.yul\":15745:15759   */\n      add\n        /* \"#utility.yul\":15738:15796   */\n      mstore\n        /* \"#utility.yul\":15830:15837   */\n      0x7461736574000000000000000000000000000000000000000000000000000000\n        /* \"#utility.yul\":15825:15827   */\n      0x20\n        /* \"#utility.yul\":15817:15823   */\n      dup3\n        /* \"#utility.yul\":15813:15828   */\n      add\n        /* \"#utility.yul\":15806:15838   */\n      mstore\n        /* \"#utility.yul\":15621:15845   */\n      pop\n      jump\t// out\n        /* \"#utility.yul\":15851:16217   */\n    tag_178:\n        /* \"#utility.yul\":15993:15996   */\n      0x00\n        /* \"#utility.yul\":16014:16081   */\n      tag_355\n        /* \"#utility.yul\":16078:16080   */\n      0x25\n        /* \"#utility.yul\":16073:16076   */\n      dup4\n        /* \"#utility.yul\":16014:16081   */\n      tag_138\n      jump\t// in\n    tag_355:\n        /* \"#utility.yul\":16007:16081   */\n      swap2\n      pop\n        /* \"#utility.yul\":16090:16183   */\n      tag_356\n        /* \"#utility.yul\":16179:16182   */\n      dup3\n        /* \"#utility.yul\":16090:16183   */\n      tag_177\n      jump\t// in\n    tag_356:\n        /* \"#utility.yul\":16208:16210   */\n      0x40\n        /* \"#utility.yul\":16203:16206   */\n      dup3\n        /* \"#utility.yul\":16199:16211   */\n      add\n        /* \"#utility.yul\":16192:16211   */\n      swap1\n      pop\n        /* \"#utility.yul\":15851:16217   */\n      swap2\n      swap1\n      pop\n      jump\t// out\n        /* \"#utility.yul\":16223:16642   */\n    tag_102:\n        /* \"#utility.yul\":16389:16393   */\n      0x00\n        /* \"#utility.yul\":16427:16429   */\n      0x20\n        /* \"#utility.yul\":16416:16425   */\n      dup3\n        /* \"#utility.yul\":16412:16430   */\n      add\n        /* \"#utility.yul\":16404:16430   */\n      swap1\n      pop\n        /* \"#utility.yul\":16476:16485   */\n      dup2\n        /* \"#utility.yul\":16470:16474   */\n      dup2\n        /* \"#utility.yul\":16466:16486   */\n      sub\n        /* \"#utility.yul\":16462:16463   */\n      0x00\n        /* \"#utility.yul\":16451:16460   */\n      dup4\n        /* \"#utility.yul\":16447:16464   */\n      add\n        /* \"#utility.yul\":16440:16487   */\n      mstore\n        /* \"#utility.yul\":16504:16635   */\n      tag_358\n        /* \"#utility.yul\":16630:16634   */\n      dup2\n        /* \"#utility.yul\":16504:16635   */\n      tag_178\n      jump\t// in\n    tag_358:\n        /* \"#utility.yul\":16496:16635   */\n      swap1\n      pop\n        /* \"#utility.yul\":16223:16642   */\n      swap2\n      swap1\n      pop\n      jump\t// out\n        /* \"#utility.yul\":16648:16877   */\n    tag_179:\n        /* \"#utility.yul\":16788:16822   */\n      0x56616c6f722070617261207472616e73666572656e6369612064657665207365\n        /* \"#utility.yul\":16784:16785   */\n      0x00\n        /* \"#utility.yul\":16776:16782   */\n      dup3\n        /* \"#utility.yul\":16772:16786   */\n      add\n        /* \"#utility.yul\":16765:16823   */\n      mstore\n        /* \"#utility.yul\":16857:16869   */\n      0x7220706f73697469766f00000000000000000000000000000000000000000000\n        /* \"#utility.yul\":16852:16854   */\n      0x20\n        /* \"#utility.yul\":16844:16850   */\n      dup3\n        /* \"#utility.yul\":16840:16855   */\n      add\n        /* \"#utility.yul\":16833:16870   */\n      mstore\n        /* \"#utility.yul\":16648:16877   */\n      pop\n      jump\t// out\n        /* \"#utility.yul\":16883:17249   */\n    tag_180:\n        /* \"#utility.yul\":17025:17028   */\n      0x00\n        /* \"#utility.yul\":17046:17113   */\n      tag_361\n        /* \"#utility.yul\":17110:17112   */\n      0x2a\n        /* \"#utility.yul\":17105:17108   */\n      dup4\n        /* \"#utility.yul\":17046:17113   */\n      tag_138\n      jump\t// in\n    tag_361:\n        /* \"#utility.yul\":17039:17113   */\n      swap2\n      pop\n        /* \"#utility.yul\":17122:17215   */\n      tag_362\n        /* \"#utility.yul\":17211:17214   */\n      dup3\n        /* \"#utility.yul\":17122:17215   */\n      tag_179\n      jump\t// in\n    tag_362:\n        /* \"#utility.yul\":17240:17242   */\n      0x40\n        /* \"#utility.yul\":17235:17238   */\n      dup3\n        /* \"#utility.yul\":17231:17243   */\n      add\n        /* \"#utility.yul\":17224:17243   */\n      swap1\n      pop\n        /* \"#utility.yul\":16883:17249   */\n      swap2\n      swap1\n      pop\n      jump\t// out\n        /* \"#utility.yul\":17255:17674   */\n    tag_105:\n        /* \"#utility.yul\":17421:17425   */\n      0x00\n        /* \"#utility.yul\":17459:17461   */\n      0x20\n        /* \"#utility.yul\":17448:17457   */\n      dup3\n        /* \"#utility.yul\":17444:17462   */\n      add\n        /* \"#utility.yul\":17436:17462   */\n      swap1\n      pop\n        /* \"#utility.yul\":17508:17517   */\n      dup2\n        /* \"#utility.yul\":17502:17506   */\n      dup2\n        /* \"#utility.yul\":17498:17518   */\n      sub\n        /* \"#utility.yul\":17494:17495   */\n      0x00\n        /* \"#utility.yul\":17483:17492   */\n      dup4\n        /* \"#utility.yul\":17479:17496   */\n      add\n        /* \"#utility.yul\":17472:17519   */\n      mstore\n        /* \"#utility.yul\":17536:17667   */\n      tag_364\n        /* \"#utility.yul\":17662:17666   */\n      dup2\n        /* \"#utility.yul\":17536:17667   */\n      tag_180\n      jump\t// in\n    tag_364:\n        /* \"#utility.yul\":17528:17667   */\n      swap1\n      pop\n        /* \"#utility.yul\":17255:17674   */\n      swap2\n      swap1\n      pop\n      jump\t// out\n        /* \"#utility.yul\":17680:17860   */\n    tag_181:\n        /* \"#utility.yul\":17728:17805   */\n      0x4e487b7100000000000000000000000000000000000000000000000000000000\n        /* \"#utility.yul\":17725:17726   */\n      0x00\n        /* \"#utility.yul\":17718:17806   */\n      mstore\n        /* \"#utility.yul\":17825:17829   */\n      0x11\n        /* \"#utility.yul\":17822:17823   */\n      0x04\n        /* \"#utility.yul\":17815:17830   */\n      mstore\n        /* \"#utility.yul\":17849:17853   */\n      0x24\n        /* \"#utility.yul\":17846:17847   */\n      0x00\n        /* \"#utility.yul\":17839:17854   */\n      revert\n        /* \"#utility.yul\":17866:18276   */\n    tag_107:\n        /* \"#utility.yul\":17906:17913   */\n      0x00\n        /* \"#utility.yul\":17929:17949   */\n      tag_367\n        /* \"#utility.yul\":17947:17948   */\n      dup3\n        /* \"#utility.yul\":17929:17949   */\n      tag_134\n      jump\t// in\n    tag_367:\n        /* \"#utility.yul\":17924:17949   */\n      swap2\n      pop\n        /* \"#utility.yul\":17963:17983   */\n      tag_368\n        /* \"#utility.yul\":17981:17982   */\n      dup4\n        /* \"#utility.yul\":17963:17983   */\n      tag_134\n      jump\t// in\n    tag_368:\n        /* \"#utility.yul\":17958:17983   */\n      swap3\n      pop\n        /* \"#utility.yul\":18018:18019   */\n      dup3\n        /* \"#utility.yul\":18015:18016   */\n      dup3\n        /* \"#utility.yul\":18011:18020   */\n      mul\n        /* \"#utility.yul\":18040:18070   */\n      tag_369\n        /* \"#utility.yul\":18058:18069   */\n      dup2\n        /* \"#utility.yul\":18040:18070   */\n      tag_134\n      jump\t// in\n    tag_369:\n        /* \"#utility.yul\":18029:18070   */\n      swap2\n      pop\n        /* \"#utility.yul\":18219:18220   */\n      dup3\n        /* \"#utility.yul\":18210:18217   */\n      dup3\n        /* \"#utility.yul\":18206:18221   */\n      div\n        /* \"#utility.yul\":18203:18204   */\n      dup5\n        /* \"#utility.yul\":18200:18222   */\n      eq\n        /* \"#utility.yul\":18180:18181   */\n      dup4\n        /* \"#utility.yul\":18173:18182   */\n      iszero\n        /* \"#utility.yul\":18153:18236   */\n      or\n        /* \"#utility.yul\":18130:18269   */\n      tag_370\n      jumpi\n        /* \"#utility.yul\":18249:18267   */\n      tag_371\n      tag_181\n      jump\t// in\n    tag_371:\n        /* \"#utility.yul\":18130:18269   */\n    tag_370:\n        /* \"#utility.yul\":17914:18276   */\n      pop\n        /* \"#utility.yul\":17866:18276   */\n      swap3\n      swap2\n      pop\n      pop\n      jump\t// out\n        /* \"#utility.yul\":18282:18462   */\n    tag_182:\n        /* \"#utility.yul\":18330:18407   */\n      0x4e487b7100000000000000000000000000000000000000000000000000000000\n        /* \"#utility.yul\":18327:18328   */\n      0x00\n        /* \"#utility.yul\":18320:18408   */\n      mstore\n        /* \"#utility.yul\":18427:18431   */\n      0x12\n        /* \"#utility.yul\":18424:18425   */\n      0x04\n        /* \"#utility.yul\":18417:18432   */\n      mstore\n        /* \"#utility.yul\":18451:18455   */\n      0x24\n        /* \"#utility.yul\":18448:18449   */\n      0x00\n        /* \"#utility.yul\":18441:18456   */\n      revert\n        /* \"#utility.yul\":18468:18653   */\n    tag_109:\n        /* \"#utility.yul\":18508:18509   */\n      0x00\n        /* \"#utility.yul\":18525:18545   */\n      tag_374\n        /* \"#utility.yul\":18543:18544   */\n      dup3\n        /* \"#utility.yul\":18525:18545   */\n      tag_134\n      jump\t// in\n    tag_374:\n        /* \"#utility.yul\":18520:18545   */\n      swap2\n      pop\n        /* \"#utility.yul\":18559:18579   */\n      tag_375\n        /* \"#utility.yul\":18577:18578   */\n      dup4\n        /* \"#utility.yul\":18559:18579   */\n      tag_134\n      jump\t// in\n    tag_375:\n        /* \"#utility.yul\":18554:18579   */\n      swap3\n      pop\n        /* \"#utility.yul\":18598:18599   */\n      dup3\n        /* \"#utility.yul\":18588:18623   */\n      tag_376\n      jumpi\n        /* \"#utility.yul\":18603:18621   */\n      tag_377\n      tag_182\n      jump\t// in\n    tag_377:\n        /* \"#utility.yul\":18588:18623   */\n    tag_376:\n        /* \"#utility.yul\":18645:18646   */\n      dup3\n        /* \"#utility.yul\":18642:18643   */\n      dup3\n        /* \"#utility.yul\":18638:18647   */\n      div\n        /* \"#utility.yul\":18633:18647   */\n      swap1\n      pop\n        /* \"#utility.yul\":18468:18653   */\n      swap3\n      swap2\n      pop\n      pop\n      jump\t// out\n        /* \"#utility.yul\":18659:18853   */\n    tag_113:\n        /* \"#utility.yul\":18699:18703   */\n      0x00\n        /* \"#utility.yul\":18719:18739   */\n      tag_379\n        /* \"#utility.yul\":18737:18738   */\n      dup3\n        /* \"#utility.yul\":18719:18739   */\n      tag_134\n      jump\t// in\n    tag_379:\n        /* \"#utility.yul\":18714:18739   */\n      swap2\n      pop\n        /* \"#utility.yul\":18753:18773   */\n      tag_380\n        /* \"#utility.yul\":18771:18772   */\n      dup4\n        /* \"#utility.yul\":18753:18773   */\n      tag_134\n      jump\t// in\n    tag_380:\n        /* \"#utility.yul\":18748:18773   */\n      swap3\n      pop\n        /* \"#utility.yul\":18797:18798   */\n      dup3\n        /* \"#utility.yul\":18794:18795   */\n      dup3\n        /* \"#utility.yul\":18790:18799   */\n      sub\n        /* \"#utility.yul\":18782:18799   */\n      swap1\n      pop\n        /* \"#utility.yul\":18821:18822   */\n      dup2\n        /* \"#utility.yul\":18815:18819   */\n      dup2\n        /* \"#utility.yul\":18812:18823   */\n      gt\n        /* \"#utility.yul\":18809:18846   */\n      iszero\n      tag_381\n      jumpi\n        /* \"#utility.yul\":18826:18844   */\n      tag_382\n      tag_181\n      jump\t// in\n    tag_382:\n        /* \"#utility.yul\":18809:18846   */\n    tag_381:\n        /* \"#utility.yul\":18659:18853   */\n      swap3\n      swap2\n      pop\n      pop\n      jump\t// out\n        /* \"#utility.yul\":18859:19092   */\n    tag_120:\n        /* \"#utility.yul\":18898:18901   */\n      0x00\n        /* \"#utility.yul\":18921:18945   */\n      tag_384\n        /* \"#utility.yul\":18939:18944   */\n      dup3\n        /* \"#utility.yul\":18921:18945   */\n      tag_134\n      jump\t// in\n    tag_384:\n        /* \"#utility.yul\":18912:18945   */\n      swap2\n      pop\n        /* \"#utility.yul\":18967:19033   */\n      0xffffffffffffffffffffffffffffffffffffffffffffffffffffffffffffffff\n        /* \"#utility.yul\":18960:18965   */\n      dup3\n        /* \"#utility.yul\":18957:19034   */\n      sub\n        /* \"#utility.yul\":18954:19057   */\n      tag_385\n      jumpi\n        /* \"#utility.yul\":19037:19055   */\n      tag_386\n      tag_181\n      jump\t// in\n    tag_386:\n        /* \"#utility.yul\":18954:19057   */\n    tag_385:\n        /* \"#utility.yul\":19084:19085   */\n      0x01\n        /* \"#utility.yul\":19077:19082   */\n      dup3\n        /* \"#utility.yul\":19073:19086   */\n      add\n        /* \"#utility.yul\":19066:19086   */\n      swap1\n      pop\n        /* \"#utility.yul\":18859:19092   */\n      swap2\n      swap1\n      pop\n      jump\t// out\n        /* \"#utility.yul\":19098:19289   */\n    tag_122:\n        /* \"#utility.yul\":19138:19141   */\n      0x00\n        /* \"#utility.yul\":19157:19177   */\n      tag_388\n        /* \"#utility.yul\":19175:19176   */\n      dup3\n        /* \"#utility.yul\":19157:19177   */\n      tag_134\n      jump\t// in\n    tag_388:\n        /* \"#utility.yul\":19152:19177   */\n      swap2\n      pop\n        /* \"#utility.yul\":19191:19211   */\n      tag_389\n        /* \"#utility.yul\":19209:19210   */\n      dup4\n        /* \"#utility.yul\":19191:19211   */\n      tag_134\n      jump\t// in\n    tag_389:\n        /* \"#utility.yul\":19186:19211   */\n      swap3\n      pop\n        /* \"#utility.yul\":19234:19235   */\n      dup3\n        /* \"#utility.yul\":19231:19232   */\n      dup3\n        /* \"#utility.yul\":19227:19236   */\n      add\n        /* \"#utility.yul\":19220:19236   */\n      swap1\n      pop\n        /* \"#utility.yul\":19255:19258   */\n      dup1\n        /* \"#utility.yul\":19252:19253   */\n      dup3\n        /* \"#utility.yul\":19249:19259   */\n      gt\n        /* \"#utility.yul\":19246:19282   */\n      iszero\n      tag_390\n      jumpi\n        /* \"#utility.yul\":19262:19280   */\n      tag_391\n      tag_181\n      jump\t// in\n    tag_391:\n        /* \"#utility.yul\":19246:19282   */\n    tag_390:\n        /* \"#utility.yul\":19098:19289   */\n      swap3\n      swap2\n      pop\n      pop\n      jump\t// out\n        /* \"#utility.yul\":19295:19436   */\n    tag_183:\n        /* \"#utility.yul\":19344:19348   */\n      0x00\n        /* \"#utility.yul\":19367:19370   */\n      dup2\n        /* \"#utility.yul\":19359:19370   */\n      swap1\n      pop\n        /* \"#utility.yul\":19390:19393   */\n      dup2\n        /* \"#utility.yul\":19387:19388   */\n      0x00\n        /* \"#utility.yul\":19380:19394   */\n      mstore\n        /* \"#utility.yul\":19424:19428   */\n      0x20\n        /* \"#utility.yul\":19421:19422   */\n      0x00\n        /* \"#utility.yul\":19411:19429   */\n      keccak256\n        /* \"#utility.yul\":19403:19429   */\n      swap1\n      pop\n        /* \"#utility.yul\":19295:19436   */\n      swap2\n      swap1\n      pop\n      jump\t// out\n        /* \"#utility.yul\":19442:19535   */\n    tag_184:\n        /* \"#utility.yul\":19479:19485   */\n      0x00\n        /* \"#utility.yul\":19526:19528   */\n      0x20\n        /* \"#utility.yul\":19521:19523   */\n      0x1f\n        /* \"#utility.yul\":19514:19519   */\n      dup4\n        /* \"#utility.yul\":19510:19524   */\n      add\n        /* \"#utility.yul\":19506:19529   */\n      div\n        /* \"#utility.yul\":19496:19529   */\n      swap1\n      pop\n        /* \"#utility.yul\":19442:19535   */\n      swap2\n      swap1\n      pop\n      jump\t// out\n        /* \"#utility.yul\":19541:19648   */\n    tag_185:\n        /* \"#utility.yul\":19585:19593   */\n      0x00\n        /* \"#utility.yul\":19635:19640   */\n      dup3\n        /* \"#utility.yul\":19629:19633   */\n      dup3\n        /* \"#utility.yul\":19625:19641   */\n      shl\n        /* \"#utility.yul\":19604:19641   */\n      swap1\n      pop\n        /* \"#utility.yul\":19541:19648   */\n      swap3\n      swap2\n      pop\n      pop\n      jump\t// out\n        /* \"#utility.yul\":19654:20047   */\n    tag_186:\n        /* \"#utility.yul\":19723:19729   */\n      0x00\n        /* \"#utility.yul\":19773:19774   */\n      0x08\n        /* \"#utility.yul\":19761:19771   */\n      dup4\n        /* \"#utility.yul\":19757:19775   */\n      mul\n        /* \"#utility.yul\":19796:19893   */\n      tag_396\n        /* \"#utility.yul\":19826:19892   */\n      0xffffffffffffffffffffffffffffffffffffffffffffffffffffffffffffffff\n        /* \"#utility.yul\":19815:19824   */\n      dup3\n        /* \"#utility.yul\":19796:19893   */\n      tag_185\n      jump\t// in\n    tag_396:\n        /* \"#utility.yul\":19914:19953   */\n      tag_397\n        /* \"#utility.yul\":19944:19952   */\n      dup7\n        /* \"#utility.yul\":19933:19942   */\n      dup4\n        /* \"#utility.yul\":19914:19953   */\n      tag_185\n      jump\t// in\n    tag_397:\n        /* \"#utility.yul\":19902:19953   */\n      swap6\n      pop\n        /* \"#utility.yul\":19986:19990   */\n      dup1\n        /* \"#utility.yul\":19982:19991   */\n      not\n        /* \"#utility.yul\":19975:19980   */\n      dup5\n        /* \"#utility.yul\":19971:19992   */\n      and\n        /* \"#utility.yul\":19962:19992   */\n      swap4\n      pop\n        /* \"#utility.yul\":20035:20039   */\n      dup1\n        /* \"#utility.yul\":20025:20033   */\n      dup7\n        /* \"#utility.yul\":20021:20040   */\n      and\n        /* \"#utility.yul\":20014:20019   */\n      dup5\n        /* \"#utility.yul\":20011:20041   */\n      or\n        /* \"#utility.yul\":20001:20041   */\n      swap3\n      pop\n        /* \"#utility.yul\":19730:20047   */\n      pop\n      pop\n        /* \"#utility.yul\":19654:20047   */\n      swap4\n      swap3\n      pop\n      pop\n      pop\n      jump\t// out\n        /* \"#utility.yul\":20053:20113   */\n    tag_187:\n        /* \"#utility.yul\":20081:20084   */\n      0x00\n        /* \"#utility.yul\":20102:20107   */\n      dup2\n        /* \"#utility.yul\":20095:20107   */\n      swap1\n      pop\n        /* \"#utility.yul\":20053:20113   */\n      swap2\n      swap1\n      pop\n      jump\t// out\n        /* \"#utility.yul\":20119:20261   */\n    tag_188:\n        /* \"#utility.yul\":20169:20178   */\n      0x00\n        /* \"#utility.yul\":20202:20255   */\n      tag_400\n        /* \"#utility.yul\":20220:20254   */\n      tag_401\n        /* \"#utility.yul\":20229:20253   */\n      tag_402\n        /* \"#utility.yul\":20247:20252   */\n      dup5\n        /* \"#utility.yul\":20229:20253   */\n      tag_134\n      jump\t// in\n    tag_402:\n        /* \"#utility.yul\":20220:20254   */\n      tag_187\n      jump\t// in\n    tag_401:\n        /* \"#utility.yul\":20202:20255   */\n      tag_134\n      jump\t// in\n    tag_400:\n        /* \"#utility.yul\":20189:20255   */\n      swap1\n      pop\n        /* \"#utility.yul\":20119:20261   */\n      swap2\n      swap1\n      pop\n      jump\t// out\n        /* \"#utility.yul\":20267:20342   */\n    tag_189:\n        /* \"#utility.yul\":20310:20313   */\n      0x00\n        /* \"#utility.yul\":20331:20336   */\n      dup2\n        /* \"#utility.yul\":20324:20336   */\n      swap1\n      pop\n        /* \"#utility.yul\":20267:20342   */\n      swap2\n      swap1\n      pop\n      jump\t// out\n        /* \"#utility.yul\":20348:20617   */\n    tag_190:\n        /* \"#utility.yul\":20458:20497   */\n      tag_405\n        /* \"#utility.yul\":20489:20496   */\n      dup4\n        /* \"#utility.yul\":20458:20497   */\n      tag_188\n      jump\t// in\n    tag_405:\n        /* \"#utility.yul\":20519:20610   */\n      tag_406\n        /* \"#utility.yul\":20568:20609   */\n      tag_407\n        /* \"#utility.yul\":20592:20608   */\n      dup3\n        /* \"#utility.yul\":20568:20609   */\n      tag_189\n      jump\t// in\n    tag_407:\n        /* \"#utility.yul\":20560:20566   */\n      dup5\n        /* \"#utility.yul\":20553:20557   */\n      dup5\n        /* \"#utility.yul\":20547:20558   */\n      sload\n        /* \"#utility.yul\":20519:20610   */\n      tag_186\n      jump\t// in\n    tag_406:\n        /* \"#utility.yul\":20513:20517   */\n      dup3\n        /* \"#utility.yul\":20506:20611   */\n      sstore\n        /* \"#utility.yul\":20424:20617   */\n      pop\n        /* \"#utility.yul\":20348:20617   */\n      pop\n      pop\n      pop\n      jump\t// out\n        /* \"#utility.yul\":20623:20696   */\n    tag_191:\n        /* \"#utility.yul\":20668:20671   */\n      0x00\n        /* \"#utility.yul\":20623:20696   */\n      swap1\n      jump\t// out\n        /* \"#utility.yul\":20702:20891   */\n    tag_192:\n        /* \"#utility.yul\":20779:20811   */\n      tag_410\n      tag_191\n      jump\t// in\n    tag_410:\n        /* \"#utility.yul\":20820:20885   */\n      tag_411\n        /* \"#utility.yul\":20878:20884   */\n      dup2\n        /* \"#utility.yul\":20870:20876   */\n      dup5\n        /* \"#utility.yul\":20864:20868   */\n      dup5\n        /* \"#utility.yul\":20820:20885   */\n      tag_190\n      jump\t// in\n    tag_411:\n        /* \"#utility.yul\":20755:20891   */\n      pop\n        /* \"#utility.yul\":20702:20891   */\n      pop\n      pop\n      jump\t// out\n        /* \"#utility.yul\":20897:21083   */\n    tag_193:\n        /* \"#utility.yul\":20957:21077   */\n    tag_413:\n        /* \"#utility.yul\":20974:20977   */\n      dup2\n        /* \"#utility.yul\":20967:20972   */\n      dup2\n        /* \"#utility.yul\":20964:20978   */\n      lt\n        /* \"#utility.yul\":20957:21077   */\n      iszero\n      tag_415\n      jumpi\n        /* \"#utility.yul\":21028:21067   */\n      tag_416\n        /* \"#utility.yul\":21065:21066   */\n      0x00\n        /* \"#utility.yul\":21058:21063   */\n      dup3\n        /* \"#utility.yul\":21028:21067   */\n      tag_192\n      jump\t// in\n    tag_416:\n        /* \"#utility.yul\":21001:21002   */\n      0x01\n        /* \"#utility.yul\":20994:20999   */\n      dup2\n        /* \"#utility.yul\":20990:21003   */\n      add\n        /* \"#utility.yul\":20981:21003   */\n      swap1\n      pop\n        /* \"#utility.yul\":20957:21077   */\n      jump(tag_413)\n    tag_415:\n        /* \"#utility.yul\":20897:21083   */\n      pop\n      pop\n      jump\t// out\n        /* \"#utility.yul\":21089:21632   */\n    tag_194:\n        /* \"#utility.yul\":21190:21192   */\n      0x1f\n        /* \"#utility.yul\":21185:21188   */\n      dup3\n        /* \"#utility.yul\":21182:21193   */\n      gt\n        /* \"#utility.yul\":21179:21625   */\n      iszero\n      tag_418\n      jumpi\n        /* \"#utility.yul\":21224:21262   */\n      tag_419\n        /* \"#utility.yul\":21256:21261   */\n      dup2\n        /* \"#utility.yul\":21224:21262   */\n      tag_183\n      jump\t// in\n    tag_419:\n        /* \"#utility.yul\":21308:21337   */\n      tag_420\n        /* \"#utility.yul\":21326:21336   */\n      dup5\n        /* \"#utility.yul\":21308:21337   */\n      tag_184\n      jump\t// in\n    tag_420:\n        /* \"#utility.yul\":21298:21306   */\n      dup2\n        /* \"#utility.yul\":21294:21338   */\n      add\n        /* \"#utility.yul\":21491:21493   */\n      0x20\n        /* \"#utility.yul\":21479:21489   */\n      dup6\n        /* \"#utility.yul\":21476:21494   */\n      lt\n        /* \"#utility.yul\":21473:21522   */\n      iszero\n      tag_421\n      jumpi\n        /* \"#utility.yul\":21512:21520   */\n      dup2\n        /* \"#utility.yul\":21497:21520   */\n      swap1\n      pop\n        /* \"#utility.yul\":21473:21522   */\n    tag_421:\n        /* \"#utility.yul\":21535:21615   */\n      tag_422\n        /* \"#utility.yul\":21591:21613   */\n      tag_423\n        /* \"#utility.yul\":21609:21612   */\n      dup6\n        /* \"#utility.yul\":21591:21613   */\n      tag_184\n      jump\t// in\n    tag_423:\n        /* \"#utility.yul\":21581:21589   */\n      dup4\n        /* \"#utility.yul\":21577:21614   */\n      add\n        /* \"#utility.yul\":21564:21575   */\n      dup3\n        /* \"#utility.yul\":21535:21615   */\n      tag_193\n      jump\t// in\n    tag_422:\n        /* \"#utility.yul\":21194:21625   */\n      pop\n      pop\n        /* \"#utility.yul\":21179:21625   */\n    tag_418:\n        /* \"#utility.yul\":21089:21632   */\n      pop\n      pop\n      pop\n      jump\t// out\n        /* \"#utility.yul\":21638:21755   */\n    tag_195:\n        /* \"#utility.yul\":21692:21700   */\n      0x00\n        /* \"#utility.yul\":21742:21747   */\n      dup3\n        /* \"#utility.yul\":21736:21740   */\n      dup3\n        /* \"#utility.yul\":21732:21748   */\n      shr\n        /* \"#utility.yul\":21711:21748   */\n      swap1\n      pop\n        /* \"#utility.yul\":21638:21755   */\n      swap3\n      swap2\n      pop\n      pop\n      jump\t// out\n        /* \"#utility.yul\":21761:21930   */\n    tag_196:\n        /* \"#utility.yul\":21805:21811   */\n      0x00\n        /* \"#utility.yul\":21838:21889   */\n      tag_426\n        /* \"#utility.yul\":21886:21887   */\n      0x00\n        /* \"#utility.yul\":21882:21888   */\n      not\n        /* \"#utility.yul\":21874:21879   */\n      dup5\n        /* \"#utility.yul\":21871:21872   */\n      0x08\n        /* \"#utility.yul\":21867:21880   */\n      mul\n        /* \"#utility.yul\":21838:21889   */\n      tag_195\n      jump\t// in\n    tag_426:\n        /* \"#utility.yul\":21834:21890   */\n      not\n        /* \"#utility.yul\":21919:21923   */\n      dup1\n        /* \"#utility.yul\":21913:21917   */\n      dup4\n        /* \"#utility.yul\":21909:21924   */\n      and\n        /* \"#utility.yul\":21899:21924   */\n      swap2\n      pop\n        /* \"#utility.yul\":21812:21930   */\n      pop\n        /* \"#utility.yul\":21761:21930   */\n      swap3\n      swap2\n      pop\n      pop\n      jump\t// out\n        /* \"#utility.yul\":21935:22230   */\n    tag_197:\n        /* \"#utility.yul\":22011:22015   */\n      0x00\n        /* \"#utility.yul\":22157:22186   */\n      tag_428\n        /* \"#utility.yul\":22182:22185   */\n      dup4\n        /* \"#utility.yul\":22176:22180   */\n      dup4\n        /* \"#utility.yul\":22157:22186   */\n      tag_196\n      jump\t// in\n    tag_428:\n        /* \"#utility.yul\":22149:22186   */\n      swap2\n      pop\n        /* \"#utility.yul\":22219:22222   */\n      dup3\n        /* \"#utility.yul\":22216:22217   */\n      0x02\n        /* \"#utility.yul\":22212:22223   */\n      mul\n        /* \"#utility.yul\":22206:22210   */\n      dup3\n        /* \"#utility.yul\":22203:22224   */\n      or\n        /* \"#utility.yul\":22195:22224   */\n      swap1\n      pop\n        /* \"#utility.yul\":21935:22230   */\n      swap3\n      swap2\n      pop\n      pop\n      jump\t// out\n        /* \"#utility.yul\":22235:23630   */\n    tag_124:\n        /* \"#utility.yul\":22352:22389   */\n      tag_430\n        /* \"#utility.yul\":22385:22388   */\n      dup3\n        /* \"#utility.yul\":22352:22389   */\n      tag_137\n      jump\t// in\n    tag_430:\n        /* \"#utility.yul\":22454:22472   */\n      0xffffffffffffffff\n        /* \"#utility.yul\":22446:22452   */\n      dup2\n        /* \"#utility.yul\":22443:22473   */\n      gt\n        /* \"#utility.yul\":22440:22496   */\n      iszero\n      tag_431\n      jumpi\n        /* \"#utility.yul\":22476:22494   */\n      tag_432\n      tag_154\n      jump\t// in\n    tag_432:\n        /* \"#utility.yul\":22440:22496   */\n    tag_431:\n        /* \"#utility.yul\":22520:22558   */\n      tag_433\n        /* \"#utility.yul\":22552:22556   */\n      dup3\n        /* \"#utility.yul\":22546:22557   */\n      sload\n        /* \"#utility.yul\":22520:22558   */\n      tag_69\n      jump\t// in\n    tag_433:\n        /* \"#utility.yul\":22605:22672   */\n      tag_434\n        /* \"#utility.yul\":22665:22671   */\n      dup3\n        /* \"#utility.yul\":22657:22663   */\n      dup3\n        /* \"#utility.yul\":22651:22655   */\n      dup6\n        /* \"#utility.yul\":22605:22672   */\n      tag_194\n      jump\t// in\n    tag_434:\n        /* \"#utility.yul\":22699:22700   */\n      0x00\n        /* \"#utility.yul\":22723:22727   */\n      0x20\n        /* \"#utility.yul\":22710:22727   */\n      swap1\n      pop\n        /* \"#utility.yul\":22755:22757   */\n      0x1f\n        /* \"#utility.yul\":22747:22753   */\n      dup4\n        /* \"#utility.yul\":22744:22758   */\n      gt\n        /* \"#utility.yul\":22772:22773   */\n      0x01\n        /* \"#utility.yul\":22767:23385   */\n      dup2\n      eq\n      tag_436\n      jumpi\n        /* \"#utility.yul\":23429:23430   */\n      0x00\n        /* \"#utility.yul\":23446:23452   */\n      dup5\n        /* \"#utility.yul\":23443:23520   */\n      iszero\n      tag_437\n      jumpi\n        /* \"#utility.yul\":23495:23504   */\n      dup3\n        /* \"#utility.yul\":23490:23493   */\n      dup8\n        /* \"#utility.yul\":23486:23505   */\n      add\n        /* \"#utility.yul\":23480:23506   */\n      mload\n        /* \"#utility.yul\":23471:23506   */\n      swap1\n      pop\n        /* \"#utility.yul\":23443:23520   */\n    tag_437:\n        /* \"#utility.yul\":23546:23613   */\n      tag_438\n        /* \"#utility.yul\":23606:23612   */\n      dup6\n        /* \"#utility.yul\":23599:23604   */\n      dup3\n        /* \"#utility.yul\":23546:23613   */\n      tag_197\n      jump\t// in\n    tag_438:\n        /* \"#utility.yul\":23540:23544   */\n      dup7\n        /* \"#utility.yul\":23533:23614   */\n      sstore\n        /* \"#utility.yul\":23402:23624   */\n      pop\n        /* \"#utility.yul\":22737:23624   */\n      jump(tag_435)\n        /* \"#utility.yul\":22767:23385   */\n    tag_436:\n        /* \"#utility.yul\":22819:22823   */\n      0x1f\n        /* \"#utility.yul\":22815:22824   */\n      not\n        /* \"#utility.yul\":22807:22813   */\n      dup5\n        /* \"#utility.yul\":22803:22825   */\n      and\n        /* \"#utility.yul\":22853:22890   */\n      tag_439\n        /* \"#utility.yul\":22885:22889   */\n      dup7\n        /* \"#utility.yul\":22853:22890   */\n      tag_183\n      jump\t// in\n    tag_439:\n        /* \"#utility.yul\":22912:22913   */\n      0x00\n        /* \"#utility.yul\":22926:23134   */\n    tag_440:\n        /* \"#utility.yul\":22940:22947   */\n      dup3\n        /* \"#utility.yul\":22937:22938   */\n      dup2\n        /* \"#utility.yul\":22934:22948   */\n      lt\n        /* \"#utility.yul\":22926:23134   */\n      iszero\n      tag_442\n      jumpi\n        /* \"#utility.yul\":23019:23028   */\n      dup5\n        /* \"#utility.yul\":23014:23017   */\n      dup10\n        /* \"#utility.yul\":23010:23029   */\n      add\n        /* \"#utility.yul\":23004:23030   */\n      mload\n        /* \"#utility.yul\":22996:23002   */\n      dup3\n        /* \"#utility.yul\":22989:23031   */\n      sstore\n        /* \"#utility.yul\":23070:23071   */\n      0x01\n        /* \"#utility.yul\":23062:23068   */\n      dup3\n        /* \"#utility.yul\":23058:23072   */\n      add\n        /* \"#utility.yul\":23048:23072   */\n      swap2\n      pop\n        /* \"#utility.yul\":23117:23119   */\n      0x20\n        /* \"#utility.yul\":23106:23115   */\n      dup6\n        /* \"#utility.yul\":23102:23120   */\n      add\n        /* \"#utility.yul\":23089:23120   */\n      swap5\n      pop\n        /* \"#utility.yul\":22963:22967   */\n      0x20\n        /* \"#utility.yul\":22960:22961   */\n      dup2\n        /* \"#utility.yul\":22956:22968   */\n      add\n        /* \"#utility.yul\":22951:22968   */\n      swap1\n      pop\n        /* \"#utility.yul\":22926:23134   */\n      jump(tag_440)\n    tag_442:\n        /* \"#utility.yul\":23162:23168   */\n      dup7\n        /* \"#utility.yul\":23153:23160   */\n      dup4\n        /* \"#utility.yul\":23150:23169   */\n      lt\n        /* \"#utility.yul\":23147:23326   */\n      iszero\n      tag_443\n      jumpi\n        /* \"#utility.yul\":23220:23229   */\n      dup5\n        /* \"#utility.yul\":23215:23218   */\n      dup10\n        /* \"#utility.yul\":23211:23230   */\n      add\n        /* \"#utility.yul\":23205:23231   */\n      mload\n        /* \"#utility.yul\":23263:23311   */\n      tag_444\n        /* \"#utility.yul\":23305:23309   */\n      0x1f\n        /* \"#utility.yul\":23297:23303   */\n      dup10\n        /* \"#utility.yul\":23293:23310   */\n      and\n        /* \"#utility.yul\":23282:23291   */\n      dup3\n        /* \"#utility.yul\":23263:23311   */\n      tag_196\n      jump\t// in\n    tag_444:\n        /* \"#utility.yul\":23255:23261   */\n      dup4\n        /* \"#utility.yul\":23248:23312   */\n      sstore\n        /* \"#utility.yul\":23170:23326   */\n      pop\n        /* \"#utility.yul\":23147:23326   */\n    tag_443:\n        /* \"#utility.yul\":23372:23373   */\n      0x01\n        /* \"#utility.yul\":23368:23369   */\n      0x02\n        /* \"#utility.yul\":23360:23366   */\n      dup9\n        /* \"#utility.yul\":23356:23370   */\n      mul\n        /* \"#utility.yul\":23352:23374   */\n      add\n        /* \"#utility.yul\":23346:23350   */\n      dup9\n        /* \"#utility.yul\":23339:23375   */\n      sstore\n        /* \"#utility.yul\":22774:23385   */\n      pop\n      pop\n      pop\n        /* \"#utility.yul\":22737:23624   */\n    tag_435:\n      pop\n        /* \"#utility.yul\":22327:23630   */\n      pop\n      pop\n      pop\n        /* \"#utility.yul\":22235:23630   */\n      pop\n      pop\n      jump\t// out\n\n    auxdata: 0xa2646970667358221220d5c60889d14d5653ef76d1e373b8f60680e0c60e2820179c704472236dac636564736f6c634300081a0033\n}\n",
				"bytecode": {
					"linkReferences": {},
					"object": "6080604052348015600e575f80fd5b506119758061001c5f395ff3fe608060405260043610610090575f3560e01c80637449be0d116100585780637449be0d14610193578063c013f8c7146101af578063e3c40e1a146101d7578063f2cec6ee14610213578063f581fb681461024f57610090565b80631cff85e1146100945780633132ddfe146100d557806338d7e815146101115780633c8935b91461014d57806350a1a26414610177575b5f80fd5b34801561009f575f80fd5b506100ba60048036038101906100b59190610cd8565b61028b565b6040516100cc96959493929190610dd9565b60405180910390f35b3480156100e0575f80fd5b506100fb60048036038101906100f69190610cd8565b6103ed565b6040516101089190610e60565b60405180910390f35b34801561011c575f80fd5b5061013760048036038101906101329190610cd8565b61047d565b6040516101449190610e79565b60405180910390f35b348015610158575f80fd5b506101616104e1565b60405161016e9190610e92565b60405180910390f35b610191600480360381019061018c9190610cd8565b6104e7565b005b6101ad60048036038101906101a89190610ed5565b61071c565b005b3480156101ba575f80fd5b506101d560048036038101906101d09190611069565b610a77565b005b3480156101e2575f80fd5b506101fd60048036038101906101f89190611118565b610b86565b60405161020a9190611156565b60405180910390f35b34801561021e575f80fd5b5061023960048036038101906102349190610cd8565b610bce565b6040516102469190611226565b60405180910390f35b34801561025a575f80fd5b5061027560048036038101906102709190611246565b610c6a565b6040516102829190610e60565b60405180910390f35b5f602052805f5260405f205f91509050805f0180546102a9906112b1565b80601f01602080910402602001604051908101604052809291908181526020018280546102d5906112b1565b80156103205780601f106102f757610100808354040283529160200191610320565b820191905f5260205f20905b81548152906001019060200180831161030357829003601f168201915b505050505090806001018054610335906112b1565b80601f0160208091040260200160405190810160405280929190818152602001828054610361906112b1565b80156103ac5780601f10610383576101008083540402835291602001916103ac565b820191905f5260205f20905b81548152906001019060200180831161038f57829003601f168201915b505050505090806002015490806003015f9054906101000a900473ffffffffffffffffffffffffffffffffffffffff16908060040154908060050154905086565b5f60015f3373ffffffffffffffffffffffffffffffffffffffff1673ffffffffffffffffffffffffffffffffffffffff1681526020019081526020015f205f8381526020019081526020015f205f9054906101000a900460ff16801561046657505f808381526020019081526020015f20600501544211155b156104745760019050610478565b5f90505b919050565b5f610487826103ed565b6104c6576040517f08c379a00000000000000000000000000000000000000000000000000000000081526004016104bd90611351565b60405180910390fd5b5f808381526020019081526020015f20600401549050919050565b60035481565b5f811180156104f857506003548111155b610537576040517f08c379a000000000000000000000000000000000000000000000000000000000815260040161052e906113b9565b60405180910390fd5b5f805f8381526020019081526020015f20905080600201543414610590576040517f08c379a000000000000000000000000000000000000000000000000000000000815260040161058790611421565b60405180910390fd5b6001805f3373ffffffffffffffffffffffffffffffffffffffff1673ffffffffffffffffffffffffffffffffffffffff1681526020019081526020015f205f8481526020019081526020015f205f6101000a81548160ff02191690831515021790555060025f8381526020019081526020015f2033908060018154018082558091505060019003905f5260205f20015f9091909190916101000a81548173ffffffffffffffffffffffffffffffffffffffff021916908373ffffffffffffffffffffffffffffffffffffffff160217905550806003015f9054906101000a900473ffffffffffffffffffffffffffffffffffffffff1673ffffffffffffffffffffffffffffffffffffffff166108fc3490811502906040515f60405180830381858888f193505050501580156106c8573d5f803e3d5ffd5b503373ffffffffffffffffffffffffffffffffffffffff16827f709b48219c4b1cf38d85d4e8cf9befdeb3e2dc3f108255265283d92ca06001ed426040516107109190610e92565b60405180910390a35050565b60015f3373ffffffffffffffffffffffffffffffffffffffff1673ffffffffffffffffffffffffffffffffffffffff1681526020019081526020015f205f8381526020019081526020015f205f9054906101000a900460ff166107b4576040517f08c379a00000000000000000000000000000000000000000000000000000000081526004016107ab906114af565b60405180910390fd5b5f34116107f6576040517f08c379a00000000000000000000000000000000000000000000000000000000081526004016107ed9061153d565b60405180910390fd5b5f6064600a346108069190611588565b61081091906115f6565b90505f808481526020019081526020015f206003015f9054906101000a900473ffffffffffffffffffffffffffffffffffffffff1673ffffffffffffffffffffffffffffffffffffffff166108fc8290811502906040515f60405180830381858888f19350505050158015610887573d5f803e3d5ffd5b503373ffffffffffffffffffffffffffffffffffffffff166108fc82346108ae9190611626565b90811502906040515f60405180830381858888f193505050501580156108d6573d5f803e3d5ffd5b505f60015f3373ffffffffffffffffffffffffffffffffffffffff1673ffffffffffffffffffffffffffffffffffffffff1681526020019081526020015f205f8581526020019081526020015f205f6101000a81548160ff0219169083151502179055506001805f8473ffffffffffffffffffffffffffffffffffffffff1673ffffffffffffffffffffffffffffffffffffffff1681526020019081526020015f205f8581526020019081526020015f205f6101000a81548160ff02191690831515021790555060025f8481526020019081526020015f2082908060018154018082558091505060019003905f5260205f20015f9091909190916101000a81548173ffffffffffffffffffffffffffffffffffffffff021916908373ffffffffffffffffffffffffffffffffffffffff1602179055508173ffffffffffffffffffffffffffffffffffffffff163373ffffffffffffffffffffffffffffffffffffffff16847fe8f5c36eb366edf2f2f54b79965ebe7409d803e703c3f5dd5760368ef85d305942604051610a6a9190610e92565b60405180910390a4505050565b60035f815480929190610a8990611659565b91905055506040518060c001604052808681526020018581526020018481526020013373ffffffffffffffffffffffffffffffffffffffff1681526020018381526020018242610ad991906116a0565b8152505f8060035481526020019081526020015f205f820151815f019081610b019190611870565b506020820151816001019081610b179190611870565b50604082015181600201556060820151816003015f6101000a81548173ffffffffffffffffffffffffffffffffffffffff021916908373ffffffffffffffffffffffffffffffffffffffff1602179055506080820151816004015560a082015181600501559050505050505050565b6002602052815f5260405f208181548110610b9f575f80fd5b905f5260205f20015f915091509054906101000a900473ffffffffffffffffffffffffffffffffffffffff1681565b606060025f8381526020019081526020015f20805480602002602001604051908101604052809291908181526020018280548015610c5e57602002820191905f5260205f20905b815f9054906101000a900473ffffffffffffffffffffffffffffffffffffffff1673ffffffffffffffffffffffffffffffffffffffff1681526020019060010190808311610c15575b50505050509050919050565b6001602052815f5260405f20602052805f5260405f205f915091509054906101000a900460ff1681565b5f604051905090565b5f80fd5b5f80fd5b5f819050919050565b610cb781610ca5565b8114610cc1575f80fd5b50565b5f81359050610cd281610cae565b92915050565b5f60208284031215610ced57610cec610c9d565b5b5f610cfa84828501610cc4565b91505092915050565b5f81519050919050565b5f82825260208201905092915050565b8281835e5f83830152505050565b5f601f19601f8301169050919050565b5f610d4582610d03565b610d4f8185610d0d565b9350610d5f818560208601610d1d565b610d6881610d2b565b840191505092915050565b610d7c81610ca5565b82525050565b5f73ffffffffffffffffffffffffffffffffffffffff82169050919050565b5f610dab82610d82565b9050919050565b610dbb81610da1565b82525050565b5f819050919050565b610dd381610dc1565b82525050565b5f60c0820190508181035f830152610df18189610d3b565b90508181036020830152610e058188610d3b565b9050610e146040830187610d73565b610e216060830186610db2565b610e2e6080830185610dca565b610e3b60a0830184610d73565b979650505050505050565b5f8115159050919050565b610e5a81610e46565b82525050565b5f602082019050610e735f830184610e51565b92915050565b5f602082019050610e8c5f830184610dca565b92915050565b5f602082019050610ea55f830184610d73565b92915050565b610eb481610da1565b8114610ebe575f80fd5b50565b5f81359050610ecf81610eab565b92915050565b5f8060408385031215610eeb57610eea610c9d565b5b5f610ef885828601610cc4565b9250506020610f0985828601610ec1565b9150509250929050565b5f80fd5b5f80fd5b7f4e487b71000000000000000000000000000000000000000000000000000000005f52604160045260245ffd5b610f5182610d2b565b810181811067ffffffffffffffff82111715610f7057610f6f610f1b565b5b80604052505050565b5f610f82610c94565b9050610f8e8282610f48565b919050565b5f67ffffffffffffffff821115610fad57610fac610f1b565b5b610fb682610d2b565b9050602081019050919050565b828183375f83830152505050565b5f610fe3610fde84610f93565b610f79565b905082815260208101848484011115610fff57610ffe610f17565b5b61100a848285610fc3565b509392505050565b5f82601f83011261102657611025610f13565b5b8135611036848260208601610fd1565b91505092915050565b61104881610dc1565b8114611052575f80fd5b50565b5f813590506110638161103f565b92915050565b5f805f805f60a0868803121561108257611081610c9d565b5b5f86013567ffffffffffffffff81111561109f5761109e610ca1565b5b6110ab88828901611012565b955050602086013567ffffffffffffffff8111156110cc576110cb610ca1565b5b6110d888828901611012565b94505060406110e988828901610cc4565b93505060606110fa88828901611055565b925050608061110b88828901610cc4565b9150509295509295909350565b5f806040838503121561112e5761112d610c9d565b5b5f61113b85828601610cc4565b925050602061114c85828601610cc4565b9150509250929050565b5f6020820190506111695f830184610db2565b92915050565b5f81519050919050565b5f82825260208201905092915050565b5f819050602082019050919050565b6111a181610da1565b82525050565b5f6111b28383611198565b60208301905092915050565b5f602082019050919050565b5f6111d48261116f565b6111de8185611179565b93506111e983611189565b805f5b8381101561121957815161120088826111a7565b975061120b836111be565b9250506001810190506111ec565b5085935050505092915050565b5f6020820190508181035f83015261123e81846111ca565b905092915050565b5f806040838503121561125c5761125b610c9d565b5b5f61126985828601610ec1565b925050602061127a85828601610cc4565b9150509250929050565b7f4e487b71000000000000000000000000000000000000000000000000000000005f52602260045260245ffd5b5f60028204905060018216806112c857607f821691505b6020821081036112db576112da611284565b5b50919050565b7f41636573736f206e656761646f2e20566f6365206e616f20706f7373756920705f8201527f65726d697373616f207061726120766572206573736573206461646f732e0000602082015250565b5f61133b603e83610d0d565b9150611346826112e1565b604082019050919050565b5f6020820190508181035f8301526113688161132f565b9050919050565b7f446174617365742065737065636966696361646f206e616f20657869737465005f82015250565b5f6113a3601f83610d0d565b91506113ae8261136f565b602082019050919050565b5f6020820190508181035f8301526113d081611397565b9050919050565b7f56616c6f7220696e636f727265746f207061726120636f6d70726100000000005f82015250565b5f61140b601b83610d0d565b9150611416826113d7565b602082019050919050565b5f6020820190508181035f830152611438816113ff565b9050919050565b7f566f6365206e616f20706f737375692061636573736f206120657374652064615f8201527f7461736574000000000000000000000000000000000000000000000000000000602082015250565b5f611499602583610d0d565b91506114a48261143f565b604082019050919050565b5f6020820190508181035f8301526114c68161148d565b9050919050565b7f56616c6f722070617261207472616e73666572656e63696120646576652073655f8201527f7220706f73697469766f00000000000000000000000000000000000000000000602082015250565b5f611527602a83610d0d565b9150611532826114cd565b604082019050919050565b5f6020820190508181035f8301526115548161151b565b9050919050565b7f4e487b71000000000000000000000000000000000000000000000000000000005f52601160045260245ffd5b5f61159282610ca5565b915061159d83610ca5565b92508282026115ab81610ca5565b915082820484148315176115c2576115c161155b565b5b5092915050565b7f4e487b71000000000000000000000000000000000000000000000000000000005f52601260045260245ffd5b5f61160082610ca5565b915061160b83610ca5565b92508261161b5761161a6115c9565b5b828204905092915050565b5f61163082610ca5565b915061163b83610ca5565b92508282039050818111156116535761165261155b565b5b92915050565b5f61166382610ca5565b91507fffffffffffffffffffffffffffffffffffffffffffffffffffffffffffffffff82036116955761169461155b565b5b600182019050919050565b5f6116aa82610ca5565b91506116b583610ca5565b92508282019050808211156116cd576116cc61155b565b5b92915050565b5f819050815f5260205f209050919050565b5f6020601f8301049050919050565b5f82821b905092915050565b5f6008830261172f7fffffffffffffffffffffffffffffffffffffffffffffffffffffffffffffffff826116f4565b61173986836116f4565b95508019841693508086168417925050509392505050565b5f819050919050565b5f61177461176f61176a84610ca5565b611751565b610ca5565b9050919050565b5f819050919050565b61178d8361175a565b6117a16117998261177b565b848454611700565b825550505050565b5f90565b6117b56117a9565b6117c0818484611784565b505050565b5b818110156117e3576117d85f826117ad565b6001810190506117c6565b5050565b601f821115611828576117f9816116d3565b611802846116e5565b81016020851015611811578190505b61182561181d856116e5565b8301826117c5565b50505b505050565b5f82821c905092915050565b5f6118485f198460080261182d565b1980831691505092915050565b5f6118608383611839565b9150826002028217905092915050565b61187982610d03565b67ffffffffffffffff81111561189257611891610f1b565b5b61189c82546112b1565b6118a78282856117e7565b5f60209050601f8311600181146118d8575f84156118c6578287015190505b6118d08582611855565b865550611937565b601f1984166118e6866116d3565b5f5b8281101561190d578489015182556001820191506020850194506020810190506118e8565b8683101561192a5784890151611926601f891682611839565b8355505b6001600288020188555050505b50505050505056fea2646970667358221220d5c60889d14d5653ef76d1e373b8f60680e0c60e2820179c704472236dac636564736f6c634300081a0033",
					"opcodes": "PUSH1 0x80 PUSH1 0x40 MSTORE CALLVALUE DUP1 ISZERO PUSH1 0xE JUMPI PUSH0 DUP1 REVERT JUMPDEST POP PUSH2 0x1975 DUP1 PUSH2 0x1C PUSH0 CODECOPY PUSH0 RETURN INVALID PUSH1 0x80 PUSH1 0x40 MSTORE PUSH1 0x4 CALLDATASIZE LT PUSH2 0x90 JUMPI PUSH0 CALLDATALOAD PUSH1 0xE0 SHR DUP1 PUSH4 0x7449BE0D GT PUSH2 0x58 JUMPI DUP1 PUSH4 0x7449BE0D EQ PUSH2 0x193 JUMPI DUP1 PUSH4 0xC013F8C7 EQ PUSH2 0x1AF JUMPI DUP1 PUSH4 0xE3C40E1A EQ PUSH2 0x1D7 JUMPI DUP1 PUSH4 0xF2CEC6EE EQ PUSH2 0x213 JUMPI DUP1 PUSH4 0xF581FB68 EQ PUSH2 0x24F JUMPI PUSH2 0x90 JUMP JUMPDEST DUP1 PUSH4 0x1CFF85E1 EQ PUSH2 0x94 JUMPI DUP1 PUSH4 0x3132DDFE EQ PUSH2 0xD5 JUMPI DUP1 PUSH4 0x38D7E815 EQ PUSH2 0x111 JUMPI DUP1 PUSH4 0x3C8935B9 EQ PUSH2 0x14D JUMPI DUP1 PUSH4 0x50A1A264 EQ PUSH2 0x177 JUMPI JUMPDEST PUSH0 DUP1 REVERT JUMPDEST CALLVALUE DUP1 ISZERO PUSH2 0x9F JUMPI PUSH0 DUP1 REVERT JUMPDEST POP PUSH2 0xBA PUSH1 0x4 DUP1 CALLDATASIZE SUB DUP2 ADD SWAP1 PUSH2 0xB5 SWAP2 SWAP1 PUSH2 0xCD8 JUMP JUMPDEST PUSH2 0x28B JUMP JUMPDEST PUSH1 0x40 MLOAD PUSH2 0xCC SWAP7 SWAP6 SWAP5 SWAP4 SWAP3 SWAP2 SWAP1 PUSH2 0xDD9 JUMP JUMPDEST PUSH1 0x40 MLOAD DUP1 SWAP2 SUB SWAP1 RETURN JUMPDEST CALLVALUE DUP1 ISZERO PUSH2 0xE0 JUMPI PUSH0 DUP1 REVERT JUMPDEST POP PUSH2 0xFB PUSH1 0x4 DUP1 CALLDATASIZE SUB DUP2 ADD SWAP1 PUSH2 0xF6 SWAP2 SWAP1 PUSH2 0xCD8 JUMP JUMPDEST PUSH2 0x3ED JUMP JUMPDEST PUSH1 0x40 MLOAD PUSH2 0x108 SWAP2 SWAP1 PUSH2 0xE60 JUMP JUMPDEST PUSH1 0x40 MLOAD DUP1 SWAP2 SUB SWAP1 RETURN JUMPDEST CALLVALUE DUP1 ISZERO PUSH2 0x11C JUMPI PUSH0 DUP1 REVERT JUMPDEST POP PUSH2 0x137 PUSH1 0x4 DUP1 CALLDATASIZE SUB DUP2 ADD SWAP1 PUSH2 0x132 SWAP2 SWAP1 PUSH2 0xCD8 JUMP JUMPDEST PUSH2 0x47D JUMP JUMPDEST PUSH1 0x40 MLOAD PUSH2 0x144 SWAP2 SWAP1 PUSH2 0xE79 JUMP JUMPDEST PUSH1 0x40 MLOAD DUP1 SWAP2 SUB SWAP1 RETURN JUMPDEST CALLVALUE DUP1 ISZERO PUSH2 0x158 JUMPI PUSH0 DUP1 REVERT JUMPDEST POP PUSH2 0x161 PUSH2 0x4E1 JUMP JUMPDEST PUSH1 0x40 MLOAD PUSH2 0x16E SWAP2 SWAP1 PUSH2 0xE92 JUMP JUMPDEST PUSH1 0x40 MLOAD DUP1 SWAP2 SUB SWAP1 RETURN JUMPDEST PUSH2 0x191 PUSH1 0x4 DUP1 CALLDATASIZE SUB DUP2 ADD SWAP1 PUSH2 0x18C SWAP2 SWAP1 PUSH2 0xCD8 JUMP JUMPDEST PUSH2 0x4E7 JUMP JUMPDEST STOP JUMPDEST PUSH2 0x1AD PUSH1 0x4 DUP1 CALLDATASIZE SUB DUP2 ADD SWAP1 PUSH2 0x1A8 SWAP2 SWAP1 PUSH2 0xED5 JUMP JUMPDEST PUSH2 0x71C JUMP JUMPDEST STOP JUMPDEST CALLVALUE DUP1 ISZERO PUSH2 0x1BA JUMPI PUSH0 DUP1 REVERT JUMPDEST POP PUSH2 0x1D5 PUSH1 0x4 DUP1 CALLDATASIZE SUB DUP2 ADD SWAP1 PUSH2 0x1D0 SWAP2 SWAP1 PUSH2 0x1069 JUMP JUMPDEST PUSH2 0xA77 JUMP JUMPDEST STOP JUMPDEST CALLVALUE DUP1 ISZERO PUSH2 0x1E2 JUMPI PUSH0 DUP1 REVERT JUMPDEST POP PUSH2 0x1FD PUSH1 0x4 DUP1 CALLDATASIZE SUB DUP2 ADD SWAP1 PUSH2 0x1F8 SWAP2 SWAP1 PUSH2 0x1118 JUMP JUMPDEST PUSH2 0xB86 JUMP JUMPDEST PUSH1 0x40 MLOAD PUSH2 0x20A SWAP2 SWAP1 PUSH2 0x1156 JUMP JUMPDEST PUSH1 0x40 MLOAD DUP1 SWAP2 SUB SWAP1 RETURN JUMPDEST CALLVALUE DUP1 ISZERO PUSH2 0x21E JUMPI PUSH0 DUP1 REVERT JUMPDEST POP PUSH2 0x239 PUSH1 0x4 DUP1 CALLDATASIZE SUB DUP2 ADD SWAP1 PUSH2 0x234 SWAP2 SWAP1 PUSH2 0xCD8 JUMP JUMPDEST PUSH2 0xBCE JUMP JUMPDEST PUSH1 0x40 MLOAD PUSH2 0x246 SWAP2 SWAP1 PUSH2 0x1226 JUMP JUMPDEST PUSH1 0x40 MLOAD DUP1 SWAP2 SUB SWAP1 RETURN JUMPDEST CALLVALUE DUP1 ISZERO PUSH2 0x25A JUMPI PUSH0 DUP1 REVERT JUMPDEST POP PUSH2 0x275 PUSH1 0x4 DUP1 CALLDATASIZE SUB DUP2 ADD SWAP1 PUSH2 0x270 SWAP2 SWAP1 PUSH2 0x1246 JUMP JUMPDEST PUSH2 0xC6A JUMP JUMPDEST PUSH1 0x40 MLOAD PUSH2 0x282 SWAP2 SWAP1 PUSH2 0xE60 JUMP JUMPDEST PUSH1 0x40 MLOAD DUP1 SWAP2 SUB SWAP1 RETURN JUMPDEST PUSH0 PUSH1 0x20 MSTORE DUP1 PUSH0 MSTORE PUSH1 0x40 PUSH0 KECCAK256 PUSH0 SWAP2 POP SWAP1 POP DUP1 PUSH0 ADD DUP1 SLOAD PUSH2 0x2A9 SWAP1 PUSH2 0x12B1 JUMP JUMPDEST DUP1 PUSH1 0x1F ADD PUSH1 0x20 DUP1 SWAP2 DIV MUL PUSH1 0x20 ADD PUSH1 0x40 MLOAD SWAP1 DUP2 ADD PUSH1 0x40 MSTORE DUP1 SWAP3 SWAP2 SWAP1 DUP2 DUP2 MSTORE PUSH1 0x20 ADD DUP3 DUP1 SLOAD PUSH2 0x2D5 SWAP1 PUSH2 0x12B1 JUMP JUMPDEST DUP1 ISZERO PUSH2 0x320 JUMPI DUP1 PUSH1 0x1F LT PUSH2 0x2F7 JUMPI PUSH2 0x100 DUP1 DUP4 SLOAD DIV MUL DUP4 MSTORE SWAP2 PUSH1 0x20 ADD SWAP2 PUSH2 0x320 JUMP JUMPDEST DUP3 ADD SWAP2 SWAP1 PUSH0 MSTORE PUSH1 0x20 PUSH0 KECCAK256 SWAP1 JUMPDEST DUP2 SLOAD DUP2 MSTORE SWAP1 PUSH1 0x1 ADD SWAP1 PUSH1 0x20 ADD DUP1 DUP4 GT PUSH2 0x303 JUMPI DUP3 SWAP1 SUB PUSH1 0x1F AND DUP3 ADD SWAP2 JUMPDEST POP POP POP POP POP SWAP1 DUP1 PUSH1 0x1 ADD DUP1 SLOAD PUSH2 0x335 SWAP1 PUSH2 0x12B1 JUMP JUMPDEST DUP1 PUSH1 0x1F ADD PUSH1 0x20 DUP1 SWAP2 DIV MUL PUSH1 0x20 ADD PUSH1 0x40 MLOAD SWAP1 DUP2 ADD PUSH1 0x40 MSTORE DUP1 SWAP3 SWAP2 SWAP1 DUP2 DUP2 MSTORE PUSH1 0x20 ADD DUP3 DUP1 SLOAD PUSH2 0x361 SWAP1 PUSH2 0x12B1 JUMP JUMPDEST DUP1 ISZERO PUSH2 0x3AC JUMPI DUP1 PUSH1 0x1F LT PUSH2 0x383 JUMPI PUSH2 0x100 DUP1 DUP4 SLOAD DIV MUL DUP4 MSTORE SWAP2 PUSH1 0x20 ADD SWAP2 PUSH2 0x3AC JUMP JUMPDEST DUP3 ADD SWAP2 SWAP1 PUSH0 MSTORE PUSH1 0x20 PUSH0 KECCAK256 SWAP1 JUMPDEST DUP2 SLOAD DUP2 MSTORE SWAP1 PUSH1 0x1 ADD SWAP1 PUSH1 0x20 ADD DUP1 DUP4 GT PUSH2 0x38F JUMPI DUP3 SWAP1 SUB PUSH1 0x1F AND DUP3 ADD SWAP2 JUMPDEST POP POP POP POP POP SWAP1 DUP1 PUSH1 0x2 ADD SLOAD SWAP1 DUP1 PUSH1 0x3 ADD PUSH0 SWAP1 SLOAD SWAP1 PUSH2 0x100 EXP SWAP1 DIV PUSH20 0xFFFFFFFFFFFFFFFFFFFFFFFFFFFFFFFFFFFFFFFF AND SWAP1 DUP1 PUSH1 0x4 ADD SLOAD SWAP1 DUP1 PUSH1 0x5 ADD SLOAD SWAP1 POP DUP7 JUMP JUMPDEST PUSH0 PUSH1 0x1 PUSH0 CALLER PUSH20 0xFFFFFFFFFFFFFFFFFFFFFFFFFFFFFFFFFFFFFFFF AND PUSH20 0xFFFFFFFFFFFFFFFFFFFFFFFFFFFFFFFFFFFFFFFF AND DUP2 MSTORE PUSH1 0x20 ADD SWAP1 DUP2 MSTORE PUSH1 0x20 ADD PUSH0 KECCAK256 PUSH0 DUP4 DUP2 MSTORE PUSH1 0x20 ADD SWAP1 DUP2 MSTORE PUSH1 0x20 ADD PUSH0 KECCAK256 PUSH0 SWAP1 SLOAD SWAP1 PUSH2 0x100 EXP SWAP1 DIV PUSH1 0xFF AND DUP1 ISZERO PUSH2 0x466 JUMPI POP PUSH0 DUP1 DUP4 DUP2 MSTORE PUSH1 0x20 ADD SWAP1 DUP2 MSTORE PUSH1 0x20 ADD PUSH0 KECCAK256 PUSH1 0x5 ADD SLOAD TIMESTAMP GT ISZERO JUMPDEST ISZERO PUSH2 0x474 JUMPI PUSH1 0x1 SWAP1 POP PUSH2 0x478 JUMP JUMPDEST PUSH0 SWAP1 POP JUMPDEST SWAP2 SWAP1 POP JUMP JUMPDEST PUSH0 PUSH2 0x487 DUP3 PUSH2 0x3ED JUMP JUMPDEST PUSH2 0x4C6 JUMPI PUSH1 0x40 MLOAD PUSH32 0x8C379A000000000000000000000000000000000000000000000000000000000 DUP2 MSTORE PUSH1 0x4 ADD PUSH2 0x4BD SWAP1 PUSH2 0x1351 JUMP JUMPDEST PUSH1 0x40 MLOAD DUP1 SWAP2 SUB SWAP1 REVERT JUMPDEST PUSH0 DUP1 DUP4 DUP2 MSTORE PUSH1 0x20 ADD SWAP1 DUP2 MSTORE PUSH1 0x20 ADD PUSH0 KECCAK256 PUSH1 0x4 ADD SLOAD SWAP1 POP SWAP2 SWAP1 POP JUMP JUMPDEST PUSH1 0x3 SLOAD DUP2 JUMP JUMPDEST PUSH0 DUP2 GT DUP1 ISZERO PUSH2 0x4F8 JUMPI POP PUSH1 0x3 SLOAD DUP2 GT ISZERO JUMPDEST PUSH2 0x537 JUMPI PUSH1 0x40 MLOAD PUSH32 0x8C379A000000000000000000000000000000000000000000000000000000000 DUP2 MSTORE PUSH1 0x4 ADD PUSH2 0x52E SWAP1 PUSH2 0x13B9 JUMP JUMPDEST PUSH1 0x40 MLOAD DUP1 SWAP2 SUB SWAP1 REVERT JUMPDEST PUSH0 DUP1 PUSH0 DUP4 DUP2 MSTORE PUSH1 0x20 ADD SWAP1 DUP2 MSTORE PUSH1 0x20 ADD PUSH0 KECCAK256 SWAP1 POP DUP1 PUSH1 0x2 ADD SLOAD CALLVALUE EQ PUSH2 0x590 JUMPI PUSH1 0x40 MLOAD PUSH32 0x8C379A000000000000000000000000000000000000000000000000000000000 DUP2 MSTORE PUSH1 0x4 ADD PUSH2 0x587 SWAP1 PUSH2 0x1421 JUMP JUMPDEST PUSH1 0x40 MLOAD DUP1 SWAP2 SUB SWAP1 REVERT JUMPDEST PUSH1 0x1 DUP1 PUSH0 CALLER PUSH20 0xFFFFFFFFFFFFFFFFFFFFFFFFFFFFFFFFFFFFFFFF AND PUSH20 0xFFFFFFFFFFFFFFFFFFFFFFFFFFFFFFFFFFFFFFFF AND DUP2 MSTORE PUSH1 0x20 ADD SWAP1 DUP2 MSTORE PUSH1 0x20 ADD PUSH0 KECCAK256 PUSH0 DUP5 DUP2 MSTORE PUSH1 0x20 ADD SWAP1 DUP2 MSTORE PUSH1 0x20 ADD PUSH0 KECCAK256 PUSH0 PUSH2 0x100 EXP DUP2 SLOAD DUP2 PUSH1 0xFF MUL NOT AND SWAP1 DUP4 ISZERO ISZERO MUL OR SWAP1 SSTORE POP PUSH1 0x2 PUSH0 DUP4 DUP2 MSTORE PUSH1 0x20 ADD SWAP1 DUP2 MSTORE PUSH1 0x20 ADD PUSH0 KECCAK256 CALLER SWAP1 DUP1 PUSH1 0x1 DUP2 SLOAD ADD DUP1 DUP3 SSTORE DUP1 SWAP2 POP POP PUSH1 0x1 SWAP1 SUB SWAP1 PUSH0 MSTORE PUSH1 0x20 PUSH0 KECCAK256 ADD PUSH0 SWAP1 SWAP2 SWAP1 SWAP2 SWAP1 SWAP2 PUSH2 0x100 EXP DUP2 SLOAD DUP2 PUSH20 0xFFFFFFFFFFFFFFFFFFFFFFFFFFFFFFFFFFFFFFFF MUL NOT AND SWAP1 DUP4 PUSH20 0xFFFFFFFFFFFFFFFFFFFFFFFFFFFFFFFFFFFFFFFF AND MUL OR SWAP1 SSTORE POP DUP1 PUSH1 0x3 ADD PUSH0 SWAP1 SLOAD SWAP1 PUSH2 0x100 EXP SWAP1 DIV PUSH20 0xFFFFFFFFFFFFFFFFFFFFFFFFFFFFFFFFFFFFFFFF AND PUSH20 0xFFFFFFFFFFFFFFFFFFFFFFFFFFFFFFFFFFFFFFFF AND PUSH2 0x8FC CALLVALUE SWAP1 DUP2 ISZERO MUL SWAP1 PUSH1 0x40 MLOAD PUSH0 PUSH1 0x40 MLOAD DUP1 DUP4 SUB DUP2 DUP6 DUP9 DUP9 CALL SWAP4 POP POP POP POP ISZERO DUP1 ISZERO PUSH2 0x6C8 JUMPI RETURNDATASIZE PUSH0 DUP1 RETURNDATACOPY RETURNDATASIZE PUSH0 REVERT JUMPDEST POP CALLER PUSH20 0xFFFFFFFFFFFFFFFFFFFFFFFFFFFFFFFFFFFFFFFF AND DUP3 PUSH32 0x709B48219C4B1CF38D85D4E8CF9BEFDEB3E2DC3F108255265283D92CA06001ED TIMESTAMP PUSH1 0x40 MLOAD PUSH2 0x710 SWAP2 SWAP1 PUSH2 0xE92 JUMP JUMPDEST PUSH1 0x40 MLOAD DUP1 SWAP2 SUB SWAP1 LOG3 POP POP JUMP JUMPDEST PUSH1 0x1 PUSH0 CALLER PUSH20 0xFFFFFFFFFFFFFFFFFFFFFFFFFFFFFFFFFFFFFFFF AND PUSH20 0xFFFFFFFFFFFFFFFFFFFFFFFFFFFFFFFFFFFFFFFF AND DUP2 MSTORE PUSH1 0x20 ADD SWAP1 DUP2 MSTORE PUSH1 0x20 ADD PUSH0 KECCAK256 PUSH0 DUP4 DUP2 MSTORE PUSH1 0x20 ADD SWAP1 DUP2 MSTORE PUSH1 0x20 ADD PUSH0 KECCAK256 PUSH0 SWAP1 SLOAD SWAP1 PUSH2 0x100 EXP SWAP1 DIV PUSH1 0xFF AND PUSH2 0x7B4 JUMPI PUSH1 0x40 MLOAD PUSH32 0x8C379A000000000000000000000000000000000000000000000000000000000 DUP2 MSTORE PUSH1 0x4 ADD PUSH2 0x7AB SWAP1 PUSH2 0x14AF JUMP JUMPDEST PUSH1 0x40 MLOAD DUP1 SWAP2 SUB SWAP1 REVERT JUMPDEST PUSH0 CALLVALUE GT PUSH2 0x7F6 JUMPI PUSH1 0x40 MLOAD PUSH32 0x8C379A000000000000000000000000000000000000000000000000000000000 DUP2 MSTORE PUSH1 0x4 ADD PUSH2 0x7ED SWAP1 PUSH2 0x153D JUMP JUMPDEST PUSH1 0x40 MLOAD DUP1 SWAP2 SUB SWAP1 REVERT JUMPDEST PUSH0 PUSH1 0x64 PUSH1 0xA CALLVALUE PUSH2 0x806 SWAP2 SWAP1 PUSH2 0x1588 JUMP JUMPDEST PUSH2 0x810 SWAP2 SWAP1 PUSH2 0x15F6 JUMP JUMPDEST SWAP1 POP PUSH0 DUP1 DUP5 DUP2 MSTORE PUSH1 0x20 ADD SWAP1 DUP2 MSTORE PUSH1 0x20 ADD PUSH0 KECCAK256 PUSH1 0x3 ADD PUSH0 SWAP1 SLOAD SWAP1 PUSH2 0x100 EXP SWAP1 DIV PUSH20 0xFFFFFFFFFFFFFFFFFFFFFFFFFFFFFFFFFFFFFFFF AND PUSH20 0xFFFFFFFFFFFFFFFFFFFFFFFFFFFFFFFFFFFFFFFF AND PUSH2 0x8FC DUP3 SWAP1 DUP2 ISZERO MUL SWAP1 PUSH1 0x40 MLOAD PUSH0 PUSH1 0x40 MLOAD DUP1 DUP4 SUB DUP2 DUP6 DUP9 DUP9 CALL SWAP4 POP POP POP POP ISZERO DUP1 ISZERO PUSH2 0x887 JUMPI RETURNDATASIZE PUSH0 DUP1 RETURNDATACOPY RETURNDATASIZE PUSH0 REVERT JUMPDEST POP CALLER PUSH20 0xFFFFFFFFFFFFFFFFFFFFFFFFFFFFFFFFFFFFFFFF AND PUSH2 0x8FC DUP3 CALLVALUE PUSH2 0x8AE SWAP2 SWAP1 PUSH2 0x1626 JUMP JUMPDEST SWAP1 DUP2 ISZERO MUL SWAP1 PUSH1 0x40 MLOAD PUSH0 PUSH1 0x40 MLOAD DUP1 DUP4 SUB DUP2 DUP6 DUP9 DUP9 CALL SWAP4 POP POP POP POP ISZERO DUP1 ISZERO PUSH2 0x8D6 JUMPI RETURNDATASIZE PUSH0 DUP1 RETURNDATACOPY RETURNDATASIZE PUSH0 REVERT JUMPDEST POP PUSH0 PUSH1 0x1 PUSH0 CALLER PUSH20 0xFFFFFFFFFFFFFFFFFFFFFFFFFFFFFFFFFFFFFFFF AND PUSH20 0xFFFFFFFFFFFFFFFFFFFFFFFFFFFFFFFFFFFFFFFF AND DUP2 MSTORE PUSH1 0x20 ADD SWAP1 DUP2 MSTORE PUSH1 0x20 ADD PUSH0 KECCAK256 PUSH0 DUP6 DUP2 MSTORE PUSH1 0x20 ADD SWAP1 DUP2 MSTORE PUSH1 0x20 ADD PUSH0 KECCAK256 PUSH0 PUSH2 0x100 EXP DUP2 SLOAD DUP2 PUSH1 0xFF MUL NOT AND SWAP1 DUP4 ISZERO ISZERO MUL OR SWAP1 SSTORE POP PUSH1 0x1 DUP1 PUSH0 DUP5 PUSH20 0xFFFFFFFFFFFFFFFFFFFFFFFFFFFFFFFFFFFFFFFF AND PUSH20 0xFFFFFFFFFFFFFFFFFFFFFFFFFFFFFFFFFFFFFFFF AND DUP2 MSTORE PUSH1 0x20 ADD SWAP1 DUP2 MSTORE PUSH1 0x20 ADD PUSH0 KECCAK256 PUSH0 DUP6 DUP2 MSTORE PUSH1 0x20 ADD SWAP1 DUP2 MSTORE PUSH1 0x20 ADD PUSH0 KECCAK256 PUSH0 PUSH2 0x100 EXP DUP2 SLOAD DUP2 PUSH1 0xFF MUL NOT AND SWAP1 DUP4 ISZERO ISZERO MUL OR SWAP1 SSTORE POP PUSH1 0x2 PUSH0 DUP5 DUP2 MSTORE PUSH1 0x20 ADD SWAP1 DUP2 MSTORE PUSH1 0x20 ADD PUSH0 KECCAK256 DUP3 SWAP1 DUP1 PUSH1 0x1 DUP2 SLOAD ADD DUP1 DUP3 SSTORE DUP1 SWAP2 POP POP PUSH1 0x1 SWAP1 SUB SWAP1 PUSH0 MSTORE PUSH1 0x20 PUSH0 KECCAK256 ADD PUSH0 SWAP1 SWAP2 SWAP1 SWAP2 SWAP1 SWAP2 PUSH2 0x100 EXP DUP2 SLOAD DUP2 PUSH20 0xFFFFFFFFFFFFFFFFFFFFFFFFFFFFFFFFFFFFFFFF MUL NOT AND SWAP1 DUP4 PUSH20 0xFFFFFFFFFFFFFFFFFFFFFFFFFFFFFFFFFFFFFFFF AND MUL OR SWAP1 SSTORE POP DUP2 PUSH20 0xFFFFFFFFFFFFFFFFFFFFFFFFFFFFFFFFFFFFFFFF AND CALLER PUSH20 0xFFFFFFFFFFFFFFFFFFFFFFFFFFFFFFFFFFFFFFFF AND DUP5 PUSH32 0xE8F5C36EB366EDF2F2F54B79965EBE7409D803E703C3F5DD5760368EF85D3059 TIMESTAMP PUSH1 0x40 MLOAD PUSH2 0xA6A SWAP2 SWAP1 PUSH2 0xE92 JUMP JUMPDEST PUSH1 0x40 MLOAD DUP1 SWAP2 SUB SWAP1 LOG4 POP POP POP JUMP JUMPDEST PUSH1 0x3 PUSH0 DUP2 SLOAD DUP1 SWAP3 SWAP2 SWAP1 PUSH2 0xA89 SWAP1 PUSH2 0x1659 JUMP JUMPDEST SWAP2 SWAP1 POP SSTORE POP PUSH1 0x40 MLOAD DUP1 PUSH1 0xC0 ADD PUSH1 0x40 MSTORE DUP1 DUP7 DUP2 MSTORE PUSH1 0x20 ADD DUP6 DUP2 MSTORE PUSH1 0x20 ADD DUP5 DUP2 MSTORE PUSH1 0x20 ADD CALLER PUSH20 0xFFFFFFFFFFFFFFFFFFFFFFFFFFFFFFFFFFFFFFFF AND DUP2 MSTORE PUSH1 0x20 ADD DUP4 DUP2 MSTORE PUSH1 0x20 ADD DUP3 TIMESTAMP PUSH2 0xAD9 SWAP2 SWAP1 PUSH2 0x16A0 JUMP JUMPDEST DUP2 MSTORE POP PUSH0 DUP1 PUSH1 0x3 SLOAD DUP2 MSTORE PUSH1 0x20 ADD SWAP1 DUP2 MSTORE PUSH1 0x20 ADD PUSH0 KECCAK256 PUSH0 DUP3 ADD MLOAD DUP2 PUSH0 ADD SWAP1 DUP2 PUSH2 0xB01 SWAP2 SWAP1 PUSH2 0x1870 JUMP JUMPDEST POP PUSH1 0x20 DUP3 ADD MLOAD DUP2 PUSH1 0x1 ADD SWAP1 DUP2 PUSH2 0xB17 SWAP2 SWAP1 PUSH2 0x1870 JUMP JUMPDEST POP PUSH1 0x40 DUP3 ADD MLOAD DUP2 PUSH1 0x2 ADD SSTORE PUSH1 0x60 DUP3 ADD MLOAD DUP2 PUSH1 0x3 ADD PUSH0 PUSH2 0x100 EXP DUP2 SLOAD DUP2 PUSH20 0xFFFFFFFFFFFFFFFFFFFFFFFFFFFFFFFFFFFFFFFF MUL NOT AND SWAP1 DUP4 PUSH20 0xFFFFFFFFFFFFFFFFFFFFFFFFFFFFFFFFFFFFFFFF AND MUL OR SWAP1 SSTORE POP PUSH1 0x80 DUP3 ADD MLOAD DUP2 PUSH1 0x4 ADD SSTORE PUSH1 0xA0 DUP3 ADD MLOAD DUP2 PUSH1 0x5 ADD SSTORE SWAP1 POP POP POP POP POP POP POP JUMP JUMPDEST PUSH1 0x2 PUSH1 0x20 MSTORE DUP2 PUSH0 MSTORE PUSH1 0x40 PUSH0 KECCAK256 DUP2 DUP2 SLOAD DUP2 LT PUSH2 0xB9F JUMPI PUSH0 DUP1 REVERT JUMPDEST SWAP1 PUSH0 MSTORE PUSH1 0x20 PUSH0 KECCAK256 ADD PUSH0 SWAP2 POP SWAP2 POP SWAP1 SLOAD SWAP1 PUSH2 0x100 EXP SWAP1 DIV PUSH20 0xFFFFFFFFFFFFFFFFFFFFFFFFFFFFFFFFFFFFFFFF AND DUP2 JUMP JUMPDEST PUSH1 0x60 PUSH1 0x2 PUSH0 DUP4 DUP2 MSTORE PUSH1 0x20 ADD SWAP1 DUP2 MSTORE PUSH1 0x20 ADD PUSH0 KECCAK256 DUP1 SLOAD DUP1 PUSH1 0x20 MUL PUSH1 0x20 ADD PUSH1 0x40 MLOAD SWAP1 DUP2 ADD PUSH1 0x40 MSTORE DUP1 SWAP3 SWAP2 SWAP1 DUP2 DUP2 MSTORE PUSH1 0x20 ADD DUP3 DUP1 SLOAD DUP1 ISZERO PUSH2 0xC5E JUMPI PUSH1 0x20 MUL DUP3 ADD SWAP2 SWAP1 PUSH0 MSTORE PUSH1 0x20 PUSH0 KECCAK256 SWAP1 JUMPDEST DUP2 PUSH0 SWAP1 SLOAD SWAP1 PUSH2 0x100 EXP SWAP1 DIV PUSH20 0xFFFFFFFFFFFFFFFFFFFFFFFFFFFFFFFFFFFFFFFF AND PUSH20 0xFFFFFFFFFFFFFFFFFFFFFFFFFFFFFFFFFFFFFFFF AND DUP2 MSTORE PUSH1 0x20 ADD SWAP1 PUSH1 0x1 ADD SWAP1 DUP1 DUP4 GT PUSH2 0xC15 JUMPI JUMPDEST POP POP POP POP POP SWAP1 POP SWAP2 SWAP1 POP JUMP JUMPDEST PUSH1 0x1 PUSH1 0x20 MSTORE DUP2 PUSH0 MSTORE PUSH1 0x40 PUSH0 KECCAK256 PUSH1 0x20 MSTORE DUP1 PUSH0 MSTORE PUSH1 0x40 PUSH0 KECCAK256 PUSH0 SWAP2 POP SWAP2 POP SWAP1 SLOAD SWAP1 PUSH2 0x100 EXP SWAP1 DIV PUSH1 0xFF AND DUP2 JUMP JUMPDEST PUSH0 PUSH1 0x40 MLOAD SWAP1 POP SWAP1 JUMP JUMPDEST PUSH0 DUP1 REVERT JUMPDEST PUSH0 DUP1 REVERT JUMPDEST PUSH0 DUP2 SWAP1 POP SWAP2 SWAP1 POP JUMP JUMPDEST PUSH2 0xCB7 DUP2 PUSH2 0xCA5 JUMP JUMPDEST DUP2 EQ PUSH2 0xCC1 JUMPI PUSH0 DUP1 REVERT JUMPDEST POP JUMP JUMPDEST PUSH0 DUP2 CALLDATALOAD SWAP1 POP PUSH2 0xCD2 DUP2 PUSH2 0xCAE JUMP JUMPDEST SWAP3 SWAP2 POP POP JUMP JUMPDEST PUSH0 PUSH1 0x20 DUP3 DUP5 SUB SLT ISZERO PUSH2 0xCED JUMPI PUSH2 0xCEC PUSH2 0xC9D JUMP JUMPDEST JUMPDEST PUSH0 PUSH2 0xCFA DUP5 DUP3 DUP6 ADD PUSH2 0xCC4 JUMP JUMPDEST SWAP2 POP POP SWAP3 SWAP2 POP POP JUMP JUMPDEST PUSH0 DUP2 MLOAD SWAP1 POP SWAP2 SWAP1 POP JUMP JUMPDEST PUSH0 DUP3 DUP3 MSTORE PUSH1 0x20 DUP3 ADD SWAP1 POP SWAP3 SWAP2 POP POP JUMP JUMPDEST DUP3 DUP2 DUP4 MCOPY PUSH0 DUP4 DUP4 ADD MSTORE POP POP POP JUMP JUMPDEST PUSH0 PUSH1 0x1F NOT PUSH1 0x1F DUP4 ADD AND SWAP1 POP SWAP2 SWAP1 POP JUMP JUMPDEST PUSH0 PUSH2 0xD45 DUP3 PUSH2 0xD03 JUMP JUMPDEST PUSH2 0xD4F DUP2 DUP6 PUSH2 0xD0D JUMP JUMPDEST SWAP4 POP PUSH2 0xD5F DUP2 DUP6 PUSH1 0x20 DUP7 ADD PUSH2 0xD1D JUMP JUMPDEST PUSH2 0xD68 DUP2 PUSH2 0xD2B JUMP JUMPDEST DUP5 ADD SWAP2 POP POP SWAP3 SWAP2 POP POP JUMP JUMPDEST PUSH2 0xD7C DUP2 PUSH2 0xCA5 JUMP JUMPDEST DUP3 MSTORE POP POP JUMP JUMPDEST PUSH0 PUSH20 0xFFFFFFFFFFFFFFFFFFFFFFFFFFFFFFFFFFFFFFFF DUP3 AND SWAP1 POP SWAP2 SWAP1 POP JUMP JUMPDEST PUSH0 PUSH2 0xDAB DUP3 PUSH2 0xD82 JUMP JUMPDEST SWAP1 POP SWAP2 SWAP1 POP JUMP JUMPDEST PUSH2 0xDBB DUP2 PUSH2 0xDA1 JUMP JUMPDEST DUP3 MSTORE POP POP JUMP JUMPDEST PUSH0 DUP2 SWAP1 POP SWAP2 SWAP1 POP JUMP JUMPDEST PUSH2 0xDD3 DUP2 PUSH2 0xDC1 JUMP JUMPDEST DUP3 MSTORE POP POP JUMP JUMPDEST PUSH0 PUSH1 0xC0 DUP3 ADD SWAP1 POP DUP2 DUP2 SUB PUSH0 DUP4 ADD MSTORE PUSH2 0xDF1 DUP2 DUP10 PUSH2 0xD3B JUMP JUMPDEST SWAP1 POP DUP2 DUP2 SUB PUSH1 0x20 DUP4 ADD MSTORE PUSH2 0xE05 DUP2 DUP9 PUSH2 0xD3B JUMP JUMPDEST SWAP1 POP PUSH2 0xE14 PUSH1 0x40 DUP4 ADD DUP8 PUSH2 0xD73 JUMP JUMPDEST PUSH2 0xE21 PUSH1 0x60 DUP4 ADD DUP7 PUSH2 0xDB2 JUMP JUMPDEST PUSH2 0xE2E PUSH1 0x80 DUP4 ADD DUP6 PUSH2 0xDCA JUMP JUMPDEST PUSH2 0xE3B PUSH1 0xA0 DUP4 ADD DUP5 PUSH2 0xD73 JUMP JUMPDEST SWAP8 SWAP7 POP POP POP POP POP POP POP JUMP JUMPDEST PUSH0 DUP2 ISZERO ISZERO SWAP1 POP SWAP2 SWAP1 POP JUMP JUMPDEST PUSH2 0xE5A DUP2 PUSH2 0xE46 JUMP JUMPDEST DUP3 MSTORE POP POP JUMP JUMPDEST PUSH0 PUSH1 0x20 DUP3 ADD SWAP1 POP PUSH2 0xE73 PUSH0 DUP4 ADD DUP5 PUSH2 0xE51 JUMP JUMPDEST SWAP3 SWAP2 POP POP JUMP JUMPDEST PUSH0 PUSH1 0x20 DUP3 ADD SWAP1 POP PUSH2 0xE8C PUSH0 DUP4 ADD DUP5 PUSH2 0xDCA JUMP JUMPDEST SWAP3 SWAP2 POP POP JUMP JUMPDEST PUSH0 PUSH1 0x20 DUP3 ADD SWAP1 POP PUSH2 0xEA5 PUSH0 DUP4 ADD DUP5 PUSH2 0xD73 JUMP JUMPDEST SWAP3 SWAP2 POP POP JUMP JUMPDEST PUSH2 0xEB4 DUP2 PUSH2 0xDA1 JUMP JUMPDEST DUP2 EQ PUSH2 0xEBE JUMPI PUSH0 DUP1 REVERT JUMPDEST POP JUMP JUMPDEST PUSH0 DUP2 CALLDATALOAD SWAP1 POP PUSH2 0xECF DUP2 PUSH2 0xEAB JUMP JUMPDEST SWAP3 SWAP2 POP POP JUMP JUMPDEST PUSH0 DUP1 PUSH1 0x40 DUP4 DUP6 SUB SLT ISZERO PUSH2 0xEEB JUMPI PUSH2 0xEEA PUSH2 0xC9D JUMP JUMPDEST JUMPDEST PUSH0 PUSH2 0xEF8 DUP6 DUP3 DUP7 ADD PUSH2 0xCC4 JUMP JUMPDEST SWAP3 POP POP PUSH1 0x20 PUSH2 0xF09 DUP6 DUP3 DUP7 ADD PUSH2 0xEC1 JUMP JUMPDEST SWAP2 POP POP SWAP3 POP SWAP3 SWAP1 POP JUMP JUMPDEST PUSH0 DUP1 REVERT JUMPDEST PUSH0 DUP1 REVERT JUMPDEST PUSH32 0x4E487B7100000000000000000000000000000000000000000000000000000000 PUSH0 MSTORE PUSH1 0x41 PUSH1 0x4 MSTORE PUSH1 0x24 PUSH0 REVERT JUMPDEST PUSH2 0xF51 DUP3 PUSH2 0xD2B JUMP JUMPDEST DUP2 ADD DUP2 DUP2 LT PUSH8 0xFFFFFFFFFFFFFFFF DUP3 GT OR ISZERO PUSH2 0xF70 JUMPI PUSH2 0xF6F PUSH2 0xF1B JUMP JUMPDEST JUMPDEST DUP1 PUSH1 0x40 MSTORE POP POP POP JUMP JUMPDEST PUSH0 PUSH2 0xF82 PUSH2 0xC94 JUMP JUMPDEST SWAP1 POP PUSH2 0xF8E DUP3 DUP3 PUSH2 0xF48 JUMP JUMPDEST SWAP2 SWAP1 POP JUMP JUMPDEST PUSH0 PUSH8 0xFFFFFFFFFFFFFFFF DUP3 GT ISZERO PUSH2 0xFAD JUMPI PUSH2 0xFAC PUSH2 0xF1B JUMP JUMPDEST JUMPDEST PUSH2 0xFB6 DUP3 PUSH2 0xD2B JUMP JUMPDEST SWAP1 POP PUSH1 0x20 DUP2 ADD SWAP1 POP SWAP2 SWAP1 POP JUMP JUMPDEST DUP3 DUP2 DUP4 CALLDATACOPY PUSH0 DUP4 DUP4 ADD MSTORE POP POP POP JUMP JUMPDEST PUSH0 PUSH2 0xFE3 PUSH2 0xFDE DUP5 PUSH2 0xF93 JUMP JUMPDEST PUSH2 0xF79 JUMP JUMPDEST SWAP1 POP DUP3 DUP2 MSTORE PUSH1 0x20 DUP2 ADD DUP5 DUP5 DUP5 ADD GT ISZERO PUSH2 0xFFF JUMPI PUSH2 0xFFE PUSH2 0xF17 JUMP JUMPDEST JUMPDEST PUSH2 0x100A DUP5 DUP3 DUP6 PUSH2 0xFC3 JUMP JUMPDEST POP SWAP4 SWAP3 POP POP POP JUMP JUMPDEST PUSH0 DUP3 PUSH1 0x1F DUP4 ADD SLT PUSH2 0x1026 JUMPI PUSH2 0x1025 PUSH2 0xF13 JUMP JUMPDEST JUMPDEST DUP2 CALLDATALOAD PUSH2 0x1036 DUP5 DUP3 PUSH1 0x20 DUP7 ADD PUSH2 0xFD1 JUMP JUMPDEST SWAP2 POP POP SWAP3 SWAP2 POP POP JUMP JUMPDEST PUSH2 0x1048 DUP2 PUSH2 0xDC1 JUMP JUMPDEST DUP2 EQ PUSH2 0x1052 JUMPI PUSH0 DUP1 REVERT JUMPDEST POP JUMP JUMPDEST PUSH0 DUP2 CALLDATALOAD SWAP1 POP PUSH2 0x1063 DUP2 PUSH2 0x103F JUMP JUMPDEST SWAP3 SWAP2 POP POP JUMP JUMPDEST PUSH0 DUP1 PUSH0 DUP1 PUSH0 PUSH1 0xA0 DUP7 DUP9 SUB SLT ISZERO PUSH2 0x1082 JUMPI PUSH2 0x1081 PUSH2 0xC9D JUMP JUMPDEST JUMPDEST PUSH0 DUP7 ADD CALLDATALOAD PUSH8 0xFFFFFFFFFFFFFFFF DUP2 GT ISZERO PUSH2 0x109F JUMPI PUSH2 0x109E PUSH2 0xCA1 JUMP JUMPDEST JUMPDEST PUSH2 0x10AB DUP9 DUP3 DUP10 ADD PUSH2 0x1012 JUMP JUMPDEST SWAP6 POP POP PUSH1 0x20 DUP7 ADD CALLDATALOAD PUSH8 0xFFFFFFFFFFFFFFFF DUP2 GT ISZERO PUSH2 0x10CC JUMPI PUSH2 0x10CB PUSH2 0xCA1 JUMP JUMPDEST JUMPDEST PUSH2 0x10D8 DUP9 DUP3 DUP10 ADD PUSH2 0x1012 JUMP JUMPDEST SWAP5 POP POP PUSH1 0x40 PUSH2 0x10E9 DUP9 DUP3 DUP10 ADD PUSH2 0xCC4 JUMP JUMPDEST SWAP4 POP POP PUSH1 0x60 PUSH2 0x10FA DUP9 DUP3 DUP10 ADD PUSH2 0x1055 JUMP JUMPDEST SWAP3 POP POP PUSH1 0x80 PUSH2 0x110B DUP9 DUP3 DUP10 ADD PUSH2 0xCC4 JUMP JUMPDEST SWAP2 POP POP SWAP3 SWAP6 POP SWAP3 SWAP6 SWAP1 SWAP4 POP JUMP JUMPDEST PUSH0 DUP1 PUSH1 0x40 DUP4 DUP6 SUB SLT ISZERO PUSH2 0x112E JUMPI PUSH2 0x112D PUSH2 0xC9D JUMP JUMPDEST JUMPDEST PUSH0 PUSH2 0x113B DUP6 DUP3 DUP7 ADD PUSH2 0xCC4 JUMP JUMPDEST SWAP3 POP POP PUSH1 0x20 PUSH2 0x114C DUP6 DUP3 DUP7 ADD PUSH2 0xCC4 JUMP JUMPDEST SWAP2 POP POP SWAP3 POP SWAP3 SWAP1 POP JUMP JUMPDEST PUSH0 PUSH1 0x20 DUP3 ADD SWAP1 POP PUSH2 0x1169 PUSH0 DUP4 ADD DUP5 PUSH2 0xDB2 JUMP JUMPDEST SWAP3 SWAP2 POP POP JUMP JUMPDEST PUSH0 DUP2 MLOAD SWAP1 POP SWAP2 SWAP1 POP JUMP JUMPDEST PUSH0 DUP3 DUP3 MSTORE PUSH1 0x20 DUP3 ADD SWAP1 POP SWAP3 SWAP2 POP POP JUMP JUMPDEST PUSH0 DUP2 SWAP1 POP PUSH1 0x20 DUP3 ADD SWAP1 POP SWAP2 SWAP1 POP JUMP JUMPDEST PUSH2 0x11A1 DUP2 PUSH2 0xDA1 JUMP JUMPDEST DUP3 MSTORE POP POP JUMP JUMPDEST PUSH0 PUSH2 0x11B2 DUP4 DUP4 PUSH2 0x1198 JUMP JUMPDEST PUSH1 0x20 DUP4 ADD SWAP1 POP SWAP3 SWAP2 POP POP JUMP JUMPDEST PUSH0 PUSH1 0x20 DUP3 ADD SWAP1 POP SWAP2 SWAP1 POP JUMP JUMPDEST PUSH0 PUSH2 0x11D4 DUP3 PUSH2 0x116F JUMP JUMPDEST PUSH2 0x11DE DUP2 DUP6 PUSH2 0x1179 JUMP JUMPDEST SWAP4 POP PUSH2 0x11E9 DUP4 PUSH2 0x1189 JUMP JUMPDEST DUP1 PUSH0 JUMPDEST DUP4 DUP2 LT ISZERO PUSH2 0x1219 JUMPI DUP2 MLOAD PUSH2 0x1200 DUP9 DUP3 PUSH2 0x11A7 JUMP JUMPDEST SWAP8 POP PUSH2 0x120B DUP4 PUSH2 0x11BE JUMP JUMPDEST SWAP3 POP POP PUSH1 0x1 DUP2 ADD SWAP1 POP PUSH2 0x11EC JUMP JUMPDEST POP DUP6 SWAP4 POP POP POP POP SWAP3 SWAP2 POP POP JUMP JUMPDEST PUSH0 PUSH1 0x20 DUP3 ADD SWAP1 POP DUP2 DUP2 SUB PUSH0 DUP4 ADD MSTORE PUSH2 0x123E DUP2 DUP5 PUSH2 0x11CA JUMP JUMPDEST SWAP1 POP SWAP3 SWAP2 POP POP JUMP JUMPDEST PUSH0 DUP1 PUSH1 0x40 DUP4 DUP6 SUB SLT ISZERO PUSH2 0x125C JUMPI PUSH2 0x125B PUSH2 0xC9D JUMP JUMPDEST JUMPDEST PUSH0 PUSH2 0x1269 DUP6 DUP3 DUP7 ADD PUSH2 0xEC1 JUMP JUMPDEST SWAP3 POP POP PUSH1 0x20 PUSH2 0x127A DUP6 DUP3 DUP7 ADD PUSH2 0xCC4 JUMP JUMPDEST SWAP2 POP POP SWAP3 POP SWAP3 SWAP1 POP JUMP JUMPDEST PUSH32 0x4E487B7100000000000000000000000000000000000000000000000000000000 PUSH0 MSTORE PUSH1 0x22 PUSH1 0x4 MSTORE PUSH1 0x24 PUSH0 REVERT JUMPDEST PUSH0 PUSH1 0x2 DUP3 DIV SWAP1 POP PUSH1 0x1 DUP3 AND DUP1 PUSH2 0x12C8 JUMPI PUSH1 0x7F DUP3 AND SWAP2 POP JUMPDEST PUSH1 0x20 DUP3 LT DUP2 SUB PUSH2 0x12DB JUMPI PUSH2 0x12DA PUSH2 0x1284 JUMP JUMPDEST JUMPDEST POP SWAP2 SWAP1 POP JUMP JUMPDEST PUSH32 0x41636573736F206E656761646F2E20566F6365206E616F20706F737375692070 PUSH0 DUP3 ADD MSTORE PUSH32 0x65726D697373616F207061726120766572206573736573206461646F732E0000 PUSH1 0x20 DUP3 ADD MSTORE POP JUMP JUMPDEST PUSH0 PUSH2 0x133B PUSH1 0x3E DUP4 PUSH2 0xD0D JUMP JUMPDEST SWAP2 POP PUSH2 0x1346 DUP3 PUSH2 0x12E1 JUMP JUMPDEST PUSH1 0x40 DUP3 ADD SWAP1 POP SWAP2 SWAP1 POP JUMP JUMPDEST PUSH0 PUSH1 0x20 DUP3 ADD SWAP1 POP DUP2 DUP2 SUB PUSH0 DUP4 ADD MSTORE PUSH2 0x1368 DUP2 PUSH2 0x132F JUMP JUMPDEST SWAP1 POP SWAP2 SWAP1 POP JUMP JUMPDEST PUSH32 0x446174617365742065737065636966696361646F206E616F2065786973746500 PUSH0 DUP3 ADD MSTORE POP JUMP JUMPDEST PUSH0 PUSH2 0x13A3 PUSH1 0x1F DUP4 PUSH2 0xD0D JUMP JUMPDEST SWAP2 POP PUSH2 0x13AE DUP3 PUSH2 0x136F JUMP JUMPDEST PUSH1 0x20 DUP3 ADD SWAP1 POP SWAP2 SWAP1 POP JUMP JUMPDEST PUSH0 PUSH1 0x20 DUP3 ADD SWAP1 POP DUP2 DUP2 SUB PUSH0 DUP4 ADD MSTORE PUSH2 0x13D0 DUP2 PUSH2 0x1397 JUMP JUMPDEST SWAP1 POP SWAP2 SWAP1 POP JUMP JUMPDEST PUSH32 0x56616C6F7220696E636F727265746F207061726120636F6D7072610000000000 PUSH0 DUP3 ADD MSTORE POP JUMP JUMPDEST PUSH0 PUSH2 0x140B PUSH1 0x1B DUP4 PUSH2 0xD0D JUMP JUMPDEST SWAP2 POP PUSH2 0x1416 DUP3 PUSH2 0x13D7 JUMP JUMPDEST PUSH1 0x20 DUP3 ADD SWAP1 POP SWAP2 SWAP1 POP JUMP JUMPDEST PUSH0 PUSH1 0x20 DUP3 ADD SWAP1 POP DUP2 DUP2 SUB PUSH0 DUP4 ADD MSTORE PUSH2 0x1438 DUP2 PUSH2 0x13FF JUMP JUMPDEST SWAP1 POP SWAP2 SWAP1 POP JUMP JUMPDEST PUSH32 0x566F6365206E616F20706F737375692061636573736F20612065737465206461 PUSH0 DUP3 ADD MSTORE PUSH32 0x7461736574000000000000000000000000000000000000000000000000000000 PUSH1 0x20 DUP3 ADD MSTORE POP JUMP JUMPDEST PUSH0 PUSH2 0x1499 PUSH1 0x25 DUP4 PUSH2 0xD0D JUMP JUMPDEST SWAP2 POP PUSH2 0x14A4 DUP3 PUSH2 0x143F JUMP JUMPDEST PUSH1 0x40 DUP3 ADD SWAP1 POP SWAP2 SWAP1 POP JUMP JUMPDEST PUSH0 PUSH1 0x20 DUP3 ADD SWAP1 POP DUP2 DUP2 SUB PUSH0 DUP4 ADD MSTORE PUSH2 0x14C6 DUP2 PUSH2 0x148D JUMP JUMPDEST SWAP1 POP SWAP2 SWAP1 POP JUMP JUMPDEST PUSH32 0x56616C6F722070617261207472616E73666572656E6369612064657665207365 PUSH0 DUP3 ADD MSTORE PUSH32 0x7220706F73697469766F00000000000000000000000000000000000000000000 PUSH1 0x20 DUP3 ADD MSTORE POP JUMP JUMPDEST PUSH0 PUSH2 0x1527 PUSH1 0x2A DUP4 PUSH2 0xD0D JUMP JUMPDEST SWAP2 POP PUSH2 0x1532 DUP3 PUSH2 0x14CD JUMP JUMPDEST PUSH1 0x40 DUP3 ADD SWAP1 POP SWAP2 SWAP1 POP JUMP JUMPDEST PUSH0 PUSH1 0x20 DUP3 ADD SWAP1 POP DUP2 DUP2 SUB PUSH0 DUP4 ADD MSTORE PUSH2 0x1554 DUP2 PUSH2 0x151B JUMP JUMPDEST SWAP1 POP SWAP2 SWAP1 POP JUMP JUMPDEST PUSH32 0x4E487B7100000000000000000000000000000000000000000000000000000000 PUSH0 MSTORE PUSH1 0x11 PUSH1 0x4 MSTORE PUSH1 0x24 PUSH0 REVERT JUMPDEST PUSH0 PUSH2 0x1592 DUP3 PUSH2 0xCA5 JUMP JUMPDEST SWAP2 POP PUSH2 0x159D DUP4 PUSH2 0xCA5 JUMP JUMPDEST SWAP3 POP DUP3 DUP3 MUL PUSH2 0x15AB DUP2 PUSH2 0xCA5 JUMP JUMPDEST SWAP2 POP DUP3 DUP3 DIV DUP5 EQ DUP4 ISZERO OR PUSH2 0x15C2 JUMPI PUSH2 0x15C1 PUSH2 0x155B JUMP JUMPDEST JUMPDEST POP SWAP3 SWAP2 POP POP JUMP JUMPDEST PUSH32 0x4E487B7100000000000000000000000000000000000000000000000000000000 PUSH0 MSTORE PUSH1 0x12 PUSH1 0x4 MSTORE PUSH1 0x24 PUSH0 REVERT JUMPDEST PUSH0 PUSH2 0x1600 DUP3 PUSH2 0xCA5 JUMP JUMPDEST SWAP2 POP PUSH2 0x160B DUP4 PUSH2 0xCA5 JUMP JUMPDEST SWAP3 POP DUP3 PUSH2 0x161B JUMPI PUSH2 0x161A PUSH2 0x15C9 JUMP JUMPDEST JUMPDEST DUP3 DUP3 DIV SWAP1 POP SWAP3 SWAP2 POP POP JUMP JUMPDEST PUSH0 PUSH2 0x1630 DUP3 PUSH2 0xCA5 JUMP JUMPDEST SWAP2 POP PUSH2 0x163B DUP4 PUSH2 0xCA5 JUMP JUMPDEST SWAP3 POP DUP3 DUP3 SUB SWAP1 POP DUP2 DUP2 GT ISZERO PUSH2 0x1653 JUMPI PUSH2 0x1652 PUSH2 0x155B JUMP JUMPDEST JUMPDEST SWAP3 SWAP2 POP POP JUMP JUMPDEST PUSH0 PUSH2 0x1663 DUP3 PUSH2 0xCA5 JUMP JUMPDEST SWAP2 POP PUSH32 0xFFFFFFFFFFFFFFFFFFFFFFFFFFFFFFFFFFFFFFFFFFFFFFFFFFFFFFFFFFFFFFFF DUP3 SUB PUSH2 0x1695 JUMPI PUSH2 0x1694 PUSH2 0x155B JUMP JUMPDEST JUMPDEST PUSH1 0x1 DUP3 ADD SWAP1 POP SWAP2 SWAP1 POP JUMP JUMPDEST PUSH0 PUSH2 0x16AA DUP3 PUSH2 0xCA5 JUMP JUMPDEST SWAP2 POP PUSH2 0x16B5 DUP4 PUSH2 0xCA5 JUMP JUMPDEST SWAP3 POP DUP3 DUP3 ADD SWAP1 POP DUP1 DUP3 GT ISZERO PUSH2 0x16CD JUMPI PUSH2 0x16CC PUSH2 0x155B JUMP JUMPDEST JUMPDEST SWAP3 SWAP2 POP POP JUMP JUMPDEST PUSH0 DUP2 SWAP1 POP DUP2 PUSH0 MSTORE PUSH1 0x20 PUSH0 KECCAK256 SWAP1 POP SWAP2 SWAP1 POP JUMP JUMPDEST PUSH0 PUSH1 0x20 PUSH1 0x1F DUP4 ADD DIV SWAP1 POP SWAP2 SWAP1 POP JUMP JUMPDEST PUSH0 DUP3 DUP3 SHL SWAP1 POP SWAP3 SWAP2 POP POP JUMP JUMPDEST PUSH0 PUSH1 0x8 DUP4 MUL PUSH2 0x172F PUSH32 0xFFFFFFFFFFFFFFFFFFFFFFFFFFFFFFFFFFFFFFFFFFFFFFFFFFFFFFFFFFFFFFFF DUP3 PUSH2 0x16F4 JUMP JUMPDEST PUSH2 0x1739 DUP7 DUP4 PUSH2 0x16F4 JUMP JUMPDEST SWAP6 POP DUP1 NOT DUP5 AND SWAP4 POP DUP1 DUP7 AND DUP5 OR SWAP3 POP POP POP SWAP4 SWAP3 POP POP POP JUMP JUMPDEST PUSH0 DUP2 SWAP1 POP SWAP2 SWAP1 POP JUMP JUMPDEST PUSH0 PUSH2 0x1774 PUSH2 0x176F PUSH2 0x176A DUP5 PUSH2 0xCA5 JUMP JUMPDEST PUSH2 0x1751 JUMP JUMPDEST PUSH2 0xCA5 JUMP JUMPDEST SWAP1 POP SWAP2 SWAP1 POP JUMP JUMPDEST PUSH0 DUP2 SWAP1 POP SWAP2 SWAP1 POP JUMP JUMPDEST PUSH2 0x178D DUP4 PUSH2 0x175A JUMP JUMPDEST PUSH2 0x17A1 PUSH2 0x1799 DUP3 PUSH2 0x177B JUMP JUMPDEST DUP5 DUP5 SLOAD PUSH2 0x1700 JUMP JUMPDEST DUP3 SSTORE POP POP POP POP JUMP JUMPDEST PUSH0 SWAP1 JUMP JUMPDEST PUSH2 0x17B5 PUSH2 0x17A9 JUMP JUMPDEST PUSH2 0x17C0 DUP2 DUP5 DUP5 PUSH2 0x1784 JUMP JUMPDEST POP POP POP JUMP JUMPDEST JUMPDEST DUP2 DUP2 LT ISZERO PUSH2 0x17E3 JUMPI PUSH2 0x17D8 PUSH0 DUP3 PUSH2 0x17AD JUMP JUMPDEST PUSH1 0x1 DUP2 ADD SWAP1 POP PUSH2 0x17C6 JUMP JUMPDEST POP POP JUMP JUMPDEST PUSH1 0x1F DUP3 GT ISZERO PUSH2 0x1828 JUMPI PUSH2 0x17F9 DUP2 PUSH2 0x16D3 JUMP JUMPDEST PUSH2 0x1802 DUP5 PUSH2 0x16E5 JUMP JUMPDEST DUP2 ADD PUSH1 0x20 DUP6 LT ISZERO PUSH2 0x1811 JUMPI DUP2 SWAP1 POP JUMPDEST PUSH2 0x1825 PUSH2 0x181D DUP6 PUSH2 0x16E5 JUMP JUMPDEST DUP4 ADD DUP3 PUSH2 0x17C5 JUMP JUMPDEST POP POP JUMPDEST POP POP POP JUMP JUMPDEST PUSH0 DUP3 DUP3 SHR SWAP1 POP SWAP3 SWAP2 POP POP JUMP JUMPDEST PUSH0 PUSH2 0x1848 PUSH0 NOT DUP5 PUSH1 0x8 MUL PUSH2 0x182D JUMP JUMPDEST NOT DUP1 DUP4 AND SWAP2 POP POP SWAP3 SWAP2 POP POP JUMP JUMPDEST PUSH0 PUSH2 0x1860 DUP4 DUP4 PUSH2 0x1839 JUMP JUMPDEST SWAP2 POP DUP3 PUSH1 0x2 MUL DUP3 OR SWAP1 POP SWAP3 SWAP2 POP POP JUMP JUMPDEST PUSH2 0x1879 DUP3 PUSH2 0xD03 JUMP JUMPDEST PUSH8 0xFFFFFFFFFFFFFFFF DUP2 GT ISZERO PUSH2 0x1892 JUMPI PUSH2 0x1891 PUSH2 0xF1B JUMP JUMPDEST JUMPDEST PUSH2 0x189C DUP3 SLOAD PUSH2 0x12B1 JUMP JUMPDEST PUSH2 0x18A7 DUP3 DUP3 DUP6 PUSH2 0x17E7 JUMP JUMPDEST PUSH0 PUSH1 0x20 SWAP1 POP PUSH1 0x1F DUP4 GT PUSH1 0x1 DUP2 EQ PUSH2 0x18D8 JUMPI PUSH0 DUP5 ISZERO PUSH2 0x18C6 JUMPI DUP3 DUP8 ADD MLOAD SWAP1 POP JUMPDEST PUSH2 0x18D0 DUP6 DUP3 PUSH2 0x1855 JUMP JUMPDEST DUP7 SSTORE POP PUSH2 0x1937 JUMP JUMPDEST PUSH1 0x1F NOT DUP5 AND PUSH2 0x18E6 DUP7 PUSH2 0x16D3 JUMP JUMPDEST PUSH0 JUMPDEST DUP3 DUP2 LT ISZERO PUSH2 0x190D JUMPI DUP5 DUP10 ADD MLOAD DUP3 SSTORE PUSH1 0x1 DUP3 ADD SWAP2 POP PUSH1 0x20 DUP6 ADD SWAP5 POP PUSH1 0x20 DUP2 ADD SWAP1 POP PUSH2 0x18E8 JUMP JUMPDEST DUP7 DUP4 LT ISZERO PUSH2 0x192A JUMPI DUP5 DUP10 ADD MLOAD PUSH2 0x1926 PUSH1 0x1F DUP10 AND DUP3 PUSH2 0x1839 JUMP JUMPDEST DUP4 SSTORE POP JUMPDEST PUSH1 0x1 PUSH1 0x2 DUP9 MUL ADD DUP9 SSTORE POP POP POP JUMPDEST POP POP POP POP POP POP JUMP INVALID LOG2 PUSH5 0x6970667358 0x22 SLT KECCAK256 0xD5 0xC6 ADDMOD DUP10 0xD1 0x4D JUMP MSTORE8 0xEF PUSH23 0xD1E373B8F60680E0C60E2820179C704472236DAC636564 PUSH20 0x6F6C634300081A00330000000000000000000000 "
				},
				"gasEstimates": {
					"creation": {
						"codeDepositCost": "1303400",
						"executionCost": "1354",
						"totalCost": "1304754"
					},
					"external": {
						"access(address,uint256)": "3159",
						"accessHistory(uint256,uint256)": "infinite",
						"buyAccess(uint256)": "infinite",
						"datasetCount()": "2492",
						"datasets(uint256)": "infinite",
						"getAccessHistory(uint256)": "infinite",
						"getEncryptedHash(uint256)": "7423",
						"hasAccess(uint256)": "5166",
						"registerDataset(string,string,uint256,bytes32,uint256)": "infinite",
						"transferAccess(uint256,address)": "infinite"
					}
				},
				"methodIdentifiers": {
					"access(address,uint256)": "f581fb68",
					"accessHistory(uint256,uint256)": "e3c40e1a",
					"buyAccess(uint256)": "50a1a264",
					"datasetCount()": "3c8935b9",
					"datasets(uint256)": "1cff85e1",
					"getAccessHistory(uint256)": "f2cec6ee",
					"getEncryptedHash(uint256)": "38d7e815",
					"hasAccess(uint256)": "3132ddfe",
					"registerDataset(string,string,uint256,bytes32,uint256)": "c013f8c7",
					"transferAccess(uint256,address)": "7449be0d"
				}
			},
			"storageLayout": {
				"storage": [
					{
						"astId": 19,
						"contract": "contracts/tokenia.sol:DataTokenization",
						"label": "datasets",
						"offset": 0,
						"slot": "0",
						"type": "t_mapping(t_uint256,t_struct(Dataset)14_storage)"
					},
					{
						"astId": 25,
						"contract": "contracts/tokenia.sol:DataTokenization",
						"label": "access",
						"offset": 0,
						"slot": "1",
						"type": "t_mapping(t_address,t_mapping(t_uint256,t_bool))"
					},
					{
						"astId": 30,
						"contract": "contracts/tokenia.sol:DataTokenization",
						"label": "accessHistory",
						"offset": 0,
						"slot": "2",
						"type": "t_mapping(t_uint256,t_array(t_address)dyn_storage)"
					},
					{
						"astId": 32,
						"contract": "contracts/tokenia.sol:DataTokenization",
						"label": "datasetCount",
						"offset": 0,
						"slot": "3",
						"type": "t_uint256"
					}
				],
				"types": {
					"t_address": {
						"encoding": "inplace",
						"label": "address",
						"numberOfBytes": "20"
					},
					"t_array(t_address)dyn_storage": {
						"base": "t_address",
						"encoding": "dynamic_array",
						"label": "address[]",
						"numberOfBytes": "32"
					},
					"t_bool": {
						"encoding": "inplace",
						"label": "bool",
						"numberOfBytes": "1"
					},
					"t_bytes32": {
						"encoding": "inplace",
						"label": "bytes32",
						"numberOfBytes": "32"
					},
					"t_mapping(t_address,t_mapping(t_uint256,t_bool))": {
						"encoding": "mapping",
						"key": "t_address",
						"label": "mapping(address => mapping(uint256 => bool))",
						"numberOfBytes": "32",
						"value": "t_mapping(t_uint256,t_bool)"
					},
					"t_mapping(t_uint256,t_array(t_address)dyn_storage)": {
						"encoding": "mapping",
						"key": "t_uint256",
						"label": "mapping(uint256 => address[])",
						"numberOfBytes": "32",
						"value": "t_array(t_address)dyn_storage"
					},
					"t_mapping(t_uint256,t_bool)": {
						"encoding": "mapping",
						"key": "t_uint256",
						"label": "mapping(uint256 => bool)",
						"numberOfBytes": "32",
						"value": "t_bool"
					},
					"t_mapping(t_uint256,t_struct(Dataset)14_storage)": {
						"encoding": "mapping",
						"key": "t_uint256",
						"label": "mapping(uint256 => struct DataTokenization.Dataset)",
						"numberOfBytes": "32",
						"value": "t_struct(Dataset)14_storage"
					},
					"t_string_storage": {
						"encoding": "bytes",
						"label": "string",
						"numberOfBytes": "32"
					},
					"t_struct(Dataset)14_storage": {
						"encoding": "inplace",
						"label": "struct DataTokenization.Dataset",
						"members": [
							{
								"astId": 3,
								"contract": "contracts/tokenia.sol:DataTokenization",
								"label": "name",
								"offset": 0,
								"slot": "0",
								"type": "t_string_storage"
							},
							{
								"astId": 5,
								"contract": "contracts/tokenia.sol:DataTokenization",
								"label": "description",
								"offset": 0,
								"slot": "1",
								"type": "t_string_storage"
							},
							{
								"astId": 7,
								"contract": "contracts/tokenia.sol:DataTokenization",
								"label": "price",
								"offset": 0,
								"slot": "2",
								"type": "t_uint256"
							},
							{
								"astId": 9,
								"contract": "contracts/tokenia.sol:DataTokenization",
								"label": "owner",
								"offset": 0,
								"slot": "3",
								"type": "t_address"
							},
							{
								"astId": 11,
								"contract": "contracts/tokenia.sol:DataTokenization",
								"label": "encryptedHash",
								"offset": 0,
								"slot": "4",
								"type": "t_bytes32"
							},
							{
								"astId": 13,
								"contract": "contracts/tokenia.sol:DataTokenization",
								"label": "expiryTime",
								"offset": 0,
								"slot": "5",
								"type": "t_uint256"
							}
						],
						"numberOfBytes": "192"
					},
					"t_uint256": {
						"encoding": "inplace",
						"label": "uint256",
						"numberOfBytes": "32"
					}
				}
			},
			"userdoc": {
				"kind": "user",
				"methods": {},
				"version": 1
			}
		}
	}
}