{
	"contracts/DataTokenization.sol": {
		"DataTokenization": {
			"abi": [
				{
					"anonymous": false,
					"inputs": [
						{
							"indexed": true,
							"internalType": "address",
							"name": "buyer",
							"type": "address"
						},
						{
							"indexed": true,
							"internalType": "uint256",
							"name": "datasetId",
							"type": "uint256"
						},
						{
							"indexed": false,
							"internalType": "uint256",
							"name": "pricePaid",
							"type": "uint256"
						}
					],
					"name": "AccessBought",
					"type": "event"
				},
				{
					"anonymous": false,
					"inputs": [
						{
							"indexed": true,
							"internalType": "address",
							"name": "user",
							"type": "address"
						},
						{
							"indexed": false,
							"internalType": "uint256",
							"name": "newBalance",
							"type": "uint256"
						}
					],
					"name": "BalanceUpdated",
					"type": "event"
				},
				{
					"anonymous": false,
					"inputs": [
						{
							"indexed": false,
							"internalType": "uint256",
							"name": "msgValue",
							"type": "uint256"
						},
						{
							"indexed": false,
							"internalType": "uint256",
							"name": "datasetPrice",
							"type": "uint256"
						}
					],
					"name": "LogDebugValues",
					"type": "event"
				},
				{
					"anonymous": false,
					"inputs": [
						{
							"indexed": true,
							"internalType": "uint256",
							"name": "datasetId",
							"type": "uint256"
						},
						{
							"indexed": true,
							"internalType": "address",
							"name": "buyer",
							"type": "address"
						},
						{
							"indexed": false,
							"internalType": "uint256",
							"name": "timestamp",
							"type": "uint256"
						}
					],
					"name": "TokenPurchase",
					"type": "event"
				},
				{
					"anonymous": false,
					"inputs": [
						{
							"indexed": true,
							"internalType": "uint256",
							"name": "datasetId",
							"type": "uint256"
						},
						{
							"indexed": true,
							"internalType": "address",
							"name": "from",
							"type": "address"
						},
						{
							"indexed": true,
							"internalType": "address",
							"name": "to",
							"type": "address"
						},
						{
							"indexed": false,
							"internalType": "uint256",
							"name": "timestamp",
							"type": "uint256"
						}
					],
					"name": "TokenTransfer",
					"type": "event"
				},
				{
					"inputs": [
						{
							"internalType": "address",
							"name": "user",
							"type": "address"
						},
						{
							"internalType": "uint256",
							"name": "amount",
							"type": "uint256"
						}
					],
					"name": "addBalance",
					"outputs": [],
					"stateMutability": "nonpayable",
					"type": "function"
				},
				{
					"inputs": [
						{
							"internalType": "address",
							"name": "",
							"type": "address"
						}
					],
					"name": "balances",
					"outputs": [
						{
							"internalType": "uint256",
							"name": "",
							"type": "uint256"
						}
					],
					"stateMutability": "view",
					"type": "function"
				},
				{
					"inputs": [
						{
							"internalType": "uint256",
							"name": "datasetId",
							"type": "uint256"
						},
						{
							"internalType": "uint256",
							"name": "pricePaid",
							"type": "uint256"
						}
					],
					"name": "buyAccess",
					"outputs": [],
					"stateMutability": "payable",
					"type": "function"
				},
				{
					"inputs": [],
					"name": "datasetCount",
					"outputs": [
						{
							"internalType": "uint256",
							"name": "",
							"type": "uint256"
						}
					],
					"stateMutability": "view",
					"type": "function"
				},
				{
					"inputs": [
						{
							"internalType": "uint256",
							"name": "",
							"type": "uint256"
						}
					],
					"name": "datasets",
					"outputs": [
						{
							"internalType": "string",
							"name": "name",
							"type": "string"
						},
						{
							"internalType": "string",
							"name": "description",
							"type": "string"
						},
						{
							"internalType": "uint256",
							"name": "price",
							"type": "uint256"
						},
						{
							"internalType": "address",
							"name": "owner",
							"type": "address"
						},
						{
							"internalType": "bytes32",
							"name": "encryptedHash",
							"type": "bytes32"
						},
						{
							"internalType": "uint256",
							"name": "expiryTime",
							"type": "uint256"
						},
						{
							"internalType": "bool",
							"name": "isForSale",
							"type": "bool"
						}
					],
					"stateMutability": "view",
					"type": "function"
				},
				{
					"inputs": [
						{
							"internalType": "uint256",
							"name": "_datasetId",
							"type": "uint256"
						}
					],
					"name": "hasAccess",
					"outputs": [
						{
							"internalType": "bool",
							"name": "",
							"type": "bool"
						}
					],
					"stateMutability": "view",
					"type": "function"
				},
				{
					"inputs": [],
					"name": "owner",
					"outputs": [
						{
							"internalType": "address",
							"name": "",
							"type": "address"
						}
					],
					"stateMutability": "view",
					"type": "function"
				},
				{
					"inputs": [
						{
							"internalType": "string",
							"name": "_name",
							"type": "string"
						},
						{
							"internalType": "string",
							"name": "_description",
							"type": "string"
						},
						{
							"internalType": "uint256",
							"name": "_price",
							"type": "uint256"
						},
						{
							"internalType": "bytes32",
							"name": "_encryptedHash",
							"type": "bytes32"
						},
						{
							"internalType": "uint256",
							"name": "_expiryTime",
							"type": "uint256"
						}
					],
					"name": "registerDataset",
					"outputs": [],
					"stateMutability": "nonpayable",
					"type": "function"
				}
			],
			"devdoc": {
				"kind": "dev",
				"methods": {},
				"version": 1
			},
			"evm": {
				"assembly": "    /* \"contracts/DataTokenization.sol\":60:3817  contract DataTokenization {... */\n  mstore(0x40, 0x80)\n  callvalue\n  dup1\n  iszero\n  tag_1\n  jumpi\n  0x00\n  dup1\n  revert\ntag_1:\n  pop\n  dataSize(sub_0)\n  dup1\n  dataOffset(sub_0)\n  0x00\n  codecopy\n  0x00\n  return\nstop\n\nsub_0: assembly {\n        /* \"contracts/DataTokenization.sol\":60:3817  contract DataTokenization {... */\n      mstore(0x40, 0x80)\n      jumpi(tag_1, lt(calldatasize, 0x04))\n      shr(0xe0, calldataload(0x00))\n      dup1\n      0x3132ddfe\n      gt\n      tag_10\n      jumpi\n      dup1\n      0x3132ddfe\n      eq\n      tag_6\n      jumpi\n      dup1\n      0x3c8935b9\n      eq\n      tag_7\n      jumpi\n      dup1\n      0x8da5cb5b\n      eq\n      tag_8\n      jumpi\n      dup1\n      0xc013f8c7\n      eq\n      tag_9\n      jumpi\n      jump(tag_1)\n    tag_10:\n      dup1\n      0x1cff85e1\n      eq\n      tag_2\n      jumpi\n      dup1\n      0x21e5383a\n      eq\n      tag_3\n      jumpi\n      dup1\n      0x27e235e3\n      eq\n      tag_4\n      jumpi\n      dup1\n      0x2cdc2534\n      eq\n      tag_5\n      jumpi\n    tag_1:\n      0x00\n      dup1\n      revert\n        /* \"contracts/DataTokenization.sol\":394:437  mapping(uint256 => Dataset) public datasets */\n    tag_2:\n      callvalue\n      dup1\n      iszero\n      tag_11\n      jumpi\n      0x00\n      dup1\n      revert\n    tag_11:\n      pop\n      tag_12\n      0x04\n      dup1\n      calldatasize\n      sub\n      dup2\n      add\n      swap1\n      tag_13\n      swap2\n      swap1\n      tag_14\n      jump\t// in\n    tag_13:\n      tag_15\n      jump\t// in\n    tag_12:\n      mload(0x40)\n      tag_16\n      swap8\n      swap7\n      swap6\n      swap5\n      swap4\n      swap3\n      swap2\n      swap1\n      tag_17\n      jump\t// in\n    tag_16:\n      mload(0x40)\n      dup1\n      swap2\n      sub\n      swap1\n      return\n        /* \"contracts/DataTokenization.sol\":3440:3673  function addBalance(address user, uint256 amount) public {... */\n    tag_3:\n      callvalue\n      dup1\n      iszero\n      tag_18\n      jumpi\n      0x00\n      dup1\n      revert\n    tag_18:\n      pop\n      tag_19\n      0x04\n      dup1\n      calldatasize\n      sub\n      dup2\n      add\n      swap1\n      tag_20\n      swap2\n      swap1\n      tag_21\n      jump\t// in\n    tag_20:\n      tag_22\n      jump\t// in\n    tag_19:\n      stop\n        /* \"contracts/DataTokenization.sol\":520:563  mapping(address => uint256) public balances */\n    tag_4:\n      callvalue\n      dup1\n      iszero\n      tag_23\n      jumpi\n      0x00\n      dup1\n      revert\n    tag_23:\n      pop\n      tag_24\n      0x04\n      dup1\n      calldatasize\n      sub\n      dup2\n      add\n      swap1\n      tag_25\n      swap2\n      swap1\n      tag_26\n      jump\t// in\n    tag_25:\n      tag_27\n      jump\t// in\n    tag_24:\n      mload(0x40)\n      tag_28\n      swap2\n      swap1\n      tag_29\n      jump\t// in\n    tag_28:\n      mload(0x40)\n      dup1\n      swap2\n      sub\n      swap1\n      return\n        /* \"contracts/DataTokenization.sol\":1704:2967  function buyAccess(uint256 datasetId, uint256 pricePaid) public payable {... */\n    tag_5:\n      tag_30\n      0x04\n      dup1\n      calldatasize\n      sub\n      dup2\n      add\n      swap1\n      tag_31\n      swap2\n      swap1\n      tag_32\n      jump\t// in\n    tag_31:\n      tag_33\n      jump\t// in\n    tag_30:\n      stop\n        /* \"contracts/DataTokenization.sol\":3145:3370  function hasAccess(uint256 _datasetId) public view returns (bool) {... */\n    tag_6:\n      callvalue\n      dup1\n      iszero\n      tag_34\n      jumpi\n      0x00\n      dup1\n      revert\n    tag_34:\n      pop\n      tag_35\n      0x04\n      dup1\n      calldatasize\n      sub\n      dup2\n      add\n      swap1\n      tag_36\n      swap2\n      swap1\n      tag_14\n      jump\t// in\n    tag_36:\n      tag_37\n      jump\t// in\n    tag_35:\n      mload(0x40)\n      tag_38\n      swap2\n      swap1\n      tag_39\n      jump\t// in\n    tag_38:\n      mload(0x40)\n      dup1\n      swap2\n      sub\n      swap1\n      return\n        /* \"contracts/DataTokenization.sol\":444:471  uint256 public datasetCount */\n    tag_7:\n      callvalue\n      dup1\n      iszero\n      tag_40\n      jumpi\n      0x00\n      dup1\n      revert\n    tag_40:\n      pop\n      tag_41\n      tag_42\n      jump\t// in\n    tag_41:\n      mload(0x40)\n      tag_43\n      swap2\n      swap1\n      tag_29\n      jump\t// in\n    tag_43:\n      mload(0x40)\n      dup1\n      swap2\n      sub\n      swap1\n      return\n        /* \"contracts/DataTokenization.sol\":3731:3814  function owner() public view returns (address) {... */\n    tag_8:\n      callvalue\n      dup1\n      iszero\n      tag_44\n      jumpi\n      0x00\n      dup1\n      revert\n    tag_44:\n      pop\n      tag_45\n      tag_46\n      jump\t// in\n    tag_45:\n      mload(0x40)\n      tag_47\n      swap2\n      swap1\n      tag_48\n      jump\t// in\n    tag_47:\n      mload(0x40)\n      dup1\n      swap2\n      sub\n      swap1\n      return\n        /* \"contracts/DataTokenization.sol\":1000:1604  function registerDataset(... */\n    tag_9:\n      callvalue\n      dup1\n      iszero\n      tag_49\n      jumpi\n      0x00\n      dup1\n      revert\n    tag_49:\n      pop\n      tag_50\n      0x04\n      dup1\n      calldatasize\n      sub\n      dup2\n      add\n      swap1\n      tag_51\n      swap2\n      swap1\n      tag_52\n      jump\t// in\n    tag_51:\n      tag_53\n      jump\t// in\n    tag_50:\n      stop\n        /* \"contracts/DataTokenization.sol\":394:437  mapping(uint256 => Dataset) public datasets */\n    tag_15:\n      mstore(0x20, 0x00)\n      dup1\n      0x00\n      mstore\n      keccak256(0x00, 0x40)\n      0x00\n      swap2\n      pop\n      swap1\n      pop\n      dup1\n      0x00\n      add\n      dup1\n      sload\n      tag_54\n      swap1\n      tag_55\n      jump\t// in\n    tag_54:\n      dup1\n      0x1f\n      add\n      0x20\n      dup1\n      swap2\n      div\n      mul\n      0x20\n      add\n      mload(0x40)\n      swap1\n      dup2\n      add\n      0x40\n      mstore\n      dup1\n      swap3\n      swap2\n      swap1\n      dup2\n      dup2\n      mstore\n      0x20\n      add\n      dup3\n      dup1\n      sload\n      tag_56\n      swap1\n      tag_55\n      jump\t// in\n    tag_56:\n      dup1\n      iszero\n      tag_57\n      jumpi\n      dup1\n      0x1f\n      lt\n      tag_58\n      jumpi\n      0x0100\n      dup1\n      dup4\n      sload\n      div\n      mul\n      dup4\n      mstore\n      swap2\n      0x20\n      add\n      swap2\n      jump(tag_57)\n    tag_58:\n      dup3\n      add\n      swap2\n      swap1\n      0x00\n      mstore\n      keccak256(0x00, 0x20)\n      swap1\n    tag_59:\n      dup2\n      sload\n      dup2\n      mstore\n      swap1\n      0x01\n      add\n      swap1\n      0x20\n      add\n      dup1\n      dup4\n      gt\n      tag_59\n      jumpi\n      dup3\n      swap1\n      sub\n      0x1f\n      and\n      dup3\n      add\n      swap2\n    tag_57:\n      pop\n      pop\n      pop\n      pop\n      pop\n      swap1\n      dup1\n      0x01\n      add\n      dup1\n      sload\n      tag_60\n      swap1\n      tag_55\n      jump\t// in\n    tag_60:\n      dup1\n      0x1f\n      add\n      0x20\n      dup1\n      swap2\n      div\n      mul\n      0x20\n      add\n      mload(0x40)\n      swap1\n      dup2\n      add\n      0x40\n      mstore\n      dup1\n      swap3\n      swap2\n      swap1\n      dup2\n      dup2\n      mstore\n      0x20\n      add\n      dup3\n      dup1\n      sload\n      tag_61\n      swap1\n      tag_55\n      jump\t// in\n    tag_61:\n      dup1\n      iszero\n      tag_62\n      jumpi\n      dup1\n      0x1f\n      lt\n      tag_63\n      jumpi\n      0x0100\n      dup1\n      dup4\n      sload\n      div\n      mul\n      dup4\n      mstore\n      swap2\n      0x20\n      add\n      swap2\n      jump(tag_62)\n    tag_63:\n      dup3\n      add\n      swap2\n      swap1\n      0x00\n      mstore\n      keccak256(0x00, 0x20)\n      swap1\n    tag_64:\n      dup2\n      sload\n      dup2\n      mstore\n      swap1\n      0x01\n      add\n      swap1\n      0x20\n      add\n      dup1\n      dup4\n      gt\n      tag_64\n      jumpi\n      dup3\n      swap1\n      sub\n      0x1f\n      and\n      dup3\n      add\n      swap2\n    tag_62:\n      pop\n      pop\n      pop\n      pop\n      pop\n      swap1\n      dup1\n      0x02\n      add\n      sload\n      swap1\n      dup1\n      0x03\n      add\n      0x00\n      swap1\n      sload\n      swap1\n      0x0100\n      exp\n      swap1\n      div\n      0xffffffffffffffffffffffffffffffffffffffff\n      and\n      swap1\n      dup1\n      0x04\n      add\n      sload\n      swap1\n      dup1\n      0x05\n      add\n      sload\n      swap1\n      dup1\n      0x06\n      add\n      0x00\n      swap1\n      sload\n      swap1\n      0x0100\n      exp\n      swap1\n      div\n      0xff\n      and\n      swap1\n      pop\n      dup8\n      jump\t// out\n        /* \"contracts/DataTokenization.sol\":3440:3673  function addBalance(address user, uint256 amount) public {... */\n    tag_22:\n        /* \"contracts/DataTokenization.sol\":3530:3537  owner() */\n      tag_66\n        /* \"contracts/DataTokenization.sol\":3530:3535  owner */\n      tag_46\n        /* \"contracts/DataTokenization.sol\":3530:3537  owner() */\n      jump\t// in\n    tag_66:\n        /* \"contracts/DataTokenization.sol\":3516:3537  msg.sender == owner() */\n      0xffffffffffffffffffffffffffffffffffffffff\n      and\n        /* \"contracts/DataTokenization.sol\":3516:3526  msg.sender */\n      caller\n        /* \"contracts/DataTokenization.sol\":3516:3537  msg.sender == owner() */\n      0xffffffffffffffffffffffffffffffffffffffff\n      and\n      eq\n        /* \"contracts/DataTokenization.sol\":3508:3578  require(msg.sender == owner(), \"Somente o dono pode adicionar saldo.\") */\n      tag_67\n      jumpi\n      mload(0x40)\n      0x08c379a000000000000000000000000000000000000000000000000000000000\n      dup2\n      mstore\n      0x04\n      add\n      tag_68\n      swap1\n      tag_69\n      jump\t// in\n    tag_68:\n      mload(0x40)\n      dup1\n      swap2\n      sub\n      swap1\n      revert\n    tag_67:\n        /* \"contracts/DataTokenization.sol\":3607:3613  amount */\n      dup1\n        /* \"contracts/DataTokenization.sol\":3589:3597  balances */\n      0x02\n        /* \"contracts/DataTokenization.sol\":3589:3603  balances[user] */\n      0x00\n        /* \"contracts/DataTokenization.sol\":3598:3602  user */\n      dup5\n        /* \"contracts/DataTokenization.sol\":3589:3603  balances[user] */\n      0xffffffffffffffffffffffffffffffffffffffff\n      and\n      0xffffffffffffffffffffffffffffffffffffffff\n      and\n      dup2\n      mstore\n      0x20\n      add\n      swap1\n      dup2\n      mstore\n      0x20\n      add\n      0x00\n      keccak256\n      0x00\n        /* \"contracts/DataTokenization.sol\":3589:3613  balances[user] += amount */\n      dup3\n      dup3\n      sload\n      tag_70\n      swap2\n      swap1\n      tag_71\n      jump\t// in\n    tag_70:\n      swap3\n      pop\n      pop\n      dup2\n      swap1\n      sstore\n      pop\n        /* \"contracts/DataTokenization.sol\":3644:3648  user */\n      dup2\n        /* \"contracts/DataTokenization.sol\":3629:3665  BalanceUpdated(user, balances[user]) */\n      0xffffffffffffffffffffffffffffffffffffffff\n      and\n      0x8ad64a0ac7700dd8425ab0499f107cb6e2cd1581d803c5b8c1c79dcb8190b1af\n        /* \"contracts/DataTokenization.sol\":3650:3658  balances */\n      0x02\n        /* \"contracts/DataTokenization.sol\":3650:3664  balances[user] */\n      0x00\n        /* \"contracts/DataTokenization.sol\":3659:3663  user */\n      dup6\n        /* \"contracts/DataTokenization.sol\":3650:3664  balances[user] */\n      0xffffffffffffffffffffffffffffffffffffffff\n      and\n      0xffffffffffffffffffffffffffffffffffffffff\n      and\n      dup2\n      mstore\n      0x20\n      add\n      swap1\n      dup2\n      mstore\n      0x20\n      add\n      0x00\n      keccak256\n      sload\n        /* \"contracts/DataTokenization.sol\":3629:3665  BalanceUpdated(user, balances[user]) */\n      mload(0x40)\n      tag_72\n      swap2\n      swap1\n      tag_29\n      jump\t// in\n    tag_72:\n      mload(0x40)\n      dup1\n      swap2\n      sub\n      swap1\n      log2\n        /* \"contracts/DataTokenization.sol\":3440:3673  function addBalance(address user, uint256 amount) public {... */\n      pop\n      pop\n      jump\t// out\n        /* \"contracts/DataTokenization.sol\":520:563  mapping(address => uint256) public balances */\n    tag_27:\n      mstore(0x20, 0x02)\n      dup1\n      0x00\n      mstore\n      keccak256(0x00, 0x40)\n      0x00\n      swap2\n      pop\n      swap1\n      pop\n      sload\n      dup2\n      jump\t// out\n        /* \"contracts/DataTokenization.sol\":1704:2967  function buyAccess(uint256 datasetId, uint256 pricePaid) public payable {... */\n    tag_33:\n        /* \"contracts/DataTokenization.sol\":1787:1810  Dataset storage dataset */\n      0x00\n        /* \"contracts/DataTokenization.sol\":1813:1821  datasets */\n      dup1\n        /* \"contracts/DataTokenization.sol\":1813:1832  datasets[datasetId] */\n      0x00\n        /* \"contracts/DataTokenization.sol\":1822:1831  datasetId */\n      dup5\n        /* \"contracts/DataTokenization.sol\":1813:1832  datasets[datasetId] */\n      dup2\n      mstore\n      0x20\n      add\n      swap1\n      dup2\n      mstore\n      0x20\n      add\n      0x00\n      keccak256\n        /* \"contracts/DataTokenization.sol\":1787:1832  Dataset storage dataset = datasets[datasetId] */\n      swap1\n      pop\n        /* \"contracts/DataTokenization.sol\":1903:1910  dataset */\n      dup1\n        /* \"contracts/DataTokenization.sol\":1903:1920  dataset.isForSale */\n      0x06\n      add\n      0x00\n      swap1\n      sload\n      swap1\n      0x0100\n      exp\n      swap1\n      div\n      0xff\n      and\n        /* \"contracts/DataTokenization.sol\":1895:1955  require(dataset.isForSale, \"Este dataset nao esta a venda.\") */\n      tag_74\n      jumpi\n      mload(0x40)\n      0x08c379a000000000000000000000000000000000000000000000000000000000\n      dup2\n      mstore\n      0x04\n      add\n      tag_75\n      swap1\n      tag_76\n      jump\t// in\n    tag_75:\n      mload(0x40)\n      dup1\n      swap2\n      sub\n      swap1\n      revert\n    tag_74:\n        /* \"contracts/DataTokenization.sol\":2031:2071  LogDebugValues(msg.value, dataset.price) */\n      0x63af63bfca569c48d057e33e64dd158f842ce6522d8dcd4b4a132fb07a458d1f\n        /* \"contracts/DataTokenization.sol\":2046:2055  msg.value */\n      callvalue\n        /* \"contracts/DataTokenization.sol\":2057:2064  dataset */\n      dup3\n        /* \"contracts/DataTokenization.sol\":2057:2070  dataset.price */\n      0x02\n      add\n      sload\n        /* \"contracts/DataTokenization.sol\":2031:2071  LogDebugValues(msg.value, dataset.price) */\n      mload(0x40)\n      tag_77\n      swap3\n      swap2\n      swap1\n      tag_78\n      jump\t// in\n    tag_77:\n      mload(0x40)\n      dup1\n      swap2\n      sub\n      swap1\n      log1\n        /* \"contracts/DataTokenization.sol\":2228:2235  dataset */\n      dup1\n        /* \"contracts/DataTokenization.sol\":2228:2241  dataset.price */\n      0x02\n      add\n      sload\n        /* \"contracts/DataTokenization.sol\":2215:2224  msg.value */\n      callvalue\n        /* \"contracts/DataTokenization.sol\":2215:2241  msg.value == dataset.price */\n      eq\n        /* \"contracts/DataTokenization.sol\":2207:2274  require(msg.value == dataset.price, \"Valor incorreto para compra.\") */\n      tag_79\n      jumpi\n      mload(0x40)\n      0x08c379a000000000000000000000000000000000000000000000000000000000\n      dup2\n      mstore\n      0x04\n      add\n      tag_80\n      swap1\n      tag_81\n      jump\t// in\n    tag_80:\n      mload(0x40)\n      dup1\n      swap2\n      sub\n      swap1\n      revert\n    tag_79:\n        /* \"contracts/DataTokenization.sol\":2377:2386  pricePaid */\n      dup2\n        /* \"contracts/DataTokenization.sol\":2353:2361  balances */\n      0x02\n        /* \"contracts/DataTokenization.sol\":2353:2373  balances[msg.sender] */\n      0x00\n        /* \"contracts/DataTokenization.sol\":2362:2372  msg.sender */\n      caller\n        /* \"contracts/DataTokenization.sol\":2353:2373  balances[msg.sender] */\n      0xffffffffffffffffffffffffffffffffffffffff\n      and\n      0xffffffffffffffffffffffffffffffffffffffff\n      and\n      dup2\n      mstore\n      0x20\n      add\n      swap1\n      dup2\n      mstore\n      0x20\n      add\n      0x00\n      keccak256\n      sload\n        /* \"contracts/DataTokenization.sol\":2353:2386  balances[msg.sender] >= pricePaid */\n      lt\n      iszero\n        /* \"contracts/DataTokenization.sol\":2345:2423  require(balances[msg.sender] >= pricePaid, \"Saldo insuficiente para comprar.\") */\n      tag_82\n      jumpi\n      mload(0x40)\n      0x08c379a000000000000000000000000000000000000000000000000000000000\n      dup2\n      mstore\n      0x04\n      add\n      tag_83\n      swap1\n      tag_84\n      jump\t// in\n    tag_83:\n      mload(0x40)\n      dup1\n      swap2\n      sub\n      swap1\n      revert\n    tag_82:\n        /* \"contracts/DataTokenization.sol\":2510:2519  pricePaid */\n      dup2\n        /* \"contracts/DataTokenization.sol\":2486:2494  balances */\n      0x02\n        /* \"contracts/DataTokenization.sol\":2486:2506  balances[msg.sender] */\n      0x00\n        /* \"contracts/DataTokenization.sol\":2495:2505  msg.sender */\n      caller\n        /* \"contracts/DataTokenization.sol\":2486:2506  balances[msg.sender] */\n      0xffffffffffffffffffffffffffffffffffffffff\n      and\n      0xffffffffffffffffffffffffffffffffffffffff\n      and\n      dup2\n      mstore\n      0x20\n      add\n      swap1\n      dup2\n      mstore\n      0x20\n      add\n      0x00\n      keccak256\n      0x00\n        /* \"contracts/DataTokenization.sol\":2486:2519  balances[msg.sender] -= pricePaid */\n      dup3\n      dup3\n      sload\n      tag_85\n      swap2\n      swap1\n      tag_86\n      jump\t// in\n    tag_85:\n      swap3\n      pop\n      pop\n      dup2\n      swap1\n      sstore\n      pop\n        /* \"contracts/DataTokenization.sol\":2611:2615  true */\n      0x01\n        /* \"contracts/DataTokenization.sol\":2573:2580  dataset */\n      dup2\n        /* \"contracts/DataTokenization.sol\":2573:2596  dataset.authorizedUsers */\n      0x07\n      add\n        /* \"contracts/DataTokenization.sol\":2573:2608  dataset.authorizedUsers[msg.sender] */\n      0x00\n        /* \"contracts/DataTokenization.sol\":2597:2607  msg.sender */\n      caller\n        /* \"contracts/DataTokenization.sol\":2573:2608  dataset.authorizedUsers[msg.sender] */\n      0xffffffffffffffffffffffffffffffffffffffff\n      and\n      0xffffffffffffffffffffffffffffffffffffffff\n      and\n      dup2\n      mstore\n      0x20\n      add\n      swap1\n      dup2\n      mstore\n      0x20\n      add\n      0x00\n      keccak256\n      0x00\n        /* \"contracts/DataTokenization.sol\":2573:2615  dataset.authorizedUsers[msg.sender] = true */\n      0x0100\n      exp\n      dup2\n      sload\n      dup2\n      0xff\n      mul\n      not\n      and\n      swap1\n      dup4\n      iszero\n      iszero\n      mul\n      or\n      swap1\n      sstore\n      pop\n        /* \"contracts/DataTokenization.sol\":2626:2633  dataset */\n      dup1\n        /* \"contracts/DataTokenization.sol\":2626:2647  dataset.accessHistory */\n      0x08\n      add\n        /* \"contracts/DataTokenization.sol\":2653:2663  msg.sender */\n      caller\n        /* \"contracts/DataTokenization.sol\":2626:2664  dataset.accessHistory.push(msg.sender) */\n      swap1\n      dup1\n      0x01\n      dup2\n      sload\n      add\n      dup1\n      dup3\n      sstore\n      dup1\n      swap2\n      pop\n      pop\n      0x01\n      swap1\n      sub\n      swap1\n      0x00\n      mstore\n      keccak256(0x00, 0x20)\n      add\n      0x00\n      swap1\n      swap2\n      swap1\n      swap2\n      swap1\n      swap2\n      0x0100\n      exp\n      dup2\n      sload\n      dup2\n      0xffffffffffffffffffffffffffffffffffffffff\n      mul\n      not\n      and\n      swap1\n      dup4\n      0xffffffffffffffffffffffffffffffffffffffff\n      and\n      mul\n      or\n      swap1\n      sstore\n      pop\n        /* \"contracts/DataTokenization.sol\":2746:2753  dataset */\n      dup1\n        /* \"contracts/DataTokenization.sol\":2746:2759  dataset.owner */\n      0x03\n      add\n      0x00\n      swap1\n      sload\n      swap1\n      0x0100\n      exp\n      swap1\n      div\n      0xffffffffffffffffffffffffffffffffffffffff\n      and\n        /* \"contracts/DataTokenization.sol\":2738:2769  payable(dataset.owner).transfer */\n      0xffffffffffffffffffffffffffffffffffffffff\n      and\n        /* \"contracts/DataTokenization.sol\":2738:2780  payable(dataset.owner).transfer(pricePaid) */\n      0x08fc\n        /* \"contracts/DataTokenization.sol\":2770:2779  pricePaid */\n      dup4\n        /* \"contracts/DataTokenization.sol\":2738:2780  payable(dataset.owner).transfer(pricePaid) */\n      swap1\n      dup2\n      iszero\n      mul\n      swap1\n      mload(0x40)\n      0x00\n      mload(0x40)\n      dup1\n      dup4\n      sub\n      dup2\n      dup6\n      dup9\n      dup9\n      call\n      swap4\n      pop\n      pop\n      pop\n      pop\n      iszero\n      dup1\n      iszero\n      tag_89\n      jumpi\n      returndatasize\n      0x00\n      dup1\n      returndatacopy\n      revert(0x00, returndatasize)\n    tag_89:\n      pop\n        /* \"contracts/DataTokenization.sol\":2869:2879  msg.sender */\n      caller\n        /* \"contracts/DataTokenization.sol\":2844:2897  TokenPurchase(datasetId, msg.sender, block.timestamp) */\n      0xffffffffffffffffffffffffffffffffffffffff\n      and\n        /* \"contracts/DataTokenization.sol\":2858:2867  datasetId */\n      dup4\n        /* \"contracts/DataTokenization.sol\":2844:2897  TokenPurchase(datasetId, msg.sender, block.timestamp) */\n      0x709b48219c4b1cf38d85d4e8cf9befdeb3e2dc3f108255265283d92ca06001ed\n        /* \"contracts/DataTokenization.sol\":2881:2896  block.timestamp */\n      timestamp\n        /* \"contracts/DataTokenization.sol\":2844:2897  TokenPurchase(datasetId, msg.sender, block.timestamp) */\n      mload(0x40)\n      tag_90\n      swap2\n      swap1\n      tag_29\n      jump\t// in\n    tag_90:\n      mload(0x40)\n      dup1\n      swap2\n      sub\n      swap1\n      log3\n        /* \"contracts/DataTokenization.sol\":2938:2947  datasetId */\n      dup3\n        /* \"contracts/DataTokenization.sol\":2926:2936  msg.sender */\n      caller\n        /* \"contracts/DataTokenization.sol\":2913:2959  AccessBought(msg.sender, datasetId, pricePaid) */\n      0xffffffffffffffffffffffffffffffffffffffff\n      and\n      0x2f53958023d8cc3aaedbbfa2938e126fe86aa44bc22b509fc80c38c7c0d37377\n        /* \"contracts/DataTokenization.sol\":2949:2958  pricePaid */\n      dup5\n        /* \"contracts/DataTokenization.sol\":2913:2959  AccessBought(msg.sender, datasetId, pricePaid) */\n      mload(0x40)\n      tag_91\n      swap2\n      swap1\n      tag_29\n      jump\t// in\n    tag_91:\n      mload(0x40)\n      dup1\n      swap2\n      sub\n      swap1\n      log3\n        /* \"contracts/DataTokenization.sol\":1776:2967  {... */\n      pop\n        /* \"contracts/DataTokenization.sol\":1704:2967  function buyAccess(uint256 datasetId, uint256 pricePaid) public payable {... */\n      pop\n      pop\n      jump\t// out\n        /* \"contracts/DataTokenization.sol\":3145:3370  function hasAccess(uint256 _datasetId) public view returns (bool) {... */\n    tag_37:\n        /* \"contracts/DataTokenization.sol\":3205:3209  bool */\n      0x00\n        /* \"contracts/DataTokenization.sol\":3222:3245  Dataset storage dataset */\n      dup1\n        /* \"contracts/DataTokenization.sol\":3248:3256  datasets */\n      0x00\n        /* \"contracts/DataTokenization.sol\":3248:3268  datasets[_datasetId] */\n      dup1\n        /* \"contracts/DataTokenization.sol\":3257:3267  _datasetId */\n      dup5\n        /* \"contracts/DataTokenization.sol\":3248:3268  datasets[_datasetId] */\n      dup2\n      mstore\n      0x20\n      add\n      swap1\n      dup2\n      mstore\n      0x20\n      add\n      0x00\n      keccak256\n        /* \"contracts/DataTokenization.sol\":3222:3268  Dataset storage dataset = datasets[_datasetId] */\n      swap1\n      pop\n        /* \"contracts/DataTokenization.sol\":3286:3293  dataset */\n      dup1\n        /* \"contracts/DataTokenization.sol\":3286:3309  dataset.authorizedUsers */\n      0x07\n      add\n        /* \"contracts/DataTokenization.sol\":3286:3321  dataset.authorizedUsers[msg.sender] */\n      0x00\n        /* \"contracts/DataTokenization.sol\":3310:3320  msg.sender */\n      caller\n        /* \"contracts/DataTokenization.sol\":3286:3321  dataset.authorizedUsers[msg.sender] */\n      0xffffffffffffffffffffffffffffffffffffffff\n      and\n      0xffffffffffffffffffffffffffffffffffffffff\n      and\n      dup2\n      mstore\n      0x20\n      add\n      swap1\n      dup2\n      mstore\n      0x20\n      add\n      0x00\n      keccak256\n      0x00\n      swap1\n      sload\n      swap1\n      0x0100\n      exp\n      swap1\n      div\n      0xff\n      and\n        /* \"contracts/DataTokenization.sol\":3286:3362  dataset.authorizedUsers[msg.sender] && block.timestamp <= dataset.expiryTime */\n      dup1\n      iszero\n      tag_93\n      jumpi\n      pop\n        /* \"contracts/DataTokenization.sol\":3344:3351  dataset */\n      dup1\n        /* \"contracts/DataTokenization.sol\":3344:3362  dataset.expiryTime */\n      0x05\n      add\n      sload\n        /* \"contracts/DataTokenization.sol\":3325:3340  block.timestamp */\n      timestamp\n        /* \"contracts/DataTokenization.sol\":3325:3362  block.timestamp <= dataset.expiryTime */\n      gt\n      iszero\n        /* \"contracts/DataTokenization.sol\":3286:3362  dataset.authorizedUsers[msg.sender] && block.timestamp <= dataset.expiryTime */\n    tag_93:\n        /* \"contracts/DataTokenization.sol\":3279:3362  return dataset.authorizedUsers[msg.sender] && block.timestamp <= dataset.expiryTime */\n      swap2\n      pop\n      pop\n        /* \"contracts/DataTokenization.sol\":3145:3370  function hasAccess(uint256 _datasetId) public view returns (bool) {... */\n      swap2\n      swap1\n      pop\n      jump\t// out\n        /* \"contracts/DataTokenization.sol\":444:471  uint256 public datasetCount */\n    tag_42:\n      sload(0x01)\n      dup2\n      jump\t// out\n        /* \"contracts/DataTokenization.sol\":3731:3814  function owner() public view returns (address) {... */\n    tag_46:\n        /* \"contracts/DataTokenization.sol\":3769:3776  address */\n      0x00\n        /* \"contracts/DataTokenization.sol\":3796:3806  msg.sender */\n      caller\n        /* \"contracts/DataTokenization.sol\":3789:3806  return msg.sender */\n      swap1\n      pop\n        /* \"contracts/DataTokenization.sol\":3731:3814  function owner() public view returns (address) {... */\n      swap1\n      jump\t// out\n        /* \"contracts/DataTokenization.sol\":1000:1604  function registerDataset(... */\n    tag_53:\n        /* \"contracts/DataTokenization.sol\":1208:1220  datasetCount */\n      0x01\n      0x00\n        /* \"contracts/DataTokenization.sol\":1208:1222  datasetCount++ */\n      dup2\n      sload\n      dup1\n      swap3\n      swap2\n      swap1\n      tag_96\n      swap1\n      tag_97\n      jump\t// in\n    tag_96:\n      swap2\n      swap1\n      pop\n      sstore\n      pop\n        /* \"contracts/DataTokenization.sol\":1233:1259  Dataset storage newDataset */\n      0x00\n        /* \"contracts/DataTokenization.sol\":1262:1270  datasets */\n      dup1\n        /* \"contracts/DataTokenization.sol\":1262:1284  datasets[datasetCount] */\n      0x00\n        /* \"contracts/DataTokenization.sol\":1271:1283  datasetCount */\n      sload(0x01)\n        /* \"contracts/DataTokenization.sol\":1262:1284  datasets[datasetCount] */\n      dup2\n      mstore\n      0x20\n      add\n      swap1\n      dup2\n      mstore\n      0x20\n      add\n      0x00\n      keccak256\n        /* \"contracts/DataTokenization.sol\":1233:1284  Dataset storage newDataset = datasets[datasetCount] */\n      swap1\n      pop\n        /* \"contracts/DataTokenization.sol\":1313:1318  _name */\n      dup6\n        /* \"contracts/DataTokenization.sol\":1295:1305  newDataset */\n      dup2\n        /* \"contracts/DataTokenization.sol\":1295:1310  newDataset.name */\n      0x00\n      add\n        /* \"contracts/DataTokenization.sol\":1295:1318  newDataset.name = _name */\n      swap1\n      dup2\n      tag_98\n      swap2\n      swap1\n      tag_99\n      jump\t// in\n    tag_98:\n      pop\n        /* \"contracts/DataTokenization.sol\":1354:1366  _description */\n      dup5\n        /* \"contracts/DataTokenization.sol\":1329:1339  newDataset */\n      dup2\n        /* \"contracts/DataTokenization.sol\":1329:1351  newDataset.description */\n      0x01\n      add\n        /* \"contracts/DataTokenization.sol\":1329:1366  newDataset.description = _description */\n      swap1\n      dup2\n      tag_100\n      swap2\n      swap1\n      tag_99\n      jump\t// in\n    tag_100:\n      pop\n        /* \"contracts/DataTokenization.sol\":1396:1402  _price */\n      dup4\n        /* \"contracts/DataTokenization.sol\":1377:1387  newDataset */\n      dup2\n        /* \"contracts/DataTokenization.sol\":1377:1393  newDataset.price */\n      0x02\n      add\n        /* \"contracts/DataTokenization.sol\":1377:1402  newDataset.price = _price */\n      dup2\n      swap1\n      sstore\n      pop\n        /* \"contracts/DataTokenization.sol\":1432:1442  msg.sender */\n      caller\n        /* \"contracts/DataTokenization.sol\":1413:1423  newDataset */\n      dup2\n        /* \"contracts/DataTokenization.sol\":1413:1429  newDataset.owner */\n      0x03\n      add\n      0x00\n        /* \"contracts/DataTokenization.sol\":1413:1442  newDataset.owner = msg.sender */\n      0x0100\n      exp\n      dup2\n      sload\n      dup2\n      0xffffffffffffffffffffffffffffffffffffffff\n      mul\n      not\n      and\n      swap1\n      dup4\n      0xffffffffffffffffffffffffffffffffffffffff\n      and\n      mul\n      or\n      swap1\n      sstore\n      pop\n        /* \"contracts/DataTokenization.sol\":1480:1494  _encryptedHash */\n      dup3\n        /* \"contracts/DataTokenization.sol\":1453:1463  newDataset */\n      dup2\n        /* \"contracts/DataTokenization.sol\":1453:1477  newDataset.encryptedHash */\n      0x04\n      add\n        /* \"contracts/DataTokenization.sol\":1453:1494  newDataset.encryptedHash = _encryptedHash */\n      dup2\n      swap1\n      sstore\n      pop\n        /* \"contracts/DataTokenization.sol\":1547:1558  _expiryTime */\n      dup2\n        /* \"contracts/DataTokenization.sol\":1529:1544  block.timestamp */\n      timestamp\n        /* \"contracts/DataTokenization.sol\":1529:1558  block.timestamp + _expiryTime */\n      tag_101\n      swap2\n      swap1\n      tag_71\n      jump\t// in\n    tag_101:\n        /* \"contracts/DataTokenization.sol\":1505:1515  newDataset */\n      dup2\n        /* \"contracts/DataTokenization.sol\":1505:1526  newDataset.expiryTime */\n      0x05\n      add\n        /* \"contracts/DataTokenization.sol\":1505:1558  newDataset.expiryTime = block.timestamp + _expiryTime */\n      dup2\n      swap1\n      sstore\n      pop\n        /* \"contracts/DataTokenization.sol\":1592:1596  true */\n      0x01\n        /* \"contracts/DataTokenization.sol\":1569:1579  newDataset */\n      dup2\n        /* \"contracts/DataTokenization.sol\":1569:1589  newDataset.isForSale */\n      0x06\n      add\n      0x00\n        /* \"contracts/DataTokenization.sol\":1569:1596  newDataset.isForSale = true */\n      0x0100\n      exp\n      dup2\n      sload\n      dup2\n      0xff\n      mul\n      not\n      and\n      swap1\n      dup4\n      iszero\n      iszero\n      mul\n      or\n      swap1\n      sstore\n      pop\n        /* \"contracts/DataTokenization.sol\":1197:1604  {... */\n      pop\n        /* \"contracts/DataTokenization.sol\":1000:1604  function registerDataset(... */\n      pop\n      pop\n      pop\n      pop\n      pop\n      jump\t// out\n        /* \"#utility.yul\":7:82   */\n    tag_102:\n        /* \"#utility.yul\":40:46   */\n      0x00\n        /* \"#utility.yul\":73:75   */\n      0x40\n        /* \"#utility.yul\":67:76   */\n      mload\n        /* \"#utility.yul\":57:76   */\n      swap1\n      pop\n        /* \"#utility.yul\":7:82   */\n      swap1\n      jump\t// out\n        /* \"#utility.yul\":88:205   */\n    tag_103:\n        /* \"#utility.yul\":197:198   */\n      0x00\n        /* \"#utility.yul\":194:195   */\n      dup1\n        /* \"#utility.yul\":187:199   */\n      revert\n        /* \"#utility.yul\":211:328   */\n    tag_104:\n        /* \"#utility.yul\":320:321   */\n      0x00\n        /* \"#utility.yul\":317:318   */\n      dup1\n        /* \"#utility.yul\":310:322   */\n      revert\n        /* \"#utility.yul\":334:411   */\n    tag_105:\n        /* \"#utility.yul\":371:378   */\n      0x00\n        /* \"#utility.yul\":400:405   */\n      dup2\n        /* \"#utility.yul\":389:405   */\n      swap1\n      pop\n        /* \"#utility.yul\":334:411   */\n      swap2\n      swap1\n      pop\n      jump\t// out\n        /* \"#utility.yul\":417:539   */\n    tag_106:\n        /* \"#utility.yul\":490:514   */\n      tag_165\n        /* \"#utility.yul\":508:513   */\n      dup2\n        /* \"#utility.yul\":490:514   */\n      tag_105\n      jump\t// in\n    tag_165:\n        /* \"#utility.yul\":483:488   */\n      dup2\n        /* \"#utility.yul\":480:515   */\n      eq\n        /* \"#utility.yul\":470:533   */\n      tag_166\n      jumpi\n        /* \"#utility.yul\":529:530   */\n      0x00\n        /* \"#utility.yul\":526:527   */\n      dup1\n        /* \"#utility.yul\":519:531   */\n      revert\n        /* \"#utility.yul\":470:533   */\n    tag_166:\n        /* \"#utility.yul\":417:539   */\n      pop\n      jump\t// out\n        /* \"#utility.yul\":545:684   */\n    tag_107:\n        /* \"#utility.yul\":591:596   */\n      0x00\n        /* \"#utility.yul\":629:635   */\n      dup2\n        /* \"#utility.yul\":616:636   */\n      calldataload\n        /* \"#utility.yul\":607:636   */\n      swap1\n      pop\n        /* \"#utility.yul\":645:678   */\n      tag_168\n        /* \"#utility.yul\":672:677   */\n      dup2\n        /* \"#utility.yul\":645:678   */\n      tag_106\n      jump\t// in\n    tag_168:\n        /* \"#utility.yul\":545:684   */\n      swap3\n      swap2\n      pop\n      pop\n      jump\t// out\n        /* \"#utility.yul\":690:1019   */\n    tag_14:\n        /* \"#utility.yul\":749:755   */\n      0x00\n        /* \"#utility.yul\":798:800   */\n      0x20\n        /* \"#utility.yul\":786:795   */\n      dup3\n        /* \"#utility.yul\":777:784   */\n      dup5\n        /* \"#utility.yul\":773:796   */\n      sub\n        /* \"#utility.yul\":769:801   */\n      slt\n        /* \"#utility.yul\":766:885   */\n      iszero\n      tag_170\n      jumpi\n        /* \"#utility.yul\":804:883   */\n      tag_171\n      tag_103\n      jump\t// in\n    tag_171:\n        /* \"#utility.yul\":766:885   */\n    tag_170:\n        /* \"#utility.yul\":924:925   */\n      0x00\n        /* \"#utility.yul\":949:1002   */\n      tag_172\n        /* \"#utility.yul\":994:1001   */\n      dup5\n        /* \"#utility.yul\":985:991   */\n      dup3\n        /* \"#utility.yul\":974:983   */\n      dup6\n        /* \"#utility.yul\":970:992   */\n      add\n        /* \"#utility.yul\":949:1002   */\n      tag_107\n      jump\t// in\n    tag_172:\n        /* \"#utility.yul\":939:1002   */\n      swap2\n      pop\n        /* \"#utility.yul\":895:1012   */\n      pop\n        /* \"#utility.yul\":690:1019   */\n      swap3\n      swap2\n      pop\n      pop\n      jump\t// out\n        /* \"#utility.yul\":1025:1124   */\n    tag_108:\n        /* \"#utility.yul\":1077:1083   */\n      0x00\n        /* \"#utility.yul\":1111:1116   */\n      dup2\n        /* \"#utility.yul\":1105:1117   */\n      mload\n        /* \"#utility.yul\":1095:1117   */\n      swap1\n      pop\n        /* \"#utility.yul\":1025:1124   */\n      swap2\n      swap1\n      pop\n      jump\t// out\n        /* \"#utility.yul\":1130:1299   */\n    tag_109:\n        /* \"#utility.yul\":1214:1225   */\n      0x00\n        /* \"#utility.yul\":1248:1254   */\n      dup3\n        /* \"#utility.yul\":1243:1246   */\n      dup3\n        /* \"#utility.yul\":1236:1255   */\n      mstore\n        /* \"#utility.yul\":1288:1292   */\n      0x20\n        /* \"#utility.yul\":1283:1286   */\n      dup3\n        /* \"#utility.yul\":1279:1293   */\n      add\n        /* \"#utility.yul\":1264:1293   */\n      swap1\n      pop\n        /* \"#utility.yul\":1130:1299   */\n      swap3\n      swap2\n      pop\n      pop\n      jump\t// out\n        /* \"#utility.yul\":1305:1444   */\n    tag_110:\n        /* \"#utility.yul\":1394:1400   */\n      dup3\n        /* \"#utility.yul\":1389:1392   */\n      dup2\n        /* \"#utility.yul\":1384:1387   */\n      dup4\n        /* \"#utility.yul\":1378:1401   */\n      mcopy\n        /* \"#utility.yul\":1435:1436   */\n      0x00\n        /* \"#utility.yul\":1426:1432   */\n      dup4\n        /* \"#utility.yul\":1421:1424   */\n      dup4\n        /* \"#utility.yul\":1417:1433   */\n      add\n        /* \"#utility.yul\":1410:1437   */\n      mstore\n        /* \"#utility.yul\":1305:1444   */\n      pop\n      pop\n      pop\n      jump\t// out\n        /* \"#utility.yul\":1450:1552   */\n    tag_111:\n        /* \"#utility.yul\":1491:1497   */\n      0x00\n        /* \"#utility.yul\":1542:1544   */\n      0x1f\n        /* \"#utility.yul\":1538:1545   */\n      not\n        /* \"#utility.yul\":1533:1535   */\n      0x1f\n        /* \"#utility.yul\":1526:1531   */\n      dup4\n        /* \"#utility.yul\":1522:1536   */\n      add\n        /* \"#utility.yul\":1518:1546   */\n      and\n        /* \"#utility.yul\":1508:1546   */\n      swap1\n      pop\n        /* \"#utility.yul\":1450:1552   */\n      swap2\n      swap1\n      pop\n      jump\t// out\n        /* \"#utility.yul\":1558:1935   */\n    tag_112:\n        /* \"#utility.yul\":1646:1649   */\n      0x00\n        /* \"#utility.yul\":1674:1713   */\n      tag_178\n        /* \"#utility.yul\":1707:1712   */\n      dup3\n        /* \"#utility.yul\":1674:1713   */\n      tag_108\n      jump\t// in\n    tag_178:\n        /* \"#utility.yul\":1729:1800   */\n      tag_179\n        /* \"#utility.yul\":1793:1799   */\n      dup2\n        /* \"#utility.yul\":1788:1791   */\n      dup6\n        /* \"#utility.yul\":1729:1800   */\n      tag_109\n      jump\t// in\n    tag_179:\n        /* \"#utility.yul\":1722:1800   */\n      swap4\n      pop\n        /* \"#utility.yul\":1809:1874   */\n      tag_180\n        /* \"#utility.yul\":1867:1873   */\n      dup2\n        /* \"#utility.yul\":1862:1865   */\n      dup6\n        /* \"#utility.yul\":1855:1859   */\n      0x20\n        /* \"#utility.yul\":1848:1853   */\n      dup7\n        /* \"#utility.yul\":1844:1860   */\n      add\n        /* \"#utility.yul\":1809:1874   */\n      tag_110\n      jump\t// in\n    tag_180:\n        /* \"#utility.yul\":1899:1928   */\n      tag_181\n        /* \"#utility.yul\":1921:1927   */\n      dup2\n        /* \"#utility.yul\":1899:1928   */\n      tag_111\n      jump\t// in\n    tag_181:\n        /* \"#utility.yul\":1894:1897   */\n      dup5\n        /* \"#utility.yul\":1890:1929   */\n      add\n        /* \"#utility.yul\":1883:1929   */\n      swap2\n      pop\n        /* \"#utility.yul\":1650:1935   */\n      pop\n        /* \"#utility.yul\":1558:1935   */\n      swap3\n      swap2\n      pop\n      pop\n      jump\t// out\n        /* \"#utility.yul\":1941:2059   */\n    tag_113:\n        /* \"#utility.yul\":2028:2052   */\n      tag_183\n        /* \"#utility.yul\":2046:2051   */\n      dup2\n        /* \"#utility.yul\":2028:2052   */\n      tag_105\n      jump\t// in\n    tag_183:\n        /* \"#utility.yul\":2023:2026   */\n      dup3\n        /* \"#utility.yul\":2016:2053   */\n      mstore\n        /* \"#utility.yul\":1941:2059   */\n      pop\n      pop\n      jump\t// out\n        /* \"#utility.yul\":2065:2191   */\n    tag_114:\n        /* \"#utility.yul\":2102:2109   */\n      0x00\n        /* \"#utility.yul\":2142:2184   */\n      0xffffffffffffffffffffffffffffffffffffffff\n        /* \"#utility.yul\":2135:2140   */\n      dup3\n        /* \"#utility.yul\":2131:2185   */\n      and\n        /* \"#utility.yul\":2120:2185   */\n      swap1\n      pop\n        /* \"#utility.yul\":2065:2191   */\n      swap2\n      swap1\n      pop\n      jump\t// out\n        /* \"#utility.yul\":2197:2293   */\n    tag_115:\n        /* \"#utility.yul\":2234:2241   */\n      0x00\n        /* \"#utility.yul\":2263:2287   */\n      tag_186\n        /* \"#utility.yul\":2281:2286   */\n      dup3\n        /* \"#utility.yul\":2263:2287   */\n      tag_114\n      jump\t// in\n    tag_186:\n        /* \"#utility.yul\":2252:2287   */\n      swap1\n      pop\n        /* \"#utility.yul\":2197:2293   */\n      swap2\n      swap1\n      pop\n      jump\t// out\n        /* \"#utility.yul\":2299:2417   */\n    tag_116:\n        /* \"#utility.yul\":2386:2410   */\n      tag_188\n        /* \"#utility.yul\":2404:2409   */\n      dup2\n        /* \"#utility.yul\":2386:2410   */\n      tag_115\n      jump\t// in\n    tag_188:\n        /* \"#utility.yul\":2381:2384   */\n      dup3\n        /* \"#utility.yul\":2374:2411   */\n      mstore\n        /* \"#utility.yul\":2299:2417   */\n      pop\n      pop\n      jump\t// out\n        /* \"#utility.yul\":2423:2500   */\n    tag_117:\n        /* \"#utility.yul\":2460:2467   */\n      0x00\n        /* \"#utility.yul\":2489:2494   */\n      dup2\n        /* \"#utility.yul\":2478:2494   */\n      swap1\n      pop\n        /* \"#utility.yul\":2423:2500   */\n      swap2\n      swap1\n      pop\n      jump\t// out\n        /* \"#utility.yul\":2506:2624   */\n    tag_118:\n        /* \"#utility.yul\":2593:2617   */\n      tag_191\n        /* \"#utility.yul\":2611:2616   */\n      dup2\n        /* \"#utility.yul\":2593:2617   */\n      tag_117\n      jump\t// in\n    tag_191:\n        /* \"#utility.yul\":2588:2591   */\n      dup3\n        /* \"#utility.yul\":2581:2618   */\n      mstore\n        /* \"#utility.yul\":2506:2624   */\n      pop\n      pop\n      jump\t// out\n        /* \"#utility.yul\":2630:2720   */\n    tag_119:\n        /* \"#utility.yul\":2664:2671   */\n      0x00\n        /* \"#utility.yul\":2707:2712   */\n      dup2\n        /* \"#utility.yul\":2700:2713   */\n      iszero\n        /* \"#utility.yul\":2693:2714   */\n      iszero\n        /* \"#utility.yul\":2682:2714   */\n      swap1\n      pop\n        /* \"#utility.yul\":2630:2720   */\n      swap2\n      swap1\n      pop\n      jump\t// out\n        /* \"#utility.yul\":2726:2835   */\n    tag_120:\n        /* \"#utility.yul\":2807:2828   */\n      tag_194\n        /* \"#utility.yul\":2822:2827   */\n      dup2\n        /* \"#utility.yul\":2807:2828   */\n      tag_119\n      jump\t// in\n    tag_194:\n        /* \"#utility.yul\":2802:2805   */\n      dup3\n        /* \"#utility.yul\":2795:2829   */\n      mstore\n        /* \"#utility.yul\":2726:2835   */\n      pop\n      pop\n      jump\t// out\n        /* \"#utility.yul\":2841:3897   */\n    tag_17:\n        /* \"#utility.yul\":3136:3140   */\n      0x00\n        /* \"#utility.yul\":3174:3177   */\n      0xe0\n        /* \"#utility.yul\":3163:3172   */\n      dup3\n        /* \"#utility.yul\":3159:3178   */\n      add\n        /* \"#utility.yul\":3151:3178   */\n      swap1\n      pop\n        /* \"#utility.yul\":3224:3233   */\n      dup2\n        /* \"#utility.yul\":3218:3222   */\n      dup2\n        /* \"#utility.yul\":3214:3234   */\n      sub\n        /* \"#utility.yul\":3210:3211   */\n      0x00\n        /* \"#utility.yul\":3199:3208   */\n      dup4\n        /* \"#utility.yul\":3195:3212   */\n      add\n        /* \"#utility.yul\":3188:3235   */\n      mstore\n        /* \"#utility.yul\":3252:3330   */\n      tag_196\n        /* \"#utility.yul\":3325:3329   */\n      dup2\n        /* \"#utility.yul\":3316:3322   */\n      dup11\n        /* \"#utility.yul\":3252:3330   */\n      tag_112\n      jump\t// in\n    tag_196:\n        /* \"#utility.yul\":3244:3330   */\n      swap1\n      pop\n        /* \"#utility.yul\":3377:3386   */\n      dup2\n        /* \"#utility.yul\":3371:3375   */\n      dup2\n        /* \"#utility.yul\":3367:3387   */\n      sub\n        /* \"#utility.yul\":3362:3364   */\n      0x20\n        /* \"#utility.yul\":3351:3360   */\n      dup4\n        /* \"#utility.yul\":3347:3365   */\n      add\n        /* \"#utility.yul\":3340:3388   */\n      mstore\n        /* \"#utility.yul\":3405:3483   */\n      tag_197\n        /* \"#utility.yul\":3478:3482   */\n      dup2\n        /* \"#utility.yul\":3469:3475   */\n      dup10\n        /* \"#utility.yul\":3405:3483   */\n      tag_112\n      jump\t// in\n    tag_197:\n        /* \"#utility.yul\":3397:3483   */\n      swap1\n      pop\n        /* \"#utility.yul\":3493:3565   */\n      tag_198\n        /* \"#utility.yul\":3561:3563   */\n      0x40\n        /* \"#utility.yul\":3550:3559   */\n      dup4\n        /* \"#utility.yul\":3546:3564   */\n      add\n        /* \"#utility.yul\":3537:3543   */\n      dup9\n        /* \"#utility.yul\":3493:3565   */\n      tag_113\n      jump\t// in\n    tag_198:\n        /* \"#utility.yul\":3575:3647   */\n      tag_199\n        /* \"#utility.yul\":3643:3645   */\n      0x60\n        /* \"#utility.yul\":3632:3641   */\n      dup4\n        /* \"#utility.yul\":3628:3646   */\n      add\n        /* \"#utility.yul\":3619:3625   */\n      dup8\n        /* \"#utility.yul\":3575:3647   */\n      tag_116\n      jump\t// in\n    tag_199:\n        /* \"#utility.yul\":3657:3730   */\n      tag_200\n        /* \"#utility.yul\":3725:3728   */\n      0x80\n        /* \"#utility.yul\":3714:3723   */\n      dup4\n        /* \"#utility.yul\":3710:3729   */\n      add\n        /* \"#utility.yul\":3701:3707   */\n      dup7\n        /* \"#utility.yul\":3657:3730   */\n      tag_118\n      jump\t// in\n    tag_200:\n        /* \"#utility.yul\":3740:3813   */\n      tag_201\n        /* \"#utility.yul\":3808:3811   */\n      0xa0\n        /* \"#utility.yul\":3797:3806   */\n      dup4\n        /* \"#utility.yul\":3793:3812   */\n      add\n        /* \"#utility.yul\":3784:3790   */\n      dup6\n        /* \"#utility.yul\":3740:3813   */\n      tag_113\n      jump\t// in\n    tag_201:\n        /* \"#utility.yul\":3823:3890   */\n      tag_202\n        /* \"#utility.yul\":3885:3888   */\n      0xc0\n        /* \"#utility.yul\":3874:3883   */\n      dup4\n        /* \"#utility.yul\":3870:3889   */\n      add\n        /* \"#utility.yul\":3861:3867   */\n      dup5\n        /* \"#utility.yul\":3823:3890   */\n      tag_120\n      jump\t// in\n    tag_202:\n        /* \"#utility.yul\":2841:3897   */\n      swap9\n      swap8\n      pop\n      pop\n      pop\n      pop\n      pop\n      pop\n      pop\n      pop\n      jump\t// out\n        /* \"#utility.yul\":3903:4025   */\n    tag_121:\n        /* \"#utility.yul\":3976:4000   */\n      tag_204\n        /* \"#utility.yul\":3994:3999   */\n      dup2\n        /* \"#utility.yul\":3976:4000   */\n      tag_115\n      jump\t// in\n    tag_204:\n        /* \"#utility.yul\":3969:3974   */\n      dup2\n        /* \"#utility.yul\":3966:4001   */\n      eq\n        /* \"#utility.yul\":3956:4019   */\n      tag_205\n      jumpi\n        /* \"#utility.yul\":4015:4016   */\n      0x00\n        /* \"#utility.yul\":4012:4013   */\n      dup1\n        /* \"#utility.yul\":4005:4017   */\n      revert\n        /* \"#utility.yul\":3956:4019   */\n    tag_205:\n        /* \"#utility.yul\":3903:4025   */\n      pop\n      jump\t// out\n        /* \"#utility.yul\":4031:4170   */\n    tag_122:\n        /* \"#utility.yul\":4077:4082   */\n      0x00\n        /* \"#utility.yul\":4115:4121   */\n      dup2\n        /* \"#utility.yul\":4102:4122   */\n      calldataload\n        /* \"#utility.yul\":4093:4122   */\n      swap1\n      pop\n        /* \"#utility.yul\":4131:4164   */\n      tag_207\n        /* \"#utility.yul\":4158:4163   */\n      dup2\n        /* \"#utility.yul\":4131:4164   */\n      tag_121\n      jump\t// in\n    tag_207:\n        /* \"#utility.yul\":4031:4170   */\n      swap3\n      swap2\n      pop\n      pop\n      jump\t// out\n        /* \"#utility.yul\":4176:4650   */\n    tag_21:\n        /* \"#utility.yul\":4244:4250   */\n      0x00\n        /* \"#utility.yul\":4252:4258   */\n      dup1\n        /* \"#utility.yul\":4301:4303   */\n      0x40\n        /* \"#utility.yul\":4289:4298   */\n      dup4\n        /* \"#utility.yul\":4280:4287   */\n      dup6\n        /* \"#utility.yul\":4276:4299   */\n      sub\n        /* \"#utility.yul\":4272:4304   */\n      slt\n        /* \"#utility.yul\":4269:4388   */\n      iszero\n      tag_209\n      jumpi\n        /* \"#utility.yul\":4307:4386   */\n      tag_210\n      tag_103\n      jump\t// in\n    tag_210:\n        /* \"#utility.yul\":4269:4388   */\n    tag_209:\n        /* \"#utility.yul\":4427:4428   */\n      0x00\n        /* \"#utility.yul\":4452:4505   */\n      tag_211\n        /* \"#utility.yul\":4497:4504   */\n      dup6\n        /* \"#utility.yul\":4488:4494   */\n      dup3\n        /* \"#utility.yul\":4477:4486   */\n      dup7\n        /* \"#utility.yul\":4473:4495   */\n      add\n        /* \"#utility.yul\":4452:4505   */\n      tag_122\n      jump\t// in\n    tag_211:\n        /* \"#utility.yul\":4442:4505   */\n      swap3\n      pop\n        /* \"#utility.yul\":4398:4515   */\n      pop\n        /* \"#utility.yul\":4554:4556   */\n      0x20\n        /* \"#utility.yul\":4580:4633   */\n      tag_212\n        /* \"#utility.yul\":4625:4632   */\n      dup6\n        /* \"#utility.yul\":4616:4622   */\n      dup3\n        /* \"#utility.yul\":4605:4614   */\n      dup7\n        /* \"#utility.yul\":4601:4623   */\n      add\n        /* \"#utility.yul\":4580:4633   */\n      tag_107\n      jump\t// in\n    tag_212:\n        /* \"#utility.yul\":4570:4633   */\n      swap2\n      pop\n        /* \"#utility.yul\":4525:4643   */\n      pop\n        /* \"#utility.yul\":4176:4650   */\n      swap3\n      pop\n      swap3\n      swap1\n      pop\n      jump\t// out\n        /* \"#utility.yul\":4656:4985   */\n    tag_26:\n        /* \"#utility.yul\":4715:4721   */\n      0x00\n        /* \"#utility.yul\":4764:4766   */\n      0x20\n        /* \"#utility.yul\":4752:4761   */\n      dup3\n        /* \"#utility.yul\":4743:4750   */\n      dup5\n        /* \"#utility.yul\":4739:4762   */\n      sub\n        /* \"#utility.yul\":4735:4767   */\n      slt\n        /* \"#utility.yul\":4732:4851   */\n      iszero\n      tag_214\n      jumpi\n        /* \"#utility.yul\":4770:4849   */\n      tag_215\n      tag_103\n      jump\t// in\n    tag_215:\n        /* \"#utility.yul\":4732:4851   */\n    tag_214:\n        /* \"#utility.yul\":4890:4891   */\n      0x00\n        /* \"#utility.yul\":4915:4968   */\n      tag_216\n        /* \"#utility.yul\":4960:4967   */\n      dup5\n        /* \"#utility.yul\":4951:4957   */\n      dup3\n        /* \"#utility.yul\":4940:4949   */\n      dup6\n        /* \"#utility.yul\":4936:4958   */\n      add\n        /* \"#utility.yul\":4915:4968   */\n      tag_122\n      jump\t// in\n    tag_216:\n        /* \"#utility.yul\":4905:4968   */\n      swap2\n      pop\n        /* \"#utility.yul\":4861:4978   */\n      pop\n        /* \"#utility.yul\":4656:4985   */\n      swap3\n      swap2\n      pop\n      pop\n      jump\t// out\n        /* \"#utility.yul\":4991:5213   */\n    tag_29:\n        /* \"#utility.yul\":5084:5088   */\n      0x00\n        /* \"#utility.yul\":5122:5124   */\n      0x20\n        /* \"#utility.yul\":5111:5120   */\n      dup3\n        /* \"#utility.yul\":5107:5125   */\n      add\n        /* \"#utility.yul\":5099:5125   */\n      swap1\n      pop\n        /* \"#utility.yul\":5135:5206   */\n      tag_218\n        /* \"#utility.yul\":5203:5204   */\n      0x00\n        /* \"#utility.yul\":5192:5201   */\n      dup4\n        /* \"#utility.yul\":5188:5205   */\n      add\n        /* \"#utility.yul\":5179:5185   */\n      dup5\n        /* \"#utility.yul\":5135:5206   */\n      tag_113\n      jump\t// in\n    tag_218:\n        /* \"#utility.yul\":4991:5213   */\n      swap3\n      swap2\n      pop\n      pop\n      jump\t// out\n        /* \"#utility.yul\":5219:5693   */\n    tag_32:\n        /* \"#utility.yul\":5287:5293   */\n      0x00\n        /* \"#utility.yul\":5295:5301   */\n      dup1\n        /* \"#utility.yul\":5344:5346   */\n      0x40\n        /* \"#utility.yul\":5332:5341   */\n      dup4\n        /* \"#utility.yul\":5323:5330   */\n      dup6\n        /* \"#utility.yul\":5319:5342   */\n      sub\n        /* \"#utility.yul\":5315:5347   */\n      slt\n        /* \"#utility.yul\":5312:5431   */\n      iszero\n      tag_220\n      jumpi\n        /* \"#utility.yul\":5350:5429   */\n      tag_221\n      tag_103\n      jump\t// in\n    tag_221:\n        /* \"#utility.yul\":5312:5431   */\n    tag_220:\n        /* \"#utility.yul\":5470:5471   */\n      0x00\n        /* \"#utility.yul\":5495:5548   */\n      tag_222\n        /* \"#utility.yul\":5540:5547   */\n      dup6\n        /* \"#utility.yul\":5531:5537   */\n      dup3\n        /* \"#utility.yul\":5520:5529   */\n      dup7\n        /* \"#utility.yul\":5516:5538   */\n      add\n        /* \"#utility.yul\":5495:5548   */\n      tag_107\n      jump\t// in\n    tag_222:\n        /* \"#utility.yul\":5485:5548   */\n      swap3\n      pop\n        /* \"#utility.yul\":5441:5558   */\n      pop\n        /* \"#utility.yul\":5597:5599   */\n      0x20\n        /* \"#utility.yul\":5623:5676   */\n      tag_223\n        /* \"#utility.yul\":5668:5675   */\n      dup6\n        /* \"#utility.yul\":5659:5665   */\n      dup3\n        /* \"#utility.yul\":5648:5657   */\n      dup7\n        /* \"#utility.yul\":5644:5666   */\n      add\n        /* \"#utility.yul\":5623:5676   */\n      tag_107\n      jump\t// in\n    tag_223:\n        /* \"#utility.yul\":5613:5676   */\n      swap2\n      pop\n        /* \"#utility.yul\":5568:5686   */\n      pop\n        /* \"#utility.yul\":5219:5693   */\n      swap3\n      pop\n      swap3\n      swap1\n      pop\n      jump\t// out\n        /* \"#utility.yul\":5699:5909   */\n    tag_39:\n        /* \"#utility.yul\":5786:5790   */\n      0x00\n        /* \"#utility.yul\":5824:5826   */\n      0x20\n        /* \"#utility.yul\":5813:5822   */\n      dup3\n        /* \"#utility.yul\":5809:5827   */\n      add\n        /* \"#utility.yul\":5801:5827   */\n      swap1\n      pop\n        /* \"#utility.yul\":5837:5902   */\n      tag_225\n        /* \"#utility.yul\":5899:5900   */\n      0x00\n        /* \"#utility.yul\":5888:5897   */\n      dup4\n        /* \"#utility.yul\":5884:5901   */\n      add\n        /* \"#utility.yul\":5875:5881   */\n      dup5\n        /* \"#utility.yul\":5837:5902   */\n      tag_120\n      jump\t// in\n    tag_225:\n        /* \"#utility.yul\":5699:5909   */\n      swap3\n      swap2\n      pop\n      pop\n      jump\t// out\n        /* \"#utility.yul\":5915:6137   */\n    tag_48:\n        /* \"#utility.yul\":6008:6012   */\n      0x00\n        /* \"#utility.yul\":6046:6048   */\n      0x20\n        /* \"#utility.yul\":6035:6044   */\n      dup3\n        /* \"#utility.yul\":6031:6049   */\n      add\n        /* \"#utility.yul\":6023:6049   */\n      swap1\n      pop\n        /* \"#utility.yul\":6059:6130   */\n      tag_227\n        /* \"#utility.yul\":6127:6128   */\n      0x00\n        /* \"#utility.yul\":6116:6125   */\n      dup4\n        /* \"#utility.yul\":6112:6129   */\n      add\n        /* \"#utility.yul\":6103:6109   */\n      dup5\n        /* \"#utility.yul\":6059:6130   */\n      tag_116\n      jump\t// in\n    tag_227:\n        /* \"#utility.yul\":5915:6137   */\n      swap3\n      swap2\n      pop\n      pop\n      jump\t// out\n        /* \"#utility.yul\":6143:6260   */\n    tag_123:\n        /* \"#utility.yul\":6252:6253   */\n      0x00\n        /* \"#utility.yul\":6249:6250   */\n      dup1\n        /* \"#utility.yul\":6242:6254   */\n      revert\n        /* \"#utility.yul\":6266:6383   */\n    tag_124:\n        /* \"#utility.yul\":6375:6376   */\n      0x00\n        /* \"#utility.yul\":6372:6373   */\n      dup1\n        /* \"#utility.yul\":6365:6377   */\n      revert\n        /* \"#utility.yul\":6389:6569   */\n    tag_125:\n        /* \"#utility.yul\":6437:6514   */\n      0x4e487b7100000000000000000000000000000000000000000000000000000000\n        /* \"#utility.yul\":6434:6435   */\n      0x00\n        /* \"#utility.yul\":6427:6515   */\n      mstore\n        /* \"#utility.yul\":6534:6538   */\n      0x41\n        /* \"#utility.yul\":6531:6532   */\n      0x04\n        /* \"#utility.yul\":6524:6539   */\n      mstore\n        /* \"#utility.yul\":6558:6562   */\n      0x24\n        /* \"#utility.yul\":6555:6556   */\n      0x00\n        /* \"#utility.yul\":6548:6563   */\n      revert\n        /* \"#utility.yul\":6575:6856   */\n    tag_126:\n        /* \"#utility.yul\":6658:6685   */\n      tag_232\n        /* \"#utility.yul\":6680:6684   */\n      dup3\n        /* \"#utility.yul\":6658:6685   */\n      tag_111\n      jump\t// in\n    tag_232:\n        /* \"#utility.yul\":6650:6656   */\n      dup2\n        /* \"#utility.yul\":6646:6686   */\n      add\n        /* \"#utility.yul\":6788:6794   */\n      dup2\n        /* \"#utility.yul\":6776:6786   */\n      dup2\n        /* \"#utility.yul\":6773:6795   */\n      lt\n        /* \"#utility.yul\":6752:6770   */\n      0xffffffffffffffff\n        /* \"#utility.yul\":6740:6750   */\n      dup3\n        /* \"#utility.yul\":6737:6771   */\n      gt\n        /* \"#utility.yul\":6734:6796   */\n      or\n        /* \"#utility.yul\":6731:6819   */\n      iszero\n      tag_233\n      jumpi\n        /* \"#utility.yul\":6799:6817   */\n      tag_234\n      tag_125\n      jump\t// in\n    tag_234:\n        /* \"#utility.yul\":6731:6819   */\n    tag_233:\n        /* \"#utility.yul\":6839:6849   */\n      dup1\n        /* \"#utility.yul\":6835:6837   */\n      0x40\n        /* \"#utility.yul\":6828:6850   */\n      mstore\n        /* \"#utility.yul\":6618:6856   */\n      pop\n        /* \"#utility.yul\":6575:6856   */\n      pop\n      pop\n      jump\t// out\n        /* \"#utility.yul\":6862:6991   */\n    tag_127:\n        /* \"#utility.yul\":6896:6902   */\n      0x00\n        /* \"#utility.yul\":6923:6943   */\n      tag_236\n      tag_102\n      jump\t// in\n    tag_236:\n        /* \"#utility.yul\":6913:6943   */\n      swap1\n      pop\n        /* \"#utility.yul\":6952:6985   */\n      tag_237\n        /* \"#utility.yul\":6980:6984   */\n      dup3\n        /* \"#utility.yul\":6972:6978   */\n      dup3\n        /* \"#utility.yul\":6952:6985   */\n      tag_126\n      jump\t// in\n    tag_237:\n        /* \"#utility.yul\":6862:6991   */\n      swap2\n      swap1\n      pop\n      jump\t// out\n        /* \"#utility.yul\":6997:7305   */\n    tag_128:\n        /* \"#utility.yul\":7059:7063   */\n      0x00\n        /* \"#utility.yul\":7149:7167   */\n      0xffffffffffffffff\n        /* \"#utility.yul\":7141:7147   */\n      dup3\n        /* \"#utility.yul\":7138:7168   */\n      gt\n        /* \"#utility.yul\":7135:7191   */\n      iszero\n      tag_239\n      jumpi\n        /* \"#utility.yul\":7171:7189   */\n      tag_240\n      tag_125\n      jump\t// in\n    tag_240:\n        /* \"#utility.yul\":7135:7191   */\n    tag_239:\n        /* \"#utility.yul\":7209:7238   */\n      tag_241\n        /* \"#utility.yul\":7231:7237   */\n      dup3\n        /* \"#utility.yul\":7209:7238   */\n      tag_111\n      jump\t// in\n    tag_241:\n        /* \"#utility.yul\":7201:7238   */\n      swap1\n      pop\n        /* \"#utility.yul\":7293:7297   */\n      0x20\n        /* \"#utility.yul\":7287:7291   */\n      dup2\n        /* \"#utility.yul\":7283:7298   */\n      add\n        /* \"#utility.yul\":7275:7298   */\n      swap1\n      pop\n        /* \"#utility.yul\":6997:7305   */\n      swap2\n      swap1\n      pop\n      jump\t// out\n        /* \"#utility.yul\":7311:7459   */\n    tag_129:\n        /* \"#utility.yul\":7409:7415   */\n      dup3\n        /* \"#utility.yul\":7404:7407   */\n      dup2\n        /* \"#utility.yul\":7399:7402   */\n      dup4\n        /* \"#utility.yul\":7386:7416   */\n      calldatacopy\n        /* \"#utility.yul\":7450:7451   */\n      0x00\n        /* \"#utility.yul\":7441:7447   */\n      dup4\n        /* \"#utility.yul\":7436:7439   */\n      dup4\n        /* \"#utility.yul\":7432:7448   */\n      add\n        /* \"#utility.yul\":7425:7452   */\n      mstore\n        /* \"#utility.yul\":7311:7459   */\n      pop\n      pop\n      pop\n      jump\t// out\n        /* \"#utility.yul\":7465:7890   */\n    tag_130:\n        /* \"#utility.yul\":7543:7548   */\n      0x00\n        /* \"#utility.yul\":7568:7634   */\n      tag_244\n        /* \"#utility.yul\":7584:7633   */\n      tag_245\n        /* \"#utility.yul\":7626:7632   */\n      dup5\n        /* \"#utility.yul\":7584:7633   */\n      tag_128\n      jump\t// in\n    tag_245:\n        /* \"#utility.yul\":7568:7634   */\n      tag_127\n      jump\t// in\n    tag_244:\n        /* \"#utility.yul\":7559:7634   */\n      swap1\n      pop\n        /* \"#utility.yul\":7657:7663   */\n      dup3\n        /* \"#utility.yul\":7650:7655   */\n      dup2\n        /* \"#utility.yul\":7643:7664   */\n      mstore\n        /* \"#utility.yul\":7695:7699   */\n      0x20\n        /* \"#utility.yul\":7688:7693   */\n      dup2\n        /* \"#utility.yul\":7684:7700   */\n      add\n        /* \"#utility.yul\":7733:7736   */\n      dup5\n        /* \"#utility.yul\":7724:7730   */\n      dup5\n        /* \"#utility.yul\":7719:7722   */\n      dup5\n        /* \"#utility.yul\":7715:7731   */\n      add\n        /* \"#utility.yul\":7712:7737   */\n      gt\n        /* \"#utility.yul\":7709:7821   */\n      iszero\n      tag_246\n      jumpi\n        /* \"#utility.yul\":7740:7819   */\n      tag_247\n      tag_124\n      jump\t// in\n    tag_247:\n        /* \"#utility.yul\":7709:7821   */\n    tag_246:\n        /* \"#utility.yul\":7830:7884   */\n      tag_248\n        /* \"#utility.yul\":7877:7883   */\n      dup5\n        /* \"#utility.yul\":7872:7875   */\n      dup3\n        /* \"#utility.yul\":7867:7870   */\n      dup6\n        /* \"#utility.yul\":7830:7884   */\n      tag_129\n      jump\t// in\n    tag_248:\n        /* \"#utility.yul\":7549:7890   */\n      pop\n        /* \"#utility.yul\":7465:7890   */\n      swap4\n      swap3\n      pop\n      pop\n      pop\n      jump\t// out\n        /* \"#utility.yul\":7910:8250   */\n    tag_131:\n        /* \"#utility.yul\":7966:7971   */\n      0x00\n        /* \"#utility.yul\":8015:8018   */\n      dup3\n        /* \"#utility.yul\":8008:8012   */\n      0x1f\n        /* \"#utility.yul\":8000:8006   */\n      dup4\n        /* \"#utility.yul\":7996:8013   */\n      add\n        /* \"#utility.yul\":7992:8019   */\n      slt\n        /* \"#utility.yul\":7982:8104   */\n      tag_250\n      jumpi\n        /* \"#utility.yul\":8023:8102   */\n      tag_251\n      tag_123\n      jump\t// in\n    tag_251:\n        /* \"#utility.yul\":7982:8104   */\n    tag_250:\n        /* \"#utility.yul\":8140:8146   */\n      dup2\n        /* \"#utility.yul\":8127:8147   */\n      calldataload\n        /* \"#utility.yul\":8165:8244   */\n      tag_252\n        /* \"#utility.yul\":8240:8243   */\n      dup5\n        /* \"#utility.yul\":8232:8238   */\n      dup3\n        /* \"#utility.yul\":8225:8229   */\n      0x20\n        /* \"#utility.yul\":8217:8223   */\n      dup7\n        /* \"#utility.yul\":8213:8230   */\n      add\n        /* \"#utility.yul\":8165:8244   */\n      tag_130\n      jump\t// in\n    tag_252:\n        /* \"#utility.yul\":8156:8244   */\n      swap2\n      pop\n        /* \"#utility.yul\":7972:8250   */\n      pop\n        /* \"#utility.yul\":7910:8250   */\n      swap3\n      swap2\n      pop\n      pop\n      jump\t// out\n        /* \"#utility.yul\":8256:8378   */\n    tag_132:\n        /* \"#utility.yul\":8329:8353   */\n      tag_254\n        /* \"#utility.yul\":8347:8352   */\n      dup2\n        /* \"#utility.yul\":8329:8353   */\n      tag_117\n      jump\t// in\n    tag_254:\n        /* \"#utility.yul\":8322:8327   */\n      dup2\n        /* \"#utility.yul\":8319:8354   */\n      eq\n        /* \"#utility.yul\":8309:8372   */\n      tag_255\n      jumpi\n        /* \"#utility.yul\":8368:8369   */\n      0x00\n        /* \"#utility.yul\":8365:8366   */\n      dup1\n        /* \"#utility.yul\":8358:8370   */\n      revert\n        /* \"#utility.yul\":8309:8372   */\n    tag_255:\n        /* \"#utility.yul\":8256:8378   */\n      pop\n      jump\t// out\n        /* \"#utility.yul\":8384:8523   */\n    tag_133:\n        /* \"#utility.yul\":8430:8435   */\n      0x00\n        /* \"#utility.yul\":8468:8474   */\n      dup2\n        /* \"#utility.yul\":8455:8475   */\n      calldataload\n        /* \"#utility.yul\":8446:8475   */\n      swap1\n      pop\n        /* \"#utility.yul\":8484:8517   */\n      tag_257\n        /* \"#utility.yul\":8511:8516   */\n      dup2\n        /* \"#utility.yul\":8484:8517   */\n      tag_132\n      jump\t// in\n    tag_257:\n        /* \"#utility.yul\":8384:8523   */\n      swap3\n      swap2\n      pop\n      pop\n      jump\t// out\n        /* \"#utility.yul\":8529:9800   */\n    tag_52:\n        /* \"#utility.yul\":8644:8650   */\n      0x00\n        /* \"#utility.yul\":8652:8658   */\n      dup1\n        /* \"#utility.yul\":8660:8666   */\n      0x00\n        /* \"#utility.yul\":8668:8674   */\n      dup1\n        /* \"#utility.yul\":8676:8682   */\n      0x00\n        /* \"#utility.yul\":8725:8728   */\n      0xa0\n        /* \"#utility.yul\":8713:8722   */\n      dup7\n        /* \"#utility.yul\":8704:8711   */\n      dup9\n        /* \"#utility.yul\":8700:8723   */\n      sub\n        /* \"#utility.yul\":8696:8729   */\n      slt\n        /* \"#utility.yul\":8693:8813   */\n      iszero\n      tag_259\n      jumpi\n        /* \"#utility.yul\":8732:8811   */\n      tag_260\n      tag_103\n      jump\t// in\n    tag_260:\n        /* \"#utility.yul\":8693:8813   */\n    tag_259:\n        /* \"#utility.yul\":8880:8881   */\n      0x00\n        /* \"#utility.yul\":8869:8878   */\n      dup7\n        /* \"#utility.yul\":8865:8882   */\n      add\n        /* \"#utility.yul\":8852:8883   */\n      calldataload\n        /* \"#utility.yul\":8910:8928   */\n      0xffffffffffffffff\n        /* \"#utility.yul\":8902:8908   */\n      dup2\n        /* \"#utility.yul\":8899:8929   */\n      gt\n        /* \"#utility.yul\":8896:9013   */\n      iszero\n      tag_261\n      jumpi\n        /* \"#utility.yul\":8932:9011   */\n      tag_262\n      tag_104\n      jump\t// in\n    tag_262:\n        /* \"#utility.yul\":8896:9013   */\n    tag_261:\n        /* \"#utility.yul\":9037:9100   */\n      tag_263\n        /* \"#utility.yul\":9092:9099   */\n      dup9\n        /* \"#utility.yul\":9083:9089   */\n      dup3\n        /* \"#utility.yul\":9072:9081   */\n      dup10\n        /* \"#utility.yul\":9068:9090   */\n      add\n        /* \"#utility.yul\":9037:9100   */\n      tag_131\n      jump\t// in\n    tag_263:\n        /* \"#utility.yul\":9027:9100   */\n      swap6\n      pop\n        /* \"#utility.yul\":8823:9110   */\n      pop\n        /* \"#utility.yul\":9177:9179   */\n      0x20\n        /* \"#utility.yul\":9166:9175   */\n      dup7\n        /* \"#utility.yul\":9162:9180   */\n      add\n        /* \"#utility.yul\":9149:9181   */\n      calldataload\n        /* \"#utility.yul\":9208:9226   */\n      0xffffffffffffffff\n        /* \"#utility.yul\":9200:9206   */\n      dup2\n        /* \"#utility.yul\":9197:9227   */\n      gt\n        /* \"#utility.yul\":9194:9311   */\n      iszero\n      tag_264\n      jumpi\n        /* \"#utility.yul\":9230:9309   */\n      tag_265\n      tag_104\n      jump\t// in\n    tag_265:\n        /* \"#utility.yul\":9194:9311   */\n    tag_264:\n        /* \"#utility.yul\":9335:9398   */\n      tag_266\n        /* \"#utility.yul\":9390:9397   */\n      dup9\n        /* \"#utility.yul\":9381:9387   */\n      dup3\n        /* \"#utility.yul\":9370:9379   */\n      dup10\n        /* \"#utility.yul\":9366:9388   */\n      add\n        /* \"#utility.yul\":9335:9398   */\n      tag_131\n      jump\t// in\n    tag_266:\n        /* \"#utility.yul\":9325:9398   */\n      swap5\n      pop\n        /* \"#utility.yul\":9120:9408   */\n      pop\n        /* \"#utility.yul\":9447:9449   */\n      0x40\n        /* \"#utility.yul\":9473:9526   */\n      tag_267\n        /* \"#utility.yul\":9518:9525   */\n      dup9\n        /* \"#utility.yul\":9509:9515   */\n      dup3\n        /* \"#utility.yul\":9498:9507   */\n      dup10\n        /* \"#utility.yul\":9494:9516   */\n      add\n        /* \"#utility.yul\":9473:9526   */\n      tag_107\n      jump\t// in\n    tag_267:\n        /* \"#utility.yul\":9463:9526   */\n      swap4\n      pop\n        /* \"#utility.yul\":9418:9536   */\n      pop\n        /* \"#utility.yul\":9575:9577   */\n      0x60\n        /* \"#utility.yul\":9601:9654   */\n      tag_268\n        /* \"#utility.yul\":9646:9653   */\n      dup9\n        /* \"#utility.yul\":9637:9643   */\n      dup3\n        /* \"#utility.yul\":9626:9635   */\n      dup10\n        /* \"#utility.yul\":9622:9644   */\n      add\n        /* \"#utility.yul\":9601:9654   */\n      tag_133\n      jump\t// in\n    tag_268:\n        /* \"#utility.yul\":9591:9654   */\n      swap3\n      pop\n        /* \"#utility.yul\":9546:9664   */\n      pop\n        /* \"#utility.yul\":9703:9706   */\n      0x80\n        /* \"#utility.yul\":9730:9783   */\n      tag_269\n        /* \"#utility.yul\":9775:9782   */\n      dup9\n        /* \"#utility.yul\":9766:9772   */\n      dup3\n        /* \"#utility.yul\":9755:9764   */\n      dup10\n        /* \"#utility.yul\":9751:9773   */\n      add\n        /* \"#utility.yul\":9730:9783   */\n      tag_107\n      jump\t// in\n    tag_269:\n        /* \"#utility.yul\":9720:9783   */\n      swap2\n      pop\n        /* \"#utility.yul\":9674:9793   */\n      pop\n        /* \"#utility.yul\":8529:9800   */\n      swap3\n      swap6\n      pop\n      swap3\n      swap6\n      swap1\n      swap4\n      pop\n      jump\t// out\n        /* \"#utility.yul\":9806:9986   */\n    tag_134:\n        /* \"#utility.yul\":9854:9931   */\n      0x4e487b7100000000000000000000000000000000000000000000000000000000\n        /* \"#utility.yul\":9851:9852   */\n      0x00\n        /* \"#utility.yul\":9844:9932   */\n      mstore\n        /* \"#utility.yul\":9951:9955   */\n      0x22\n        /* \"#utility.yul\":9948:9949   */\n      0x04\n        /* \"#utility.yul\":9941:9956   */\n      mstore\n        /* \"#utility.yul\":9975:9979   */\n      0x24\n        /* \"#utility.yul\":9972:9973   */\n      0x00\n        /* \"#utility.yul\":9965:9980   */\n      revert\n        /* \"#utility.yul\":9992:10312   */\n    tag_55:\n        /* \"#utility.yul\":10036:10042   */\n      0x00\n        /* \"#utility.yul\":10073:10074   */\n      0x02\n        /* \"#utility.yul\":10067:10071   */\n      dup3\n        /* \"#utility.yul\":10063:10075   */\n      div\n        /* \"#utility.yul\":10053:10075   */\n      swap1\n      pop\n        /* \"#utility.yul\":10120:10121   */\n      0x01\n        /* \"#utility.yul\":10114:10118   */\n      dup3\n        /* \"#utility.yul\":10110:10122   */\n      and\n        /* \"#utility.yul\":10141:10159   */\n      dup1\n        /* \"#utility.yul\":10131:10212   */\n      tag_272\n      jumpi\n        /* \"#utility.yul\":10197:10201   */\n      0x7f\n        /* \"#utility.yul\":10189:10195   */\n      dup3\n        /* \"#utility.yul\":10185:10202   */\n      and\n        /* \"#utility.yul\":10175:10202   */\n      swap2\n      pop\n        /* \"#utility.yul\":10131:10212   */\n    tag_272:\n        /* \"#utility.yul\":10259:10261   */\n      0x20\n        /* \"#utility.yul\":10251:10257   */\n      dup3\n        /* \"#utility.yul\":10248:10262   */\n      lt\n        /* \"#utility.yul\":10228:10246   */\n      dup2\n        /* \"#utility.yul\":10225:10263   */\n      sub\n        /* \"#utility.yul\":10222:10306   */\n      tag_273\n      jumpi\n        /* \"#utility.yul\":10278:10296   */\n      tag_274\n      tag_134\n      jump\t// in\n    tag_274:\n        /* \"#utility.yul\":10222:10306   */\n    tag_273:\n        /* \"#utility.yul\":10043:10312   */\n      pop\n        /* \"#utility.yul\":9992:10312   */\n      swap2\n      swap1\n      pop\n      jump\t// out\n        /* \"#utility.yul\":10318:10541   */\n    tag_135:\n        /* \"#utility.yul\":10458:10492   */\n      0x536f6d656e7465206f20646f6e6f20706f64652061646963696f6e6172207361\n        /* \"#utility.yul\":10454:10455   */\n      0x00\n        /* \"#utility.yul\":10446:10452   */\n      dup3\n        /* \"#utility.yul\":10442:10456   */\n      add\n        /* \"#utility.yul\":10435:10493   */\n      mstore\n        /* \"#utility.yul\":10527:10533   */\n      0x6c646f2e00000000000000000000000000000000000000000000000000000000\n        /* \"#utility.yul\":10522:10524   */\n      0x20\n        /* \"#utility.yul\":10514:10520   */\n      dup3\n        /* \"#utility.yul\":10510:10525   */\n      add\n        /* \"#utility.yul\":10503:10534   */\n      mstore\n        /* \"#utility.yul\":10318:10541   */\n      pop\n      jump\t// out\n        /* \"#utility.yul\":10547:10913   */\n    tag_136:\n        /* \"#utility.yul\":10689:10692   */\n      0x00\n        /* \"#utility.yul\":10710:10777   */\n      tag_277\n        /* \"#utility.yul\":10774:10776   */\n      0x24\n        /* \"#utility.yul\":10769:10772   */\n      dup4\n        /* \"#utility.yul\":10710:10777   */\n      tag_109\n      jump\t// in\n    tag_277:\n        /* \"#utility.yul\":10703:10777   */\n      swap2\n      pop\n        /* \"#utility.yul\":10786:10879   */\n      tag_278\n        /* \"#utility.yul\":10875:10878   */\n      dup3\n        /* \"#utility.yul\":10786:10879   */\n      tag_135\n      jump\t// in\n    tag_278:\n        /* \"#utility.yul\":10904:10906   */\n      0x40\n        /* \"#utility.yul\":10899:10902   */\n      dup3\n        /* \"#utility.yul\":10895:10907   */\n      add\n        /* \"#utility.yul\":10888:10907   */\n      swap1\n      pop\n        /* \"#utility.yul\":10547:10913   */\n      swap2\n      swap1\n      pop\n      jump\t// out\n        /* \"#utility.yul\":10919:11338   */\n    tag_69:\n        /* \"#utility.yul\":11085:11089   */\n      0x00\n        /* \"#utility.yul\":11123:11125   */\n      0x20\n        /* \"#utility.yul\":11112:11121   */\n      dup3\n        /* \"#utility.yul\":11108:11126   */\n      add\n        /* \"#utility.yul\":11100:11126   */\n      swap1\n      pop\n        /* \"#utility.yul\":11172:11181   */\n      dup2\n        /* \"#utility.yul\":11166:11170   */\n      dup2\n        /* \"#utility.yul\":11162:11182   */\n      sub\n        /* \"#utility.yul\":11158:11159   */\n      0x00\n        /* \"#utility.yul\":11147:11156   */\n      dup4\n        /* \"#utility.yul\":11143:11160   */\n      add\n        /* \"#utility.yul\":11136:11183   */\n      mstore\n        /* \"#utility.yul\":11200:11331   */\n      tag_280\n        /* \"#utility.yul\":11326:11330   */\n      dup2\n        /* \"#utility.yul\":11200:11331   */\n      tag_136\n      jump\t// in\n    tag_280:\n        /* \"#utility.yul\":11192:11331   */\n      swap1\n      pop\n        /* \"#utility.yul\":10919:11338   */\n      swap2\n      swap1\n      pop\n      jump\t// out\n        /* \"#utility.yul\":11344:11524   */\n    tag_137:\n        /* \"#utility.yul\":11392:11469   */\n      0x4e487b7100000000000000000000000000000000000000000000000000000000\n        /* \"#utility.yul\":11389:11390   */\n      0x00\n        /* \"#utility.yul\":11382:11470   */\n      mstore\n        /* \"#utility.yul\":11489:11493   */\n      0x11\n        /* \"#utility.yul\":11486:11487   */\n      0x04\n        /* \"#utility.yul\":11479:11494   */\n      mstore\n        /* \"#utility.yul\":11513:11517   */\n      0x24\n        /* \"#utility.yul\":11510:11511   */\n      0x00\n        /* \"#utility.yul\":11503:11518   */\n      revert\n        /* \"#utility.yul\":11530:11721   */\n    tag_71:\n        /* \"#utility.yul\":11570:11573   */\n      0x00\n        /* \"#utility.yul\":11589:11609   */\n      tag_283\n        /* \"#utility.yul\":11607:11608   */\n      dup3\n        /* \"#utility.yul\":11589:11609   */\n      tag_105\n      jump\t// in\n    tag_283:\n        /* \"#utility.yul\":11584:11609   */\n      swap2\n      pop\n        /* \"#utility.yul\":11623:11643   */\n      tag_284\n        /* \"#utility.yul\":11641:11642   */\n      dup4\n        /* \"#utility.yul\":11623:11643   */\n      tag_105\n      jump\t// in\n    tag_284:\n        /* \"#utility.yul\":11618:11643   */\n      swap3\n      pop\n        /* \"#utility.yul\":11666:11667   */\n      dup3\n        /* \"#utility.yul\":11663:11664   */\n      dup3\n        /* \"#utility.yul\":11659:11668   */\n      add\n        /* \"#utility.yul\":11652:11668   */\n      swap1\n      pop\n        /* \"#utility.yul\":11687:11690   */\n      dup1\n        /* \"#utility.yul\":11684:11685   */\n      dup3\n        /* \"#utility.yul\":11681:11691   */\n      gt\n        /* \"#utility.yul\":11678:11714   */\n      iszero\n      tag_285\n      jumpi\n        /* \"#utility.yul\":11694:11712   */\n      tag_286\n      tag_137\n      jump\t// in\n    tag_286:\n        /* \"#utility.yul\":11678:11714   */\n    tag_285:\n        /* \"#utility.yul\":11530:11721   */\n      swap3\n      swap2\n      pop\n      pop\n      jump\t// out\n        /* \"#utility.yul\":11727:11907   */\n    tag_138:\n        /* \"#utility.yul\":11867:11899   */\n      0x457374652064617461736574206e616f206573746120612076656e64612e0000\n        /* \"#utility.yul\":11863:11864   */\n      0x00\n        /* \"#utility.yul\":11855:11861   */\n      dup3\n        /* \"#utility.yul\":11851:11865   */\n      add\n        /* \"#utility.yul\":11844:11900   */\n      mstore\n        /* \"#utility.yul\":11727:11907   */\n      pop\n      jump\t// out\n        /* \"#utility.yul\":11913:12279   */\n    tag_139:\n        /* \"#utility.yul\":12055:12058   */\n      0x00\n        /* \"#utility.yul\":12076:12143   */\n      tag_289\n        /* \"#utility.yul\":12140:12142   */\n      0x1e\n        /* \"#utility.yul\":12135:12138   */\n      dup4\n        /* \"#utility.yul\":12076:12143   */\n      tag_109\n      jump\t// in\n    tag_289:\n        /* \"#utility.yul\":12069:12143   */\n      swap2\n      pop\n        /* \"#utility.yul\":12152:12245   */\n      tag_290\n        /* \"#utility.yul\":12241:12244   */\n      dup3\n        /* \"#utility.yul\":12152:12245   */\n      tag_138\n      jump\t// in\n    tag_290:\n        /* \"#utility.yul\":12270:12272   */\n      0x20\n        /* \"#utility.yul\":12265:12268   */\n      dup3\n        /* \"#utility.yul\":12261:12273   */\n      add\n        /* \"#utility.yul\":12254:12273   */\n      swap1\n      pop\n        /* \"#utility.yul\":11913:12279   */\n      swap2\n      swap1\n      pop\n      jump\t// out\n        /* \"#utility.yul\":12285:12704   */\n    tag_76:\n        /* \"#utility.yul\":12451:12455   */\n      0x00\n        /* \"#utility.yul\":12489:12491   */\n      0x20\n        /* \"#utility.yul\":12478:12487   */\n      dup3\n        /* \"#utility.yul\":12474:12492   */\n      add\n        /* \"#utility.yul\":12466:12492   */\n      swap1\n      pop\n        /* \"#utility.yul\":12538:12547   */\n      dup2\n        /* \"#utility.yul\":12532:12536   */\n      dup2\n        /* \"#utility.yul\":12528:12548   */\n      sub\n        /* \"#utility.yul\":12524:12525   */\n      0x00\n        /* \"#utility.yul\":12513:12522   */\n      dup4\n        /* \"#utility.yul\":12509:12526   */\n      add\n        /* \"#utility.yul\":12502:12549   */\n      mstore\n        /* \"#utility.yul\":12566:12697   */\n      tag_292\n        /* \"#utility.yul\":12692:12696   */\n      dup2\n        /* \"#utility.yul\":12566:12697   */\n      tag_139\n      jump\t// in\n    tag_292:\n        /* \"#utility.yul\":12558:12697   */\n      swap1\n      pop\n        /* \"#utility.yul\":12285:12704   */\n      swap2\n      swap1\n      pop\n      jump\t// out\n        /* \"#utility.yul\":12710:13042   */\n    tag_78:\n        /* \"#utility.yul\":12831:12835   */\n      0x00\n        /* \"#utility.yul\":12869:12871   */\n      0x40\n        /* \"#utility.yul\":12858:12867   */\n      dup3\n        /* \"#utility.yul\":12854:12872   */\n      add\n        /* \"#utility.yul\":12846:12872   */\n      swap1\n      pop\n        /* \"#utility.yul\":12882:12953   */\n      tag_294\n        /* \"#utility.yul\":12950:12951   */\n      0x00\n        /* \"#utility.yul\":12939:12948   */\n      dup4\n        /* \"#utility.yul\":12935:12952   */\n      add\n        /* \"#utility.yul\":12926:12932   */\n      dup6\n        /* \"#utility.yul\":12882:12953   */\n      tag_113\n      jump\t// in\n    tag_294:\n        /* \"#utility.yul\":12963:13035   */\n      tag_295\n        /* \"#utility.yul\":13031:13033   */\n      0x20\n        /* \"#utility.yul\":13020:13029   */\n      dup4\n        /* \"#utility.yul\":13016:13034   */\n      add\n        /* \"#utility.yul\":13007:13013   */\n      dup5\n        /* \"#utility.yul\":12963:13035   */\n      tag_113\n      jump\t// in\n    tag_295:\n        /* \"#utility.yul\":12710:13042   */\n      swap4\n      swap3\n      pop\n      pop\n      pop\n      jump\t// out\n        /* \"#utility.yul\":13048:13226   */\n    tag_140:\n        /* \"#utility.yul\":13188:13218   */\n      0x56616c6f7220696e636f727265746f207061726120636f6d7072612e00000000\n        /* \"#utility.yul\":13184:13185   */\n      0x00\n        /* \"#utility.yul\":13176:13182   */\n      dup3\n        /* \"#utility.yul\":13172:13186   */\n      add\n        /* \"#utility.yul\":13165:13219   */\n      mstore\n        /* \"#utility.yul\":13048:13226   */\n      pop\n      jump\t// out\n        /* \"#utility.yul\":13232:13598   */\n    tag_141:\n        /* \"#utility.yul\":13374:13377   */\n      0x00\n        /* \"#utility.yul\":13395:13462   */\n      tag_298\n        /* \"#utility.yul\":13459:13461   */\n      0x1c\n        /* \"#utility.yul\":13454:13457   */\n      dup4\n        /* \"#utility.yul\":13395:13462   */\n      tag_109\n      jump\t// in\n    tag_298:\n        /* \"#utility.yul\":13388:13462   */\n      swap2\n      pop\n        /* \"#utility.yul\":13471:13564   */\n      tag_299\n        /* \"#utility.yul\":13560:13563   */\n      dup3\n        /* \"#utility.yul\":13471:13564   */\n      tag_140\n      jump\t// in\n    tag_299:\n        /* \"#utility.yul\":13589:13591   */\n      0x20\n        /* \"#utility.yul\":13584:13587   */\n      dup3\n        /* \"#utility.yul\":13580:13592   */\n      add\n        /* \"#utility.yul\":13573:13592   */\n      swap1\n      pop\n        /* \"#utility.yul\":13232:13598   */\n      swap2\n      swap1\n      pop\n      jump\t// out\n        /* \"#utility.yul\":13604:14023   */\n    tag_81:\n        /* \"#utility.yul\":13770:13774   */\n      0x00\n        /* \"#utility.yul\":13808:13810   */\n      0x20\n        /* \"#utility.yul\":13797:13806   */\n      dup3\n        /* \"#utility.yul\":13793:13811   */\n      add\n        /* \"#utility.yul\":13785:13811   */\n      swap1\n      pop\n        /* \"#utility.yul\":13857:13866   */\n      dup2\n        /* \"#utility.yul\":13851:13855   */\n      dup2\n        /* \"#utility.yul\":13847:13867   */\n      sub\n        /* \"#utility.yul\":13843:13844   */\n      0x00\n        /* \"#utility.yul\":13832:13841   */\n      dup4\n        /* \"#utility.yul\":13828:13845   */\n      add\n        /* \"#utility.yul\":13821:13868   */\n      mstore\n        /* \"#utility.yul\":13885:14016   */\n      tag_301\n        /* \"#utility.yul\":14011:14015   */\n      dup2\n        /* \"#utility.yul\":13885:14016   */\n      tag_141\n      jump\t// in\n    tag_301:\n        /* \"#utility.yul\":13877:14016   */\n      swap1\n      pop\n        /* \"#utility.yul\":13604:14023   */\n      swap2\n      swap1\n      pop\n      jump\t// out\n        /* \"#utility.yul\":14029:14211   */\n    tag_142:\n        /* \"#utility.yul\":14169:14203   */\n      0x53616c646f20696e737566696369656e7465207061726120636f6d707261722e\n        /* \"#utility.yul\":14165:14166   */\n      0x00\n        /* \"#utility.yul\":14157:14163   */\n      dup3\n        /* \"#utility.yul\":14153:14167   */\n      add\n        /* \"#utility.yul\":14146:14204   */\n      mstore\n        /* \"#utility.yul\":14029:14211   */\n      pop\n      jump\t// out\n        /* \"#utility.yul\":14217:14583   */\n    tag_143:\n        /* \"#utility.yul\":14359:14362   */\n      0x00\n        /* \"#utility.yul\":14380:14447   */\n      tag_304\n        /* \"#utility.yul\":14444:14446   */\n      0x20\n        /* \"#utility.yul\":14439:14442   */\n      dup4\n        /* \"#utility.yul\":14380:14447   */\n      tag_109\n      jump\t// in\n    tag_304:\n        /* \"#utility.yul\":14373:14447   */\n      swap2\n      pop\n        /* \"#utility.yul\":14456:14549   */\n      tag_305\n        /* \"#utility.yul\":14545:14548   */\n      dup3\n        /* \"#utility.yul\":14456:14549   */\n      tag_142\n      jump\t// in\n    tag_305:\n        /* \"#utility.yul\":14574:14576   */\n      0x20\n        /* \"#utility.yul\":14569:14572   */\n      dup3\n        /* \"#utility.yul\":14565:14577   */\n      add\n        /* \"#utility.yul\":14558:14577   */\n      swap1\n      pop\n        /* \"#utility.yul\":14217:14583   */\n      swap2\n      swap1\n      pop\n      jump\t// out\n        /* \"#utility.yul\":14589:15008   */\n    tag_84:\n        /* \"#utility.yul\":14755:14759   */\n      0x00\n        /* \"#utility.yul\":14793:14795   */\n      0x20\n        /* \"#utility.yul\":14782:14791   */\n      dup3\n        /* \"#utility.yul\":14778:14796   */\n      add\n        /* \"#utility.yul\":14770:14796   */\n      swap1\n      pop\n        /* \"#utility.yul\":14842:14851   */\n      dup2\n        /* \"#utility.yul\":14836:14840   */\n      dup2\n        /* \"#utility.yul\":14832:14852   */\n      sub\n        /* \"#utility.yul\":14828:14829   */\n      0x00\n        /* \"#utility.yul\":14817:14826   */\n      dup4\n        /* \"#utility.yul\":14813:14830   */\n      add\n        /* \"#utility.yul\":14806:14853   */\n      mstore\n        /* \"#utility.yul\":14870:15001   */\n      tag_307\n        /* \"#utility.yul\":14996:15000   */\n      dup2\n        /* \"#utility.yul\":14870:15001   */\n      tag_143\n      jump\t// in\n    tag_307:\n        /* \"#utility.yul\":14862:15001   */\n      swap1\n      pop\n        /* \"#utility.yul\":14589:15008   */\n      swap2\n      swap1\n      pop\n      jump\t// out\n        /* \"#utility.yul\":15014:15208   */\n    tag_86:\n        /* \"#utility.yul\":15054:15058   */\n      0x00\n        /* \"#utility.yul\":15074:15094   */\n      tag_309\n        /* \"#utility.yul\":15092:15093   */\n      dup3\n        /* \"#utility.yul\":15074:15094   */\n      tag_105\n      jump\t// in\n    tag_309:\n        /* \"#utility.yul\":15069:15094   */\n      swap2\n      pop\n        /* \"#utility.yul\":15108:15128   */\n      tag_310\n        /* \"#utility.yul\":15126:15127   */\n      dup4\n        /* \"#utility.yul\":15108:15128   */\n      tag_105\n      jump\t// in\n    tag_310:\n        /* \"#utility.yul\":15103:15128   */\n      swap3\n      pop\n        /* \"#utility.yul\":15152:15153   */\n      dup3\n        /* \"#utility.yul\":15149:15150   */\n      dup3\n        /* \"#utility.yul\":15145:15154   */\n      sub\n        /* \"#utility.yul\":15137:15154   */\n      swap1\n      pop\n        /* \"#utility.yul\":15176:15177   */\n      dup2\n        /* \"#utility.yul\":15170:15174   */\n      dup2\n        /* \"#utility.yul\":15167:15178   */\n      gt\n        /* \"#utility.yul\":15164:15201   */\n      iszero\n      tag_311\n      jumpi\n        /* \"#utility.yul\":15181:15199   */\n      tag_312\n      tag_137\n      jump\t// in\n    tag_312:\n        /* \"#utility.yul\":15164:15201   */\n    tag_311:\n        /* \"#utility.yul\":15014:15208   */\n      swap3\n      swap2\n      pop\n      pop\n      jump\t// out\n        /* \"#utility.yul\":15214:15447   */\n    tag_97:\n        /* \"#utility.yul\":15253:15256   */\n      0x00\n        /* \"#utility.yul\":15276:15300   */\n      tag_314\n        /* \"#utility.yul\":15294:15299   */\n      dup3\n        /* \"#utility.yul\":15276:15300   */\n      tag_105\n      jump\t// in\n    tag_314:\n        /* \"#utility.yul\":15267:15300   */\n      swap2\n      pop\n        /* \"#utility.yul\":15322:15388   */\n      0xffffffffffffffffffffffffffffffffffffffffffffffffffffffffffffffff\n        /* \"#utility.yul\":15315:15320   */\n      dup3\n        /* \"#utility.yul\":15312:15389   */\n      sub\n        /* \"#utility.yul\":15309:15412   */\n      tag_315\n      jumpi\n        /* \"#utility.yul\":15392:15410   */\n      tag_316\n      tag_137\n      jump\t// in\n    tag_316:\n        /* \"#utility.yul\":15309:15412   */\n    tag_315:\n        /* \"#utility.yul\":15439:15440   */\n      0x01\n        /* \"#utility.yul\":15432:15437   */\n      dup3\n        /* \"#utility.yul\":15428:15441   */\n      add\n        /* \"#utility.yul\":15421:15441   */\n      swap1\n      pop\n        /* \"#utility.yul\":15214:15447   */\n      swap2\n      swap1\n      pop\n      jump\t// out\n        /* \"#utility.yul\":15453:15594   */\n    tag_144:\n        /* \"#utility.yul\":15502:15506   */\n      0x00\n        /* \"#utility.yul\":15525:15528   */\n      dup2\n        /* \"#utility.yul\":15517:15528   */\n      swap1\n      pop\n        /* \"#utility.yul\":15548:15551   */\n      dup2\n        /* \"#utility.yul\":15545:15546   */\n      0x00\n        /* \"#utility.yul\":15538:15552   */\n      mstore\n        /* \"#utility.yul\":15582:15586   */\n      0x20\n        /* \"#utility.yul\":15579:15580   */\n      0x00\n        /* \"#utility.yul\":15569:15587   */\n      keccak256\n        /* \"#utility.yul\":15561:15587   */\n      swap1\n      pop\n        /* \"#utility.yul\":15453:15594   */\n      swap2\n      swap1\n      pop\n      jump\t// out\n        /* \"#utility.yul\":15600:15693   */\n    tag_145:\n        /* \"#utility.yul\":15637:15643   */\n      0x00\n        /* \"#utility.yul\":15684:15686   */\n      0x20\n        /* \"#utility.yul\":15679:15681   */\n      0x1f\n        /* \"#utility.yul\":15672:15677   */\n      dup4\n        /* \"#utility.yul\":15668:15682   */\n      add\n        /* \"#utility.yul\":15664:15687   */\n      div\n        /* \"#utility.yul\":15654:15687   */\n      swap1\n      pop\n        /* \"#utility.yul\":15600:15693   */\n      swap2\n      swap1\n      pop\n      jump\t// out\n        /* \"#utility.yul\":15699:15806   */\n    tag_146:\n        /* \"#utility.yul\":15743:15751   */\n      0x00\n        /* \"#utility.yul\":15793:15798   */\n      dup3\n        /* \"#utility.yul\":15787:15791   */\n      dup3\n        /* \"#utility.yul\":15783:15799   */\n      shl\n        /* \"#utility.yul\":15762:15799   */\n      swap1\n      pop\n        /* \"#utility.yul\":15699:15806   */\n      swap3\n      swap2\n      pop\n      pop\n      jump\t// out\n        /* \"#utility.yul\":15812:16205   */\n    tag_147:\n        /* \"#utility.yul\":15881:15887   */\n      0x00\n        /* \"#utility.yul\":15931:15932   */\n      0x08\n        /* \"#utility.yul\":15919:15929   */\n      dup4\n        /* \"#utility.yul\":15915:15933   */\n      mul\n        /* \"#utility.yul\":15954:16051   */\n      tag_321\n        /* \"#utility.yul\":15984:16050   */\n      0xffffffffffffffffffffffffffffffffffffffffffffffffffffffffffffffff\n        /* \"#utility.yul\":15973:15982   */\n      dup3\n        /* \"#utility.yul\":15954:16051   */\n      tag_146\n      jump\t// in\n    tag_321:\n        /* \"#utility.yul\":16072:16111   */\n      tag_322\n        /* \"#utility.yul\":16102:16110   */\n      dup7\n        /* \"#utility.yul\":16091:16100   */\n      dup4\n        /* \"#utility.yul\":16072:16111   */\n      tag_146\n      jump\t// in\n    tag_322:\n        /* \"#utility.yul\":16060:16111   */\n      swap6\n      pop\n        /* \"#utility.yul\":16144:16148   */\n      dup1\n        /* \"#utility.yul\":16140:16149   */\n      not\n        /* \"#utility.yul\":16133:16138   */\n      dup5\n        /* \"#utility.yul\":16129:16150   */\n      and\n        /* \"#utility.yul\":16120:16150   */\n      swap4\n      pop\n        /* \"#utility.yul\":16193:16197   */\n      dup1\n        /* \"#utility.yul\":16183:16191   */\n      dup7\n        /* \"#utility.yul\":16179:16198   */\n      and\n        /* \"#utility.yul\":16172:16177   */\n      dup5\n        /* \"#utility.yul\":16169:16199   */\n      or\n        /* \"#utility.yul\":16159:16199   */\n      swap3\n      pop\n        /* \"#utility.yul\":15888:16205   */\n      pop\n      pop\n        /* \"#utility.yul\":15812:16205   */\n      swap4\n      swap3\n      pop\n      pop\n      pop\n      jump\t// out\n        /* \"#utility.yul\":16211:16271   */\n    tag_148:\n        /* \"#utility.yul\":16239:16242   */\n      0x00\n        /* \"#utility.yul\":16260:16265   */\n      dup2\n        /* \"#utility.yul\":16253:16265   */\n      swap1\n      pop\n        /* \"#utility.yul\":16211:16271   */\n      swap2\n      swap1\n      pop\n      jump\t// out\n        /* \"#utility.yul\":16277:16419   */\n    tag_149:\n        /* \"#utility.yul\":16327:16336   */\n      0x00\n        /* \"#utility.yul\":16360:16413   */\n      tag_325\n        /* \"#utility.yul\":16378:16412   */\n      tag_326\n        /* \"#utility.yul\":16387:16411   */\n      tag_327\n        /* \"#utility.yul\":16405:16410   */\n      dup5\n        /* \"#utility.yul\":16387:16411   */\n      tag_105\n      jump\t// in\n    tag_327:\n        /* \"#utility.yul\":16378:16412   */\n      tag_148\n      jump\t// in\n    tag_326:\n        /* \"#utility.yul\":16360:16413   */\n      tag_105\n      jump\t// in\n    tag_325:\n        /* \"#utility.yul\":16347:16413   */\n      swap1\n      pop\n        /* \"#utility.yul\":16277:16419   */\n      swap2\n      swap1\n      pop\n      jump\t// out\n        /* \"#utility.yul\":16425:16500   */\n    tag_150:\n        /* \"#utility.yul\":16468:16471   */\n      0x00\n        /* \"#utility.yul\":16489:16494   */\n      dup2\n        /* \"#utility.yul\":16482:16494   */\n      swap1\n      pop\n        /* \"#utility.yul\":16425:16500   */\n      swap2\n      swap1\n      pop\n      jump\t// out\n        /* \"#utility.yul\":16506:16775   */\n    tag_151:\n        /* \"#utility.yul\":16616:16655   */\n      tag_330\n        /* \"#utility.yul\":16647:16654   */\n      dup4\n        /* \"#utility.yul\":16616:16655   */\n      tag_149\n      jump\t// in\n    tag_330:\n        /* \"#utility.yul\":16677:16768   */\n      tag_331\n        /* \"#utility.yul\":16726:16767   */\n      tag_332\n        /* \"#utility.yul\":16750:16766   */\n      dup3\n        /* \"#utility.yul\":16726:16767   */\n      tag_150\n      jump\t// in\n    tag_332:\n        /* \"#utility.yul\":16718:16724   */\n      dup5\n        /* \"#utility.yul\":16711:16715   */\n      dup5\n        /* \"#utility.yul\":16705:16716   */\n      sload\n        /* \"#utility.yul\":16677:16768   */\n      tag_147\n      jump\t// in\n    tag_331:\n        /* \"#utility.yul\":16671:16675   */\n      dup3\n        /* \"#utility.yul\":16664:16769   */\n      sstore\n        /* \"#utility.yul\":16582:16775   */\n      pop\n        /* \"#utility.yul\":16506:16775   */\n      pop\n      pop\n      pop\n      jump\t// out\n        /* \"#utility.yul\":16781:16854   */\n    tag_152:\n        /* \"#utility.yul\":16826:16829   */\n      0x00\n        /* \"#utility.yul\":16781:16854   */\n      swap1\n      jump\t// out\n        /* \"#utility.yul\":16860:17049   */\n    tag_153:\n        /* \"#utility.yul\":16937:16969   */\n      tag_335\n      tag_152\n      jump\t// in\n    tag_335:\n        /* \"#utility.yul\":16978:17043   */\n      tag_336\n        /* \"#utility.yul\":17036:17042   */\n      dup2\n        /* \"#utility.yul\":17028:17034   */\n      dup5\n        /* \"#utility.yul\":17022:17026   */\n      dup5\n        /* \"#utility.yul\":16978:17043   */\n      tag_151\n      jump\t// in\n    tag_336:\n        /* \"#utility.yul\":16913:17049   */\n      pop\n        /* \"#utility.yul\":16860:17049   */\n      pop\n      pop\n      jump\t// out\n        /* \"#utility.yul\":17055:17241   */\n    tag_154:\n        /* \"#utility.yul\":17115:17235   */\n    tag_338:\n        /* \"#utility.yul\":17132:17135   */\n      dup2\n        /* \"#utility.yul\":17125:17130   */\n      dup2\n        /* \"#utility.yul\":17122:17136   */\n      lt\n        /* \"#utility.yul\":17115:17235   */\n      iszero\n      tag_340\n      jumpi\n        /* \"#utility.yul\":17186:17225   */\n      tag_341\n        /* \"#utility.yul\":17223:17224   */\n      0x00\n        /* \"#utility.yul\":17216:17221   */\n      dup3\n        /* \"#utility.yul\":17186:17225   */\n      tag_153\n      jump\t// in\n    tag_341:\n        /* \"#utility.yul\":17159:17160   */\n      0x01\n        /* \"#utility.yul\":17152:17157   */\n      dup2\n        /* \"#utility.yul\":17148:17161   */\n      add\n        /* \"#utility.yul\":17139:17161   */\n      swap1\n      pop\n        /* \"#utility.yul\":17115:17235   */\n      jump(tag_338)\n    tag_340:\n        /* \"#utility.yul\":17055:17241   */\n      pop\n      pop\n      jump\t// out\n        /* \"#utility.yul\":17247:17790   */\n    tag_155:\n        /* \"#utility.yul\":17348:17350   */\n      0x1f\n        /* \"#utility.yul\":17343:17346   */\n      dup3\n        /* \"#utility.yul\":17340:17351   */\n      gt\n        /* \"#utility.yul\":17337:17783   */\n      iszero\n      tag_343\n      jumpi\n        /* \"#utility.yul\":17382:17420   */\n      tag_344\n        /* \"#utility.yul\":17414:17419   */\n      dup2\n        /* \"#utility.yul\":17382:17420   */\n      tag_144\n      jump\t// in\n    tag_344:\n        /* \"#utility.yul\":17466:17495   */\n      tag_345\n        /* \"#utility.yul\":17484:17494   */\n      dup5\n        /* \"#utility.yul\":17466:17495   */\n      tag_145\n      jump\t// in\n    tag_345:\n        /* \"#utility.yul\":17456:17464   */\n      dup2\n        /* \"#utility.yul\":17452:17496   */\n      add\n        /* \"#utility.yul\":17649:17651   */\n      0x20\n        /* \"#utility.yul\":17637:17647   */\n      dup6\n        /* \"#utility.yul\":17634:17652   */\n      lt\n        /* \"#utility.yul\":17631:17680   */\n      iszero\n      tag_346\n      jumpi\n        /* \"#utility.yul\":17670:17678   */\n      dup2\n        /* \"#utility.yul\":17655:17678   */\n      swap1\n      pop\n        /* \"#utility.yul\":17631:17680   */\n    tag_346:\n        /* \"#utility.yul\":17693:17773   */\n      tag_347\n        /* \"#utility.yul\":17749:17771   */\n      tag_348\n        /* \"#utility.yul\":17767:17770   */\n      dup6\n        /* \"#utility.yul\":17749:17771   */\n      tag_145\n      jump\t// in\n    tag_348:\n        /* \"#utility.yul\":17739:17747   */\n      dup4\n        /* \"#utility.yul\":17735:17772   */\n      add\n        /* \"#utility.yul\":17722:17733   */\n      dup3\n        /* \"#utility.yul\":17693:17773   */\n      tag_154\n      jump\t// in\n    tag_347:\n        /* \"#utility.yul\":17352:17783   */\n      pop\n      pop\n        /* \"#utility.yul\":17337:17783   */\n    tag_343:\n        /* \"#utility.yul\":17247:17790   */\n      pop\n      pop\n      pop\n      jump\t// out\n        /* \"#utility.yul\":17796:17913   */\n    tag_156:\n        /* \"#utility.yul\":17850:17858   */\n      0x00\n        /* \"#utility.yul\":17900:17905   */\n      dup3\n        /* \"#utility.yul\":17894:17898   */\n      dup3\n        /* \"#utility.yul\":17890:17906   */\n      shr\n        /* \"#utility.yul\":17869:17906   */\n      swap1\n      pop\n        /* \"#utility.yul\":17796:17913   */\n      swap3\n      swap2\n      pop\n      pop\n      jump\t// out\n        /* \"#utility.yul\":17919:18088   */\n    tag_157:\n        /* \"#utility.yul\":17963:17969   */\n      0x00\n        /* \"#utility.yul\":17996:18047   */\n      tag_351\n        /* \"#utility.yul\":18044:18045   */\n      0x00\n        /* \"#utility.yul\":18040:18046   */\n      not\n        /* \"#utility.yul\":18032:18037   */\n      dup5\n        /* \"#utility.yul\":18029:18030   */\n      0x08\n        /* \"#utility.yul\":18025:18038   */\n      mul\n        /* \"#utility.yul\":17996:18047   */\n      tag_156\n      jump\t// in\n    tag_351:\n        /* \"#utility.yul\":17992:18048   */\n      not\n        /* \"#utility.yul\":18077:18081   */\n      dup1\n        /* \"#utility.yul\":18071:18075   */\n      dup4\n        /* \"#utility.yul\":18067:18082   */\n      and\n        /* \"#utility.yul\":18057:18082   */\n      swap2\n      pop\n        /* \"#utility.yul\":17970:18088   */\n      pop\n        /* \"#utility.yul\":17919:18088   */\n      swap3\n      swap2\n      pop\n      pop\n      jump\t// out\n        /* \"#utility.yul\":18093:18388   */\n    tag_158:\n        /* \"#utility.yul\":18169:18173   */\n      0x00\n        /* \"#utility.yul\":18315:18344   */\n      tag_353\n        /* \"#utility.yul\":18340:18343   */\n      dup4\n        /* \"#utility.yul\":18334:18338   */\n      dup4\n        /* \"#utility.yul\":18315:18344   */\n      tag_157\n      jump\t// in\n    tag_353:\n        /* \"#utility.yul\":18307:18344   */\n      swap2\n      pop\n        /* \"#utility.yul\":18377:18380   */\n      dup3\n        /* \"#utility.yul\":18374:18375   */\n      0x02\n        /* \"#utility.yul\":18370:18381   */\n      mul\n        /* \"#utility.yul\":18364:18368   */\n      dup3\n        /* \"#utility.yul\":18361:18382   */\n      or\n        /* \"#utility.yul\":18353:18382   */\n      swap1\n      pop\n        /* \"#utility.yul\":18093:18388   */\n      swap3\n      swap2\n      pop\n      pop\n      jump\t// out\n        /* \"#utility.yul\":18393:19788   */\n    tag_99:\n        /* \"#utility.yul\":18510:18547   */\n      tag_355\n        /* \"#utility.yul\":18543:18546   */\n      dup3\n        /* \"#utility.yul\":18510:18547   */\n      tag_108\n      jump\t// in\n    tag_355:\n        /* \"#utility.yul\":18612:18630   */\n      0xffffffffffffffff\n        /* \"#utility.yul\":18604:18610   */\n      dup2\n        /* \"#utility.yul\":18601:18631   */\n      gt\n        /* \"#utility.yul\":18598:18654   */\n      iszero\n      tag_356\n      jumpi\n        /* \"#utility.yul\":18634:18652   */\n      tag_357\n      tag_125\n      jump\t// in\n    tag_357:\n        /* \"#utility.yul\":18598:18654   */\n    tag_356:\n        /* \"#utility.yul\":18678:18716   */\n      tag_358\n        /* \"#utility.yul\":18710:18714   */\n      dup3\n        /* \"#utility.yul\":18704:18715   */\n      sload\n        /* \"#utility.yul\":18678:18716   */\n      tag_55\n      jump\t// in\n    tag_358:\n        /* \"#utility.yul\":18763:18830   */\n      tag_359\n        /* \"#utility.yul\":18823:18829   */\n      dup3\n        /* \"#utility.yul\":18815:18821   */\n      dup3\n        /* \"#utility.yul\":18809:18813   */\n      dup6\n        /* \"#utility.yul\":18763:18830   */\n      tag_155\n      jump\t// in\n    tag_359:\n        /* \"#utility.yul\":18857:18858   */\n      0x00\n        /* \"#utility.yul\":18881:18885   */\n      0x20\n        /* \"#utility.yul\":18868:18885   */\n      swap1\n      pop\n        /* \"#utility.yul\":18913:18915   */\n      0x1f\n        /* \"#utility.yul\":18905:18911   */\n      dup4\n        /* \"#utility.yul\":18902:18916   */\n      gt\n        /* \"#utility.yul\":18930:18931   */\n      0x01\n        /* \"#utility.yul\":18925:19543   */\n      dup2\n      eq\n      tag_361\n      jumpi\n        /* \"#utility.yul\":19587:19588   */\n      0x00\n        /* \"#utility.yul\":19604:19610   */\n      dup5\n        /* \"#utility.yul\":19601:19678   */\n      iszero\n      tag_362\n      jumpi\n        /* \"#utility.yul\":19653:19662   */\n      dup3\n        /* \"#utility.yul\":19648:19651   */\n      dup8\n        /* \"#utility.yul\":19644:19663   */\n      add\n        /* \"#utility.yul\":19638:19664   */\n      mload\n        /* \"#utility.yul\":19629:19664   */\n      swap1\n      pop\n        /* \"#utility.yul\":19601:19678   */\n    tag_362:\n        /* \"#utility.yul\":19704:19771   */\n      tag_363\n        /* \"#utility.yul\":19764:19770   */\n      dup6\n        /* \"#utility.yul\":19757:19762   */\n      dup3\n        /* \"#utility.yul\":19704:19771   */\n      tag_158\n      jump\t// in\n    tag_363:\n        /* \"#utility.yul\":19698:19702   */\n      dup7\n        /* \"#utility.yul\":19691:19772   */\n      sstore\n        /* \"#utility.yul\":19560:19782   */\n      pop\n        /* \"#utility.yul\":18895:19782   */\n      jump(tag_360)\n        /* \"#utility.yul\":18925:19543   */\n    tag_361:\n        /* \"#utility.yul\":18977:18981   */\n      0x1f\n        /* \"#utility.yul\":18973:18982   */\n      not\n        /* \"#utility.yul\":18965:18971   */\n      dup5\n        /* \"#utility.yul\":18961:18983   */\n      and\n        /* \"#utility.yul\":19011:19048   */\n      tag_364\n        /* \"#utility.yul\":19043:19047   */\n      dup7\n        /* \"#utility.yul\":19011:19048   */\n      tag_144\n      jump\t// in\n    tag_364:\n        /* \"#utility.yul\":19070:19071   */\n      0x00\n        /* \"#utility.yul\":19084:19292   */\n    tag_365:\n        /* \"#utility.yul\":19098:19105   */\n      dup3\n        /* \"#utility.yul\":19095:19096   */\n      dup2\n        /* \"#utility.yul\":19092:19106   */\n      lt\n        /* \"#utility.yul\":19084:19292   */\n      iszero\n      tag_367\n      jumpi\n        /* \"#utility.yul\":19177:19186   */\n      dup5\n        /* \"#utility.yul\":19172:19175   */\n      dup10\n        /* \"#utility.yul\":19168:19187   */\n      add\n        /* \"#utility.yul\":19162:19188   */\n      mload\n        /* \"#utility.yul\":19154:19160   */\n      dup3\n        /* \"#utility.yul\":19147:19189   */\n      sstore\n        /* \"#utility.yul\":19228:19229   */\n      0x01\n        /* \"#utility.yul\":19220:19226   */\n      dup3\n        /* \"#utility.yul\":19216:19230   */\n      add\n        /* \"#utility.yul\":19206:19230   */\n      swap2\n      pop\n        /* \"#utility.yul\":19275:19277   */\n      0x20\n        /* \"#utility.yul\":19264:19273   */\n      dup6\n        /* \"#utility.yul\":19260:19278   */\n      add\n        /* \"#utility.yul\":19247:19278   */\n      swap5\n      pop\n        /* \"#utility.yul\":19121:19125   */\n      0x20\n        /* \"#utility.yul\":19118:19119   */\n      dup2\n        /* \"#utility.yul\":19114:19126   */\n      add\n        /* \"#utility.yul\":19109:19126   */\n      swap1\n      pop\n        /* \"#utility.yul\":19084:19292   */\n      jump(tag_365)\n    tag_367:\n        /* \"#utility.yul\":19320:19326   */\n      dup7\n        /* \"#utility.yul\":19311:19318   */\n      dup4\n        /* \"#utility.yul\":19308:19327   */\n      lt\n        /* \"#utility.yul\":19305:19484   */\n      iszero\n      tag_368\n      jumpi\n        /* \"#utility.yul\":19378:19387   */\n      dup5\n        /* \"#utility.yul\":19373:19376   */\n      dup10\n        /* \"#utility.yul\":19369:19388   */\n      add\n        /* \"#utility.yul\":19363:19389   */\n      mload\n        /* \"#utility.yul\":19421:19469   */\n      tag_369\n        /* \"#utility.yul\":19463:19467   */\n      0x1f\n        /* \"#utility.yul\":19455:19461   */\n      dup10\n        /* \"#utility.yul\":19451:19468   */\n      and\n        /* \"#utility.yul\":19440:19449   */\n      dup3\n        /* \"#utility.yul\":19421:19469   */\n      tag_157\n      jump\t// in\n    tag_369:\n        /* \"#utility.yul\":19413:19419   */\n      dup4\n        /* \"#utility.yul\":19406:19470   */\n      sstore\n        /* \"#utility.yul\":19328:19484   */\n      pop\n        /* \"#utility.yul\":19305:19484   */\n    tag_368:\n        /* \"#utility.yul\":19530:19531   */\n      0x01\n        /* \"#utility.yul\":19526:19527   */\n      0x02\n        /* \"#utility.yul\":19518:19524   */\n      dup9\n        /* \"#utility.yul\":19514:19528   */\n      mul\n        /* \"#utility.yul\":19510:19532   */\n      add\n        /* \"#utility.yul\":19504:19508   */\n      dup9\n        /* \"#utility.yul\":19497:19533   */\n      sstore\n        /* \"#utility.yul\":18932:19543   */\n      pop\n      pop\n      pop\n        /* \"#utility.yul\":18895:19782   */\n    tag_360:\n      pop\n        /* \"#utility.yul\":18485:19788   */\n      pop\n      pop\n      pop\n        /* \"#utility.yul\":18393:19788   */\n      pop\n      pop\n      jump\t// out\n\n    auxdata: 0xa2646970667358221220d7aee49d24abf1c350315c4924488803408bb207635a81d7c133e27a8bd92f6164736f6c634300081a0033\n}\n",
				"bytecode": {
					"linkReferences": {},
					"object": "6080604052348015600e575f80fd5b506114758061001c5f395ff3fe60806040526004361061007a575f3560e01c80633132ddfe1161004d5780633132ddfe146101405780633c8935b91461017c5780638da5cb5b146101a6578063c013f8c7146101d05761007a565b80631cff85e11461007e57806321e5383a146100c057806327e235e3146100e85780632cdc253414610124575b5f80fd5b348015610089575f80fd5b506100a4600480360381019061009f91906109f8565b6101f8565b6040516100b79796959493929190610b13565b60405180910390f35b3480156100cb575f80fd5b506100e660048036038101906100e19190610bb8565b61036c565b005b3480156100f3575f80fd5b5061010e60048036038101906101099190610bf6565b6104c3565b60405161011b9190610c21565b60405180910390f35b61013e60048036038101906101399190610c3a565b6104d8565b005b34801561014b575f80fd5b50610166600480360381019061016191906109f8565b610854565b6040516101739190610c78565b60405180910390f35b348015610187575f80fd5b506101906108cc565b60405161019d9190610c21565b60405180910390f35b3480156101b1575f80fd5b506101ba6108d2565b6040516101c79190610c91565b60405180910390f35b3480156101db575f80fd5b506101f660048036038101906101f19190610e00565b6108d9565b005b5f602052805f5260405f205f91509050805f01805461021690610edc565b80601f016020809104026020016040519081016040528092919081815260200182805461024290610edc565b801561028d5780601f106102645761010080835404028352916020019161028d565b820191905f5260205f20905b81548152906001019060200180831161027057829003601f168201915b5050505050908060010180546102a290610edc565b80601f01602080910402602001604051908101604052809291908181526020018280546102ce90610edc565b80156103195780601f106102f057610100808354040283529160200191610319565b820191905f5260205f20905b8154815290600101906020018083116102fc57829003601f168201915b505050505090806002015490806003015f9054906101000a900473ffffffffffffffffffffffffffffffffffffffff1690806004015490806005015490806006015f9054906101000a900460ff16905087565b6103746108d2565b73ffffffffffffffffffffffffffffffffffffffff163373ffffffffffffffffffffffffffffffffffffffff16146103e1576040517f08c379a00000000000000000000000000000000000000000000000000000000081526004016103d890610f7c565b60405180910390fd5b8060025f8473ffffffffffffffffffffffffffffffffffffffff1673ffffffffffffffffffffffffffffffffffffffff1681526020019081526020015f205f82825461042d9190610fc7565b925050819055508173ffffffffffffffffffffffffffffffffffffffff167f8ad64a0ac7700dd8425ab0499f107cb6e2cd1581d803c5b8c1c79dcb8190b1af60025f8573ffffffffffffffffffffffffffffffffffffffff1673ffffffffffffffffffffffffffffffffffffffff1681526020019081526020015f20546040516104b79190610c21565b60405180910390a25050565b6002602052805f5260405f205f915090505481565b5f805f8481526020019081526020015f209050806006015f9054906101000a900460ff1661053b576040517f08c379a000000000000000000000000000000000000000000000000000000000815260040161053290611044565b60405180910390fd5b7f63af63bfca569c48d057e33e64dd158f842ce6522d8dcd4b4a132fb07a458d1f348260020154604051610570929190611062565b60405180910390a1806002015434146105be576040517f08c379a00000000000000000000000000000000000000000000000000000000081526004016105b5906110d3565b60405180910390fd5b8160025f3373ffffffffffffffffffffffffffffffffffffffff1673ffffffffffffffffffffffffffffffffffffffff1681526020019081526020015f2054101561063e576040517f08c379a00000000000000000000000000000000000000000000000000000000081526004016106359061113b565b60405180910390fd5b8160025f3373ffffffffffffffffffffffffffffffffffffffff1673ffffffffffffffffffffffffffffffffffffffff1681526020019081526020015f205f82825461068a9190611159565b925050819055506001816007015f3373ffffffffffffffffffffffffffffffffffffffff1673ffffffffffffffffffffffffffffffffffffffff1681526020019081526020015f205f6101000a81548160ff0219169083151502179055508060080133908060018154018082558091505060019003905f5260205f20015f9091909190916101000a81548173ffffffffffffffffffffffffffffffffffffffff021916908373ffffffffffffffffffffffffffffffffffffffff160217905550806003015f9054906101000a900473ffffffffffffffffffffffffffffffffffffffff1673ffffffffffffffffffffffffffffffffffffffff166108fc8390811502906040515f60405180830381858888f193505050501580156107b0573d5f803e3d5ffd5b503373ffffffffffffffffffffffffffffffffffffffff16837f709b48219c4b1cf38d85d4e8cf9befdeb3e2dc3f108255265283d92ca06001ed426040516107f89190610c21565b60405180910390a3823373ffffffffffffffffffffffffffffffffffffffff167f2f53958023d8cc3aaedbbfa2938e126fe86aa44bc22b509fc80c38c7c0d37377846040516108479190610c21565b60405180910390a3505050565b5f805f808481526020019081526020015f209050806007015f3373ffffffffffffffffffffffffffffffffffffffff1673ffffffffffffffffffffffffffffffffffffffff1681526020019081526020015f205f9054906101000a900460ff1680156108c4575080600501544211155b915050919050565b60015481565b5f33905090565b60015f8154809291906108eb9061118c565b91905055505f805f60015481526020019081526020015f20905085815f0190816109159190611370565b50848160010190816109279190611370565b5083816002018190555033816003015f6101000a81548173ffffffffffffffffffffffffffffffffffffffff021916908373ffffffffffffffffffffffffffffffffffffffff16021790555082816004018190555081426109889190610fc7565b81600501819055506001816006015f6101000a81548160ff021916908315150217905550505050505050565b5f604051905090565b5f80fd5b5f80fd5b5f819050919050565b6109d7816109c5565b81146109e1575f80fd5b50565b5f813590506109f2816109ce565b92915050565b5f60208284031215610a0d57610a0c6109bd565b5b5f610a1a848285016109e4565b91505092915050565b5f81519050919050565b5f82825260208201905092915050565b8281835e5f83830152505050565b5f601f19601f8301169050919050565b5f610a6582610a23565b610a6f8185610a2d565b9350610a7f818560208601610a3d565b610a8881610a4b565b840191505092915050565b610a9c816109c5565b82525050565b5f73ffffffffffffffffffffffffffffffffffffffff82169050919050565b5f610acb82610aa2565b9050919050565b610adb81610ac1565b82525050565b5f819050919050565b610af381610ae1565b82525050565b5f8115159050919050565b610b0d81610af9565b82525050565b5f60e0820190508181035f830152610b2b818a610a5b565b90508181036020830152610b3f8189610a5b565b9050610b4e6040830188610a93565b610b5b6060830187610ad2565b610b686080830186610aea565b610b7560a0830185610a93565b610b8260c0830184610b04565b98975050505050505050565b610b9781610ac1565b8114610ba1575f80fd5b50565b5f81359050610bb281610b8e565b92915050565b5f8060408385031215610bce57610bcd6109bd565b5b5f610bdb85828601610ba4565b9250506020610bec858286016109e4565b9150509250929050565b5f60208284031215610c0b57610c0a6109bd565b5b5f610c1884828501610ba4565b91505092915050565b5f602082019050610c345f830184610a93565b92915050565b5f8060408385031215610c5057610c4f6109bd565b5b5f610c5d858286016109e4565b9250506020610c6e858286016109e4565b9150509250929050565b5f602082019050610c8b5f830184610b04565b92915050565b5f602082019050610ca45f830184610ad2565b92915050565b5f80fd5b5f80fd5b7f4e487b71000000000000000000000000000000000000000000000000000000005f52604160045260245ffd5b610ce882610a4b565b810181811067ffffffffffffffff82111715610d0757610d06610cb2565b5b80604052505050565b5f610d196109b4565b9050610d258282610cdf565b919050565b5f67ffffffffffffffff821115610d4457610d43610cb2565b5b610d4d82610a4b565b9050602081019050919050565b828183375f83830152505050565b5f610d7a610d7584610d2a565b610d10565b905082815260208101848484011115610d9657610d95610cae565b5b610da1848285610d5a565b509392505050565b5f82601f830112610dbd57610dbc610caa565b5b8135610dcd848260208601610d68565b91505092915050565b610ddf81610ae1565b8114610de9575f80fd5b50565b5f81359050610dfa81610dd6565b92915050565b5f805f805f60a08688031215610e1957610e186109bd565b5b5f86013567ffffffffffffffff811115610e3657610e356109c1565b5b610e4288828901610da9565b955050602086013567ffffffffffffffff811115610e6357610e626109c1565b5b610e6f88828901610da9565b9450506040610e80888289016109e4565b9350506060610e9188828901610dec565b9250506080610ea2888289016109e4565b9150509295509295909350565b7f4e487b71000000000000000000000000000000000000000000000000000000005f52602260045260245ffd5b5f6002820490506001821680610ef357607f821691505b602082108103610f0657610f05610eaf565b5b50919050565b7f536f6d656e7465206f20646f6e6f20706f64652061646963696f6e61722073615f8201527f6c646f2e00000000000000000000000000000000000000000000000000000000602082015250565b5f610f66602483610a2d565b9150610f7182610f0c565b604082019050919050565b5f6020820190508181035f830152610f9381610f5a565b9050919050565b7f4e487b71000000000000000000000000000000000000000000000000000000005f52601160045260245ffd5b5f610fd1826109c5565b9150610fdc836109c5565b9250828201905080821115610ff457610ff3610f9a565b5b92915050565b7f457374652064617461736574206e616f206573746120612076656e64612e00005f82015250565b5f61102e601e83610a2d565b915061103982610ffa565b602082019050919050565b5f6020820190508181035f83015261105b81611022565b9050919050565b5f6040820190506110755f830185610a93565b6110826020830184610a93565b9392505050565b7f56616c6f7220696e636f727265746f207061726120636f6d7072612e000000005f82015250565b5f6110bd601c83610a2d565b91506110c882611089565b602082019050919050565b5f6020820190508181035f8301526110ea816110b1565b9050919050565b7f53616c646f20696e737566696369656e7465207061726120636f6d707261722e5f82015250565b5f611125602083610a2d565b9150611130826110f1565b602082019050919050565b5f6020820190508181035f83015261115281611119565b9050919050565b5f611163826109c5565b915061116e836109c5565b925082820390508181111561118657611185610f9a565b5b92915050565b5f611196826109c5565b91507fffffffffffffffffffffffffffffffffffffffffffffffffffffffffffffffff82036111c8576111c7610f9a565b5b600182019050919050565b5f819050815f5260205f209050919050565b5f6020601f8301049050919050565b5f82821b905092915050565b5f6008830261122f7fffffffffffffffffffffffffffffffffffffffffffffffffffffffffffffffff826111f4565b61123986836111f4565b95508019841693508086168417925050509392505050565b5f819050919050565b5f61127461126f61126a846109c5565b611251565b6109c5565b9050919050565b5f819050919050565b61128d8361125a565b6112a16112998261127b565b848454611200565b825550505050565b5f90565b6112b56112a9565b6112c0818484611284565b505050565b5b818110156112e3576112d85f826112ad565b6001810190506112c6565b5050565b601f821115611328576112f9816111d3565b611302846111e5565b81016020851015611311578190505b61132561131d856111e5565b8301826112c5565b50505b505050565b5f82821c905092915050565b5f6113485f198460080261132d565b1980831691505092915050565b5f6113608383611339565b9150826002028217905092915050565b61137982610a23565b67ffffffffffffffff81111561139257611391610cb2565b5b61139c8254610edc565b6113a78282856112e7565b5f60209050601f8311600181146113d8575f84156113c6578287015190505b6113d08582611355565b865550611437565b601f1984166113e6866111d3565b5f5b8281101561140d578489015182556001820191506020850194506020810190506113e8565b8683101561142a5784890151611426601f891682611339565b8355505b6001600288020188555050505b50505050505056fea2646970667358221220d7aee49d24abf1c350315c4924488803408bb207635a81d7c133e27a8bd92f6164736f6c634300081a0033",
					"opcodes": "PUSH1 0x80 PUSH1 0x40 MSTORE CALLVALUE DUP1 ISZERO PUSH1 0xE JUMPI PUSH0 DUP1 REVERT JUMPDEST POP PUSH2 0x1475 DUP1 PUSH2 0x1C PUSH0 CODECOPY PUSH0 RETURN INVALID PUSH1 0x80 PUSH1 0x40 MSTORE PUSH1 0x4 CALLDATASIZE LT PUSH2 0x7A JUMPI PUSH0 CALLDATALOAD PUSH1 0xE0 SHR DUP1 PUSH4 0x3132DDFE GT PUSH2 0x4D JUMPI DUP1 PUSH4 0x3132DDFE EQ PUSH2 0x140 JUMPI DUP1 PUSH4 0x3C8935B9 EQ PUSH2 0x17C JUMPI DUP1 PUSH4 0x8DA5CB5B EQ PUSH2 0x1A6 JUMPI DUP1 PUSH4 0xC013F8C7 EQ PUSH2 0x1D0 JUMPI PUSH2 0x7A JUMP JUMPDEST DUP1 PUSH4 0x1CFF85E1 EQ PUSH2 0x7E JUMPI DUP1 PUSH4 0x21E5383A EQ PUSH2 0xC0 JUMPI DUP1 PUSH4 0x27E235E3 EQ PUSH2 0xE8 JUMPI DUP1 PUSH4 0x2CDC2534 EQ PUSH2 0x124 JUMPI JUMPDEST PUSH0 DUP1 REVERT JUMPDEST CALLVALUE DUP1 ISZERO PUSH2 0x89 JUMPI PUSH0 DUP1 REVERT JUMPDEST POP PUSH2 0xA4 PUSH1 0x4 DUP1 CALLDATASIZE SUB DUP2 ADD SWAP1 PUSH2 0x9F SWAP2 SWAP1 PUSH2 0x9F8 JUMP JUMPDEST PUSH2 0x1F8 JUMP JUMPDEST PUSH1 0x40 MLOAD PUSH2 0xB7 SWAP8 SWAP7 SWAP6 SWAP5 SWAP4 SWAP3 SWAP2 SWAP1 PUSH2 0xB13 JUMP JUMPDEST PUSH1 0x40 MLOAD DUP1 SWAP2 SUB SWAP1 RETURN JUMPDEST CALLVALUE DUP1 ISZERO PUSH2 0xCB JUMPI PUSH0 DUP1 REVERT JUMPDEST POP PUSH2 0xE6 PUSH1 0x4 DUP1 CALLDATASIZE SUB DUP2 ADD SWAP1 PUSH2 0xE1 SWAP2 SWAP1 PUSH2 0xBB8 JUMP JUMPDEST PUSH2 0x36C JUMP JUMPDEST STOP JUMPDEST CALLVALUE DUP1 ISZERO PUSH2 0xF3 JUMPI PUSH0 DUP1 REVERT JUMPDEST POP PUSH2 0x10E PUSH1 0x4 DUP1 CALLDATASIZE SUB DUP2 ADD SWAP1 PUSH2 0x109 SWAP2 SWAP1 PUSH2 0xBF6 JUMP JUMPDEST PUSH2 0x4C3 JUMP JUMPDEST PUSH1 0x40 MLOAD PUSH2 0x11B SWAP2 SWAP1 PUSH2 0xC21 JUMP JUMPDEST PUSH1 0x40 MLOAD DUP1 SWAP2 SUB SWAP1 RETURN JUMPDEST PUSH2 0x13E PUSH1 0x4 DUP1 CALLDATASIZE SUB DUP2 ADD SWAP1 PUSH2 0x139 SWAP2 SWAP1 PUSH2 0xC3A JUMP JUMPDEST PUSH2 0x4D8 JUMP JUMPDEST STOP JUMPDEST CALLVALUE DUP1 ISZERO PUSH2 0x14B JUMPI PUSH0 DUP1 REVERT JUMPDEST POP PUSH2 0x166 PUSH1 0x4 DUP1 CALLDATASIZE SUB DUP2 ADD SWAP1 PUSH2 0x161 SWAP2 SWAP1 PUSH2 0x9F8 JUMP JUMPDEST PUSH2 0x854 JUMP JUMPDEST PUSH1 0x40 MLOAD PUSH2 0x173 SWAP2 SWAP1 PUSH2 0xC78 JUMP JUMPDEST PUSH1 0x40 MLOAD DUP1 SWAP2 SUB SWAP1 RETURN JUMPDEST CALLVALUE DUP1 ISZERO PUSH2 0x187 JUMPI PUSH0 DUP1 REVERT JUMPDEST POP PUSH2 0x190 PUSH2 0x8CC JUMP JUMPDEST PUSH1 0x40 MLOAD PUSH2 0x19D SWAP2 SWAP1 PUSH2 0xC21 JUMP JUMPDEST PUSH1 0x40 MLOAD DUP1 SWAP2 SUB SWAP1 RETURN JUMPDEST CALLVALUE DUP1 ISZERO PUSH2 0x1B1 JUMPI PUSH0 DUP1 REVERT JUMPDEST POP PUSH2 0x1BA PUSH2 0x8D2 JUMP JUMPDEST PUSH1 0x40 MLOAD PUSH2 0x1C7 SWAP2 SWAP1 PUSH2 0xC91 JUMP JUMPDEST PUSH1 0x40 MLOAD DUP1 SWAP2 SUB SWAP1 RETURN JUMPDEST CALLVALUE DUP1 ISZERO PUSH2 0x1DB JUMPI PUSH0 DUP1 REVERT JUMPDEST POP PUSH2 0x1F6 PUSH1 0x4 DUP1 CALLDATASIZE SUB DUP2 ADD SWAP1 PUSH2 0x1F1 SWAP2 SWAP1 PUSH2 0xE00 JUMP JUMPDEST PUSH2 0x8D9 JUMP JUMPDEST STOP JUMPDEST PUSH0 PUSH1 0x20 MSTORE DUP1 PUSH0 MSTORE PUSH1 0x40 PUSH0 KECCAK256 PUSH0 SWAP2 POP SWAP1 POP DUP1 PUSH0 ADD DUP1 SLOAD PUSH2 0x216 SWAP1 PUSH2 0xEDC JUMP JUMPDEST DUP1 PUSH1 0x1F ADD PUSH1 0x20 DUP1 SWAP2 DIV MUL PUSH1 0x20 ADD PUSH1 0x40 MLOAD SWAP1 DUP2 ADD PUSH1 0x40 MSTORE DUP1 SWAP3 SWAP2 SWAP1 DUP2 DUP2 MSTORE PUSH1 0x20 ADD DUP3 DUP1 SLOAD PUSH2 0x242 SWAP1 PUSH2 0xEDC JUMP JUMPDEST DUP1 ISZERO PUSH2 0x28D JUMPI DUP1 PUSH1 0x1F LT PUSH2 0x264 JUMPI PUSH2 0x100 DUP1 DUP4 SLOAD DIV MUL DUP4 MSTORE SWAP2 PUSH1 0x20 ADD SWAP2 PUSH2 0x28D JUMP JUMPDEST DUP3 ADD SWAP2 SWAP1 PUSH0 MSTORE PUSH1 0x20 PUSH0 KECCAK256 SWAP1 JUMPDEST DUP2 SLOAD DUP2 MSTORE SWAP1 PUSH1 0x1 ADD SWAP1 PUSH1 0x20 ADD DUP1 DUP4 GT PUSH2 0x270 JUMPI DUP3 SWAP1 SUB PUSH1 0x1F AND DUP3 ADD SWAP2 JUMPDEST POP POP POP POP POP SWAP1 DUP1 PUSH1 0x1 ADD DUP1 SLOAD PUSH2 0x2A2 SWAP1 PUSH2 0xEDC JUMP JUMPDEST DUP1 PUSH1 0x1F ADD PUSH1 0x20 DUP1 SWAP2 DIV MUL PUSH1 0x20 ADD PUSH1 0x40 MLOAD SWAP1 DUP2 ADD PUSH1 0x40 MSTORE DUP1 SWAP3 SWAP2 SWAP1 DUP2 DUP2 MSTORE PUSH1 0x20 ADD DUP3 DUP1 SLOAD PUSH2 0x2CE SWAP1 PUSH2 0xEDC JUMP JUMPDEST DUP1 ISZERO PUSH2 0x319 JUMPI DUP1 PUSH1 0x1F LT PUSH2 0x2F0 JUMPI PUSH2 0x100 DUP1 DUP4 SLOAD DIV MUL DUP4 MSTORE SWAP2 PUSH1 0x20 ADD SWAP2 PUSH2 0x319 JUMP JUMPDEST DUP3 ADD SWAP2 SWAP1 PUSH0 MSTORE PUSH1 0x20 PUSH0 KECCAK256 SWAP1 JUMPDEST DUP2 SLOAD DUP2 MSTORE SWAP1 PUSH1 0x1 ADD SWAP1 PUSH1 0x20 ADD DUP1 DUP4 GT PUSH2 0x2FC JUMPI DUP3 SWAP1 SUB PUSH1 0x1F AND DUP3 ADD SWAP2 JUMPDEST POP POP POP POP POP SWAP1 DUP1 PUSH1 0x2 ADD SLOAD SWAP1 DUP1 PUSH1 0x3 ADD PUSH0 SWAP1 SLOAD SWAP1 PUSH2 0x100 EXP SWAP1 DIV PUSH20 0xFFFFFFFFFFFFFFFFFFFFFFFFFFFFFFFFFFFFFFFF AND SWAP1 DUP1 PUSH1 0x4 ADD SLOAD SWAP1 DUP1 PUSH1 0x5 ADD SLOAD SWAP1 DUP1 PUSH1 0x6 ADD PUSH0 SWAP1 SLOAD SWAP1 PUSH2 0x100 EXP SWAP1 DIV PUSH1 0xFF AND SWAP1 POP DUP8 JUMP JUMPDEST PUSH2 0x374 PUSH2 0x8D2 JUMP JUMPDEST PUSH20 0xFFFFFFFFFFFFFFFFFFFFFFFFFFFFFFFFFFFFFFFF AND CALLER PUSH20 0xFFFFFFFFFFFFFFFFFFFFFFFFFFFFFFFFFFFFFFFF AND EQ PUSH2 0x3E1 JUMPI PUSH1 0x40 MLOAD PUSH32 0x8C379A000000000000000000000000000000000000000000000000000000000 DUP2 MSTORE PUSH1 0x4 ADD PUSH2 0x3D8 SWAP1 PUSH2 0xF7C JUMP JUMPDEST PUSH1 0x40 MLOAD DUP1 SWAP2 SUB SWAP1 REVERT JUMPDEST DUP1 PUSH1 0x2 PUSH0 DUP5 PUSH20 0xFFFFFFFFFFFFFFFFFFFFFFFFFFFFFFFFFFFFFFFF AND PUSH20 0xFFFFFFFFFFFFFFFFFFFFFFFFFFFFFFFFFFFFFFFF AND DUP2 MSTORE PUSH1 0x20 ADD SWAP1 DUP2 MSTORE PUSH1 0x20 ADD PUSH0 KECCAK256 PUSH0 DUP3 DUP3 SLOAD PUSH2 0x42D SWAP2 SWAP1 PUSH2 0xFC7 JUMP JUMPDEST SWAP3 POP POP DUP2 SWAP1 SSTORE POP DUP2 PUSH20 0xFFFFFFFFFFFFFFFFFFFFFFFFFFFFFFFFFFFFFFFF AND PUSH32 0x8AD64A0AC7700DD8425AB0499F107CB6E2CD1581D803C5B8C1C79DCB8190B1AF PUSH1 0x2 PUSH0 DUP6 PUSH20 0xFFFFFFFFFFFFFFFFFFFFFFFFFFFFFFFFFFFFFFFF AND PUSH20 0xFFFFFFFFFFFFFFFFFFFFFFFFFFFFFFFFFFFFFFFF AND DUP2 MSTORE PUSH1 0x20 ADD SWAP1 DUP2 MSTORE PUSH1 0x20 ADD PUSH0 KECCAK256 SLOAD PUSH1 0x40 MLOAD PUSH2 0x4B7 SWAP2 SWAP1 PUSH2 0xC21 JUMP JUMPDEST PUSH1 0x40 MLOAD DUP1 SWAP2 SUB SWAP1 LOG2 POP POP JUMP JUMPDEST PUSH1 0x2 PUSH1 0x20 MSTORE DUP1 PUSH0 MSTORE PUSH1 0x40 PUSH0 KECCAK256 PUSH0 SWAP2 POP SWAP1 POP SLOAD DUP2 JUMP JUMPDEST PUSH0 DUP1 PUSH0 DUP5 DUP2 MSTORE PUSH1 0x20 ADD SWAP1 DUP2 MSTORE PUSH1 0x20 ADD PUSH0 KECCAK256 SWAP1 POP DUP1 PUSH1 0x6 ADD PUSH0 SWAP1 SLOAD SWAP1 PUSH2 0x100 EXP SWAP1 DIV PUSH1 0xFF AND PUSH2 0x53B JUMPI PUSH1 0x40 MLOAD PUSH32 0x8C379A000000000000000000000000000000000000000000000000000000000 DUP2 MSTORE PUSH1 0x4 ADD PUSH2 0x532 SWAP1 PUSH2 0x1044 JUMP JUMPDEST PUSH1 0x40 MLOAD DUP1 SWAP2 SUB SWAP1 REVERT JUMPDEST PUSH32 0x63AF63BFCA569C48D057E33E64DD158F842CE6522D8DCD4B4A132FB07A458D1F CALLVALUE DUP3 PUSH1 0x2 ADD SLOAD PUSH1 0x40 MLOAD PUSH2 0x570 SWAP3 SWAP2 SWAP1 PUSH2 0x1062 JUMP JUMPDEST PUSH1 0x40 MLOAD DUP1 SWAP2 SUB SWAP1 LOG1 DUP1 PUSH1 0x2 ADD SLOAD CALLVALUE EQ PUSH2 0x5BE JUMPI PUSH1 0x40 MLOAD PUSH32 0x8C379A000000000000000000000000000000000000000000000000000000000 DUP2 MSTORE PUSH1 0x4 ADD PUSH2 0x5B5 SWAP1 PUSH2 0x10D3 JUMP JUMPDEST PUSH1 0x40 MLOAD DUP1 SWAP2 SUB SWAP1 REVERT JUMPDEST DUP2 PUSH1 0x2 PUSH0 CALLER PUSH20 0xFFFFFFFFFFFFFFFFFFFFFFFFFFFFFFFFFFFFFFFF AND PUSH20 0xFFFFFFFFFFFFFFFFFFFFFFFFFFFFFFFFFFFFFFFF AND DUP2 MSTORE PUSH1 0x20 ADD SWAP1 DUP2 MSTORE PUSH1 0x20 ADD PUSH0 KECCAK256 SLOAD LT ISZERO PUSH2 0x63E JUMPI PUSH1 0x40 MLOAD PUSH32 0x8C379A000000000000000000000000000000000000000000000000000000000 DUP2 MSTORE PUSH1 0x4 ADD PUSH2 0x635 SWAP1 PUSH2 0x113B JUMP JUMPDEST PUSH1 0x40 MLOAD DUP1 SWAP2 SUB SWAP1 REVERT JUMPDEST DUP2 PUSH1 0x2 PUSH0 CALLER PUSH20 0xFFFFFFFFFFFFFFFFFFFFFFFFFFFFFFFFFFFFFFFF AND PUSH20 0xFFFFFFFFFFFFFFFFFFFFFFFFFFFFFFFFFFFFFFFF AND DUP2 MSTORE PUSH1 0x20 ADD SWAP1 DUP2 MSTORE PUSH1 0x20 ADD PUSH0 KECCAK256 PUSH0 DUP3 DUP3 SLOAD PUSH2 0x68A SWAP2 SWAP1 PUSH2 0x1159 JUMP JUMPDEST SWAP3 POP POP DUP2 SWAP1 SSTORE POP PUSH1 0x1 DUP2 PUSH1 0x7 ADD PUSH0 CALLER PUSH20 0xFFFFFFFFFFFFFFFFFFFFFFFFFFFFFFFFFFFFFFFF AND PUSH20 0xFFFFFFFFFFFFFFFFFFFFFFFFFFFFFFFFFFFFFFFF AND DUP2 MSTORE PUSH1 0x20 ADD SWAP1 DUP2 MSTORE PUSH1 0x20 ADD PUSH0 KECCAK256 PUSH0 PUSH2 0x100 EXP DUP2 SLOAD DUP2 PUSH1 0xFF MUL NOT AND SWAP1 DUP4 ISZERO ISZERO MUL OR SWAP1 SSTORE POP DUP1 PUSH1 0x8 ADD CALLER SWAP1 DUP1 PUSH1 0x1 DUP2 SLOAD ADD DUP1 DUP3 SSTORE DUP1 SWAP2 POP POP PUSH1 0x1 SWAP1 SUB SWAP1 PUSH0 MSTORE PUSH1 0x20 PUSH0 KECCAK256 ADD PUSH0 SWAP1 SWAP2 SWAP1 SWAP2 SWAP1 SWAP2 PUSH2 0x100 EXP DUP2 SLOAD DUP2 PUSH20 0xFFFFFFFFFFFFFFFFFFFFFFFFFFFFFFFFFFFFFFFF MUL NOT AND SWAP1 DUP4 PUSH20 0xFFFFFFFFFFFFFFFFFFFFFFFFFFFFFFFFFFFFFFFF AND MUL OR SWAP1 SSTORE POP DUP1 PUSH1 0x3 ADD PUSH0 SWAP1 SLOAD SWAP1 PUSH2 0x100 EXP SWAP1 DIV PUSH20 0xFFFFFFFFFFFFFFFFFFFFFFFFFFFFFFFFFFFFFFFF AND PUSH20 0xFFFFFFFFFFFFFFFFFFFFFFFFFFFFFFFFFFFFFFFF AND PUSH2 0x8FC DUP4 SWAP1 DUP2 ISZERO MUL SWAP1 PUSH1 0x40 MLOAD PUSH0 PUSH1 0x40 MLOAD DUP1 DUP4 SUB DUP2 DUP6 DUP9 DUP9 CALL SWAP4 POP POP POP POP ISZERO DUP1 ISZERO PUSH2 0x7B0 JUMPI RETURNDATASIZE PUSH0 DUP1 RETURNDATACOPY RETURNDATASIZE PUSH0 REVERT JUMPDEST POP CALLER PUSH20 0xFFFFFFFFFFFFFFFFFFFFFFFFFFFFFFFFFFFFFFFF AND DUP4 PUSH32 0x709B48219C4B1CF38D85D4E8CF9BEFDEB3E2DC3F108255265283D92CA06001ED TIMESTAMP PUSH1 0x40 MLOAD PUSH2 0x7F8 SWAP2 SWAP1 PUSH2 0xC21 JUMP JUMPDEST PUSH1 0x40 MLOAD DUP1 SWAP2 SUB SWAP1 LOG3 DUP3 CALLER PUSH20 0xFFFFFFFFFFFFFFFFFFFFFFFFFFFFFFFFFFFFFFFF AND PUSH32 0x2F53958023D8CC3AAEDBBFA2938E126FE86AA44BC22B509FC80C38C7C0D37377 DUP5 PUSH1 0x40 MLOAD PUSH2 0x847 SWAP2 SWAP1 PUSH2 0xC21 JUMP JUMPDEST PUSH1 0x40 MLOAD DUP1 SWAP2 SUB SWAP1 LOG3 POP POP POP JUMP JUMPDEST PUSH0 DUP1 PUSH0 DUP1 DUP5 DUP2 MSTORE PUSH1 0x20 ADD SWAP1 DUP2 MSTORE PUSH1 0x20 ADD PUSH0 KECCAK256 SWAP1 POP DUP1 PUSH1 0x7 ADD PUSH0 CALLER PUSH20 0xFFFFFFFFFFFFFFFFFFFFFFFFFFFFFFFFFFFFFFFF AND PUSH20 0xFFFFFFFFFFFFFFFFFFFFFFFFFFFFFFFFFFFFFFFF AND DUP2 MSTORE PUSH1 0x20 ADD SWAP1 DUP2 MSTORE PUSH1 0x20 ADD PUSH0 KECCAK256 PUSH0 SWAP1 SLOAD SWAP1 PUSH2 0x100 EXP SWAP1 DIV PUSH1 0xFF AND DUP1 ISZERO PUSH2 0x8C4 JUMPI POP DUP1 PUSH1 0x5 ADD SLOAD TIMESTAMP GT ISZERO JUMPDEST SWAP2 POP POP SWAP2 SWAP1 POP JUMP JUMPDEST PUSH1 0x1 SLOAD DUP2 JUMP JUMPDEST PUSH0 CALLER SWAP1 POP SWAP1 JUMP JUMPDEST PUSH1 0x1 PUSH0 DUP2 SLOAD DUP1 SWAP3 SWAP2 SWAP1 PUSH2 0x8EB SWAP1 PUSH2 0x118C JUMP JUMPDEST SWAP2 SWAP1 POP SSTORE POP PUSH0 DUP1 PUSH0 PUSH1 0x1 SLOAD DUP2 MSTORE PUSH1 0x20 ADD SWAP1 DUP2 MSTORE PUSH1 0x20 ADD PUSH0 KECCAK256 SWAP1 POP DUP6 DUP2 PUSH0 ADD SWAP1 DUP2 PUSH2 0x915 SWAP2 SWAP1 PUSH2 0x1370 JUMP JUMPDEST POP DUP5 DUP2 PUSH1 0x1 ADD SWAP1 DUP2 PUSH2 0x927 SWAP2 SWAP1 PUSH2 0x1370 JUMP JUMPDEST POP DUP4 DUP2 PUSH1 0x2 ADD DUP2 SWAP1 SSTORE POP CALLER DUP2 PUSH1 0x3 ADD PUSH0 PUSH2 0x100 EXP DUP2 SLOAD DUP2 PUSH20 0xFFFFFFFFFFFFFFFFFFFFFFFFFFFFFFFFFFFFFFFF MUL NOT AND SWAP1 DUP4 PUSH20 0xFFFFFFFFFFFFFFFFFFFFFFFFFFFFFFFFFFFFFFFF AND MUL OR SWAP1 SSTORE POP DUP3 DUP2 PUSH1 0x4 ADD DUP2 SWAP1 SSTORE POP DUP2 TIMESTAMP PUSH2 0x988 SWAP2 SWAP1 PUSH2 0xFC7 JUMP JUMPDEST DUP2 PUSH1 0x5 ADD DUP2 SWAP1 SSTORE POP PUSH1 0x1 DUP2 PUSH1 0x6 ADD PUSH0 PUSH2 0x100 EXP DUP2 SLOAD DUP2 PUSH1 0xFF MUL NOT AND SWAP1 DUP4 ISZERO ISZERO MUL OR SWAP1 SSTORE POP POP POP POP POP POP POP JUMP JUMPDEST PUSH0 PUSH1 0x40 MLOAD SWAP1 POP SWAP1 JUMP JUMPDEST PUSH0 DUP1 REVERT JUMPDEST PUSH0 DUP1 REVERT JUMPDEST PUSH0 DUP2 SWAP1 POP SWAP2 SWAP1 POP JUMP JUMPDEST PUSH2 0x9D7 DUP2 PUSH2 0x9C5 JUMP JUMPDEST DUP2 EQ PUSH2 0x9E1 JUMPI PUSH0 DUP1 REVERT JUMPDEST POP JUMP JUMPDEST PUSH0 DUP2 CALLDATALOAD SWAP1 POP PUSH2 0x9F2 DUP2 PUSH2 0x9CE JUMP JUMPDEST SWAP3 SWAP2 POP POP JUMP JUMPDEST PUSH0 PUSH1 0x20 DUP3 DUP5 SUB SLT ISZERO PUSH2 0xA0D JUMPI PUSH2 0xA0C PUSH2 0x9BD JUMP JUMPDEST JUMPDEST PUSH0 PUSH2 0xA1A DUP5 DUP3 DUP6 ADD PUSH2 0x9E4 JUMP JUMPDEST SWAP2 POP POP SWAP3 SWAP2 POP POP JUMP JUMPDEST PUSH0 DUP2 MLOAD SWAP1 POP SWAP2 SWAP1 POP JUMP JUMPDEST PUSH0 DUP3 DUP3 MSTORE PUSH1 0x20 DUP3 ADD SWAP1 POP SWAP3 SWAP2 POP POP JUMP JUMPDEST DUP3 DUP2 DUP4 MCOPY PUSH0 DUP4 DUP4 ADD MSTORE POP POP POP JUMP JUMPDEST PUSH0 PUSH1 0x1F NOT PUSH1 0x1F DUP4 ADD AND SWAP1 POP SWAP2 SWAP1 POP JUMP JUMPDEST PUSH0 PUSH2 0xA65 DUP3 PUSH2 0xA23 JUMP JUMPDEST PUSH2 0xA6F DUP2 DUP6 PUSH2 0xA2D JUMP JUMPDEST SWAP4 POP PUSH2 0xA7F DUP2 DUP6 PUSH1 0x20 DUP7 ADD PUSH2 0xA3D JUMP JUMPDEST PUSH2 0xA88 DUP2 PUSH2 0xA4B JUMP JUMPDEST DUP5 ADD SWAP2 POP POP SWAP3 SWAP2 POP POP JUMP JUMPDEST PUSH2 0xA9C DUP2 PUSH2 0x9C5 JUMP JUMPDEST DUP3 MSTORE POP POP JUMP JUMPDEST PUSH0 PUSH20 0xFFFFFFFFFFFFFFFFFFFFFFFFFFFFFFFFFFFFFFFF DUP3 AND SWAP1 POP SWAP2 SWAP1 POP JUMP JUMPDEST PUSH0 PUSH2 0xACB DUP3 PUSH2 0xAA2 JUMP JUMPDEST SWAP1 POP SWAP2 SWAP1 POP JUMP JUMPDEST PUSH2 0xADB DUP2 PUSH2 0xAC1 JUMP JUMPDEST DUP3 MSTORE POP POP JUMP JUMPDEST PUSH0 DUP2 SWAP1 POP SWAP2 SWAP1 POP JUMP JUMPDEST PUSH2 0xAF3 DUP2 PUSH2 0xAE1 JUMP JUMPDEST DUP3 MSTORE POP POP JUMP JUMPDEST PUSH0 DUP2 ISZERO ISZERO SWAP1 POP SWAP2 SWAP1 POP JUMP JUMPDEST PUSH2 0xB0D DUP2 PUSH2 0xAF9 JUMP JUMPDEST DUP3 MSTORE POP POP JUMP JUMPDEST PUSH0 PUSH1 0xE0 DUP3 ADD SWAP1 POP DUP2 DUP2 SUB PUSH0 DUP4 ADD MSTORE PUSH2 0xB2B DUP2 DUP11 PUSH2 0xA5B JUMP JUMPDEST SWAP1 POP DUP2 DUP2 SUB PUSH1 0x20 DUP4 ADD MSTORE PUSH2 0xB3F DUP2 DUP10 PUSH2 0xA5B JUMP JUMPDEST SWAP1 POP PUSH2 0xB4E PUSH1 0x40 DUP4 ADD DUP9 PUSH2 0xA93 JUMP JUMPDEST PUSH2 0xB5B PUSH1 0x60 DUP4 ADD DUP8 PUSH2 0xAD2 JUMP JUMPDEST PUSH2 0xB68 PUSH1 0x80 DUP4 ADD DUP7 PUSH2 0xAEA JUMP JUMPDEST PUSH2 0xB75 PUSH1 0xA0 DUP4 ADD DUP6 PUSH2 0xA93 JUMP JUMPDEST PUSH2 0xB82 PUSH1 0xC0 DUP4 ADD DUP5 PUSH2 0xB04 JUMP JUMPDEST SWAP9 SWAP8 POP POP POP POP POP POP POP POP JUMP JUMPDEST PUSH2 0xB97 DUP2 PUSH2 0xAC1 JUMP JUMPDEST DUP2 EQ PUSH2 0xBA1 JUMPI PUSH0 DUP1 REVERT JUMPDEST POP JUMP JUMPDEST PUSH0 DUP2 CALLDATALOAD SWAP1 POP PUSH2 0xBB2 DUP2 PUSH2 0xB8E JUMP JUMPDEST SWAP3 SWAP2 POP POP JUMP JUMPDEST PUSH0 DUP1 PUSH1 0x40 DUP4 DUP6 SUB SLT ISZERO PUSH2 0xBCE JUMPI PUSH2 0xBCD PUSH2 0x9BD JUMP JUMPDEST JUMPDEST PUSH0 PUSH2 0xBDB DUP6 DUP3 DUP7 ADD PUSH2 0xBA4 JUMP JUMPDEST SWAP3 POP POP PUSH1 0x20 PUSH2 0xBEC DUP6 DUP3 DUP7 ADD PUSH2 0x9E4 JUMP JUMPDEST SWAP2 POP POP SWAP3 POP SWAP3 SWAP1 POP JUMP JUMPDEST PUSH0 PUSH1 0x20 DUP3 DUP5 SUB SLT ISZERO PUSH2 0xC0B JUMPI PUSH2 0xC0A PUSH2 0x9BD JUMP JUMPDEST JUMPDEST PUSH0 PUSH2 0xC18 DUP5 DUP3 DUP6 ADD PUSH2 0xBA4 JUMP JUMPDEST SWAP2 POP POP SWAP3 SWAP2 POP POP JUMP JUMPDEST PUSH0 PUSH1 0x20 DUP3 ADD SWAP1 POP PUSH2 0xC34 PUSH0 DUP4 ADD DUP5 PUSH2 0xA93 JUMP JUMPDEST SWAP3 SWAP2 POP POP JUMP JUMPDEST PUSH0 DUP1 PUSH1 0x40 DUP4 DUP6 SUB SLT ISZERO PUSH2 0xC50 JUMPI PUSH2 0xC4F PUSH2 0x9BD JUMP JUMPDEST JUMPDEST PUSH0 PUSH2 0xC5D DUP6 DUP3 DUP7 ADD PUSH2 0x9E4 JUMP JUMPDEST SWAP3 POP POP PUSH1 0x20 PUSH2 0xC6E DUP6 DUP3 DUP7 ADD PUSH2 0x9E4 JUMP JUMPDEST SWAP2 POP POP SWAP3 POP SWAP3 SWAP1 POP JUMP JUMPDEST PUSH0 PUSH1 0x20 DUP3 ADD SWAP1 POP PUSH2 0xC8B PUSH0 DUP4 ADD DUP5 PUSH2 0xB04 JUMP JUMPDEST SWAP3 SWAP2 POP POP JUMP JUMPDEST PUSH0 PUSH1 0x20 DUP3 ADD SWAP1 POP PUSH2 0xCA4 PUSH0 DUP4 ADD DUP5 PUSH2 0xAD2 JUMP JUMPDEST SWAP3 SWAP2 POP POP JUMP JUMPDEST PUSH0 DUP1 REVERT JUMPDEST PUSH0 DUP1 REVERT JUMPDEST PUSH32 0x4E487B7100000000000000000000000000000000000000000000000000000000 PUSH0 MSTORE PUSH1 0x41 PUSH1 0x4 MSTORE PUSH1 0x24 PUSH0 REVERT JUMPDEST PUSH2 0xCE8 DUP3 PUSH2 0xA4B JUMP JUMPDEST DUP2 ADD DUP2 DUP2 LT PUSH8 0xFFFFFFFFFFFFFFFF DUP3 GT OR ISZERO PUSH2 0xD07 JUMPI PUSH2 0xD06 PUSH2 0xCB2 JUMP JUMPDEST JUMPDEST DUP1 PUSH1 0x40 MSTORE POP POP POP JUMP JUMPDEST PUSH0 PUSH2 0xD19 PUSH2 0x9B4 JUMP JUMPDEST SWAP1 POP PUSH2 0xD25 DUP3 DUP3 PUSH2 0xCDF JUMP JUMPDEST SWAP2 SWAP1 POP JUMP JUMPDEST PUSH0 PUSH8 0xFFFFFFFFFFFFFFFF DUP3 GT ISZERO PUSH2 0xD44 JUMPI PUSH2 0xD43 PUSH2 0xCB2 JUMP JUMPDEST JUMPDEST PUSH2 0xD4D DUP3 PUSH2 0xA4B JUMP JUMPDEST SWAP1 POP PUSH1 0x20 DUP2 ADD SWAP1 POP SWAP2 SWAP1 POP JUMP JUMPDEST DUP3 DUP2 DUP4 CALLDATACOPY PUSH0 DUP4 DUP4 ADD MSTORE POP POP POP JUMP JUMPDEST PUSH0 PUSH2 0xD7A PUSH2 0xD75 DUP5 PUSH2 0xD2A JUMP JUMPDEST PUSH2 0xD10 JUMP JUMPDEST SWAP1 POP DUP3 DUP2 MSTORE PUSH1 0x20 DUP2 ADD DUP5 DUP5 DUP5 ADD GT ISZERO PUSH2 0xD96 JUMPI PUSH2 0xD95 PUSH2 0xCAE JUMP JUMPDEST JUMPDEST PUSH2 0xDA1 DUP5 DUP3 DUP6 PUSH2 0xD5A JUMP JUMPDEST POP SWAP4 SWAP3 POP POP POP JUMP JUMPDEST PUSH0 DUP3 PUSH1 0x1F DUP4 ADD SLT PUSH2 0xDBD JUMPI PUSH2 0xDBC PUSH2 0xCAA JUMP JUMPDEST JUMPDEST DUP2 CALLDATALOAD PUSH2 0xDCD DUP5 DUP3 PUSH1 0x20 DUP7 ADD PUSH2 0xD68 JUMP JUMPDEST SWAP2 POP POP SWAP3 SWAP2 POP POP JUMP JUMPDEST PUSH2 0xDDF DUP2 PUSH2 0xAE1 JUMP JUMPDEST DUP2 EQ PUSH2 0xDE9 JUMPI PUSH0 DUP1 REVERT JUMPDEST POP JUMP JUMPDEST PUSH0 DUP2 CALLDATALOAD SWAP1 POP PUSH2 0xDFA DUP2 PUSH2 0xDD6 JUMP JUMPDEST SWAP3 SWAP2 POP POP JUMP JUMPDEST PUSH0 DUP1 PUSH0 DUP1 PUSH0 PUSH1 0xA0 DUP7 DUP9 SUB SLT ISZERO PUSH2 0xE19 JUMPI PUSH2 0xE18 PUSH2 0x9BD JUMP JUMPDEST JUMPDEST PUSH0 DUP7 ADD CALLDATALOAD PUSH8 0xFFFFFFFFFFFFFFFF DUP2 GT ISZERO PUSH2 0xE36 JUMPI PUSH2 0xE35 PUSH2 0x9C1 JUMP JUMPDEST JUMPDEST PUSH2 0xE42 DUP9 DUP3 DUP10 ADD PUSH2 0xDA9 JUMP JUMPDEST SWAP6 POP POP PUSH1 0x20 DUP7 ADD CALLDATALOAD PUSH8 0xFFFFFFFFFFFFFFFF DUP2 GT ISZERO PUSH2 0xE63 JUMPI PUSH2 0xE62 PUSH2 0x9C1 JUMP JUMPDEST JUMPDEST PUSH2 0xE6F DUP9 DUP3 DUP10 ADD PUSH2 0xDA9 JUMP JUMPDEST SWAP5 POP POP PUSH1 0x40 PUSH2 0xE80 DUP9 DUP3 DUP10 ADD PUSH2 0x9E4 JUMP JUMPDEST SWAP4 POP POP PUSH1 0x60 PUSH2 0xE91 DUP9 DUP3 DUP10 ADD PUSH2 0xDEC JUMP JUMPDEST SWAP3 POP POP PUSH1 0x80 PUSH2 0xEA2 DUP9 DUP3 DUP10 ADD PUSH2 0x9E4 JUMP JUMPDEST SWAP2 POP POP SWAP3 SWAP6 POP SWAP3 SWAP6 SWAP1 SWAP4 POP JUMP JUMPDEST PUSH32 0x4E487B7100000000000000000000000000000000000000000000000000000000 PUSH0 MSTORE PUSH1 0x22 PUSH1 0x4 MSTORE PUSH1 0x24 PUSH0 REVERT JUMPDEST PUSH0 PUSH1 0x2 DUP3 DIV SWAP1 POP PUSH1 0x1 DUP3 AND DUP1 PUSH2 0xEF3 JUMPI PUSH1 0x7F DUP3 AND SWAP2 POP JUMPDEST PUSH1 0x20 DUP3 LT DUP2 SUB PUSH2 0xF06 JUMPI PUSH2 0xF05 PUSH2 0xEAF JUMP JUMPDEST JUMPDEST POP SWAP2 SWAP1 POP JUMP JUMPDEST PUSH32 0x536F6D656E7465206F20646F6E6F20706F64652061646963696F6E6172207361 PUSH0 DUP3 ADD MSTORE PUSH32 0x6C646F2E00000000000000000000000000000000000000000000000000000000 PUSH1 0x20 DUP3 ADD MSTORE POP JUMP JUMPDEST PUSH0 PUSH2 0xF66 PUSH1 0x24 DUP4 PUSH2 0xA2D JUMP JUMPDEST SWAP2 POP PUSH2 0xF71 DUP3 PUSH2 0xF0C JUMP JUMPDEST PUSH1 0x40 DUP3 ADD SWAP1 POP SWAP2 SWAP1 POP JUMP JUMPDEST PUSH0 PUSH1 0x20 DUP3 ADD SWAP1 POP DUP2 DUP2 SUB PUSH0 DUP4 ADD MSTORE PUSH2 0xF93 DUP2 PUSH2 0xF5A JUMP JUMPDEST SWAP1 POP SWAP2 SWAP1 POP JUMP JUMPDEST PUSH32 0x4E487B7100000000000000000000000000000000000000000000000000000000 PUSH0 MSTORE PUSH1 0x11 PUSH1 0x4 MSTORE PUSH1 0x24 PUSH0 REVERT JUMPDEST PUSH0 PUSH2 0xFD1 DUP3 PUSH2 0x9C5 JUMP JUMPDEST SWAP2 POP PUSH2 0xFDC DUP4 PUSH2 0x9C5 JUMP JUMPDEST SWAP3 POP DUP3 DUP3 ADD SWAP1 POP DUP1 DUP3 GT ISZERO PUSH2 0xFF4 JUMPI PUSH2 0xFF3 PUSH2 0xF9A JUMP JUMPDEST JUMPDEST SWAP3 SWAP2 POP POP JUMP JUMPDEST PUSH32 0x457374652064617461736574206E616F206573746120612076656E64612E0000 PUSH0 DUP3 ADD MSTORE POP JUMP JUMPDEST PUSH0 PUSH2 0x102E PUSH1 0x1E DUP4 PUSH2 0xA2D JUMP JUMPDEST SWAP2 POP PUSH2 0x1039 DUP3 PUSH2 0xFFA JUMP JUMPDEST PUSH1 0x20 DUP3 ADD SWAP1 POP SWAP2 SWAP1 POP JUMP JUMPDEST PUSH0 PUSH1 0x20 DUP3 ADD SWAP1 POP DUP2 DUP2 SUB PUSH0 DUP4 ADD MSTORE PUSH2 0x105B DUP2 PUSH2 0x1022 JUMP JUMPDEST SWAP1 POP SWAP2 SWAP1 POP JUMP JUMPDEST PUSH0 PUSH1 0x40 DUP3 ADD SWAP1 POP PUSH2 0x1075 PUSH0 DUP4 ADD DUP6 PUSH2 0xA93 JUMP JUMPDEST PUSH2 0x1082 PUSH1 0x20 DUP4 ADD DUP5 PUSH2 0xA93 JUMP JUMPDEST SWAP4 SWAP3 POP POP POP JUMP JUMPDEST PUSH32 0x56616C6F7220696E636F727265746F207061726120636F6D7072612E00000000 PUSH0 DUP3 ADD MSTORE POP JUMP JUMPDEST PUSH0 PUSH2 0x10BD PUSH1 0x1C DUP4 PUSH2 0xA2D JUMP JUMPDEST SWAP2 POP PUSH2 0x10C8 DUP3 PUSH2 0x1089 JUMP JUMPDEST PUSH1 0x20 DUP3 ADD SWAP1 POP SWAP2 SWAP1 POP JUMP JUMPDEST PUSH0 PUSH1 0x20 DUP3 ADD SWAP1 POP DUP2 DUP2 SUB PUSH0 DUP4 ADD MSTORE PUSH2 0x10EA DUP2 PUSH2 0x10B1 JUMP JUMPDEST SWAP1 POP SWAP2 SWAP1 POP JUMP JUMPDEST PUSH32 0x53616C646F20696E737566696369656E7465207061726120636F6D707261722E PUSH0 DUP3 ADD MSTORE POP JUMP JUMPDEST PUSH0 PUSH2 0x1125 PUSH1 0x20 DUP4 PUSH2 0xA2D JUMP JUMPDEST SWAP2 POP PUSH2 0x1130 DUP3 PUSH2 0x10F1 JUMP JUMPDEST PUSH1 0x20 DUP3 ADD SWAP1 POP SWAP2 SWAP1 POP JUMP JUMPDEST PUSH0 PUSH1 0x20 DUP3 ADD SWAP1 POP DUP2 DUP2 SUB PUSH0 DUP4 ADD MSTORE PUSH2 0x1152 DUP2 PUSH2 0x1119 JUMP JUMPDEST SWAP1 POP SWAP2 SWAP1 POP JUMP JUMPDEST PUSH0 PUSH2 0x1163 DUP3 PUSH2 0x9C5 JUMP JUMPDEST SWAP2 POP PUSH2 0x116E DUP4 PUSH2 0x9C5 JUMP JUMPDEST SWAP3 POP DUP3 DUP3 SUB SWAP1 POP DUP2 DUP2 GT ISZERO PUSH2 0x1186 JUMPI PUSH2 0x1185 PUSH2 0xF9A JUMP JUMPDEST JUMPDEST SWAP3 SWAP2 POP POP JUMP JUMPDEST PUSH0 PUSH2 0x1196 DUP3 PUSH2 0x9C5 JUMP JUMPDEST SWAP2 POP PUSH32 0xFFFFFFFFFFFFFFFFFFFFFFFFFFFFFFFFFFFFFFFFFFFFFFFFFFFFFFFFFFFFFFFF DUP3 SUB PUSH2 0x11C8 JUMPI PUSH2 0x11C7 PUSH2 0xF9A JUMP JUMPDEST JUMPDEST PUSH1 0x1 DUP3 ADD SWAP1 POP SWAP2 SWAP1 POP JUMP JUMPDEST PUSH0 DUP2 SWAP1 POP DUP2 PUSH0 MSTORE PUSH1 0x20 PUSH0 KECCAK256 SWAP1 POP SWAP2 SWAP1 POP JUMP JUMPDEST PUSH0 PUSH1 0x20 PUSH1 0x1F DUP4 ADD DIV SWAP1 POP SWAP2 SWAP1 POP JUMP JUMPDEST PUSH0 DUP3 DUP3 SHL SWAP1 POP SWAP3 SWAP2 POP POP JUMP JUMPDEST PUSH0 PUSH1 0x8 DUP4 MUL PUSH2 0x122F PUSH32 0xFFFFFFFFFFFFFFFFFFFFFFFFFFFFFFFFFFFFFFFFFFFFFFFFFFFFFFFFFFFFFFFF DUP3 PUSH2 0x11F4 JUMP JUMPDEST PUSH2 0x1239 DUP7 DUP4 PUSH2 0x11F4 JUMP JUMPDEST SWAP6 POP DUP1 NOT DUP5 AND SWAP4 POP DUP1 DUP7 AND DUP5 OR SWAP3 POP POP POP SWAP4 SWAP3 POP POP POP JUMP JUMPDEST PUSH0 DUP2 SWAP1 POP SWAP2 SWAP1 POP JUMP JUMPDEST PUSH0 PUSH2 0x1274 PUSH2 0x126F PUSH2 0x126A DUP5 PUSH2 0x9C5 JUMP JUMPDEST PUSH2 0x1251 JUMP JUMPDEST PUSH2 0x9C5 JUMP JUMPDEST SWAP1 POP SWAP2 SWAP1 POP JUMP JUMPDEST PUSH0 DUP2 SWAP1 POP SWAP2 SWAP1 POP JUMP JUMPDEST PUSH2 0x128D DUP4 PUSH2 0x125A JUMP JUMPDEST PUSH2 0x12A1 PUSH2 0x1299 DUP3 PUSH2 0x127B JUMP JUMPDEST DUP5 DUP5 SLOAD PUSH2 0x1200 JUMP JUMPDEST DUP3 SSTORE POP POP POP POP JUMP JUMPDEST PUSH0 SWAP1 JUMP JUMPDEST PUSH2 0x12B5 PUSH2 0x12A9 JUMP JUMPDEST PUSH2 0x12C0 DUP2 DUP5 DUP5 PUSH2 0x1284 JUMP JUMPDEST POP POP POP JUMP JUMPDEST JUMPDEST DUP2 DUP2 LT ISZERO PUSH2 0x12E3 JUMPI PUSH2 0x12D8 PUSH0 DUP3 PUSH2 0x12AD JUMP JUMPDEST PUSH1 0x1 DUP2 ADD SWAP1 POP PUSH2 0x12C6 JUMP JUMPDEST POP POP JUMP JUMPDEST PUSH1 0x1F DUP3 GT ISZERO PUSH2 0x1328 JUMPI PUSH2 0x12F9 DUP2 PUSH2 0x11D3 JUMP JUMPDEST PUSH2 0x1302 DUP5 PUSH2 0x11E5 JUMP JUMPDEST DUP2 ADD PUSH1 0x20 DUP6 LT ISZERO PUSH2 0x1311 JUMPI DUP2 SWAP1 POP JUMPDEST PUSH2 0x1325 PUSH2 0x131D DUP6 PUSH2 0x11E5 JUMP JUMPDEST DUP4 ADD DUP3 PUSH2 0x12C5 JUMP JUMPDEST POP POP JUMPDEST POP POP POP JUMP JUMPDEST PUSH0 DUP3 DUP3 SHR SWAP1 POP SWAP3 SWAP2 POP POP JUMP JUMPDEST PUSH0 PUSH2 0x1348 PUSH0 NOT DUP5 PUSH1 0x8 MUL PUSH2 0x132D JUMP JUMPDEST NOT DUP1 DUP4 AND SWAP2 POP POP SWAP3 SWAP2 POP POP JUMP JUMPDEST PUSH0 PUSH2 0x1360 DUP4 DUP4 PUSH2 0x1339 JUMP JUMPDEST SWAP2 POP DUP3 PUSH1 0x2 MUL DUP3 OR SWAP1 POP SWAP3 SWAP2 POP POP JUMP JUMPDEST PUSH2 0x1379 DUP3 PUSH2 0xA23 JUMP JUMPDEST PUSH8 0xFFFFFFFFFFFFFFFF DUP2 GT ISZERO PUSH2 0x1392 JUMPI PUSH2 0x1391 PUSH2 0xCB2 JUMP JUMPDEST JUMPDEST PUSH2 0x139C DUP3 SLOAD PUSH2 0xEDC JUMP JUMPDEST PUSH2 0x13A7 DUP3 DUP3 DUP6 PUSH2 0x12E7 JUMP JUMPDEST PUSH0 PUSH1 0x20 SWAP1 POP PUSH1 0x1F DUP4 GT PUSH1 0x1 DUP2 EQ PUSH2 0x13D8 JUMPI PUSH0 DUP5 ISZERO PUSH2 0x13C6 JUMPI DUP3 DUP8 ADD MLOAD SWAP1 POP JUMPDEST PUSH2 0x13D0 DUP6 DUP3 PUSH2 0x1355 JUMP JUMPDEST DUP7 SSTORE POP PUSH2 0x1437 JUMP JUMPDEST PUSH1 0x1F NOT DUP5 AND PUSH2 0x13E6 DUP7 PUSH2 0x11D3 JUMP JUMPDEST PUSH0 JUMPDEST DUP3 DUP2 LT ISZERO PUSH2 0x140D JUMPI DUP5 DUP10 ADD MLOAD DUP3 SSTORE PUSH1 0x1 DUP3 ADD SWAP2 POP PUSH1 0x20 DUP6 ADD SWAP5 POP PUSH1 0x20 DUP2 ADD SWAP1 POP PUSH2 0x13E8 JUMP JUMPDEST DUP7 DUP4 LT ISZERO PUSH2 0x142A JUMPI DUP5 DUP10 ADD MLOAD PUSH2 0x1426 PUSH1 0x1F DUP10 AND DUP3 PUSH2 0x1339 JUMP JUMPDEST DUP4 SSTORE POP JUMPDEST PUSH1 0x1 PUSH1 0x2 DUP9 MUL ADD DUP9 SSTORE POP POP POP JUMPDEST POP POP POP POP POP POP JUMP INVALID LOG2 PUSH5 0x6970667358 0x22 SLT KECCAK256 0xD7 0xAE 0xE4 SWAP14 0x24 0xAB CALL 0xC3 POP BALANCE TLOAD BLOBHASH 0x24 BASEFEE DUP9 SUB BLOCKHASH DUP12 0xB2 SMOD PUSH4 0x5A81D7C1 CALLER 0xE2 PUSH27 0x8BD92F6164736F6C634300081A0033000000000000000000000000 "
				},
				"gasEstimates": {
					"creation": {
						"codeDepositCost": "1047400",
						"executionCost": "1085",
						"totalCost": "1048485"
					},
					"external": {
						"addBalance(address,uint256)": "infinite",
						"balances(address)": "2847",
						"buyAccess(uint256,uint256)": "infinite",
						"datasetCount()": "2447",
						"datasets(uint256)": "infinite",
						"hasAccess(uint256)": "5055",
						"owner()": "423",
						"registerDataset(string,string,uint256,bytes32,uint256)": "infinite"
					}
				},
				"methodIdentifiers": {
					"addBalance(address,uint256)": "21e5383a",
					"balances(address)": "27e235e3",
					"buyAccess(uint256,uint256)": "2cdc2534",
					"datasetCount()": "3c8935b9",
					"datasets(uint256)": "1cff85e1",
					"hasAccess(uint256)": "3132ddfe",
					"owner()": "8da5cb5b",
					"registerDataset(string,string,uint256,bytes32,uint256)": "c013f8c7"
				}
			},
			"storageLayout": {
				"storage": [
					{
						"astId": 28,
						"contract": "contracts/DataTokenization.sol:DataTokenization",
						"label": "datasets",
						"offset": 0,
						"slot": "0",
						"type": "t_mapping(t_uint256,t_struct(Dataset)23_storage)"
					},
					{
						"astId": 30,
						"contract": "contracts/DataTokenization.sol:DataTokenization",
						"label": "datasetCount",
						"offset": 0,
						"slot": "1",
						"type": "t_uint256"
					},
					{
						"astId": 34,
						"contract": "contracts/DataTokenization.sol:DataTokenization",
						"label": "balances",
						"offset": 0,
						"slot": "2",
						"type": "t_mapping(t_address,t_uint256)"
					}
				],
				"types": {
					"t_address": {
						"encoding": "inplace",
						"label": "address",
						"numberOfBytes": "20"
					},
					"t_array(t_address)dyn_storage": {
						"base": "t_address",
						"encoding": "dynamic_array",
						"label": "address[]",
						"numberOfBytes": "32"
					},
					"t_bool": {
						"encoding": "inplace",
						"label": "bool",
						"numberOfBytes": "1"
					},
					"t_bytes32": {
						"encoding": "inplace",
						"label": "bytes32",
						"numberOfBytes": "32"
					},
					"t_mapping(t_address,t_bool)": {
						"encoding": "mapping",
						"key": "t_address",
						"label": "mapping(address => bool)",
						"numberOfBytes": "32",
						"value": "t_bool"
					},
					"t_mapping(t_address,t_uint256)": {
						"encoding": "mapping",
						"key": "t_address",
						"label": "mapping(address => uint256)",
						"numberOfBytes": "32",
						"value": "t_uint256"
					},
					"t_mapping(t_uint256,t_struct(Dataset)23_storage)": {
						"encoding": "mapping",
						"key": "t_uint256",
						"label": "mapping(uint256 => struct DataTokenization.Dataset)",
						"numberOfBytes": "32",
						"value": "t_struct(Dataset)23_storage"
					},
					"t_string_storage": {
						"encoding": "bytes",
						"label": "string",
						"numberOfBytes": "32"
					},
					"t_struct(Dataset)23_storage": {
						"encoding": "inplace",
						"label": "struct DataTokenization.Dataset",
						"members": [
							{
								"astId": 3,
								"contract": "contracts/DataTokenization.sol:DataTokenization",
								"label": "name",
								"offset": 0,
								"slot": "0",
								"type": "t_string_storage"
							},
							{
								"astId": 5,
								"contract": "contracts/DataTokenization.sol:DataTokenization",
								"label": "description",
								"offset": 0,
								"slot": "1",
								"type": "t_string_storage"
							},
							{
								"astId": 7,
								"contract": "contracts/DataTokenization.sol:DataTokenization",
								"label": "price",
								"offset": 0,
								"slot": "2",
								"type": "t_uint256"
							},
							{
								"astId": 9,
								"contract": "contracts/DataTokenization.sol:DataTokenization",
								"label": "owner",
								"offset": 0,
								"slot": "3",
								"type": "t_address"
							},
							{
								"astId": 11,
								"contract": "contracts/DataTokenization.sol:DataTokenization",
								"label": "encryptedHash",
								"offset": 0,
								"slot": "4",
								"type": "t_bytes32"
							},
							{
								"astId": 13,
								"contract": "contracts/DataTokenization.sol:DataTokenization",
								"label": "expiryTime",
								"offset": 0,
								"slot": "5",
								"type": "t_uint256"
							},
							{
								"astId": 15,
								"contract": "contracts/DataTokenization.sol:DataTokenization",
								"label": "isForSale",
								"offset": 0,
								"slot": "6",
								"type": "t_bool"
							},
							{
								"astId": 19,
								"contract": "contracts/DataTokenization.sol:DataTokenization",
								"label": "authorizedUsers",
								"offset": 0,
								"slot": "7",
								"type": "t_mapping(t_address,t_bool)"
							},
							{
								"astId": 22,
								"contract": "contracts/DataTokenization.sol:DataTokenization",
								"label": "accessHistory",
								"offset": 0,
								"slot": "8",
								"type": "t_array(t_address)dyn_storage"
							}
						],
						"numberOfBytes": "288"
					},
					"t_uint256": {
						"encoding": "inplace",
						"label": "uint256",
						"numberOfBytes": "32"
					}
				}
			},
			"userdoc": {
				"kind": "user",
				"methods": {},
				"version": 1
			}
		}
	}
}